:020000021000EC
:10020000F80B0020690801003D090100A547010025
:10021000C5470100E54701002548010005480100E8
:100220000000000000000000000000005116010066
:100230003D090100000000003D0901003D090100E9
:10024000000000000000000000000000312201005A
:10025000000000003D090100000000000000000057
:100260003D0901003D0901003D0901003D09010072
:10027000000000003D0901003D0901003D090100A9
:100280003D0901003D0901000000000000000000E0
:100290003D0901003D0901000000000000000000D0
:1002A0003D09010000000000000000003D090100C0
:1002B0003D0901003D0901003D0901003D09010022
:1002C0003D0901003D0901003D0901003D09010012
:1002D0003D090100000000003D0901000000000090
:1002E0003D090100000000003D0901000000000080
:1002F0003D090100000000000000000000000000B7
:10030000000000003D0901000000000000000000A6
:1003100000000000000000000000000000000000DD
:10032000000000003D090100000000000000000086
:1003300000000000000000000000000000000000BD
:040340003D09010072
:1003440000015F5F00000000FE0B00002D1701009C
:100354008006000000000000000000000000000013
:100364000000000000000000001200200000000057
:1003740001015F5F030100001F0100008506010009
:100384000000000000000000010000000100000067
:100394000000000000000000000000000000000059
:1003A40070000000144C010080000000000F0000E9
:1003B40001000000D104010001015F5F040100009D
:1003C4001F010000F307010000000000000000000E
:1003D4000000000001000000000000000000000018
:1003E40000000000000000001F4C0100400000005D
:0C03F4000507000001000000DF0601000A
:1004000038B50025054C29462046D4F80024C4F808
:10041000045404F03AFAC4F8005438BD200C00200B
:1004200013B511460022CDE9002242680346382A5E
:10043000046844D194F82820022A19D01AB900F08F
:1004400047F902B010BD21482468D0F80404013AED
:10045000CDE90040082A35D8DFE802F0050A0E137E
:10046000181D22272C006A46184600F02EF9E8E7EE
:10047000184600F018F9E4E76A46184600F016F945
:10048000DFE76A46184600F00BF9DAE76A461846D5
:1004900000F00FF9D5E76A46184600F00DF9D0E7ED
:1004A0006A46184600F00BF9CBE76A46184600F09A
:1004B00009F9C6E76A46184600F00EF9C1E76FF081
:1004C0008000BEE76FF08500BBE700BF200C002076
:1004D0002DE9F04F05680446A1B0002D40F0AA8038
:1004E0002022294602A804F0D0F912AF2022294682
:1004F0000AA804F0CAF938222946384604F0C5F99A
:10050000E26904F11C039846B2B10426E26A04F1E0
:100510002C03EAB10425EEB96FF08306304621B012
:10052000BDE8F08F002EF1D053F8041D3246013E95
:100530000029F7D01646E9E70326F5E7002DEAD0B3
:1005400053F8041D2A46013D0029F7D01546E2E77D
:100550000325F5E738233A460021606804F0D2F914
:100560003828D9D14FF00109CDE90270334F0DF190
:10057000080A04F1100B4E45D7F800141CD10DF1F8
:1005800028094B46002008EB850EC64533D108B13B
:10059000C7F80014A3683146C7F804340AAA2B46EA
:1005A00002A8FFF73DFF00270646BD4209F10809F2
:1005B00038D1FFF725FFB1E75BF8043FC1F5806252
:1005C000D81C20F00300904204D9FFF719FF6FF008
:1005D0008C06A3E70844CA19C7F8000449466068B6
:1005E000019204F08FF9019ACAF80C0009F101098F
:1005F0004AF8082FBFE758F804CFC1F5806A0CF11C
:10060000030222F00302524503F1080305D87818CB
:1006100043E9020C11440120B7E70028D5D0C7F800
:100620000014D2E7394659E90223606804F07FF9E3
:100630000137BAE76FF0850670E700BF200C002095
:1006400008B528220021024804F01FF9002008BD47
:100650002810002010B5044C0F222046034904F056
:10066000EFF8204610BD00BF51100020F607010032
:1006700008B50121024802F0D1F8002008BD00BFF2
:100680005010002008B5FFF7DBFF40B9FFF7E2FF8D
:10069000FFF7EEFF18B9BDE8084002F02DB908BD1C
:1006A0006FF0850070476FF0850070476FF0850030
:1006B00070476FF0850070476FF0850070476FF0EE
:1006C000850070476FF0850070476FF085007047B8
:1006D000D1E9000102F0F0B86FF085007047F0B585
:1006E00003680546B3F57D7FA7B007D040F2F53229
:1006F000934207D06FF0850027B0F0BD00F08EFC6C
:100700000020F9E700243C22214607A8CDE9024455
:10071000CDE90444069404F0B8F83C22214617A819
:10072000169404F0B2F8EA69019405F11C0302B3CF
:100730000426EA6A05F12C033AB30424731E012B44
:1007400052D8012C50D80423002168680DEB030215
:1007500004F0D8F804281AD06FF08000CCE7002EFF
:10076000E7D053F8041D3246013E0029F7D0164663
:10077000DFE70326F5E7002CE0D053F8041D2246FE
:10078000013C0029F7D01446D8E70324F5E7022EF0
:1007900016D16E69402E29D806AF33463A4601215C
:1007A000686804F0AFF88642D6D1CDE9027602A996
:1007B00044B92246019800F005FD044620469BE717
:1007C0000021F5E72B6A402BC6D816AACDE90423F1
:1007D000019804AA00F0F6FCDDE904230446002198
:1007E000686804F0A4F8E9E7012085E76FF0890064
:1007F00082E7002070474D62656420544C532033DB
:100800002E352E3000000000000000000000000027
:1008100000000000000000000000000000000000D8
:08082000D41C000001000000DF
:10082800407C0100801000203F000000407C010057
:10083800200C002000000000407C0100000C00207B
:10084800000000007C110020AA050000200C0020F8
:1008580018010000000C00200800000001F01CBB7B
:1008680008B572B6002383F31488BFF36F8F83F340
:100878000A8883F30B88BFF35F8F254B5A6A22F4EB
:1008880080325A62D3F8942022F00102C3F89420EF
:10089800BFF34F8FBFF36F8F1E4A9A6000F058F86E
:1008A8001D4B83F309881D4B83F30A8883F30B8858
:1008B8001B4B15A1D1E90001C3E9000100F0EEF8D6
:1008C800184B19498B4212D30020184B18498B42F8
:1008D80018D301F00FFE186850F82240586840F805
:1008E8002240013298688242F5D30C33EAE70022AD
:1008F800F8E71C6844F8220001325C68A242F8D389
:100908000833E4E70022F8E7A5EDF5FEA5EDF5FECE
:1009180000ED00E000020100F80B002000040020B8
:10092800F80B0020280801004C0801004C080100C1
:1009380064080100EFF30880EFF309812DE9F00F57
:100948006B46724600F078F908B0FFF787FFFEE7BC
:1009580038B572B6002383F3138883F311884FF0F8
:10096800FF30274A03F120010133102B42F8210000
:10097800F8D100234FF0FF34214A03F1600101331D
:10098800102B42F82140F8D1012200251D4B2946A1
:100998005A60C3F84843C3F8084303F580535A60C4
:1009A800C3F84843C3F80843A3F55043C3F80055B8
:1009B8008022C3F80843144803F063FF29468022C5
:1009C800124803F05EFF124B2946C3F800558022F7
:1009D800C3F808430F4803F054FF802229460E4805
:1009E80003F04FFF0D4BC3F808454FF05023C3F8F1
:1009F800084362B6BFF34F8FBFF36F8F38BD00BF98
:100A080000E100E0004001508080005080810050EB
:100A1800009000508090005080910050007001506C
:100A280008B5EFF31083012B0C4A07D1126ABFF304
:100A38004F8F511C4A424A41104608BD00F02CFB1A
:100A480000B172B6126ABFF34F8F531C5A425A4113
:100A580000F022FB0028EFD062B6EDE70080FF002F
:100A680008B5EFF31083012B0B4A06D1D269BFF307
:100A78004F8F02F00102104608BD00F00DFB00B1D7
:100A880072B6D269BFF34F8F02F0010200F004FB87
:100A98000028F0D062B6EEE70080FF005D4A10B58E
:100AA800D2F8D03043F00203C2F8D03000F0F4FAA4
:100AB80030B14FF050230022C3F81421C3F8182195
:100AC80000F0F9FA28B10122534BC3F8382AC3F8C9
:100AD80078254FF47F02D2F83031D2F83421BFF3B1
:100AE8004F8FC3F30B03092B05D1012A1EBF012227
:100AF800494BC3F8782500F0DEFA18B10E22474BAF
:100B0800C3F8E42E00F0C8FA30B10022424BC3F813
:100B18000C270122C3F810270022D30003F57F0316
:100B2800D3F80013BFF34F8F013108D0D3F8001367
:100B38000132D3F80433B2F5807F0B60EDD1EFF3C7
:100B48001084FFF78DFF00284DD0BFF34F8F344B33
:100B5800D3F80024012AFBD1C3F80425D3F80024D4
:100B6800012AFBD1012C03D000F096FA00B172B62D
:100B7800FFF776FF58B12B4AD36923F00103D361FD
:100B8800BFF34F8F264AD2F80034012BFBD1FFF771
:100B980047FF68B1234A136A23F0FF0343F0200399
:100BA8001362BFF34F8F1E4AD2F80034012BFBD1DA
:100BB800012C03D000F070FA00B162B60022184B85
:100BC800C3F80425D3F80024012AFBD1BFF34F8FC3
:100BD8001049154BCA6802F4E0621343CB60BFF3B7
:100BE8004F8F00BFFDE7FFF71BFF0028ADD1094B72
:100BF800D3F88C2042F44062C3F88C20D3F88820C4
:100C080042F47002C3F88820BFF34F8FBFF36F8F91
:100C180010BD00BF00ED00E00040005000A00350F0
:100C2800009003500080FF000400FA057C2201496F
:100C380003F002BE9C18002038B51D46214B224CFB
:100C48005B68C3F308032360EFF30383C4E901205F
:100C58006365C2F3801302F00C020C2AE1602AD10A
:100C68000BB9EFF3898120221848216103F0E4FDD4
:100C780025B120222946164803F0DEFD114B9A6A59
:100C8800A265D96AE165986B206602F40040606647
:100C9800586BA06602F08000E0669A62D962D3F8C9
:100CA800E4202267D3F8E810616702F04001A167E9
:100CB800C3F8E42038BD13B9EFF38881D3E70146C0
:100CC800D1E700BF00ED00E09C180020B01800201C
:100CD800D0180020003A18BF0122003918BF01219E
:100CE80003688900074841EA4201186359605A6855
:100CF80042F001025A60BFF34F8FBFF36F8F00209D
:100D0800704700BF04AAFF000722024BC3F8042360
:100D1800704700BF00300050084BD3F80801D3F8E3
:100D28000021003818BF012080000AB140F00100FE
:100D3800D3F804310BB140F0020070470030005086
:100D48000022074BC3F80021D3F80011C3F804218F
:100D5800D3F80411C3F80821D3F80831704700BF4D
:100D680000300050002317200C49012B03F1010229
:100D780001D81346F9E703F5C073202A41F8230088
:100D88001346F2D100231720044A03F5E07101331A
:100D9800202B42F82100F8D1704700BF00300050E6
:100DA80010B59DF80840C00B43EA0423064CC90B54
:100DB80043EA0213884200D910BDC2B202F5C072DC
:100DC80044F822300130F5E70030005010B59DF8A6
:100DD800084000F1604043EA042301F16041074CF8
:100DE800400B490B43EA0213884200D910BDC2B236
:100DF80002F5E07244F822300130F5E70030005087
:100E0800C0F30E03C3F50043B3FA83F3C3F11B0326
:100E1800064AC0F3C730DBB240F4807043F48073F5
:100E2800C2F80005C2F80435704700BF0030005012
:100E38004303014818447047FF1FF81F054BC0F3D0
:100E48000730090241F0300100F5007043F8201026
:100E5800704700BF00300050044BC0F30730090250
:100E680000F5007043F82010704700BF00300050B4
:100E780008B5FFF751FF014B186008BD581F002047
:100E88000C22014903F0D8BC581F002008B501F016
:100E9800B2F968B901F062FD58B9074AD36823F07E
:100EA80008031B041B0C43F0BF6343F40033D360F7
:100EB80008BD45F22350FBE700ED00E008B500F05F
:100EC8008FF8BFF34F8F0549054BCA6802F4E062FB
:100ED8001343CB60BFF34F8F00BFFDE700ED00E089
:100EE8000400FA05024B1860024B00201960704795
:100EF800681F0020641F00201FB5374C4269236813
:100F08005A6282699A62C269DA62026A1A63426A3A
:100F18005A63826A9A63C26ADA63026B1A64426B22
:100F28005A60826B9A60C26BDA60026C1A61426C1A
:100F38005A61826C9A61C26CDA61026D1A62826DC2
:100F48005A65C26D9A65026FDA65026E1A66826E1C
:100F58005A66426F9A66EFF388825A64EFF3898281
:100F68009A644268DA64EFF394821A65026801A809
:100F78001A67FFF785FF2368019ADA6601221A705B
:100F8800164B1C6864086400204621462246234606
:100F9800B7EE000AF7EE000AB7EE001AF7EE001AED
:100FA800B7EE002AF7EE002AB7EE003AF7EE003A5D
:100FB800B7EE004AF7EE004AB7EE005AF7EE005ACD
:100FC800B7EE006AF7EE006AB7EE007AF7EE007A3D
:100FD80003F00BFD04B010BD681F0020641F002043
:100FE80000B5A1B001A8FFF721FE029B63B15B0623
:100FF8000AD4019B23F00203052B05D1044B1B687F
:1010080013B101A8FFF778FF21B05DF804FB00BF1A
:10101800641F0020BFF34F8F0549064BCA6802F4CE
:10102800E0621343CB60BFF34F8F00BFFDE700BF03
:1010380000ED00E00400FA05F8B543680C2B26D152
:101048004B68042B23D14FF0FF3304680E682168E6
:101058003360E1B1A268D2B10623012001F023F880
:10106800A8B961680B4BD3E9005CA9420AD3A2680E
:1010780065448F18AF4205D8206803F0DDFB0020D7
:101088003060F8BD0130042803F10803EBD10220D9
:10109800F7E700BF042301004FF47F03D3F83001C2
:1010A800D3F83431BFF34F8FC0F30B00A0F109031D
:1010B8005842584170474FF47F02D2F83031D2F885
:1010C8003401BFF34F8FC3F30B03092B03D1431E26
:1010D800584258417047002070474B6830B513F0AC
:1010E8001F052DD102680C681068C0F307208442E0
:1010F80026D25068556094600C7C23F01F0304F0DE
:1011080001041C438B7CDB0003F018031C434B7C5D
:101118005B0003F006032343D3608B68013B23F095
:101128001F04CB685B0003F00E03234343F0010365
:1011380013615060BFF34F8FBFF36F8F284630BDE8
:101148000120FCE7036800205A68C9B2586099601A
:10115800D86018615A60704770B505460024036866
:101168001E68C6F30726B44201D1002070BD21468F
:101178002846FFF7E7FF0134F5E7C0037047C003CF
:1011880000F5FF407F307047002070471F207047F0
:101198004FF40040704700F57F40C030400370476F
:1011A800402070475F2070474FF400507047002080
:1011B8007047002070470020704770470B4670B595
:1011C800114618B1032806D0032070BD1846BDE8A3
:1011D8007040FFF731BF5A68082A01D00220F4E7AF
:1011E8004C68042CFAD11D684FF0FF330E6829684B
:1011F80033600029F2D06B68002BEFD026237422CD
:10120800012000F050FF0028E8D1224623230120C6
:10121800696800F048FF04460028DFD1D5E90001DD
:10122800FFF760FE30602046CFE7000008B5114B9D
:1012380083F30A88104800F0C9FFC0B9FFF726FEFB
:10124800A8B9FFF7B4FF90B9FFF7B3FF58B9FFF794
:10125800B4FF00F041FA00F02DFC00F029FA00F08C
:10126800BFFE002008BDFFF7A6FF0028EFD000F062
:1012780013FEF2E700040020181900202DE9F04FB2
:1012880093B00093574B8146D3F800B00BB2002BB4
:101298000D461646C1F30268C1F3024A04DA6FF03C
:1012A800800013B0BDE8F08F8B42C36001D10020ED
:1012B800F7E708EB0A03042BF1D8CC0F64014FEAD7
:1012C800C80731463A46DBF8080044F0020300F04C
:1012D800EAFE01460028E2D1202202A803F0D1FA52
:1012E8003A46314602A84FEACA0603F0A5FA324642
:1012F8000099DBF8080044F0060300F0D4FE074626
:101308000028CCD1014620220AA803F0BAFA3246B6
:1013180000990AA802AE03F08FFA33460137B845A0
:1013280014D91A46BC460DE0D2F808E0D16818680E
:101338007144884203D2596808448645AFD30CF1FA
:10134800010C0832C445EFD10833E7E715F0006F08
:1013580018BF202409F1180707EB880844F0020396
:10136800474513D1202C26D1002D02DBC5F3C045FB
:101378006C0109F128050AAE05EB8A0A44F0060457
:1013880055451AD1009BC9F87C3090E77268DBF8A4
:10139800080056F8081B019300F085FE00287FF42A
:1013A8007EAF56F8042C019B47F8042F56F8082CFA
:1013B80038633A62D4E70024DBE77268234656F8BC
:1013C800081BDBF8080000F06EFE00287FF467AF0A
:1013D80056F8043C45F8043F56F8083C28642B634B
:1013E800CEE700BF1C1900202DE9F0411F461A4B1B
:1013F8000D461646D3F8008000F049FF044608B9A8
:1014080000F04AFDE368002B01DA00F045FD032DEA
:1014180001D900F041FD04EB8504E569E36CED1AA0
:1014280016D006233A463146D8F8080000F03BFEAD
:1014380008B100F031FDBD4228BF3D46E36CE16BC9
:101448002A461944304603F0F7F9E36C2B44E36469
:101458002846BDE8F08100BF1C1900202DE9F041A5
:101468001D461A4B0F461646D3F8008000F00FFFB2
:10147800044608B900F010FDE368002B01DA00F01B
:101488000BFD032F01D900F007FD04EB8704E36A85
:10149800E26E9B1AAB4201D200F0FEFC02232A4600
:1014A8003146D8F8080000F0FEFD08B100F0F4FC61
:1014B800E36EE06D2A463146184403F0BDF9E36E49
:1014C80000202B44E366BDE8F08100BF1C19002012
:1014D8002DE9F04105464FF001080E4E0E4B3768D6
:1014E8005C681CB928463760BDE8F08122689368BB
:1014F80013F400700CD1A369012B09D0D3683460B0
:1015080023B19847002801DA00F0C6FCC4F8188017
:10151800246AE6E71C1900202019002038B5044683
:1015280010B96FF0800038BD8368002BF9D01A68B5
:10153800002AF6D05D68002DF3D00B4BE861A8694E
:101548001D6020B92B68DB6853B90123AB61A36820
:1015580004F10C001B681B69984701232360E2E72C
:1015680098470028F1DADCE71C1900204268024B92
:1015780008461A60704700BF1C190020002330B5C8
:1015880005680446AA68C0E9063312F4406F85B0BE
:101598001CD012F4006202D000F0AEF90246A96A2B
:1015A8002B6968460B44073123F0070321F0070134
:1015B800CDE902130093002305490193EB6800F07D
:1015C80099FA684600F046FE024B1C6005B030BD33
:1015D800D91401001C19002001F00C0370B50C2B64
:1015E8000CBF154605464A060C4619D58B0658BF4A
:1015F8002835AB6913F8026C84F00803C3F3C00301
:10160800C6F38012934201D000F046FC16F0A00FFA
:1016180002D14EB1032E10D06FF083032B600AE085
:1016280000F03AFC2026E7E700F03AFB04460146C2
:10163800044800F009FE204670BD284600F040FA34
:10164800F9E700BFF80B0020EFF308807146EFF3CD
:101658000982EFF30B830CB406B4FFF7BDFF86468F
:10166800009900F0080001F00801401A02DC12DBC2
:1016780004B070471EF020031CBF2DE9F00FBDF128
:10168800080D0A4C254626462746A046A146A246EE
:10169800A34630B4704704B030BC1EF020031CBF12
:1016A8001DF1080DBDE8F00F04B07047A5EDF5FE7B
:1016B800084BDA6882F07F4282F47F0242F480426B
:1016C800DA6000221A765A76DA76DA77602283F8B8
:1016D8002220704700ED00E0114BD3F8882042F437
:1016E8007002C3F88820BFF34F8FBFF36F8FD3F812
:1016F8008C2042F44062C3F88C20D3F8342242F0A4
:101708008042C3F83422D3F8342242F03C42C3F872
:1017180034224FF0E022D36843F42003D3607047AB
:1017280000ED00E0009A164B9A4227D1012290431F
:10173800014641EC100B41EC110B41EC120B41EC52
:10174800130B41EC140B41EC150B41EC160B41EC5F
:10175800170BEFF3148222F0040282F31488BFF30C
:101768006F8F0246034604460546064607468046EE
:10177800814682468346844686460447FEE7000043
:10178800A5EDF5FE2DE9F041044618B943F6DA3027
:10179800BDE8F0810029F9D08368002513F4406F73
:1017A80014BF012300234FF0140843F002030F4E27
:1017B8000B6000F13007236AAB4201D80020E7E74D
:1017C800A369E26907EB830308FB02330C226A432F
:1017D80099188968090707D59B58B342D6D130684C
:1017E80010B10121FFF72AFB0135E4E7881000203A
:1017F80070B5324C86B03248FFF7AEFC236801253D
:101808005A1C01932F4B2260DA681B694FF440760B
:10181800039300232A4801A902920495ADF81460A5
:101828008DF81630FFF759FC18B143F6DA3006B0D8
:1018380070BD23688DF816005A1C0193224B20486E
:101848000293224B01A9CDE903352260ADF814605B
:10185800FFF743FC0028E8D123688DF816005A1CCE
:1018680001931B4B164802931A4B01A9CDE9033586
:101878002260ADF81460FFF730FC0028D5D123684A
:101888008DF816005A1C0193134B0D480293134B05
:1018980001A903930223049340F201132260ADF8D7
:1018A8001430FFF71AFC04460028BED12A46294600
:1018B8000348FFF70FFA2046B9E700BF28190020B0
:1018C8008410002098230100E0230100404C01000F
:1018D8002008010020080100000C0020200C002036
:1018E800014B1868704700BF98230100014B1B6823
:1018F8001868704798230100014B1B6858687047A7
:101908009823010008B5FFF7B3FAFFF719FA0A4B55
:101918005A68103AD3B2120609D401215A0903F0C1
:101928001F03994002F16003044A42F82310BDE8FE
:10193800084000F0B1BA00BF00ED00E000E100E0AF
:101948000020034BD8765A6A42F470225A627047D4
:1019580000ED00E00349044BCA68002092B213432B
:10196800CB60704700ED00E00800FA0500224FF058
:10197800FF30094B02F1A0010132102A43F821007F
:10198800F8D1D3F88022002022F00802C3F8802280
:10199800D3F88032704700BF00E100E008B5FFF7D8
:1019A800B3F90822024BC3F880211A60002008BD51
:1019B80000E100E0064BD3F8D02022F00102C3F882
:1019C800D020D3F8D02042F00202C3F8D0207047CC
:1019D80000ED00E037B50124FFF7C4F91B4D22469E
:1019E80005234FF481301A490094FFF7D9F92246AC
:1019F80007234FF0005017490094FFF7E7F9D5E99E
:101A08000101072300220094FFF7CAF907230022E7
:101A1800114912480094FFF7D9F92969E868013992
:101A2800FFF7EEF9062300224FF400200C4900943A
:101A3800FFF7B6F9062300224FF4782009490094ED
:101A4800FFF7AEF9002003B030BD00BF98230100B6
:101A5800FF7F0100FF7F0020FFFF032000800020A0
:101A6800FFFF0E00FF9F0F0038B500240E4D002128
:101A780055F8040B0134FFF7EFF91D2CF7D10020BE
:101A8800012240F20111094BC3F88004C3F88424F1
:101A9800C3F8C004C3F8C424054AC2F840154FF47B
:101AA8008072C3F8402438BD242301000030005060
:101AB800009003500122014B1A6070472C19002036
:101AC80010B50446094B22891868616806238068A6
:101AD80000F0E9FA28B9064B1B68012B01D100F088
:101AE80087F86FF08603236010BD00BF1C19002023
:101AF8002C1900202DE9F84305461E460068134BB3
:101B08009046AA68A0F1080440E902335038904290
:101B18000F4601D200F0C0F9A4F14809482200217B
:101B2800484602F0AEFE002344E9073344F8143C6B
:101B38004FF0807344F8043C6FF0020344E90367F4
:101B480044F8208CC5E90093BDE8F883A5EDF5FEBF
:101B580030B5094C024661680023084640B1056863
:101B68006D68954205D11BB1826860609A6081609A
:101B780030BD03468068F1E7B019002038B5044647
:101B88002AB10B689B68DB0512D5002038BD0B4BCA
:101B98001D680DB900F080F900222B6899692C3373
:101BA8008A4203D053F8040FA04204D19142ECD1E9
:101BB8006FF0FC00EAE70132F2E700BF1C190020D1
:101BC80070B504460E461546002130220C3002F04E
:101BD80058FE064B20461B68A6606360656100F0EE
:101BE80001FA00232061236070BD00BF1C1900208A
:101BF800044B1B681BB11B680BB1586870474FF04A
:101C0800FF3070471C190020064B10B51C680CB932
:101C180000F042F923689B6813F4406F14BF012059
:101C2800002010BD1C1900202DE9F84390460746F6
:101C38000C46FFF7E9FF024624B96FF080042046FE
:101C4800BDE8F8836300F8D5144B04F01F0153F87E
:101C58002150002DF1D02B6829465868FFF78EFFD8
:101C6800B0B9C4F30721284600F0FFFA044600285B
:101C7800E3D1EFF3108972B600F0C1F9064689F393
:101C8800108840B142462946FFF79AFF3E60D6E7E2
:101C98006FF08104D3E76FF08204D0E73019002099
:101CA8002DE9F04100F0AAF90023134E134F736099
:101CB8007B6000F0E5F8DFF84880304600F022F855
:101CC8000446A8B139468023424600F07FF805460D
:101CD800204600F00FFB206804F10801FFF752FDD1
:101CE80008B100F0D9F829462046FFF747FCE4E799
:101CF800BDE8F04100F071B920190020B0190020AA
:101D080030190020F8B5054608B900F0C5F82A4E84
:101D1800346814F1290F4CD8284B196804F12803AA
:101D28008B4246D2236AA26903EB43030C32134465
:101D3800606AE269024402EB820213449B00E318E2
:101D480001D2994201D200F0A7F823681C4A1B0C63
:101D58001B04934201D000F09FF82388B3F5817FDC
:101D680001D300F099F86368002B01DA00F094F8C9
:101D7800144A176807F124031360134A1268934240
:101D880001D900F089F8236AA26903EB43030C32F6
:101D9800616A1344E2693C600A4402EB820213441C
:101DA800326802EB83026B6832603B626F603846D0
:101DB800F8BD0027FBE700BF98100020C4230100EE
:101DC80000005F5F94100020C02301002DE9F74F49
:101DD8000F4690460646009300B109B900F05CF83A
:101DE800D6F800A0DAF818200AF1300303EB820BCA
:101DF800DAF81C40204B1D6854B10C2202FB045435
:101E08001C601E4B1B689C4201D900F045F82C460B
:101E180025464FF00009DAF81C204A4500D91CB9BC
:101E2800002003B0BDE8F08F142303FB09B20023A0
:101E3800C5E900269268AB60930516D5B8F1000F86
:101E480002D0009B802B03D0019200F025F8019A64
:101E580012F0E00FD0B202D158F820201AB1019048
:101E680000F01AF8019848F820507A6809F1010939
:101E7800AA607D600C35CEE790100020BC230100DD
:101E880008B5FFF72DFD034B9860FFF72FFD80F392
:101E9800888808BD00ED02E0FFF710B882300128FD
:101EA80008B506D8FFF7B0FE18B9BDE80840FFF737
:101EB800F3BF08BDF8B506460D4600F0E8F904463C
:101EC80008B9FFF7E9FFA7680FB9FFF7E5FFE3686F
:101ED800991C20D05A1C21D1A5B315F1820F13D11A
:101EE80002232360EFF3108672B629462046FFF7D7
:101EF8003DFB054686F310882368022B24D1204633
:101F080000F086F82846F8BD15F1830FEAD0FFF7F0
:101F1800C3FF0025E6E702232360FAE7002BF6DB80
:101F2800204600F0D8F93B689B689B0501D5022341
:101F3800236015F1810FD5D16369002BD2DBFFF740
:101F4800ABFFCFE73546F4E700232360DAE708B5AF
:101F5800FEF7B4FF6FF0830008BD2DE9F3410E468C
:101F6800174698460546FFF74FFE00F0A4F92946A4
:101F7800024601A8FFF758FE044660B943463A46B0
:101F880031460198FFF77AF9044640B16B0002D553
:101F9800019800F03DF8204602B0BDE8F0810198B4
:101FA800FFF7BCFA0446F6E740F20110704770B537
:101FB8000546FFF729FE06462846FFF7C9FD0446F1
:101FC80008B9002070BD014632462846FFF7D6FD05
:101FD8000028F6D12368D868F4E76FF0020070474C
:101FE80000DF70474FF480507047B0F5805F03D131
:101FF800EFF30B8080387047002070477047EFF38D
:102008000B8000F1800383F30B8870470020704732
:10201800EFF30B83803B83F30B88704780EA000063
:10202800E1EE100A00EE100A00EE900A01EE100A26
:1020380001EE900A02EE100A02EE900A03EE100A70
:1020480003EE900A04EE100A04EE900A05EE100A58
:1020580005EE900A06EE100A06EE900A07EE100A40
:1020680007EE900A08EE100A08EE900A09EE100A28
:1020780009EE900A0AEE100A0AEE900A0BEE100A10
:102088000BEE900A0CEE100A0CEE900A0DEE100AF8
:102098000DEE900A0EEE100A0EEE900A0FEE100AE0
:1020A8000FEE900A70472DE9F0410E461546002ABA
:1020B8004AD0C4074BD480F00204C4F34004A400FF
:1020C80003F00602062A4AD144F0010422462946B2
:1020D800304602F095FAB8BB46E800F205EB060870
:1020E800100E120208F1FF3747E800F34FEA1361B8
:1020F80066D51B0264D5884262D046E800F547E8F9
:1021080000F7FFF741F82D0E85424FEA176734D3E1
:10211800FFF73CF8874230D82846FFF730F82246C8
:10212800C6F101010144304602F06AFA002847D09E
:102138000135AF4218D83846FFF71FF82246A8EBFA
:10214800000102F05DFAD8B30020BDE8F081EFF39A
:102158009484A40004F0040444F01204B0E799073E
:1021680031D544F00804B1E72846FFF706F80646DB
:10217800FFF70EF822460146D5E7FFF711F885422A
:102188001ED3FFF70FF887421AD82846FEF750FEED
:102198002246C6F101010144304602F031FA78B115
:1021A8000135AF4203D83846FEF7F5FFC6E72846A3
:1021B800FEF7F1FF0646FEF7F7FF22460146EBE77A
:1021C8006FF07F00C1E74CF2DA20BEE710B5044695
:1021D800FFF7F0FBFFF7FEFB10B143F6DA3010BD56
:1021E800FFF742FC0028F8D1FFF702FB0028F4D1E2
:1021F80002232360F3E708B5FFF7A2FB10B143F60B
:10220800DA3008BDFFF7A6FB0028F8D100F01AF86D
:102218000028F4D162B6FFF7A9FB0028EFD1FFF739
:10222800BDFB0028EDD0EAE7EFF30880EFF3098162
:102238002DE9F00F6B467246FEF7FEFC08B0FFF77B
:1022480061FBFEE70020704704460D46FFF7E6FEF7
:10225800A54628470368283383F30988836883F3EE
:102268000B88BFF36F8F4068704703689A68DB6814
:1022780012F4806F05D18B422CBF00206FF0FA005A
:1022880070478B420CBF00206FF0FA00704710B502
:10229800FFF7ABFE0446FFF7B9FE50B9FFF7A8FCFD
:1022A800A3685B681B685B68834218BF00242046EC
:1022B80010BD0024FBE738B5054648B100F01BF80F
:1022C800B5EBD07F044601D0FFF7E6FD204638BDC8
:1022D800FFF78EFCF4E7002310B500F1280252F84E
:1022E800041F19B1C16F146C19444C600833202BBA
:1022F800F5D110BD70474FF0FF3070470000010066
:10230800000200000002FF002C0000003001FF0066
:10231800080000004001FF000C00000000400050D1
:1023280000500050008000500090005000A0005065
:1023380000B0005000E0005000F0005000000150D4
:102348000010015000400150005001500070015031
:102358000080015000B0015000C0015000D0015071
:1023680000E0015000F0015000000250001002503F
:10237800002002500030025000400250006002501D
:102388000080025000A002500090035000258450A5
:102398000080010000800100FFFF0700007C0100B1
:1023A8000080010000000800FFFF0E0000800F0001
:1023B800FF9F0F0000120020E81100200004010018
:1023E000009A204B9A4208D110B502F071FA02F01F
:1023F000A9F906BC96460C46744702F0ADFA009A5D
:10240000184B9A4208D110B502F06EFA02F09AF910
:1024100006BC96460C46744702F09EFA0CB4029A2B
:10242000104B9A420CD14FF0004319430CBC10B52D
:1024300000F09EF802F086F906BC96460C467447FA
:1024400002F08AFA009A074B9A4202D106490868BC
:10245000744702F081FA009A024B9A4200D1744705
:1024600002F07AFAA5EDF5FE801000200348044B37
:10247000834202D0034B03B1184770477C11002000
:102480007C110020000000000548064B1B1AD90FE4
:1024900001EBA301491002D0034B03B11847704769
:1024A0007C1100207C1100200000000010B5064CBB
:1024B000237843B9FFF7DAFF044B13B10448AFF3B5
:1024C00000800123237010BD801800200000000050
:1024D000344C010008B5044B1BB104490448AFF368
:1024E0000080BDE80840CFE700000000841800200D
:1024F000344C0100A3F5803A704700BF174B002B06
:1025000008BF134B9D46FFF7F5FF00218B460F4692
:102510001348144A121A02F0B8F90E4B002B00D0DF
:1025200098470D4B002B00D0984700200021040055
:102530000D000D48002802D00C48AFF3008002F0D7
:10254000DBF820002900FEF775FE02F0C1F800BF9D
:10255000000008000000000000000000F80B002050
:102560007C11002024280020000000000000000052
:102570002DE9F84304460D4616461F46EFF3058342
:10258000C3F308030BB1FFF78BFCDFF834903B4635
:10259000204632462946D9F80080FFF7E2FCD9F8F8
:1025A00000300446984506D0DB6901461869BDE84D
:1025B000F843FFF783BCFFF775FC2046BDE8F883BE
:1025C0001C19002001680E4A0346914215D1C169C9
:1025D000A2F11022A2F1EF1291420ED18268012ADB
:1025E0000BD8C26812B101698A4206D0586928B175
:1025F0009B691B1A5842584170470120704700BF21
:1026000055AA00FF0D4B70B59E68A6B13046FFF786
:10261000D9FF044678B9F3686BB935690DB920461E
:1026200070BD2846FFF7CEFF28B9EB68B34202D150
:102630002E462D69F2E70124F1E700BFB81900200A
:102640002DE9F041394E3468F368D4B1B468C4B1AF
:10265000002861D000295FD001FB00F5B5FBF0F048
:10266000884259D1291D57D8AA070DD025F0030259
:1026700004321C4603E0616891424FD2A469002CE9
:10268000F9D12046BDE8F0812A46F2E7891A2329CC
:1026900004F12007D4E9050C1AD80123A360A0B1E6
:1026A000C0F818C0A36903B158610023C4E9053319
:1026B0003369DB0702D5FFF7A5FFA0BB2A4600213F
:1026C00038463C4602F0E1F8DBE7C6F80CC0E9E723
:1026D00002F1200804EB08032039C3E9011E216937
:1026E000DFF84CE0DC60196144F808E0AEF1102E30
:1026F000AEF1EF1EC3F81CE001B1CB60C3E9050CDD
:1027000040B18361996901B14B6101212361C4E941
:102710000121CAE7F360F5E70024B2E7D4F808E046
:10272000BEF1000FB2D0012001F0D2FFB819002095
:1027300055AA00FFF8B5054600283AD0364E336852
:10274000002B36D0B268002A33D0834203D8726897
:102750001344984202D3012001F0BAFFA0F12004F3
:102760002046FFF72FFF0028F5D155F8183C012B24
:10277000F1D145F8180C55E90570DFB1BB68CBB94C
:1027800055F81C2C7B68203213447B60386100B103
:10279000C76020220021204602F077F8386908B18E
:1027A00083682BB333699B0703D5FFF72BFF002802
:1027B000D1D1F8BD40B3836833BB4268636813442A
:1027C000203363600369D4E90521236192B9B9B963
:1027D000426981696261A161A2B19461A26902B199
:1027E000546103B1DC602022002102F04EF8D9E7E9
:1027F0003C46E2E79161A1690029E9D04A61E7E737
:10280000F160F8E7F460E9E7F36845F8083C03B1E4
:102810005C61F460C6E700BFB819002038B50D460A
:10282000142200210446124802F02FF811491248E0
:1028300000F02CF8232D1AD914F003031FBF043D18
:10284000ED18C3F10403E4182A460021204602F0E3
:102850001CF8074B094AC3E900459C602260A2F1BD
:102860001022203DA2F1EF126560E261DC6038BD0C
:10287000B8190020352701004126010055AA00FFA4
:10288000014B1B68184700BF9C100020024B1860CA
:10289000024B002019607047A01000209C100020FF
:1028A00010B50A46044619B1024B00211B6898472F
:1028B00010BD00BFA4100020054B0A46197819B1BD
:1028C0000146181D02F082B86FF08800704700BF03
:1028D000CC19002010B5074C00F032F8204602F069
:1028E00086F8201F0821FFF7DBFFBDE8104002F04B
:1028F0006AB800BFD019002070B50C4D2B787BB999
:1029000002F05FF8044670B90126281D6E7002F0CF
:102910005BF8044638B900F00BF8044618B92E707D
:102920000024204670BDFFF7D5FFFAE7CC19002040
:102930000122024B002083F880257047D419002023
:10294000F8B5074C2025264601272046276202F0CD
:1029500027F8013D04F12C04F7D186F88055F8BD25
:10296000D419002010B50C4C236813B10B4B1B6815
:102970002BB900F089FC30B90122084B1A60012301
:102980002360002010BD0138062801D9044810BD7D
:10299000044B53F8200010BD701F00206C1F002056
:1029A000FE8FFFFF9C4A0100144B2DE9F0430028E5
:1029B00014BF04461C46124F236883B0BB4219D093
:1029C00016460D4620464FF4147104F1040900F038
:1029D00047F804F58E78484600F0CEF8404600F0FF
:1029E00019FA2B464A4640460649009600F034FB49
:1029F00008B92760002003B0BDE8F083741F0020F1
:102A0000A5BCC95AFD2B010070B50D4C1D46002810
:102A100014BF064626460B4B306882B098420DD153
:102A200006F58E70002633460096144600F03EFBF5
:102A3000002818BF34462C6002B070BD0248FBE786
:102A4000741F0020A5BCC95AE88FFFFF38B131B10F
:102A5000002201440346013081421A70FAD17047C6
:102A600038B131B1002201440346013088421A7066
:102A7000FAD170472DE9F043202B1D4606468846C3
:102A800091468BB026D8DBB202AF8DF80480B046F9
:102A900058F8041B8DF8053021B9404601F038F98B
:102AA000044640B9012302224046336001A901F0E7
:102AB00043F9044638B138462021FFF7D1FF2046BC
:102AC0000BB0BDE8F0832A464946404601F034F990
:102AD0000446F0E702AF1946104600233A4601F0DB
:102AE000B1FA04460028E6D12023B9461D46CCE7BA
:102AF0002DE9F041D0F8F830A6B0002BD8BF02AED7
:102B000031DD05460027D0F80C4102AEA4F10108E2
:102B10009022D5F8FC403146D0F8000101AB019776
:102B2000B8FA88F8A0474FEA5818044620B9019B24
:102B300053B9B8F1000F16D030469021FFF790FF3F
:102B4000204626B0BDE8F081014632462846FFF710
:102B500091FF58B9D5F80431019A1344C5F80431EE
:102B6000B8F1000FE8D16FF03C04E5E704462046D9
:102B700026B0BDE8F08100BF70B5002504461422E0
:102B800004F588762946C0F8F850FC3001F07DFE47
:102B900008222946304601F078FE144B30461B6867
:102BA0009847204640F8045B01F098F8104B3046F7
:102BB0001B689847C8B9D4F8F830AB420FDC03EB78
:102BC000830204EB82022021C2F800010120C2E945
:102BD000421008490133C2F8FC10C4F8F830064B23
:102BE0003046BDE870401B68184770BDC410002017
:102BF000C0100020E13B0100BC1000202DE9F0478F
:102C0000202A88B07AD83F4B00F5887904461B68A3
:102C100048461746884698470546F8B940F20116D7
:102C2000D4F8F830002B65D02046FFF761FF054649
:102C300038B9D4F8F830002B14DC013EF2D16FF033
:102C40003B056E4620213046FFF70AFF2E4B4846D3
:102C50001B689847002818BF6FF01D05284608B06C
:102C6000BDE8F087D4E94132934203D3D4F80C2174
:102C7000012A02D0013ED7D1E1E71F2BFAD96E46D7
:102C800001462022304604F1040A01F0FEFD3146DF
:102C9000504601F07BF805460028D3D1504601F09C
:102CA00031F8504601F01AF82946504601F030F844
:102CB00005460028C6D150462022314601F03CF896
:102CC00005460028BED1034632462021304601F099
:102CD000B9F905460028B5D1D4F8F8303A46002BAA
:102CE000C8BF002340463146C8BFC4F8043101F0D4
:102CF000A7FDA7E76FF03F056E46A3E76FF03B0522
:102D0000ACE700BFC0100020BC10002070B590B030
:102D100000287AD03E4C0D464022362106462046F9
:102D200001F0B3FD40225C21A01801F0AEFD2B1D87
:102D3000A34203D904F144039D4252D32B68226875
:102D4000534023602B68226C534023646B68626895
:102D5000534063606B68626C53406364AB68A26805
:102D60005340A360AB68A26C5340A364EB68E26875
:102D70005340E360EB68E26C5340E3642B692269E3
:102D800053402361226D2B695340236562696B694F
:102D9000534063616B69626D53406365AB69A269BF
:102DA0005340A361AB69A26D5340A365EB69E2692F
:102DB0005340E361EB69E26D5340E3650021304627
:102DC00000F0A6FF044628B940223046104900F022
:102DD000B3FF044640216846FFF742FE204610B08C
:102DE00070BD631E04F13F01013D1F3415F8010F52
:102DF00013F8012F42401A7011F8012F2878A342CE
:102E000082EA00020A70F1D1D8E76FF07304E5E7B7
:102E1000C421002010B54FF49A720021044601F03D
:102E200034FD42F21072044BC4F8202104F5967070
:102E30001B68BDE810401847C41000202DE9F04F72
:102E400004468846914695B0002900F0A780002AE4
:102E50000CBF0126022600238DF80C30002C00F058
:102E60009F80DFF844A104AF0AF1400B0021204607
:102E700000F04EFF034648B1384620210193FFF78A
:102E8000EFFD019B184615B0BDE8F08F402251467A
:102E9000204600F051FF03460028EDD104F1F4056F
:102EA00020222946204600F047FF03460028E3D1B0
:102EB0000122204603A900F03FFF03460028DBD192
:102EC000022E62D020460CA900F060FF03460028C5
:102ED000D2D10146204600F01BFF03460028CBD18B
:102EE00040225946204600F027FF03460028C3D160
:102EF000202220460CA900F01FFF03460028BBD16A
:102F00003946204600F042FF03460028B4D1394636
:102F10002046FFF7FBFE03460028ADD120222946BC
:102F2000204600F009FF03460028A5D120460CA941
:102F300000F02CFF034600289ED10146204600F0F9
:102F4000E7FE0346002897D140225946204600F06C
:102F5000F3FE034600288FD1202220460CA900F062
:102F6000EBFE0346002887D12946204600F00EFFDD
:102F70000346002880D19DF80C200132D2B2B24223
:102F80008DF80C20FFF472AF76E74A4641462046A2
:102F900000F0D2FE0346002894D06DE701265AE7E0
:102FA0006FF0730304AF67E7C42100202DE9F041FF
:102FB0000446884615461F46D0F81801E0B013B104
:102FC00000EB40004008B5F5807F3ED82844B0F5BE
:102FD000C07F3AD84FF4C0720021684601F055FC1A
:102FE0006946D4F82431D4F81821D4F82801984738
:102FF00070BBD4F8186157B1D4E9493072080DEBB1
:103000000601984720BBD4F8183106EB5306B8F1F7
:10301000000F00D08DB9324669462046FFF70EFFFB
:10302000054610B90123C4F8143131466846FFF74C
:1030300017FD284660B0BDE8F0810DEB0600414663
:103040002A462E4401F0FCFBE5E76FF00405F0E7AB
:103050006FF00805EDE700BF2DE9F047044604F1E5
:10306000F4050F4691461E46DDF8208000F036FE3E
:1030700029462046FFF74AFE08B1BDE8F0872846FA
:103080002022012101F001FCD4F81831C4F8247188
:10309000C4F8289113B92023C4F8183142463146A8
:1030A0002046BDE8F0470123FFF780BFB2F5806FEF
:1030B00000F295802DE9F04F89B09A46129BB3F546
:1030C000807F00F29080D0F82431164604460F46E7
:1030D0004BB3D0F81C31012B05D0D0F81421D0F817
:1030E00020319A421FDD514600232046129AFFF7F5
:1030F0005DFF014698B900231293002E5ED0DFF8E1
:10310000EC9009F1400B0021204600F001FE202E3A
:103110003546014628BF202504F1F40890B1084641
:1031200009B0BDE8F08FBAF1000FE6D0129B002B7A
:10313000E1D051461A462046FFF780FE014600289E
:10314000DBD0ECE749464022204600F0F5FD014681
:103150000028E4D141462022204600F0EDFD014642
:103160000028DCD16946204600F010FE0146002808
:10317000D5D1204600F0CCFD01460028CFD15946DC
:103180004022204600F0D8FD01460028C7D16946FC
:103190002022204600F0D0FD01460028BFD1414644
:1031A000204600F0F3FD01460028B8D138462A46F3
:1031B000414601F045FB761B2F44A4D151462046E1
:1031C000129AFFF73BFE01460028A8D10846D4F822
:1031D00014310133C4F8143109B0BDE8F08F6FF039
:1031E0000201084670476FF0040198E7C4210020EF
:1031F000002130B58DB0282202A8019101F045FBD5
:1032000002A800F047FF044610B120460DB030BDC3
:10321000174D4FF0FF31286800F042F9044620B105
:10322000144800F0D3F9012C18D0002000F068F900
:10323000D0B9114A02A901A800F0C4FC044601203B
:1032400000F05EF960B9286800F032F90028DCD09F
:103250000A4800F0BBF920460DB030BD0524F2E766
:10326000074800F0B3F9EEE7064800F0AFF9E0E7F1
:10327000A8100020B84A010044220020104B010091
:10328000F04A0100D04A010030B583B000F05CF88C
:1032900028B100F0ABF80324204603B030BD00F0A5
:1032A00077F8D8B900F02CF9E0B9224CD4F82839D5
:1032B0001B0EF02B0AD1D4F8242A1F4B9A4231D08E
:1032C00000F044F8072400F091F8E5E7062400F048
:1032D0003DF800F08BF8204603B030BD04242046B2
:1032E00003B030BD00F032F800F080F8FFF780FF47
:1032F000044698B9114D2B68002BCDD102460146EA
:10330000FFF752FB50B968220D4901ABFFF77CFB78
:1033100020B920460B4B2B6003B030BD052420465E
:1033200003B030BD012000F0EBF80028DAD1C4F87A
:103330000C0ADBE7001084500000E0206424002029
:10334000682400205AEA5A5A00207047002070472B
:10335000430504D54FF0FF32034BC3F80821024B5D
:10336000C3F8080A704700BF00108450014BC3F82F
:10337000040A70470010845008B100F06BB84FF495
:103380007500704708B100F04FB84FF475007047F2
:1033900010B5114800F070F800B110BD0F4800F0F2
:1033A0006BF80028F9D10E4C204600F065F8002893
:1033B000F3D10C4B0C481C6000F05EF8014600286D
:1033C000EBD100F02DF8044608B1204610BD00F006
:1033D00079F82046FAE700BFB8100020B4100020AA
:1033E000B0100020A8100020AC10002008B508483C
:1033F00000F04CF8074800F049F8074800F046F89C
:10340000064800F043F8BDE8084000F00BB800BFE4
:10341000B8100020B4100020B0100020AC10002024
:1034200000207047704700BF024610B4084CD4F823
:10343000003A1342FBD021B1D4F804310B60C4F838
:103440000831034B0020C3F8082A5DF8044B70478D
:1034500000108450044AD2F8003A1842FBD0C2F857
:10346000080A0020704700BF0010845001F0EFBA36
:103470000A46002101F009BA08B5034B02681B682F
:1034800010689847002008BDE410002008B5034BE1
:1034900002685B6810689847002008BDE4100020AF
:1034A000024B02689B681068184700BFE4100020B8
:1034B00008B5034B0268DB6810689847002008BD18
:1034C000E410002070B5094C094D2069AB6898479D
:1034D00018B1084B08485B6898470021074AEB6819
:1034E00011602069BDE87040184700BFD01000206F
:1034F000E4100020C8100020284B0100D024002038
:10350000F8B51A4D1A4E0446B26828699047E8B9D2
:10351000184F3B684CB1A3B1012B19D0013B3B6064
:103520002869F36898470020F8BD43B90121124A81
:10353000C2F800151149D1F81029002AFBD1013336
:103540003B60F368286998470020F8BD0C48F8BD37
:103550000A4AD2F81039002BFBD1074A6FF07E409F
:10356000C2F80035FFF702FF3B68D7E7D010002014
:10357000E4100020D024002000008450001084506B
:10358000E98FFFFF014B1B68184700BFE4100020C4
:10359000014B9B68184700BFE4100020014BDB681B
:1035A000184700BFE4100020BFF34F8F0549064BBA
:1035B000CA6802F4E0621343CB60BFF34F8F00BFD1
:1035C000FDE700BF00ED00E00400FA0530B44FF065
:1035D000FE320025074B084C08494968C3F800240F
:1035E000C3F80424C3F80824C3F80C24C4F8005515
:1035F00030BC08470010845000008450C8100020E0
:1036000010B5044650B1636813F0685F05D0064AF0
:10361000934202D000236260236010BD034B044834
:103620005B689847EFE700BF2C5F5CA9C8100020DB
:10363000484B0100C8B143680D4A934213D013F0C0
:10364000685F0ED0012350E8002F194640E8001CA7
:103650009CF0000FF7D1012AF5D0BFF35F8F002057
:10366000704704487047044870476FF4E040704763
:103670002C5F5CA9E98FFFFFEA8FFFFF034680B153
:10368000426809498A420AD012F0685F05D0BFF348
:103690005F8F002210461A60704704487047044844
:1036A00070476FF4E04070472C5F5CA9E98FFFFF23
:1036B000EA8FFFFF10B5044620B10023034A2360C0
:1036C000626010BD0248FFF781FFF6E73A00003A5A
:1036D000704B01002DE9F047002878D00C460029F6
:1036E00075D01D46002B72D007461AB10122002367
:1036F0002A6003602B68002B64D02946204600F026
:10370000B7FD804600285FD12146286800F096FD6D
:103710008046002858D12B68082B6CD0042B6DD024
:10372000A3F10209B9FA89F94FEA59190121354E75
:10373000C6F8C411C6F84011C6F8C411636AC6F8C9
:103740003031D6F830219342F6D14FF0000A4FF0D5
:10375000FF30C6F82CA1FFF7FBFD6FF01B035046AE
:10376000C6F80031FFF702FEC6F80C91D6F8040A3D
:1037700040F48060FFF7FAFD0A23C6F83831089B51
:10378000012B29D02369204AA2FB03231B09626A6B
:10379000404602FB03F303EB43031A4ADB039B0996
:1037A000C2F8D8310123C2F82C313B682A6823F0D3
:1037B0007F4343EA02633B602A6843EA02233B609B
:1037C000BDE8F087DFF844804046BDE8F087DFF8C9
:1037D00040804046BDE8F0874FF47F03D3F80C2CBF
:1037E000013206D0D3F80C3C074AA2FB03231B0985
:1037F000CDE71623CBE74FF0030997E74FF0020917
:1038000094E700BF00108450ABAAAAAA310CF100C3
:10381000350CF10058B34B1EB3F5047F27D230B5F9
:103820004FF0000ECD00744671464B0901F01F0C9D
:1038300050F82330BCF11F0F23FA0CF306D003F02D
:10384000010319B901211C468E46EEE79C4201F1A5
:10385000010106D01C464FF0010EA942E5D100201F
:1038600030BD0EF1010E9645F7D1024830BD01483A
:10387000704700BF360CF100C0B32DE9F0434C1E79
:10388000B4F5047F1DD2E3B1DAB100252E46A84677
:103890002C46CF0003F1FF394FEA541C04F01F0EF1
:1038A00050F82C10BEF11F0F21FA0EFC0CD00CF0BA
:1038B000010C4CB90126E04634463546ECE7964209
:1038C00016D90C48BDE8F083AB420BD0C44508BF05
:1038D0000136A945F3D001350134BC42DCD10020CA
:1038E000BDE8F0830125E0462E46F5E70148704724
:1038F0001D46F1E7370CF1002DE9F04F91B08346FA
:10390000DDE91B460D46002E6ED10F691C600023B9
:103910001A990B60002A00F02F819D4B6A6AD3F838
:103920003811D3F830319A4269D10A2967D19BF80E
:103930000330089304F10803079304230593954B80
:10394000934CA3FB07239B0803EB4303A7EB430321
:10395000039306971A9B069E1E60002E00F0EA80D5
:1039600000F096FC00230993BBF1000F00F0D58016
:1039700098464FF0010ADDF81C90002D00F0CD8034
:10398000089B002B3DD0284608A900F071FC0028B8
:1039900039D0814B984220D0089B082B00F0E4805E
:1039A00000225B000893294608AB58460092FFF7B7
:1039B00091FE7A4B984200F0D38070B9DBF800207A
:1039C000130A03F47F03134323F07F43CBF8003043
:1039D000059B013B0593BDD10020039000F058FCEE
:1039E000039811B0BDE8F08F4FF47F01D1F80C0CB3
:1039F00001300CBF4FF40477D1F80C7C86E768489F
:103A0000EBE76648C5E72946089800F017FC002850
:103A1000BFD1089B082B00F0A980042B00F0A980DF
:103A2000A3F10203B3FA83F35B090493C4F8C4A1BE
:103A3000C4F840A1C4F8C4A16B6AC4F83031D4F80A
:103A400030219342F6D100234FF0FF30C4F82C31DF
:103A5000FFF77EFC002318466FF01B03C4F800310B
:103A6000FFF784FC049B4B4FC4F80C31D4F8040AD4
:103A700040F48060FFF77AFC0A23C4F838312B69E0
:103A800009A8A7FB03236A6A1B0902FB03F303EBE4
:103A90004303DB039B09C4F8D831C4F82CA1DBF83D
:103AA0000030089923F07F420B0243EA016313437D
:103AB000CBF8003000F0B2FB099B03F01A0303437C
:103AC0007FF46AAFA7FB0637D4F81431B8EB970F31
:103AD0000A93D4F818310B93D4F81C310C93D4F812
:103AE00020310D93D4F824310E93D4F828310F935C
:103AF00001D1039B9BB9484618220AA9183EFFF73B
:103B0000B5FC09F1180908F101089EB100F0C0FBED
:103B100000230993002D7FF433AF224839E748464C
:103B20001A46F61A0AA9994408F10108FFF79EFC03
:103B3000002EEBD1069F079E6A6939463046FFF793
:103B400069FEAA6940B94FF4806339463046FFF7F1
:103B500093FE00283FF440AF00231A9A136018E741
:103B60002B6A002B3FF439AF0F4836E70323049349
:103B70005CE70223049359E7012229465846009640
:103B800008ABFFF7A7FD00283FF4D4AE25E700BF40
:103B900000108450ABAAAAAA020CF100310CF1006B
:103BA000300CF100350CF100320CF10030B4DDE9DD
:103BB000023402940024049DCDE9035430BCFFF785
:103BC0009BBE00BF30B51546012487B005AB0093FE
:103BD0000022CDE9015404ABFFF78EFE07B030BDE3
:103BE000F0B587B0002966D01E46002B63D014467E
:103BF000002A60D0314F0D4638684FF0FF31FFF793
:103C00004FFC00284DD10020FFF77AFC002844D15A
:103C10002B4800F03FFAD8B101204FF0FF35FFF7F5
:103C20006FFC002835D14FF408712648FEF70EFFCF
:103C300004212548FEF70AFF21482821FEF706FF48
:103C40003868FFF735FC00282FD1284607B0F0BDB3
:103C50001C4A0346029205AA019204AA039000920C
:103C6000174902461848FFF7A1FF03460028D3D1A1
:103C700028461D46059B22469C4228BF1A460499A9
:103C800032600831FFF7F2FB0120FFF739FC002812
:103C9000C9D00E48FFF79AFCC5E70D48FFF796FC20
:103CA000B6E70C48FFF792FCADE70B48FFF78EFC38
:103CB000284607B0F0BD4FF0FF35C6E7A81000203A
:103CC000E824002010250020E4240020F04A010010
:103CD000D04A0100B84A0100944B010010B50446D7
:103CE00028B12046BDE81040F421FFF7C1BB0448CD
:103CF000FFF76CFC2046BDE81040F421FFF7B8BB8D
:103D0000AC4B010010B1F421FEF7A0BE704700BF1C
:103D100008B521B1012908D06FF0360008BD012196
:103D200000F058F80028F7D108BD022100F052F841
:103D30000028F9D0F0E700BF30B505468818B0F587
:103D4000801F0B461446A1B001D8802A0CD9B3F5C8
:103D5000801F17D922461946284600F07DF80446F0
:103D600084B9204621B030BD6846FFF77FFB22466C
:103D70006946284600F070F8802104466846FFF73F
:103D800077FBEDE76FF03604EBE700BF70B5E8B105
:103D90000E46D9B1044600F031F80546B0B92368A3
:103DA000012B0BD0022B01D0284670BD1C223046BF
:103DB00004F10801FFF75AFB284670BD2022304667
:103DC00004F10801FFF752FB284670BD6FF036057D
:103DD000EAE700BF78B138B50D46F0210446FFF799
:103DE00047FB402320462560E36500F091FA003848
:103DF00018BF012038BD0120704700BFF0B5056E27
:103E0000A5B0044604AEE5B900230127019330466E
:103E10006760294602AA009300F046FA10B101201B
:103E200025B0F0BD2A46204602A900F099FA0028E4
:103E3000F5D1204600F0AAFB0028F0D1206625B07D
:103E4000F0BD802D2A46304628BF802204F164014F
:103E5000FFF70CFB256ED7E7002800F0AE802DE9B8
:103E6000F04F1446A5B0002A3DD00F46002949D096
:103E7000B2F5803F0546006E20D34FF6FF7805F17E
:103E8000640AEB6D1A1AB2FBF3F103FB1122002A4C
:103E900065D18342B9464FF6FF7672D0B6FBF3FB8D
:103EA00003FB0BFBBBF1000F30D1002E45D1A4F575
:103EB0007F44FF3CB4F5803F4744E2D2EA6D161AD6
:103EC000B6FBF2F302FB1366A64228BF2646002E7D
:103ED00075D1824200F08D80B4FBF2F602FB06F64B
:103EE0002EB9002C79D1002025B0BDE8F08F002339
:103EF00031463846CDE9003302AA00F0D5F9002852
:103F000000F09580012025B0BDE8F08F00235946D0
:103F10004846CDE9003302AA00F0C6F90028F1D1E5
:103F20005A46284602A900F01BFA0028EAD1A6EB5F
:103F30000B06286ED944002EB9D0193049463246B6
:103F400005EB8000FFF792FAA4F57F44286EFF3C52
:103F50003044B4F5803F4744286692D2AEE74245EC
:103F600028BF4246164639465044FFF77FFA286E6E
:103F7000EB6D3044834207EB06092866A8EB060682
:103F80008CD1802B28BF802351461A4604A8FFF706
:103F90006DFA0023E96D02AACDE9003304A800F010
:103FA00083F90028AED12846EA6D02A900F0D8F9BD
:103FB0000028A7D1EB6D286670E70120704705F156
:103FC0006403394632461844FFF750FA286EEA6D0A
:103FD0003044A41B374428667BE72B6E22461933F6
:103FE00005EB83003946FFF741FA2B6E23442B661D
:103FF00079E7802A28BF802205F1640104A8FFF731
:1040000035FA0023E96D04A8CDE9003302AA00F0D7
:104010004BF900287FF476AF2846EA6D02A900F03C
:104020009FF900287FF46EAFEA6D286654E73246A8
:10403000284602A900F094F900287FF463AF3744C2
:10404000A41B4EE7F8B51C460546114816460F4618
:10405000FFF744FE21460E48FFF75AFE044620B102
:104060000B48FFF74FFE2046F8BD3A462946084860
:10407000FFF762FE04460028F2D131460448FFF7FC
:1040800085FE04460248FFF73DFE2046F8BD00BF0E
:10409000302700201C2370B582B001A9054601938A
:1040A00000F032F8044638B9019B1C2B07D0144CA1
:1040B0001C212846FFF7DCF9204602B070BDD5E987
:1040C0000112131E18BF0123003918BF0121012658
:1040D00028689B00EA6843EA4103002818BF43F0C0
:1040E0000103EE612AB9C5E90834002BE4D1054C7F
:1040F000DEE7204643F00803C5E9083402B070BD8E
:10410000370CF0000E0CF0000346002866D00029A2
:1041100064D00A681C2A61D14FF47F023B49D2F86F
:10412000100C88425CD0D2F8101C013158D0D2F863
:10413000101C4FF47F021960D2F8140C34498842E5
:1041400060D0D2F8141C01315CD0D2F8141C4FF4AA
:104150007F025960D2F8181C11F5947F4FD0D2F825
:10416000181C01314BD0D2F8181C4FF47F02996013
:10417000D2F81C0C274988423ED0D2F81C1C0131D1
:104180003AD0D2F81C1C4FF47F02D960D2F8001C40
:1041900070312FD0D2F8001C01312BD0D2F8001C86
:1041A0004FF47F021961D2F8041CAF3120D0D2F84D
:1041B000041C01311CD0D2F8041C4FF47F02596159
:1041C000D2F8080C144988420DD0D2F8081C0131ED
:1041D00009D0D2F8082C00209A617047012070475E
:1041E00040F6FC01A5E740F2373200209A617047A3
:1041F0005121E2E79021D3E742F60411C3E740F6EC
:10420000D861B2E742F2D001A1E700BFFCF8FFFF9E
:10421000D020FFFF0429FFFF37F3FFFF014608B559
:104220004FF48060FFF7AEF80022034BC3F8C821BB
:10423000C3F82C2108BD00BF0010845001380728A6
:1042400005D8DFE800F0100E040A0404040607484D
:104250007047CB6800204B6270478B6800204B6230
:1042600070474B68F6E70B68F4E700BF310CF100CC
:104270000B6802E0082B0B6006D8026A13424FEA73
:104280004303F7D00020704700487047310CF1001D
:104290000022044B4FF48060C3F82C21C3F8C421E2
:1042A000FFF756B800108450F0B5002483B0B0F189
:1042B000005F8DF8074025D38C468444BCF1804FC5
:1042C00004461FD817461D4601220DF1070300F0D2
:1042D00097F90646B0B99DF80730099A3C603B71E2
:1042E00092B14DB10246089928460DF1070300F03E
:1042F00087F938B99DF807303046099A156013716F
:1043000003B0F0BD4FF47506304603B0F0BD00BFFA
:10431000D8B108B50368012B04D0022B0FD043B1EC
:104320000B4808BD20220B490830FFF79FF80020FA
:1043300008BD142208490830FFF798F8F7E7202253
:1043400006490830FFF792F8F1E74FF47300704721
:104350000100F300BC4B0100FC4B0100DC4B0100F1
:104360002DE9F843002900F0F9800446002800F008
:10437000F98003680F469046002B00F0C380013B94
:10438000012B00F2D7804FF0FF3178484FF002093F
:10439000FFF786F8002840F0BF800020FFF7B0F854
:1043A0000646002840F0C280714AD2F81C39002B22
:1043B000FBD16F4DD5F8203C002BFBD14FF0FF30E7
:1043C000FEF7C6FFD5F8040A20F04000FEF7CEFF46
:1043D00001230722C5F81838C5F80029C5F8C437E5
:1043E000A36CC5F8CC37E36CC5F8D037C5F8C097D7
:1043F00023685BB1013B012B18D8636AC5F85C36B2
:10440000236AC5F85836E369C5F85436A269584B93
:10441000C3F850266269C3F84C262269C3F84826BF
:10442000E268C3F84426A268C3F84026504AD2F88E
:104430001039002BFBD1B8F1000F5FD0636840202A
:10444000012B08BFC2F884363A68494BC3F8282CC0
:10445000C3F82C8CFEF790FF0646454AD2F8103977
:10446000002BFBD1424AD2F8203C002BFBD1236821
:104470005BB1013B012B18D8D2F85C366362D2F8ED
:1044800058362362D2F85436E361394BD3F85026BC
:10449000A261D3F84C266261D3F848262261D3F892
:1044A0004426E260D3F84036A36000230121304A5D
:1044B000D2F8CC07A064D2F8D007E064C2F8C417E1
:1044C000C2F88436C2F8C837D2F81039002BFBD1B5
:1044D000C2F81838002E3BD1254BD3F8040A40F01F
:1044E0004000FEF743FF0120FFF70AF860BB1F48BA
:1044F000FEF7DEFF10BB3046BDE8F8830423C2F8A8
:10450000C837AAE74FF0FF3118484FF00109FEF70E
:10451000C7FF00283FF441AF1648FFF757F80020C7
:10452000FEF7EEFF064600283FF43EAF1248FFF7C5
:104530004DF839E7114E3046BDE8F8831048FFF7D3
:1045400045F83046BDE8F8830E48FFF73FF8CEE760
:10455000102104F10800FEF78BFFBDE70A4E30463C
:10456000BDE8F8834FF47306C5E700BFB81000201C
:1045700000108450B84A0100D04A01000100F30045
:10458000104B0100F04A01000300F300A0B3034602
:1045900070B4D0E90240D3E9041226BA05BA0CBAC5
:1045A00010BAC3E90440D3E90612986A09BAC3E90C
:1045B000026512BA996100BAD3E9084125BA0CBA6A
:1045C000C3E90725D3E90B12C3E9094009BAD86B3F
:1045D00012BAD962D3E90D4125BAC3E90C250CBA48
:1045E00000BAD3E9101209BA12BAC3E90E4019642D
:1045F00000205A6470BC70474FF47300704700BFCE
:1046000000201870704700BF431810B501D21F2A50
:1046100001D9002010BD013902F014030144102B10
:1046200080EA01043CD009DC8BB1042BF1D11F2CB2
:1046300040E840F315D941E840F10EE0142BE8D1F1
:104640001F2C40E8C0F30CD941E8C0F105E01F2C55
:1046500040E800F305D941E800F11C460B468C42C6
:10466000D7D122F01402013A0A2AD2D801A151F876
:1046700022F000BFC3460100BD460100AF46010065
:1046800013460100134601001346010013460100C2
:10469000C9460100C3460100B7460100AF4601000C
:1046A0001F2C40E880F3DCD941E880F1D5E713F412
:1046B000001FAFD1ADE713F4801FFAE75B02A9D565
:1046C000A7E713F4002FF4E713F4802FF1E700BFFE
:1046D00008B5074B044613B10021AFF30080054B2A
:1046E0001868836A03B19847204600F029F800BF94
:1046F00000000000104C010070B50D4D00260D4C5F
:10470000641BA410A64209D10B4D00260B4C00F0EF
:10471000B9F9641BA410A64205D170BD55F8043B3D
:1047200001369847EEE755F8043B01369847F2E723
:1047300074110020741100207411002078110020E1
:10474000FEE700BFB7EE000AF7EE000AB7EE001A68
:10475000F7EE001AB7EE002AF7EE002AB7EE003A9D
:10476000F7EE003AB7EE004AF7EE004AB7EE005A0D
:10477000F7EE005AB7EE006AF7EE006AB7EE007A7D
:10478000F7EE007AF1EE10CA40F29F01CFF200017D
:104790003CEA010CE1EE10CA002383F30088704765
:1047A000FDF77EBBEFF30880EFF309812DE9F00FF1
:1047B0006B467246FCF744FA08B0FFF7F1FFFEE7DC
:1047C000FDF76EBBEFF30880EFF309812DE9F00FE1
:1047D0006B467246FCF734FA08B0FFF7F1FFFEE7CC
:1047E000FDF75EBBEFF30880EFF309812DE9F00FD1
:1047F0006B467246FCF724FA08B0FFF7F1FFFEE7BC
:10480000FDF74EBBEFF30880EFF309812DE9F00FC0
:104810006B467246FCF714FA08B0FFF7F1FFFEE7AB
:10482000FDF73EBBEFF30880EFF309812DE9F00FB0
:104830006B467246FCF704FA08B0FFF7F1FFFEE79B
:1048400070B504463AB141EA040313F003030CD1F6
:10485000D518032D0FD822F003031C44194400235C
:1048600002F0030293420CD170BD11F8013B013AF2
:1048700004F8013BE6E7CD1A2E68E51A2E60043BEA
:10488000E6E75D5CE5540133ECE7F0B5044662B958
:1048900022F00303234402F003021A44934214D18A
:1048A000F0BD04F8011B013AF1E7A307F9D1154661
:1048B0000B0443EA01630B4343EA01231619032D5A
:1048C000E6D9771B3B60043DF9E703F8011BE5E7F8
:1048D00008B5EFF30583C3F308030BB1FDF7E0FA66
:1048E000BDE80840FDF764BB10B50446EFF305834F
:1048F000C3F308030BB1FDF7D3FA2046BDE810401F
:10490000FDF759BB2DE9F04104460D4616461F46FA
:10491000EFF30583C3F308030BB1FDF7C1FA3B4680
:10492000324629462046BDE8F041FCF761BD2DE93D
:10493000F04104460D4616461F46EFF30583C3F3C8
:1049400008030BB1FDF7ACFA3B4632462946204638
:10495000BDE8F041FCF786BD08B5EFF30583C3F36E
:1049600008030BB1FDF79CFABDE80840FDF7F3BA68
:1049700000207047704710B5044608B1FDF790FF5E
:104980002046BDE81040FDF77BBF10B50446406AE5
:1049900010B1A16AFFF7EFFF0020C4E9090010BDC4
:1049A00038B50446FFF7F1FF236A2C22012B0CBF18
:1049B00005466FF0960500212046FFF766FF284662
:1049C00038BD0020704770470020704713B50020A5
:1049D00001AB1446FEF718F830B9019BA34218BF8B
:1049E0006FF0930002B010BD6FF09200FAE7002064
:1049F00070472DE9E04F2746A046A146A246A346B0
:104A0000A4462DED108B4FF0000545EC185B45ECEE
:104A1000195A45EC1A5A45EC1B5A45EC1C5A45EC00
:104A20001D5A45EC1E5A45EC1F5AF1EE105A4FF62E
:104A30006076C0F6FF763540E1EE105A84F30088C8
:104A400025462646A447BDEC108BBDE8E08F884282
:104A500010B501EB020402D98442234607D8431E55
:104A6000A14208D011F8012B03F8012FF8E7024406
:104A700001468A4200D110BD13F8014D02F8014DE4
:104A8000F7E70000F8B500BFF8BC08BC9E467047C9
:104A9000F8B500BFF8BC08BC9E467047FF8FFFFF0B
:104AA000FF8FFFFFFE8FFFFFFE8FFFFFFD8FFFFFDA
:104AB000FC8FFFFFFC8FFFFF4661696C20746F2045
:104AC00061637175697265206D757465780A00009F
:104AD0004661696C20746F20696E637265617365ED
:104AE00020504D20636F756E7465720A00000000DF
:104AF0004661696C20746F206465637265617365DB
:104B000020504D20636F756E7465720A00000000BE
:104B10004661696C20746F2072656C6561736520F5
:104B20006D757465780A0000436F756C64206E6F54
:104B300074206C6F636B20706F7765722073617681
:104B400065206D75746578006D757465785F667243
:104B500065652063616C6C65642077697468204EBC
:104B6000554C4C20706172616D6574657200000077
:104B700043616E277420696E697469616C697A6536
:104B8000206D757465782C20776173204E554C4CE0
:104B90000D0A00004661696C20746F20756E6C6FA1
:104BA000636B206D757465780A0000000A63747881
:104BB000206973204E554C4C0A00000067E6096AD4
:104BC00085AE67BB72F36E3C3AF54FA57F520E512E
:104BD0008C68059BABD9831F19CDE05BD89E05C1BE
:104BE00007D57C3617DD703039590EF7310BC0FF11
:104BF00011155868A78FF964A44FFABE01234567C1
:104C000089ABCDEFFEDCBA9876543210F0E1D2C316
:104C10001411002054464D5F43525950544F0054D4
:104C2000464D5F504C4154464F524D5F534552568E
:104C300049434500000000000000000000000000A3
:107C00007FE97FE9FAF7ECBB7FE97FE9FAF7F7BB99
:107C10007FE97FE9FAF71FBC7FE97FE9FAF712BC39
:107C20007FE97FE9FAF7FABB0000000000000000DE
:107C30000000000000000000000000000000000044
:107C40007AFFFFFF90ED00E000A003507FA60350F5
:107C5000E81100207C110020440301007549010057
:107C6000714901008B480100B0100020E010002095
:107C7000D8100020D4100020D01000209D35010025
:107C8000913501008535010000000000A935010093
:107C90000C11002004110020FC1000200000000046
:107CA000F4100020B5360100013601003536010020
:107CB0007D360100D42400203A00003AD824002068
:107CC0003A00003ADC2400203A00003AE024002088
:107CD0003A00003A00000000000000000000000030
:107CE0000000000000000000000000000000000094
:107CF0000000000000000000000000000000000084
:107D00000000000000000000000000000000000073
:107D10000000000000000000000000000000000063
:107D20000000000000000000000000000000000053
:0C7D300000000000D5240100AD2401007B
:040000031000086978
:00000001FF
