:020000040001F9
:100000003DB8F39600000000000200009064040078
:1000100000000000000000000000000000000000E0
:10002000FFFFFFFFFFFFFFFFFFFFFFFFFFFFFFFFE0
:10003000FFFFFFFFFFFFFFFFFFFFFFFFFFFFFFFFD0
:10004000FFFFFFFFFFFFFFFFFFFFFFFFFFFFFFFFC0
:10005000FFFFFFFFFFFFFFFFFFFFFFFFFFFFFFFFB0
:10006000FFFFFFFFFFFFFFFFFFFFFFFFFFFFFFFFA0
:10007000FFFFFFFFFFFFFFFFFFFFFFFFFFFFFFFF90
:10008000FFFFFFFFFFFFFFFFFFFFFFFFFFFFFFFF80
:10009000FFFFFFFFFFFFFFFFFFFFFFFFFFFFFFFF70
:1000A000FFFFFFFFFFFFFFFFFFFFFFFFFFFFFFFF60
:1000B000FFFFFFFFFFFFFFFFFFFFFFFFFFFFFFFF50
:1000C000FFFFFFFFFFFFFFFFFFFFFFFFFFFFFFFF40
:1000D000FFFFFFFFFFFFFFFFFFFFFFFFFFFFFFFF30
:1000E000FFFFFFFFFFFFFFFFFFFFFFFFFFFFFFFF20
:1000F000FFFFFFFFFFFFFFFFFFFFFFFFFFFFFFFF10
:10010000FFFFFFFFFFFFFFFFFFFFFFFFFFFFFFFFFF
:10011000FFFFFFFFFFFFFFFFFFFFFFFFFFFFFFFFEF
:10012000FFFFFFFFFFFFFFFFFFFFFFFFFFFFFFFFDF
:10013000FFFFFFFFFFFFFFFFFFFFFFFFFFFFFFFFCF
:10014000FFFFFFFFFFFFFFFFFFFFFFFFFFFFFFFFBF
:10015000FFFFFFFFFFFFFFFFFFFFFFFFFFFFFFFFAF
:10016000FFFFFFFFFFFFFFFFFFFFFFFFFFFFFFFF9F
:10017000FFFFFFFFFFFFFFFFFFFFFFFFFFFFFFFF8F
:10018000FFFFFFFFFFFFFFFFFFFFFFFFFFFFFFFF7F
:10019000FFFFFFFFFFFFFFFFFFFFFFFFFFFFFFFF6F
:1001A000FFFFFFFFFFFFFFFFFFFFFFFFFFFFFFFF5F
:1001B000FFFFFFFFFFFFFFFFFFFFFFFFFFFFFFFF4F
:1001C000FFFFFFFFFFFFFFFFFFFFFFFFFFFFFFFF3F
:1001D000FFFFFFFFFFFFFFFFFFFFFFFFFFFFFFFF2F
:1001E000FFFFFFFFFFFFFFFFFFFFFFFFFFFFFFFF1F
:1001F000FFFFFFFFFFFFFFFFFFFFFFFFFFFFFFFF0F
:10020000F80B0020690801003D090100E55D0100CF
:10021000055E0100255E0100655E0100455E01008E
:10022000000000000000000000000000692A01003A
:100230003D090100000000003D0901003D090100E9
:10024000000000000000000000000000693601000E
:10025000000000003D090100000000000000000057
:100260003D0901003D0901003D0901003D09010072
:10027000000000003D0901003D0901003D090100A9
:100280003D0901003D0901000000000000000000E0
:100290003D0901003D0901000000000000000000D0
:1002A0003D09010000000000000000003D090100C0
:1002B0003D0901003D0901003D0901003D09010022
:1002C0003D0901003D0901003D0901003D09010012
:1002D0003D090100000000003D0901000000000090
:1002E0003D090100000000003D0901000000000080
:1002F0003D090100000000000000000000000000B7
:10030000000000003D0901000000000000000000A6
:1003100000000000000000000000000000000000DD
:10032000000000003D090100000000000000000086
:1003300000000000000000000000000000000000BD
:100340003D09010000015F5F00000000FE0B00009E
:10035000452B0100800600000000000000000000A6
:10036000000000000000000000000000401200201B
:100370000000000001015F5F030100001F01000099
:1003800085060100000000000000000001000000E0
:10039000010000000000000000000000000000005C
:1003A0000000000070000000AC620100800000004E
:1003B000000F000001000000D104010001015F5F97
:1003C000040100001F010000F3070100000000000D
:1003D000000000000000000001000000000000001C
:1003E000000000000000000000000000B7620100F3
:1003F000400000000507000001000000DF060100CA
:1004000038B50025054C29462046D4F80024C4F808
:10041000045405F090FDC4F8005438BD200C0020B1
:1004200013B511460022CDE9002242680346382A5E
:10043000046844D194F82820022A19D01AB900F08F
:1004400047F902B010BD21482468D0F80404013AED
:10045000CDE90040082A35D8DFE802F0050A0E137E
:10046000181D22272C006A46184600F02EF9E8E7EE
:10047000184600F018F9E4E76A46184600F016F945
:10048000DFE76A46184600F00BF9DAE76A461846D5
:1004900000F00FF9D5E76A46184600F00DF9D0E7ED
:1004A0006A46184600F00BF9CBE76A46184600F09A
:1004B00009F9C6E76A46184600F00EF9C1E76FF081
:1004C0008000BEE76FF08500BBE700BF200C002076
:1004D0002DE9F04F05680446A1B0002D40F0AA8038
:1004E0002022294602A805F026FD12AF2022294627
:1004F0000AA805F020FD38222946384605F01BFDE4
:10050000E26904F11C039846B2B10426E26A04F1E0
:100510002C03EAB10425EEB96FF08306304621B012
:10052000BDE8F08F002EF1D053F8041D3246013E95
:100530000029F7D01646E9E70326F5E7002DEAD0B3
:1005400053F8041D2A46013D0029F7D01546E2E77D
:100550000325F5E738233A460021606805F028FDB9
:100560003828D9D14FF00109CDE90270334F0DF190
:10057000080A04F1100B4E45D7F800141CD10DF1F8
:1005800028094B46002008EB850EC64533D108B13B
:10059000C7F80014A3683146C7F804340AAA2B46EA
:1005A00002A8FFF73DFF00270646BD4209F10809F2
:1005B00038D1FFF725FFB1E75BF8043FC1F5806252
:1005C000D81C20F00300904204D9FFF719FF6FF008
:1005D0008C06A3E70844CA19C7F8000449466068B6
:1005E000019205F0E5FC019ACAF80C0009F1010935
:1005F0004AF8082FBFE758F804CFC1F5806A0CF11C
:10060000030222F00302524503F1080305D87818CB
:1006100043E9020C11440120B7E70028D5D0C7F800
:100620000014D2E7394659E90223606805F0D5FC89
:100630000137BAE76FF0850670E700BF200C002095
:1006400008B528220021024805F075FC002008BDED
:100650002810002010B5044C0F222046034905F055
:1006600045FC204610BD00BF51100020F6070100D8
:1006700008B50121024803F0F1FB002008BD00BFCE
:100680005010002008B5FFF7DBFF40B9FFF7E2FF8D
:10069000FFF7EEFF18B9BDE8084003F04DBC08BDF8
:1006A0006FF0850070476FF0850070476FF0850030
:1006B00070476FF0850070476FF0850070476FF0EE
:1006C000850070476FF0850070476FF085007047B8
:1006D000D1E9000103F010BC6FF085007047F0B560
:1006E00003680546B3F57D7FA7B007D040F2F53229
:1006F000934207D06FF0850027B0F0BD01F000FDF8
:100700000020F9E700243C22214607A8CDE9024455
:10071000CDE90444069405F00EFC3C22214617A8BE
:10072000169405F008FCEA69019405F11C0302B374
:100730000426EA6A05F12C033AB30424731E012B44
:1007400052D8012C50D80423002168680DEB030215
:1007500005F02EFC04281AD06FF08000CCE7002EA4
:10076000E7D053F8041D3246013E0029F7D0164663
:10077000DFE70326F5E7002CE0D053F8041D2246FE
:10078000013C0029F7D01446D8E70324F5E7022EF0
:1007900016D16E69402E29D806AF33463A4601215C
:1007A000686805F005FC8642D6D1CDE9027602A93B
:1007B00044B92246019801F0B5FC044620469BE767
:1007C0000021F5E72B6A402BC6D816AACDE90423F1
:1007D000019804AA01F0A6FCDDE9042304460021E7
:1007E000686805F0FAFBE9E7012085E76FF089000A
:1007F00082E7002070474D62656420544C532033DB
:100800002E352E3000000000000000000000000027
:1008100000000000000000000000000000000000D8
:100820001433000001000000407C01008010002013
:100830004A000000407C0100200C00200000000065
:10084000407C0100000C002000000000A8110020E6
:10085000C4050000200C002018010000000C00203E
:100860000800000002F036BD08B572B6002383F31D
:100870001488BFF36F8F83F30A8883F30B88BFF369
:100880005F8F254B5A6A22F480325A62D3F8942043
:1008900022F00102C3F89420BFF34F8FBFF36F8F94
:1008A0001E4A9A6000F058F81D4B83F309881D4BCF
:1008B00083F30A8883F30B881B4B15A1D1E9000150
:1008C000C3E9000100F0EEF8184B19498B4212D32E
:1008D0000020184B18498B4218D303F02FF91868E1
:1008E00050F82240586840F822400132986882420D
:1008F000F5D30C33EAE70022F8E71C6844F822003D
:1009000001325C68A242F8D30833E4E70022F8E73A
:10091000A5EDF5FEA5EDF5FE00ED00E000020100FD
:10092000F80B002000040020F80B0020280801002C
:100930004C0801004C08010064080100EFF3088036
:10094000EFF309812DE9F00F6B46724600F078F95C
:1009500008B0FFF787FFFEE738B572B6002383F3D0
:10096000138883F311884FF0FF30274A03F12001E9
:100970000133102B42F82100F8D100234FF0FF344F
:10098000214A03F160010133102B42F82140F8D1D4
:10099000012200251D4B29465A60C3F84843C3F87D
:1009A000084303F580535A60C3F84843C3F808432B
:1009B000A3F55043C3F800558022C3F808431448F8
:1009C00005F0B9FA29468022124805F0B4FA124B14
:1009D0002946C3F800558022C3F808430F4805F0A4
:1009E000AAFA802229460E4805F0A5FA0D4BC3F855
:1009F00008454FF05023C3F8084362B6BFF34F8F4A
:100A0000BFF36F8F38BD00BF00E100E00040015030
:100A100080800050808100500090005080900050F5
:100A2000809100500070015008B5EFF31083012B46
:100A30000C4A07D1126ABFF34F8F511C4A424A41F8
:100A4000104608BD01F020FC00B172B6126ABFF377
:100A50004F8F531C5A425A4101F016FC0028EFD028
:100A600062B6EDE70080FF0008B5EFF31083012BBD
:100A70000B4A06D1D269BFF34F8F02F00102104634
:100A800008BD01F001FC00B172B6D269BFF34F8F0F
:100A900002F0010201F0F8FB0028F0D062B6EEE7A8
:100AA0000080FF005D4A10B5D2F8D03043F0020359
:100AB000C2F8D03001F0E8FB30B14FF050230022F3
:100AC000C3F81421C3F8182101F0EDFB28B101226D
:100AD000534BC3F8382AC3F878254FF47F02D2F875
:100AE0003031D2F83421BFF34F8FC3F30B03092BFE
:100AF00005D1012A1EBF0122494BC3F8782501F018
:100B0000D2FB18B10E22474BC3F8E42E01F0BCFB18
:100B100030B10022424BC3F80C270122C3F8102742
:100B20000022D30003F57F03D3F80013BFF34F8FE8
:100B3000013108D0D3F800130132D3F80433B2F5F1
:100B4000807F0B60EDD1EFF31084FFF78DFF00285D
:100B50004DD0BFF34F8F344BD3F80024012AFBD183
:100B6000C3F80425D3F80024012AFBD1012C03D0BB
:100B700001F08AFB00B172B6FFF776FF58B12B4A3D
:100B8000D36923F00103D361BFF34F8F264AD2F814
:100B90000034012BFBD1FFF747FF68B1234A136AEA
:100BA00023F0FF0343F020031362BFF34F8F1E4A6D
:100BB000D2F80034012BFBD1012C03D001F064FBEF
:100BC00000B162B60022184BC3F80425D3F8002404
:100BD000012AFBD1BFF34F8F1049154BCA6802F4AD
:100BE000E0621343CB60BFF34F8F00BFFDE7FFF719
:100BF0001BFF0028ADD1094BD3F88C2042F4406292
:100C0000C3F88C20D3F8882042F47002C3F88820FF
:100C1000BFF34F8FBFF36F8F10BD00BF00ED00E03B
:100C20000040005000A00350009003500080FF00DF
:100C30000400FA057C22014905F058B9DC180020AF
:100C400038B51D46374B384C5B68C3F30803236047
:100C5000EFF30383C4E901206365C2F3801302F05C
:100C60000C020C2AE16038D10BB9EFF38981202204
:100C70002E48216105F03AF925B1202229462C4859
:100C800005F034F9274B9A6AA265D96AE165986B39
:100C9000206602F400406066586BA06602F0800097
:100CA000E0669A62D962D3F8E4202267D3F8E810AC
:100CB000616702F04001A167C3F8E42000F06AF820
:100CC0000E211C4801F001FB2268D31E042B1CD806
:100CD000DFE803F0090F1215180013B9EFF388814C
:100CE000C5E70146C3E70C211348BDE8384001F0D1
:100CF000ECBA12211148F8E70B211148F5E70D2154
:100D00001048F2E70E211048EFE70F2A98BF142190
:100D1000BDE8384089BF25210C480D48103A01F044
:100D200043BC00BF00ED00E0DC180020F0180020FC
:100D3000101900203C3701004A37010056370100E6
:100D40006837010073370100803701008E370100DA
:100D5000A23701002DE9F34106460F460C4DD5F8A8
:100D60002C80C04710F00104FBD1394630466B6936
:100D7000984740B9C047C307FCD42B6A019302B01F
:100D8000BDE8F0411847204602B0BDE8F08100BF41
:100D9000C837010010B5094C0020A36898472369A3
:100DA00002209847A46A4FF4E1310120A04723466E
:100DB000BDE8104001211520184700BFC8370100C9
:100DC00010B5044C002023699847E368BDE8104043
:100DD000184700BFC8370100064B82B018680023CF
:100DE00082B262F30F03000C60F31F43184602B097
:100DF000704700BF10380100014B1869704700BFF1
:100E000084100020014B5869704700BF84100020F7
:100E100038B50C4D0C4695F8203013B94FF0FF3023
:100E200038BD0A460146284600F06CFF064B984242
:100E300005D00B3B9842F1D100206C61F0E76FF0D8
:100E40000100EDE7841000200B00AD0BF0B51B4E48
:100E5000054696F820300C4691B01BB94FF0FF3094
:100E600011B0F0BD00F06043B3F1005F21D1002369
:100E70000A460146304600F031FC114B98421AD028
:100E80000B3B9842EAD1346111E0A71B402F28BFE9
:100E90004027A9193A46684605F028F839466846B9
:100EA000FFF7D4FF0028DBD14036B442EDD8002054
:100EB000D6E70026F9E76FF00100D1E784100020A3
:100EC0000B00AD0BC3B2012B10B540F096804DF670
:100ED000C023994270D028D8B1F5615F6FD011D886
:100EE000B1F5965F6DD008D8B1F5966F6BD0B1F5BE
:100EF000166F6BD06FF007005DE0B1F5165FF9D1AA
:100F0000454B33E047F61223994262D007D8B1F53A
:100F1000964F61D0B1F5E14FECD1404B26E0B1F5F1
:100F2000164FE7D14FF41D0320E03D4B994255D0B9
:100F300011D8B1F5E13F54D007D8B1F5614F53D086
:100F4000B1F5963FD6D1374B10E0B1F5613FD1D125
:100F50004FF06C730AE0B1F5612F48D0324B9942E3
:100F600048D0B1F5E12FC5D14FF0E86310F4E06F40
:100F700046D110F4404103D0B1F5804F43D1102148
:100F800010F4405203D0B2F5805F3FD10E2210F42E
:100F9000403003D0B0F5403F3BD10120234C2076B8
:100FA0006276E361A1760A4324681043C4F82435CD
:100FB000C4F86C05002010BD4FF46503D6E71C4B48
:100FC000D4E71C4BD2E74FF49E23CFE74FF41D2309
:100FD000CCE74FF40003C9E7174BC7E74FF0806336
:100FE000C4E74FF0EB73C1E74FF46B03BEE74FF07C
:100FF0007063BBE74FF08053B8E76FF00300DAE7A8
:101000006FF00800D7E76FF00A00D4E76FF009002F
:10101000D1E76FF00B00CEE70050270000C075004D
:1010200090D0030000903A0140420F00841000204D
:1010300000F03A0000B0130000A04E0010B5114CB3
:10104000204600F0D5FD0021206884F8201000F033
:101050004DFF226842F30732002A11DB01215309B8
:101060009B0003F1604303F56143D3F8800202F073
:101070001F0201FA02F20243C3F88022D3F8803241
:10108000002010BD8410002010B5264C00212068DF
:101090008EB000F01DFF226842F30732002A12DBF7
:1010A000012053099B0003F1604303F56143D3F82A
:1010B000801202F01F0200FA02F221EA0202C3F8D3
:1010C0008022D3F880322422002105A804F033FFC7
:1010D000D4E902124FF0FF33CDE90133CDE90333F8
:1010E0004FF0EB730B93072301A88DF8363001F016
:1010F0000AF9014600220B4800F03AFA0A4B9842DE
:101100000DD10C9B002023831B0CA3760B9BC4E901
:101110000400E361012384F820300EB010BD6FF0AD
:101120000100FAE7841000200000AD0B7FB5002518
:101130000C46C0F808511646D0F80821D0F8002215
:1011400022F02002C0F80022104AC0F8082301F063
:101150002AF9A560256104F14C03D3E8EF1F21F4BF
:101160007F0121F47041C3E8E21F002AF5D110226B
:101170002946684604F0DFFE042368468DF80030F7
:101180000196D4E90013984704B070BD10020A001C
:1011900000F01F03400909D1074A02EB8303D3F88B
:1011A0000012064A0A40C3F800227047002280332A
:1011B00052F82330FFDE00BF00258450F0F8FCFF1A
:1011C0002DE9F04F804690F804A05020664F0E465F
:1011D00000FB0A70416885B049B113F0020304D0E6
:1011E000836B002B00F0B2800123009300E000919C
:1011F0004FF0500909FB0A73DB6CD90600F1A68099
:101200004FF0010BB3180293029BB34200F0A7808A
:1012100006F06043039398F80450D8F8004009FBA7
:1012200005739A6B9AB9039BB3F1005F40F0998004
:10123000019200F0A1FD09FB0572D16C204601F07E
:10124000010101F07EF828B900F09EFDE3E70123DB
:101250000193EEE7516C33460029BCBFD4F84C151E
:101260005164019A42B109FB05713078D1E90E232E
:10127000D054D1E90E3213441BB1C4F84435C4F83C
:1012800048B50022C4F82021D4F82011C4F8582110
:10129000D4F85811C4F85021D4F850210822C4F8C9
:1012A0000025009AE2B14FF48003C4F80433C4F877
:1012B00008B000F069FD502303FB0A725168002951
:1012C0004BD1D26C120748D503FB0A734C33D3E8D9
:1012D000EF1F21F00801C3E8E21F002A36D0F6E72D
:1012E000C4F808B0019300F04FFD09FB0572D16C02
:1012F000019B01F001012046019301F022F8844690
:10130000019BD4F84C05D4F84425BCF1000F0DD155
:101310009342F0D005EB850507EB0515D1B100F040
:101320002BFD2946204601F083F8C2E705EB850531
:10133000934207EB0515F1D10028EFD100F01CFD19
:101340002946204601F074F800F01EFD074805B05C
:10135000BDE8F08FC4F80CB0E1E7013654E704486B
:10136000F5E70448F3E700BF581900200800AD0B6B
:101370000000AD0B0400AD0B430904D10123034A67
:1013800083409360704700239B60FFDE00258450FC
:1013900000F01F0340090BD1084A02EB8302D2F888
:1013A0000012074B0B4043F00303C2F800327047B2
:1013B0000022803352F82330FFDE00BF0025845026
:1013C000F0F8FCFF2DE9F84391F8303005460C4663
:1013D00090F804800F6853BB5023DFF85091781CBD
:1013E00003FB0893DE6C46F00072DA6404D03846E2
:1013F000FFF7C2FFFFF7CCFF6068411C01D0FFF789
:10140000C7FE94F82C30012B11D1502303FB089315
:10141000E06846F02066421CDE6401D0FFF7B8FEAB
:10142000A068431C03D0FFF7A7FFFFF7B1FF94F8B4
:101430002F0038B950223D4B02FB0833DA6C42F0E2
:101440008072DA6494F82CC094F82D1094F82EE091
:10145000A26A2B6841EA0C01E668D4E90198C3F856
:1014600024254EEA0102C3F86C2550B9BCF1010FE6
:10147000C3F80C75C3F8149504BFC3F80885C3F806
:101480001065D3F8682503F26458012A08BFDA60B2
:10149000D3F86425012A13D1082149F64046244F88
:1014A000C3F8001547F001075A60D8F800309BBB1D
:1014B0002B68D3F88024C3F880240022C3F80025C9
:1014C00000212B6894F83220C3F81011D3F81001D2
:1014D000C3F82011D3F82001C3F82411D3F8240154
:1014E000C3F84411D3F84401C3F85811D3F8581184
:1014F00043F307335201002BD2B212DB0D49C81857
:1015000080F800230122580903F01F0302FA03F3B5
:1015100041F82030BDE8F8834020B847013EC4D1EF
:10152000C6E7054903F00F03CA54F3E75819002032
:101530002038010000E100E014ED00E000F01F039E
:1015400040090BD1084A02EB8302D2F80012074B84
:101550000B4043F00203C2F8003270470022803390
:1015600052F82330FFDE00BF00258450F0F8FCFF66
:101570002DE9F3479046502290F80490514C02FB1D
:1015800009FA04EB0A070D4697F8481006460029A9
:1015900040F0858009EB890004EB001004F0CBFCDF
:1015A0002B69AA6944F80A306B69BB6302B1013A3E
:1015B000502303FB0943DA632A6A042A81BFEA69DC
:1015C0009A610022DA6195F83130B8F1000F37D016
:1015D00083F001073F0233B1502303FB0943DA6C68
:1015E00042F00102DA64502303FB09440123C4F8EA
:1015F000048084F848303468D4F84C2112BB294662
:101600003046FFF7DFFE0822002334688DF80730EC
:10161000C4F800250DF10702C4F84425C4F8483584
:1016200001230A25A360E360D4F85831002B38D198
:10163000254B402043F001039847013DF4D128E0B9
:101640004746C8E708224FF06409C4F800256360E4
:101650001D4B43F0010AD4F84431F3B9D4F82431D6
:10166000DBB94FF42070D047B9F10109F3D14B46F3
:101670000022C4F84C21D4F84C11C4F81021D4F83D
:101680001011C4F84421D4F84411C4F80025002BEB
:10169000B5D10E4802B0BDE8F0870123E8E70C4859
:1016A000F8E70023C4F820319845D4F82021C4F885
:1016B0000035084B08BF00231F4333680648C3F8B2
:1016C0000473E7E758190020203801000100AD0B32
:1016D0000C00AD0B10020A000000AD0B2DE9F04725
:1016E00084460F469E4616460579002A51D04FF093
:1016F000500ADFF8BC80D0F800900AFB058ADAF8BF
:10170000044074B96BB9DAF82C50002D43D1CAF8F3
:101710002C20FFF755FD0446CAF82C502046BDE8A2
:10172000F0871EF0030F07D0734632463946BDE8F6
:10173000F0476046FFF744BD07F06043B3F1005F38
:101740004FF0500414D104FB058400F015FBE26A4D
:101750001AB1134C00F018FBE0E7C4E90A7605EB78
:101760008505484608EB051100F06DFE0D4CF1E7CC
:1017700004FB0584A36B83B100F0FEFAE36A002B3F
:10178000E7D1E36C012243F00203C4E90A76E36483
:10179000E5E7054CC2E7024CC0E7044CBEE700BFDA
:1017A0000B00AD0B0000AD0B0600AD0B0A00AD0B3E
:1017B000581900202DE9F84350230679284D046874
:1017C00003FB0653D4F80473DA6AC4F8087322B929
:1017D0002448C4F80473BDE8F88306EB860005F1DD
:1017E0004C024FEA001802EB0012D2E8EFCF4CF0A7
:1017F000080CC2E8E0CF0028F7D10122E26031B343
:10180000D96C01EA02094946204600F09AFD0028F9
:10181000FAD000F0B1FAB9F1000F1CD1D4F82031A0
:1018200053B10123E360D4F85831002BFBD020469C
:1018300005EB080100F0FCFD00F0A6FA0023C4F857
:101840002031D4F82021502202FB0655EB620648D5
:10185000C4F80473BFE7D4F85831002BE7D1EBE7A5
:10186000581900200500AD0B0000AD0B2DE9F84321
:1018700090F80480484F08EB8806360106F14C05C5
:1018800004683D44D5E8EF3F43F48052C5E8E02FBB
:101890000028F7D1DB047BD4480705D5502303FB90
:1018A00008739B69002B75D03C4B3E44C4F8083349
:1018B0000823C4F800350023C4F81031D4F81021EF
:1018C000C4F84C31D4F84C21C4F844310A03D4F89C
:1018D00044318B0303F4804302F400524903134361
:1018E00001F400410B43D5E8EF2F1A43C5E8E12F7F
:1018F0000029F8D14FF0500909FB0879D9F80830D0
:10190000BBB9D9F8043063B9D5E8EF3F23F47F03BE
:1019100023F47043C5E8E23F002AF5D12048BDE832
:10192000F8830321304600F019FDD9F80830002B68
:10193000EAD0D4F80433590713D5502303FB0873B6
:101940005A6872B1DB6C1A030BD5D5E8EF3F23F46C
:101950000023C5E8E23F002AF7D10621304600F017
:10196000FDFC502303FB0873DB6CDB0401D40D4842
:10197000D5E7D4F84C310BB901232360502303FB86
:1019800008735B68002BF2D0044BC4F80433EEE715
:101990000548C4E70548C2E75819002010020A00AC
:1019A0000200AD0B0000AD0B0B00AD0B0800AD0B42
:1019B0002DE9F84F056801F06043D5F804A3B3F1B1
:1019C000005F90F804B089461746C5F808A37CD19B
:1019D0005023404E03FB0B639A6852B15B68002BA7
:1019E0005ED1D5F81021002A5AD0C5F81031D5F8AB
:1019F0001031502404FB0B64E269C4E90297002A09
:101A00003CD00BEB8B0897424FEA081824D24FF0DA
:101A1000000B3A46A1694846C4E902BB04F066FAE5
:101A2000E269A069D21BC119E26104F029FA636876
:101A30006BB1B04449463A46404600F0A0FCE36C26
:101A4000990404D55A4641462846FFF76FFB2248C1
:101A5000C5F804A3BDE8F88F4846A16904F046FA2A
:101A6000E36963620023E3611C4B9844D8E8EF3FCD
:101A700043F40023C8E8E23F002AF7D1502303FBD8
:101A80000B63586ADA689968DB6C121A0144C5F86E
:101A90003415C5F83825DA04D9D501232B60D6E7EB
:101AA000502303FB0B6633698BB9F36CC5F834958F
:101AB0005B04C6E90497C5F83875C8D5D5F8003277
:101AC00043F02003C5F80032C1E70548C0E70548E8
:101AD000BEE700BF581900200000AD0BA41900207C
:101AE0000A00AD0B0B00AD0B50232DE9F0413C4D2E
:101AF00090F80480046803FB0853DB6CD4F8000200
:101B000003F48223B3F5805F68D1D4F80463C4F88A
:101B1000086309B9830656D4D4F8003223F02003B1
:101B2000C4F800324FF4842308EB8801090101F165
:101B30004C072F44D7E8EF0F1843C7E8EC0FBCF170
:101B4000000FF7D12AB9502303FB08535B68002B21
:101B500041D1244BC4F8083301236360D4F84431E5
:101B6000002BFBD00023C4F84C31D4F84C21C4F82E
:101B70001031D4F81021C4F84431D4F84431502342
:101B800003FB0853DA6C12F400421FD1DA612046DD
:101B900000F009FC502303FB08550023AB602B61C8
:101BA000D7E8EF3F23F47F0323F47043C7E8E23F15
:101BB000002AF5D126F4202626F404760A48C4F833
:101BC0000463BDE8F0814FF48033ADE7204629443B
:101BD00000F0FBFBDBE701236360EFE70348F0E77E
:101BE0005819002010020A000000AD0B0500AD0BD3
:101BF0002DE9F8432F4A03680679C3F8082343F315
:101C00000733002B04460DDB01215A0903F01F03A3
:101C1000994002F12003284A42F82310BFF34F8F66
:101C2000BFF36F8F012220461146FFF75DFF0121B0
:101C30002046FFF7BFFD50212279204D236801FB8C
:101C40000252D46CD3F80C05E201D3F81495D3F802
:101C50000875D3F8108509D54FF0FF32C3F80C256D
:101C6000C3F81425C3F80825C3F81025A30116D519
:101C7000411C01D0FFF762FCB9F1FF3F02D048469A
:101C8000FFF75CFC22010AD5B8F1FF3F02D04046C5
:101C9000FFF754FC7B1C02D03846FFF74FFC502363
:101CA000002203FB0653DA6483F848205A60BDE83B
:101CB000F88300BF10034A0000E100E0581900203B
:101CC00010B5502402790B4B04FB02335B686BB9EF
:101CD0000368D3F810211AB9D3F80025082A07D0D1
:101CE00011B1D3F83C350B60034810BD0348FCE745
:101CF0000348FAE7581900200000AD0B0800AD0BAF
:101D00000B00AD0BF7B505461646FFF751FE164B17
:101D10000446984222D1032128462F79FFF7A6FDD9
:101D2000124B984201D0A0421BD15022104B02FB13
:101D300007335B6893B90C4C284601A9FFF7C0FF35
:101D4000A042F9D1019BB34207D301222846114694
:101D500003B0BDE8F040FFF7C7BE064C204603B015
:101D6000F0BD0446FAE700BF0000AD0B0B00AD0B61
:101D7000581900200800AD0B72B6024A13680133EF
:101D800013607047A8190020034A1368013B1360D1
:101D900003B962B6704700BFA81900200722024BA2
:101DA000C3F80423704700BF00300050084BD3F83D
:101DB0000801D3F80021003818BF012080000AB1C3
:101DC00040F00100D3F804310BB140F0020070473D
:101DD000003000500022074BC3F80021D3F8001157
:101DE000C3F80421D3F80411C3F80821D3F808314B
:101DF000704700BF00300050002317200C49012B12
:101E000003F1010201D81346F9E703F5C073202A54
:101E100041F823001346F2D100231720044A03F5AA
:101E2000E0710133202B42F82100F8D1704700BF48
:101E30000030005010B59DF80840C00B43EA042361
:101E4000064CC90B43EA0213884200D910BDC2B246
:101E500002F5C07244F822300130F5E7003000503E
:101E600010B59DF8084000F1604043EA042301F1F9
:101E70006041074C400B490B43EA0213884200D9EA
:101E800010BDC2B202F5E07244F822300130F5E72D
:101E900000300050C0F30E03C3F50043B3FA83F3E0
:101EA000C3F11B03064AC0F3C730DBB240F48070B5
:101EB00043F48073C2F80005C2F80435704700BFD0
:101EC000003000504303014818447047FF1FF81FBB
:101ED000054BC0F30730090241F0300100F50070F6
:101EE00043F82010704700BF00300050044BC0F38F
:101EF0000730090200F5007043F82010704700BF5A
:101F000000300050003A18BF0122003918BF0121EB
:101F100003688900074841EA4201186359605A681A
:101F200042F001025A60BFF34F8FBFF36F8F002062
:101F3000704700BF04AAFF0008B5FFF737FF044B46
:101F4000162118600348BDE8084000F0BEB900BF84
:101F5000EC1F0020263801000C22014903F0C6BF07
:101F6000EC1F002010B501F064FB044690B902F0AC
:101F700019F8044680B90A4A2E21D368094823F08B
:101F800008031B041B0C43F0BF6343F40033D3600E
:101F900000F09BF9204610BD45F22354FAE700BF3C
:101FA00000ED00E03C38010008B500F08FF8BFF309
:101FB0004F8F0549054BCA6802F4E0621343CB60BA
:101FC000BFF34F8F00BFFDE700ED00E00400FA050E
:101FD000024B1860024B002019607047FC1F002064
:101FE000F81F00201FB5374C426923685A62826986
:101FF0009A62C269DA62026A1A63426A5A63826A40
:102000009A63C26ADA63026B1A64426B5A60826B2B
:102010009A60C26BDA60026C1A61426C5A61826C1F
:102020009A61C26CDA61026D1A62826D5A65C26D84
:102030009A65026FDA65026E1A66826E5A66426FA0
:102040009A66EFF388825A64EFF389829A64426851
:10205000DA64EFF394821A65026801A81A67FFF741
:102060007BFF2368019ADA6601221A70164B1C68FE
:10207000640864002046214622462346B7EE000A43
:10208000F7EE000AB7EE001AF7EE001AB7EE002AD4
:10209000F7EE002AB7EE003AF7EE003AB7EE004A44
:1020A000F7EE004AB7EE005AF7EE005AB7EE006AB4
:1020B000F7EE006AB7EE007AF7EE007A03F0FFFF62
:1020C00004B010BDFC1F0020F81F002000B5A1B017
:1020D00001A8FEF7AFFD029B63B15B060AD4019B2A
:1020E00023F00203052B05D1044B1B6813B101A893
:1020F000FFF778FF21B05DF804FB00BFF81F002058
:10210000BFF34F8F0549064BCA6802F4E0621343E0
:10211000CB60BFF34F8F00BFFDE700BF00ED00E0D5
:102120000400FA0503462DE9F04F022B084687B05C
:10213000114608D0032B4AD0002B6ED107B0BDE862
:10214000F04F00F071B84368082B03D0022007B0AD
:10215000BDE8F08F5368042BF8D14FF0FF33D0F86F
:102160000080D2F800A0D8F80410CAF80030002986
:10217000ECD026233C22012001F0B3F904460028CC
:10218000E4D1D8F80030DFF898B0DFF8989003AFCA
:102190005BF8045B99E807001D4487E807000C2200
:1021A00039462846019303F07AFF019B064600B9A1
:1021B0001DB90134052CEBD1C8E73C222946D8F8DB
:1021C000040003F093FECAF800600020BFE74368F4
:1021D000082BBBD15668042EB8D14FF0FF330468EA
:1021E000156821682B600029B0D06368002BADD042
:1021F00026237422012001F074F90028A6D123239C
:1022000032460120616801F06CF900289ED1D4E9C2
:102210000001FFF7DDFE2860D7E7032097E700BF46
:102220006C38010080380100F8B543680C2B26D1CA
:102230004B68042B23D14FF0FF3304680E682168EC
:102240003360E1B1A268D2B10623012001F049F95F
:10225000A8B961680B4BD3E9005CA9420AD3A26814
:1022600065448F18AF4205D8206803F03FFE002078
:102270003060F8BD0130042803F10803EBD10220DF
:10228000F7E700BF8C3801004FF47F03D3F830012B
:10229000D3F83431BFF34F8FC0F30B00A0F1090323
:1022A0005842584170474FF47F02D2F83031D2F88B
:1022B0003401BFF34F8FC3F30B03092B03D1431E2C
:1022C00058425841704700207047FEF743BD012037
:1022D00070476FF003007047002382B001930198AC
:1022E00002B070476FF003007047002382B0019383
:1022F000019802B07047022814BF6FF0030000205D
:102300007047FEF7A3BD30B501EB8202914200D1C8
:1023100030BD51F8044B04F07F037F2B4FEA144487
:1023200008BF4FF0FF33032CF0D8DFE804F00204BD
:1023300006080360EAE74360E8E78360E6E7C36016
:10234000E4E70346D0F8580130B931B9D3F8200199
:10235000003818BF012070470120704730B504468F
:102360000D4685B010220021684603F0E4FDD4E953
:10237000001368468DF80050984705B030BD7FB512
:1023800004460E46154600211022684603F0D3FD90
:10239000012368468DF80030CDE90165D4E90013CA
:1023A000984704B070BD10B50446FFF7E5FCD4F8BB
:1023B000583133B1D4F8043313F4800308BFC4F8A0
:1023C0000035BDE81040FFF7DFBC70B50D46044690
:1023D0000522AA21D0F83C65A86903F0ACFD0522CE
:1023E000AB69C4F83435C4F838250022C4F810218C
:1023F000D4F810110121E162D4F810110029FBD0AA
:10240000C4F84C21D4F84C11C4F81021D4F8102190
:10241000D4F83C259642EA6109D15A1E043312F8D9
:10242000011FAA2903D19A42F9D10023EB6170BDA3
:10243000D0F8583133B1CB6CC3F30032DB0458BF52
:10244000C0F80025704770B5CE6C0D4606F001014E
:102450000446FFF776FF38B94FF4800346F00406D0
:10246000EE64C4F8043370BDD5E90A365AB1296C5C
:10247000EA6B761A964228BF164619443246A86B74
:1024800003F034FDAB6B4FF0FF326A641BB1C4F84C
:102490004435C4F848650023C4F82031D4F820211D
:1024A000C4F85831D4F85821C4F85031D4F8503118
:1024B0000823C4F800354FF48003C4F80433012323
:1024C000A360D0E7C0037047C00300F5FF407F3032
:1024D0007047002070471F2070474FF4004070473E
:1024E00000F57F40C03040037047402070475F20B8
:1024F00070474FF4005070474B6830B513F01F051C
:102500002DD102680C681068C0F30720844226D2DF
:102510005068556094600C7C23F01F0304F00104A4
:102520001C438B7CDB0003F018031C434B7C5B00DB
:1025300003F006032343D3608B68013B23F01F04A1
:10254000CB685B0003F00E03234343F001031361E8
:102550005060BFF34F8FBFF36F8F284630BD01200F
:10256000FCE7036800205A68C9B258609960D860D7
:1025700018615A60704770B50546002403681E68EC
:10258000C6F30726B44201D1002070BD214628467B
:10259000FFF7E7FF0134F5E70020704700207047A0
:1025A000002070477047000030B50C46154685B0D6
:1025B00038B139B1FFF789FE041E03DA204605B0B1
:1025C00030BD044640F60D23ADF80E3009230B490B
:1025D00001A805F00F028A5C2D091A54013B012B5A
:1025E000F7D147F630030C21ADF80430FFF76DFE4C
:1025F0000028B4BF04462418E0E700BFAC3801004F
:1026000008B5194B83F30A88184800F0FDFF40BB5A
:10261000FFF7A8FC28BBFFF7BFFF10BBFFF7BEFF0B
:10262000D8B9FFF7BFFF00F067FA35211048FFF770
:102630004CFE17210F48FFF748FE18210E48FFF700
:1026400044FE00F055FC21210C48FFF73EFE00F04F
:102650003FFA00F0E3FE002008BDFFF7A1FF0028CD
:10266000DFD000F037FEEEE700040020AC190020B8
:10267000BC380100F138010008390100203901009F
:102680002DE9F04F93B00093574B8146D3F800B03B
:102690000BB2002B0D461646C1F30268C1F3024A85
:1026A00004DA6FF0800013B0BDE8F08F8B42C36096
:1026B00001D10020F7E708EB0A03042BF1D8CC0F77
:1026C00064014FEAC80731463A46DBF8080044F097
:1026D000020300F006FF01460028E2D1202202A8F2
:1026E00003F029FC3A46314602A84FEACA0603F035
:1026F000FDFB32460099DBF8080044F0060300F0C9
:10270000F0FE07460028CCD1014620220AA803F09B
:1027100012FC324600990AA802AE03F0E7FB3346EA
:102720000137B84514D91A46BC460DE0D2F808E086
:10273000D16818687144884203D2596808448645B4
:10274000AFD30CF1010C0832C445EFD10833E7E7F1
:1027500015F0006F18BF202409F1180707EB88084F
:1027600044F00203474513D1202C26D1002D02DB73
:10277000C5F3C0456C0109F128050AAE05EB8A0ACC
:1027800044F0060455451AD1009BC9F87C3090E707
:102790007268DBF8080056F8081B019300F0A1FEF0
:1027A00000287FF47EAF56F8042C019B47F8042FD5
:1027B00056F8082C38633A62D4E70024DBE77268E5
:1027C000234656F8081BDBF8080000F08AFE0028B4
:1027D0007FF467AF56F8043C45F8043F56F8083CD0
:1027E00028642B63CEE700BFB01900202DE9F0412B
:1027F0001F461A4B0D461646D3F8008000F067FFBF
:10280000044608B900F066FDE368002B01DA00F029
:1028100061FD032D01D900F05DFD04EB8504E56940
:10282000E36CED1A16D006233A463146D8F8080074
:1028300000F057FE08B100F04DFDBD4228BF3D46F7
:10284000E36CE16B2A461944304603F04FFBE36C1E
:102850002B44E3642846BDE8F08100BFB019002096
:102860002DE9F0411D461A4B0F461646D3F800805D
:1028700000F02DFF044608B900F02CFDE368002BA2
:1028800001DA00F027FD032F01D900F023FD04EB4E
:102890008704E36AE26E9B1AAB4201D200F01AFD94
:1028A00002232A463146D8F8080000F01AFE08B183
:1028B00000F010FDE36EE06D2A463146184403F047
:1028C00015FBE36E00202B44E366BDE8F08100BFFA
:1028D000B01900202DE9F04105464FF001080E4ED9
:1028E0000E4B37685C681CB928463760BDE8F0813C
:1028F0002268936813F400700CD1A369012B09D0EE
:10290000D368346023B19847002801DA00F0E2FC74
:10291000C4F81880246AE6E7B0190020B419002032
:1029200038B5044610B96FF0800038BD8368002BBD
:10293000F9D01A68002AF6D05D68002DF3D00B4B51
:10294000E861A8691D6020B92B68DB6853B90123D1
:10295000AB61A36804F10C001B681B699847012355
:102960002360E2E798470028F1DADCE7B01900209D
:102970004268024B08461A60704700BFB019002039
:10298000002330B505680446AA68C0E9063312F48E
:10299000406F85B01CD012F4006202D000F0C2F982
:1029A0000246A96A2B6968460B44073123F00703E6
:1029B00021F00701CDE9021300930023054901939B
:1029C000EB6800F0B5FA684600F064FE024B1C604C
:1029D00005B030BDD5280100B019002001F00C036E
:1029E00070B50C2B0CBF154605464A060C461ED585
:1029F0008B0658BF2835AB6913F8026C84F00803C6
:102A0000C3F3C003C6F38012934201D000F062FC0E
:102A100016F0A00F1ED176B1032E17D032461C211E
:102A20000E48FFF7C1FD6FF083032B600CE000F050
:102A300051FC2026E2E700F051FB0446FEF7C0F906
:102A40002146074800F020FE204670BD284600F0D1
:102A500055FAF9E732461F210248E2E74139010001
:102A6000F80B00205D390100EFF308807146EFF3A9
:102A70000982EFF30B830CB406B4FFF7AFFF864671
:102A8000009900F0080001F00801401A02DC12DB96
:102A900004B070471EF020031CBF2DE9F00FBDF1FC
:102AA000080D0A4C254626462746A046A146A246C2
:102AB000A34630B4704704B030BC1EF020031CBFE6
:102AC0001DF1080DBDE8F00F04B07047A5EDF5FE4F
:102AD000084BDA6882F07F4282F47F0242F480423F
:102AE000DA6000221A765A76DA76DA77602283F88C
:102AF0002220704700ED00E0114BD3F8882042F40B
:102B00007002C3F88820BFF34F8FBFF36F8FD3F8E5
:102B10008C2042F44062C3F88C20D3F8342242F077
:102B20008042C3F83422D3F8342242F03C42C3F846
:102B300034224FF0E022D36843F42003D36070477F
:102B400000ED00E0009A164B9A4227D101229043F3
:102B5000014641EC100B41EC110B41EC120B41EC26
:102B6000130B41EC140B41EC150B41EC160B41EC33
:102B7000170BEFF3148222F0040282F31488BFF3E0
:102B80006F8F0246034604460546064607468046C2
:102B9000814682468346844686460447FEE7000017
:102BA000A5EDF5FE2DE9F041044618B943F6DA30FB
:102BB000BDE8F0810029F9D08368002513F4406F47
:102BC00014BF01230023134F43F00203DFF84880B2
:102BD0000B6000F13006236AAB4201D80020E7E722
:102BE0001421A369E26906EB830301FB02330C2283
:102BF0006A4399188968090709D59B58BB4201D0D7
:102C00004345D3D1186810B10121FFF761F90135AF
:102C1000E1E700BFB4100020AC10002070B5324CCA
:102C200086B03248FFF7A7FC236801255A1C0193A0
:102C30002F4B2260DA681B694FF440760393002320
:102C40002A4801A902920495ADF814608DF8163057
:102C5000FFF752FC18B143F6DA3006B070BD2368B6
:102C60008DF816005A1C0193224B20480293224BE8
:102C700001A9CDE903352260ADF81460FFF73CFCF3
:102C80000028E8D123688DF816005A1C01931B4BCD
:102C9000164802931A4B01A9CDE903352260ADF81D
:102CA0001460FFF729FC0028D5D123688DF81600A1
:102CB0005A1C0193134B0D480293134B01A9039324
:102CC0000223049340F201132260ADF81430FFF7A1
:102CD00013FC04460028BED12A4629460348FFF7C4
:102CE00011F92046B9E700BFBC190020A810002048
:102CF000EC390100203A0100E062010020080100E7
:102D000020080100000C0020200C0020014B186856
:102D1000704700BFEC390100014B1B681868704711
:102D2000EC390100014B1B6858687047EC39010011
:102D300008B5FFF701F9FFF74DF80A4B5A68103A4A
:102D4000D3B2120609D401215A0903F01F03994096
:102D500002F16003044A42F82310BDE8084000F085
:102D6000B9BA00BF00ED00E000E100E00020034B35
:102D7000D8765A6A42F470225A62704700ED00E039
:102D80000349044BCA68002092B21343CB607047DA
:102D900000ED00E00800FA0500224FF0FF300D4B77
:102DA00002F1A0010132102A43F82100F8D1D3F832
:102DB0008022002022F00802C3F88022D3F880226B
:102DC000D3F8802222F48072C3F88022D3F88032B4
:102DD000704700BF00E100E008B5FEF7DFFF082202
:102DE000024BC3F880211A60002008BD00E100E01A
:102DF000064BD3F8D02022F00102C3F8D020D3F83C
:102E0000D02042F00202C3F8D020704700ED00E06D
:102E100037B50124FEF7F0FF1B4D224605234FF482
:102E200081301A490094FFF705F8224607234FF036
:102E3000005017490094FFF713F8D5E90101072363
:102E400000220094FEF7F6FF0723002211491248E2
:102E50000094FFF705F82969E8680139FFF71AF8C7
:102E6000062300224FF400200C490094FEF7E2FFF5
:102E7000062300224FF4782009490094FEF7DAFF78
:102E8000002003B030BD00BFEC390100FF7F01001E
:102E9000FF7F0020FFFF032000800020FFFF0E00C7
:102EA000FF9F0F0038B500240E4D002155F8040B8C
:102EB0000134FFF71BF81C2CF7D10020012240F24F
:102EC0000111094BC3F88004C3F88424C3F8C0047B
:102ED000C3F8C424054AC2F840154FF48072C3F801
:102EE000402438BD7C390100003000500090035070
:102EF0000122014B1A607047C019002010B504462A
:102F0000094B2289186861680623806800F0E9FA95
:102F100028B9064B1B68012B01D100F087F86FF030
:102F20008603236010BD00BFB0190020C019002027
:102F30002DE9F84305461E460068134B9046AA68E3
:102F4000A0F1080440E90233503890420F4601D204
:102F500000F0C0F9A4F1480948220021484602F0D7
:102F6000EAFF002344E9073344F8143C4FF0807330
:102F700044F8043C6FF0020344E9036744F8208CF2
:102F8000C5E90093BDE8F883A5EDF5FE30B5094C21
:102F9000024661680023084640B105686D689542A5
:102FA00005D11BB1826860609A60816030BD0346C4
:102FB0008068F1E7441A002038B504462AB10B684E
:102FC0009B68DB0512D5002038BD0B4B1D680DB981
:102FD00000F080F900222B6899692C338A4203D0D3
:102FE00053F8040FA04204D19142ECD16FF0FC00E1
:102FF000EAE70132F2E700BFB019002070B50446DD
:103000000E461546002130220C3002F094FF064B8C
:1030100020461B68A6606360656100F001FA00232A
:103020002061236070BD00BFB0190020044B1B68F5
:103030001BB11B680BB1586870474FF0FF307047E9
:10304000B0190020064B10B51C680CB900F042F90D
:1030500023689B6813F4406F14BF0120002010BD4B
:10306000B01900202DE9F843904607460C46FFF7BB
:10307000E9FF024624B96FF080042046BDE8F883DA
:103080006300F8D5144B04F01F0153F82150002DB4
:10309000F1D02B6829465868FFF78EFFB0B9C4F30A
:1030A0000721284600F001FB04460028E3D1EFF396
:1030B000108972B600F0C1F9064689F3108840B154
:1030C00042462946FFF79AFF3E60D6E76FF081043B
:1030D000D3E76FF08204D0E7C41900202DE9F04156
:1030E00000F0AAF90023134E134F73607B6000F0C9
:1030F000E5F8DFF84880304600F022F80446A8B131
:1031000039468023424600F07FF80546204600F00D
:1031100011FB206804F10801FFF744FD08B100F03D
:10312000D9F829462046FFF72BFCE4E7BDE8F0413B
:1031300000F071B9B4190020441A0020C41900200D
:10314000F8B5054608B900F0C5F82A4E346814F100
:10315000290F4CD8284B196804F128038B4246D21A
:10316000236AA26903EB43030C321344606AE269E9
:10317000024402EB820213449B00E31801D29942FD
:1031800001D200F0A7F823681C4A1B0C1B049342D1
:1031900001D000F09FF82388B3F5817F01D300F0C0
:1031A00099F86368002B01DA00F094F8144A176864
:1031B00007F124031360134A1268934201D900F007
:1031C00089F8236AA26903EB43030C32616A134452
:1031D000E2693C600A4402EB82021344326802EB6B
:1031E00083026B6832603B626F603846F8BD00272F
:1031F000FBE700BFC4100020183A010000005F5F29
:10320000C0100020143A01002DE9F74F0F469046F8
:103210000646009300B109B900F05CF8D6F800A0AA
:10322000DAF818200AF1300303EB820BDAF81C40BD
:10323000204B1D6854B10C2202FB04541C601E4B31
:103240001B689C4201D900F045F82C4625464FF0FA
:103250000009DAF81C204A4500D91CB9002003B047
:10326000BDE8F08F142303FB09B20023C5E9002653
:103270009268AB60930516D5B8F1000F02D0009BA1
:10328000802B03D0019200F025F8019A12F0E00F94
:10329000D0B202D158F820201AB1019000F01AF8EB
:1032A000019848F820507A6809F10109AA607D6008
:1032B0000C35CEE7BC100020103A010008B5FFF72E
:1032C00025FD034B9860FFF727FD80F3888808BD34
:1032D00000ED02E0FEF768BE8230012808B506D88E
:1032E000FFF7B0FE18B9BDE80840FFF7F3BF08BD0F
:1032F000F8B506460D4600F0EAF9044608B9FFF7AE
:10330000E9FFA7680FB9FFF7E5FFE368991C20D034
:103310005A1C21D1A5B315F1820F13D102232360CA
:10332000EFF3108672B629462046FFF721FB0546CB
:1033300086F310882368022B24D1204600F086F8FB
:103340002846F8BD15F1830FEAD0FFF7C3FF00252B
:10335000E6E702232360FAE7002BF6DB204600F0C5
:10336000DAF93B689B689B0501D50223236015F1C0
:10337000810FD5D16369002BD2DBFFF7ABFFCFE71D
:103380003546F4E700232360DAE708B5FEF70CFEC4
:103390006FF0830008BD2DE9F3410E4617469846AD
:1033A0000546FFF74FFE00F0A6F92946024601A8A0
:1033B000FFF758FE044660B943463A463146019845
:1033C000FFF75EF9044640B16B0002D5019800F0AA
:1033D0003DF8204602B0BDE8F0810198FFF7A0FA61
:1033E0000446F6E740F20110704770B50546FFF756
:1033F00029FE06462846FFF7C9FD044608B9002005
:1034000070BD014632462846FFF7D6FD0028F6D1AA
:103410002368D868F4E76FF00200704700DF704758
:103420004FF480507047B0F5805F03D1EFF30B800D
:1034300080387047002070477047EFF30B8000F131
:10344000800383F30B88704700207047EFF30B83F2
:10345000803B83F30B88704780EA0000E1EE100A9E
:1034600000EE100A00EE900A01EE100A01EE900A3A
:1034700002EE100A02EE900A03EE100A03EE900A22
:1034800004EE100A04EE900A05EE100A05EE900A0A
:1034900006EE100A06EE900A07EE100A07EE900AF2
:1034A00008EE100A08EE900A09EE100A09EE900ADA
:1034B0000AEE100A0AEE900A0BEE100A0BEE900AC2
:1034C0000CEE100A0CEE900A0DEE100A0DEE900AAA
:1034D0000EEE100A0EEE900A0FEE100A0FEE900A92
:1034E00070472DE9F0410E461546002A4AD0C40720
:1034F0004BD480F00204C4F34004A40003F006029D
:10350000062A4AD144F0010422462946304602F0F8
:103510009BFBB8BB46E800F205EB0608100E120252
:1035200008F1FF3747E800F34FEA136166D51B0245
:1035300064D5884262D046E800F547E800F7FEF718
:10354000C8FF2D0E85424FEA176734D3FEF7C3FF3D
:10355000874230D82846FEF7B7FF2246C6F1010160
:103560000144304602F070FB002847D00135AF42DD
:1035700018D83846FEF7A6FF2246A8EB000102F055
:1035800063FBD8B30020BDE8F081EFF39484A4007E
:1035900004F0040444F01204B0E7990731D544F074
:1035A0000804B1E72846FEF78DFF0646FEF795FFB3
:1035B00022460146D5E7FEF798FF85421ED3FEF767
:1035C00096FF87421AD82846FEF77CFC2246C6F1B1
:1035D00001010144304602F037FB78B10135AF42BA
:1035E00003D83846FEF77CFFC6E72846FEF778FF8B
:1035F0000646FEF77EFF22460146EBE76FF07F00AE
:10360000C1E74CF2DA20BEE710B50446FFF7F0FB45
:10361000FFF7FEFB10B143F6DA3010BDFFF742FCB6
:103620000028F8D1FFF7FAFA0028F4D1022323602A
:10363000F3E708B5FFF79AFB10B143F6DA3008BD9F
:10364000FFF79EFB0028F8D100F01CF80028F4D109
:1036500062B6FDF79FFBFFF79FFB0028EDD1FFF758
:10366000BBFB0028EBD0E8E7EFF30880EFF309811C
:103670002DE9F00F6B467246FDF7E2FA08B0FFF74E
:1036800057FBFEE70020704704460D46FFF7E4FEB7
:10369000A54628470368283383F30988836883F3A2
:1036A0000B88BFF36F8F4068704703689A68DB68C8
:1036B00012F4806F05D18B422CBF00206FF0FA000E
:1036C00070478B420CBF00206FF0FA00704710B5B6
:1036D000FFF7A9FE0446FFF7B7FE50B9FFF7A6FCB7
:1036E000A3685B681B685B68834218BF00242046A0
:1036F00010BD0024FBE738B5054648B100F01BF8C3
:10370000B5EBD07F044601D0FFF7E4FD204638BD7D
:10371000FFF78CFCF4E7002310B500F1280252F803
:10372000041F19B1C16F146C19444C600833202B6D
:10373000F5D110BD70474FF0FF30704746415441FE
:103740004C204552524F523A200048617264466103
:10375000756C740D0A004D656D4D616E6167652075
:103760006661756C740D0A004275734661756C7400
:103770000D0A0055736167654661756C740D0A002A
:103780005365637572654661756C740D0A00526508
:1037900073657276656420457863657074696F6ED1
:1037A0002000506C6174666F726D2065787465726C
:1037B0006E616C20696E7465727275707420284930
:1037C00052516E293A200000D90D0100CF2201008C
:1037D000891001003D100100F722010003230100C0
:1037E000110E0100D3220100F90D0100050E0100A8
:1037F000C50E0100D9220100E5220100EB220100E3
:103800000F000000100004000C0002000E00060073
:10381000030202020000000000000000000000009F
:103820000338FDD87047506C6174666F726D204527
:103830007863657074696F6E3A0D0A00416C6C2094
:1038400070696E732068617665206265656E2063BD
:103850006F6E66696775726564206173206E6F6E46
:103860002D7365637572650D0A000000000000008D
:10387000000200000004000000080000001000002A
:10388000DEE61E284CBBCE8F025B0000000001006C
:10389000000200000002FF002C0000003001FF00C9
:1038A000080000004001FF000C00000030313233FE
:1038B0003435363738394142434445461B5B313B4A
:1038C00033346D5B536563205468726561645D20B9
:1038D00053656375726520696D61676520696E69FE
:1038E0007469616C697A696E67211B5B306D0D0AC2
:1038F0000054462D4D20466C6F6174204142493A78
:1039000020486172640D0A004C617A7920737461F9
:10391000636B696E6720656E61626C65640D0A0099
:103920001B5B313B33346D426F6F74696E6720549B
:10393000462D4D2076322E302E301B5B306D0D0A19
:1039400000556E6B6E6F776E2053504D205356436B
:10395000207265717565737465643A2000556E6BED
:103960006E6F776E20535643206E756D62657220C0
:103970007265717565737465643A2000004000508B
:10398000005000500090005000A0005000B00050C7
:1039900000E0005000F00050000001500010015005
:1039A0000040015000500150007001500080015053
:1039B00000B0015000C0015000D0015000E00150A3
:1039C00000F0015000000250001002500020025090
:1039D000003002500040025000600250008002504F
:1039E00000A0025000900350002584500080010088
:1039F00000800100FFFF0700007C01000080010043
:103A000000000800FFFF0E0000800F00FF9F0F0066
:103A10002C1200201412002000040100FFFFFFFF01
:103A2000009A204B9A4208D110B502F0A7FA02F092
:103A3000A9F906BC96460C46744702F0E3FA009AD0
:103A4000184B9A4208D110B502F0A4FA02F09AF984
:103A500006BC96460C46744702F0D4FA0CB4029A9F
:103A6000104B9A420CD14FF0004319430CBC10B5D7
:103A700000F09EF802F086F906BC96460C467447A4
:103A800002F0C0FA009A074B9A4202D10649086830
:103A9000744702F0B7FA009A024B9A4200D1744779
:103AA00002F0B0FAA5EDF5FE801000200348044BAB
:103AB000834202D0034B03B118477047A81100207E
:103AC000A8110020000000000548064B1B1AD90F62
:103AD00001EBA301491002D0034B03B11847704713
:103AE000A8110020A81100200000000010B5064C0D
:103AF000237843B9FFF7DAFF044B13B10448AFF35F
:103B000000800123237010BDC018002000000000B9
:103B1000CC62010008B5044B1BB104490448AFF363
:103B20000080BDE80840CFE700000000C418002076
:103B3000CC620100A3F5803A704700BF174B002B01
:103B400008BF134B9D46FFF7F5FF00218B460F463C
:103B50001348144A121A02F0EEF90E4B002B00D053
:103B600098470D4B002B00D09847002000210400FF
:103B70000D000D48002802D00C48AFF3008002F081
:103B8000DBF820002900FEF73BFD02F0C1F800BF82
:103B9000000008000000000000000000F80B0020FA
:103BA000A8110020B828002000000000000000003C
:103BB0002DE9F84304460D4616461F46EFF30583EC
:103BC000C3F308030BB1FFF785FBDFF834903B46E6
:103BD000204632462946D9F80080FFF7DCFBD9F8A9
:103BE00000300446984506D0DB6901461869BDE8F7
:103BF000F843FFF77DBBFFF76FFB2046BDE8F88376
:103C0000B019002001680E4A0346914215D1C169DE
:103C1000A2F11022A2F1EF1291420ED18268012A84
:103C20000BD8C26812B101698A4206D0586928B11E
:103C30009B691B1A5842584170470120704700BFCA
:103C400055AA00FF0D4B70B59E68A6B13046FFF730
:103C5000D9FF044678B9F3686BB935690DB92046C8
:103C600070BD2846FFF7CEFF28B9EB68B34202D1FA
:103C70002E462D69F2E70124F1E700BF4C1A00201F
:103C80002DE9F041394E3468F368D4B1B468C4B159
:103C9000002861D000295FD001FB00F5B5FBF0F0F2
:103CA000884259D1291D57D8AA070DD025F0030203
:103CB00004321C4603E0616891424FD2A469002C93
:103CC000F9D12046BDE8F0812A46F2E7891A232976
:103CD00004F12007D4E9050C1AD80123A360A0B190
:103CE000C0F818C0A36903B158610023C4E90533C3
:103CF0003369DB0702D5FFF7A5FFA0BB2A460021E9
:103D000038463C4602F017F9DBE7C6F80CC0E9E795
:103D100002F1200804EB08032039C3E9011E2169E0
:103D2000DFF84CE0DC60196144F808E0AEF1102ED9
:103D3000AEF1EF1EC3F81CE001B1CB60C3E9050C86
:103D400040B18361996901B14B6101212361C4E9EB
:103D50000121CAE7F360F5E70024B2E7D4F808E0F0
:103D6000BEF1000FB2D0012001F0D2FF4C1A0020AA
:103D700055AA00FFF8B5054600283AD0364E3368FC
:103D8000002B36D0B268002A33D0834203D8726841
:103D90001344984202D3012001F0BAFFA0F120049D
:103DA0002046FFF72FFF0028F5D155F8183C012BCE
:103DB000F1D145F8180C55E90570DFB1BB68CBB9F6
:103DC00055F81C2C7B68203213447B60386100B1AD
:103DD000C76020220021204602F0ADF8386908B102
:103DE00083682BB333699B0703D5FFF72BFF0028AC
:103DF000D1D1F8BD40B3836833BB426863681344D4
:103E0000203363600369D4E90521236192B9B9B90C
:103E1000426981696261A161A2B19461A26902B142
:103E2000546103B1DC602022002102F084F8D9E75C
:103E30003C46E2E79161A1690029E9D04A61E7E7E0
:103E4000F160F8E7F460E9E7F36845F8083C03B18E
:103E50005C61F460C6E700BF4C1A002038B50D461F
:103E6000142200210446124802F065F81149124854
:103E700000F02CF8232D1AD914F003031FBF043DC2
:103E8000ED18C3F10403E4182A460021204602F08D
:103E900052F8074B094AC3E900459C602260A2F131
:103EA0001022203DA2F1EF126560E261DC6038BDB6
:103EB0004C1A0020753D0100813C010055AA00FF0D
:103EC000014B1B68184700BFC8100020024B186048
:103ED000024B002019607047CC100020C810002051
:103EE00010B50A46044619B1024B00211B689847D9
:103EF00010BD00BFD0100020054B0A46197819B13B
:103F00000146181D02F0B8B86FF08800704700BF76
:103F1000601A002010B5074C00F032F8204602F07D
:103F2000BCF8201F0821FFF7DBFFBDE8104002F0BE
:103F3000A0B800BF641A002070B50C4D2B787BB977
:103F400002F095F8044670B90126281D6E7002F043
:103F500091F8044638B900F00BF8044618B92E70F1
:103F60000024204670BDFFF7D5FFFAE7601A002055
:103F70000122024B002083F880257047681A002038
:103F8000F8B5074C2025264601272046276202F077
:103F90005DF8013D04F12C04F7D186F88055F8BD99
:103FA000681A002010B50C4C236813B10B4B1B682A
:103FB0002BB900F089FC30B90122084B1A600123AB
:103FC0002360002010BD0138062801D9044810BD27
:103FD000044B53F8200010BD0420002000200020D6
:103FE000FE8FFFFF34610100144B2DE9F0430028E0
:103FF00014BF04461C46124F236883B0BB4219D03D
:1040000016460D4620464FF4147104F1040900F0E1
:1040100047F804F58E78484600F0CEF8404600F0A8
:1040200019FA2B464A4640460649009600F034FBF2
:1040300008B92760002003B0BDE8F0830820002005
:10404000A5BCC95A3D42010070B50D4C1D46002863
:1040500014BF064626460B4B306882B098420DD1FD
:1040600006F58E70002633460096144600F03EFB9F
:10407000002818BF34462C6002B070BD0248FBE730
:1040800008200020A5BCC95AE88FFFFF38B131B124
:10409000002201440346013081421A70FAD1704770
:1040A00038B131B1002201440346013088421A7010
:1040B000FAD170472DE9F043202B1D46064688466D
:1040C00091468BB026D8DBB202AF8DF80480B046A3
:1040D00058F8041B8DF8053021B9404601F038F935
:1040E000044640B9012302224046336001A901F091
:1040F00043F9044638B138462021FFF7D1FF204666
:104100000BB0BDE8F0832A464946404601F034F939
:104110000446F0E702AF1946104600233A4601F084
:10412000B1FA04460028E6D12023B9461D46CCE763
:104130002DE9F041D0F8F830A6B0002BD8BF02AE80
:1041400031DD05460027D0F80C4102AEA4F101088C
:104150009022D5F8FC403146D0F8000101AB019720
:10416000B8FA88F8A0474FEA5818044620B9019BCE
:1041700053B9B8F1000F16D030469021FFF790FFE9
:10418000204626B0BDE8F081014632462846FFF7BA
:1041900091FF58B9D5F80431019A1344C5F8043198
:1041A000B8F1000FE8D16FF03C04E5E70446204683
:1041B00026B0BDE8F08100BF70B50025044614228A
:1041C00004F588762946C0F8F850FC3001F0B3FEBB
:1041D00008222946304601F0AEFE144B30461B68DB
:1041E0009847204640F8045B01F098F8104B3046A1
:1041F0001B689847C8B9D4F8F830AB420FDC03EB22
:10420000830204EB82022021C2F800010120C2E9EE
:10421000421008490133C2F8FC10C4F8F830064BCC
:104220003046BDE870401B68184770BDF010002094
:10423000EC10002021520100E81000202DE9F04789
:10424000202A88B07AD83F4B00F5887904461B684D
:1042500048461746884698470546F8B940F2011681
:10426000D4F8F830002B65D02046FFF761FF0546F3
:1042700038B9D4F8F830002B14DC013EF2D16FF0DD
:104280003B056E4620213046FFF70AFF2E4B48467D
:104290001B689847002818BF6FF01D05284608B016
:1042A000BDE8F087D4E94132934203D3D4F80C211E
:1042B000012A02D0013ED7D1E1E71F2BFAD96E4681
:1042C00001462022304604F1040A01F034FE314652
:1042D000504601F07BF805460028D3D1504601F046
:1042E00031F8504601F01AF82946504601F030F8EE
:1042F00005460028C6D150462022314601F03CF840
:1043000005460028BED1034632462021304601F042
:10431000B9F905460028B5D1D4F8F8303A46002B53
:10432000C8BF002340463146C8BFC4F8043101F07D
:10433000DDFDA7E76FF03F056E46A3E76FF03B0595
:10434000ACE700BFEC100020E810002070B590B082
:1043500000287AD03E4C0D464022362106462046A3
:1043600001F0E9FD40225C21A01801F0E4FD2B1DC5
:10437000A34203D904F144039D4252D32B6822681F
:10438000534023602B68226C534023646B6862683F
:10439000534063606B68626C53406364AB68A268AF
:1043A0005340A360AB68A26C5340A364EB68E2681F
:1043B0005340E360EB68E26C5340E3642B6922698D
:1043C00053402361226D2B695340236562696B69F9
:1043D000534063616B69626D53406365AB69A26969
:1043E0005340A361AB69A26D5340A365EB69E269D9
:1043F0005340E361EB69E26D5340E36500213046D1
:1044000000F0A6FF044628B940223046104900F0CB
:10441000B3FF044640216846FFF742FE204610B035
:1044200070BD631E04F13F01013D1F3415F8010FFB
:1044300013F8012F42401A7011F8012F2878A34277
:1044400082EA00020A70F1D1D8E76FF07304E5E761
:104450005822002010B54FF49A720021044601F052
:104460006AFD42F21072044BC4F8202104F59670E4
:104470001B68BDE810401847F01000202DE9F04FF0
:1044800004468846914695B0002900F0A780002A8E
:104490000CBF0126022600238DF80C30002C00F002
:1044A0009F80DFF844A104AF0AF1400B00212046B1
:1044B00000F04EFF034648B1384620210193FFF734
:1044C000EFFD019B184615B0BDE8F08F4022514624
:1044D000204600F051FF03460028EDD104F1F40519
:1044E00020222946204600F047FF03460028E3D15A
:1044F0000122204603A900F03FFF03460028DBD13C
:10450000022E62D020460CA900F060FF034600286E
:10451000D2D10146204600F01BFF03460028CBD134
:1045200040225946204600F027FF03460028C3D109
:10453000202220460CA900F01FFF03460028BBD113
:104540003946204600F042FF03460028B4D13946E0
:104550002046FFF7FBFE03460028ADD12022294666
:10456000204600F009FF03460028A5D120460CA9EB
:1045700000F02CFF034600289ED10146204600F0A3
:10458000E7FE0346002897D140225946204600F016
:10459000F3FE034600288FD1202220460CA900F00C
:1045A000EBFE0346002887D12946204600F00EFF87
:1045B0000346002880D19DF80C200132D2B2B242CD
:1045C0008DF80C20FFF472AF76E74A46414620464C
:1045D00000F0D2FE0346002894D06DE701265AE78A
:1045E0006FF0730304AF67E7582200202DE9F04114
:1045F0000446884615461F46D0F81801E0B013B1AE
:1046000000EB40004008B5F5807F3ED82844B0F567
:10461000C07F3AD84FF4C0720021684601F08BFC8D
:104620006946D4F82431D4F81821D4F828019847E1
:1046300070BBD4F8186157B1D4E9493072080DEB5A
:104640000601984720BBD4F8183106EB5306B8F1A1
:10465000000F00D08DB9324669462046FFF70EFFA5
:10466000054610B90123C4F8143131466846FFF7F6
:1046700017FD284660B0BDE8F0810DEB060041460D
:104680002A462E4401F032FCE5E76FF00405F0E71E
:104690006FF00805EDE700BF2DE9F047044604F18F
:1046A000F4050F4691461E46DDF8208000F036FEE8
:1046B00029462046FFF74AFE08B1BDE8F0872846A4
:1046C0002022012101F037FCD4F81831C4F82471FC
:1046D000C4F8289113B92023C4F818314246314652
:1046E0002046BDE8F0470123FFF780BFB2F5806F99
:1046F00000F295802DE9F04F89B09A46129BB3F5F0
:10470000807F00F29080D0F82431164604460F4690
:104710004BB3D0F81C31012B05D0D0F81421D0F8C0
:1047200020319A421FDD514600232046129AFFF79E
:104730005DFF014698B900231293002E5ED0DFF88A
:10474000EC9009F1400B0021204600F001FE202EE4
:104750003546014628BF202504F1F40890B10846EB
:1047600009B0BDE8F08FBAF1000FE6D0129B002B24
:10477000E1D051461A462046FFF780FE0146002848
:10478000DBD0ECE749464022204600F0F5FD01462B
:104790000028E4D141462022204600F0EDFD0146EC
:1047A0000028DCD16946204600F010FE01460028B2
:1047B000D5D1204600F0CCFD01460028CFD1594686
:1047C0004022204600F0D8FD01460028C7D16946A6
:1047D0002022204600F0D0FD01460028BFD14146EE
:1047E000204600F0F3FD01460028B8D138462A469D
:1047F000414601F07BFB761B2F44A4D15146204655
:10480000129AFFF73BFE01460028A8D10846D4F8CB
:1048100014310133C4F8143109B0BDE8F08F6FF0E2
:104820000201084670476FF0040198E75822002003
:10483000002130B58DB0282202A8019101F07BFB48
:1048400002A800F047FF044610B120460DB030BD6D
:10485000174D4FF0FF31286800F042F9044620B1AF
:10486000144800F0D3F9012C18D0002000F068F9AA
:10487000D0B9114A02A901A800F0C4FC04460120E5
:1048800000F05EF960B9286800F032F90028DCD049
:104890000A4800F0BBF920460DB030BD0524F2E710
:1048A000074800F0B3F9EEE7064800F0AFF9E0E79B
:1048B000D410002050610100D8220020A86101001E
:1048C000886101006861010030B583B000F05CF8D8
:1048D00028B100F0ABF80324204603B030BD00F04F
:1048E00077F8D8B900F02CF9E0B9224CD4F828397F
:1048F0001B0EF02B0AD1D4F8242A1F4B9A4231D038
:1049000000F044F8072400F091F8E5E7062400F0F1
:104910003DF800F08BF8204603B030BD042420465B
:1049200003B030BD00F032F800F080F8FFF780FFF0
:10493000044698B9114D2B68002BCDD10246014693
:10494000FFF752FB50B968220D4901ABFFF77CFB22
:1049500020B920460B4B2B6003B030BD0524204608
:1049600003B030BD012000F0EBF80028DAD1C4F824
:104970000C0ADBE7001084500000E020F82400203F
:10498000FC2400205AEA5A5A002070470020704741
:10499000430504D54FF0FF32034BC3F80821024B07
:1049A000C3F8080A704700BF00108450014BC3F8D9
:1049B000040A70470010845008B100F06BB84FF43F
:1049C0007500704708B100F04FB84FF4750070479C
:1049D00010B5114800F070F800B110BD0F4800F09C
:1049E0006BF80028F9D10E4C204600F065F800283D
:1049F000F3D10C4B0C481C6000F05EF80146002817
:104A0000EBD100F02DF8044608B1204610BD00F0AF
:104A100079F82046FAE700BFE4100020E0100020FB
:104A2000DC100020D4100020D810002008B5084861
:104A300000F04CF8074800F049F8074800F046F845
:104A4000064800F043F8BDE8084000F00BB800BF8E
:104A5000E4100020E0100020DC100020D81000201E
:104A600000207047704700BF024610B4084CD4F8CD
:104A7000003A1342FBD021B1D4F804310B60C4F8E2
:104A80000831034B0020C3F8082A5DF8044B704737
:104A900000108450044AD2F8003A1842FBD0C2F801
:104AA000080A0020704700BF0010845001F0E8B9E8
:104AB0000A46002101F03FBA08B5034B02681B68A3
:104AC00010689847002008BD1011002008B5034B5E
:104AD00002685B6810689847002008BD101100202C
:104AE000024B02689B681068184700BF1011002035
:104AF00008B5034B0268DB6810689847002008BDC2
:104B00001011002070B5094C094D2069AB68984719
:104B100018B1084B08485B6898470021074AEB68C2
:104B200011602069BDE87040184700BFFC100020EC
:104B300010110020F4100020C06101006425002045
:104B4000F8B51A4D1A4E0446B26828699047E8B97C
:104B5000184F3B684CB1A3B1012B19D0013B3B600E
:104B60002869F36898470020F8BD43B90121124A2B
:104B7000C2F800151149D1F81029002AFBD10133E0
:104B80003B60F368286998470020F8BD0C48F8BDE1
:104B90000A4AD2F81039002BFBD1074A6FF07E4049
:104BA000C2F80035FFF702FF3B68D7E7FC10002092
:104BB0001011002064250020000084500010845053
:104BC000E98FFFFF014B1B68184700BF1011002041
:104BD000014B9B68184700BF10110020014BDB6898
:104BE000184700BF10110020BFF34F8F0549064B37
:104BF000CA6802F4E0621343CB60BFF34F8F00BF7B
:104C0000FDE700BF00ED00E00400FA0530B44FF00E
:104C1000FE320025074B084C08494968C3F80024B8
:104C2000C3F80424C3F80824C3F80C24C4F80055BE
:104C300030BC08470010845000008450F41000205D
:104C400010B5044650B1636813F0685F05D0064A9A
:104C5000934202D000236260236010BD034B0448DE
:104C60005B689847EFE700BF2C5F5CA9F410002059
:104C7000E0610100C8B143680D4A934213D013F0BC
:104C8000685F0ED0012350E8002F194640E8001C51
:104C90009CF0000FF7D1012AF5D0BFF35F8F002001
:104CA000704704487047044870476FF4E04070470D
:104CB0002C5F5CA9E98FFFFFEA8FFFFF034680B1FD
:104CC000426809498A420AD012F0685F05D0BFF3F2
:104CD0005F8F002210461A607047044870470448EE
:104CE00070476FF4E04070472C5F5CA9E98FFFFFCD
:104CF000EA8FFFFF10B5044620B10023034A23606A
:104D0000626010BD0248FFF781FFF6E73A00003A03
:104D1000086201002DE9F047002878D00C460029F0
:104D200075D01D46002B72D007461AB10122002310
:104D30002A6003602B68002B64D02946204600F0CF
:104D4000B7FD804600285FD12146286800F096FD17
:104D50008046002858D12B68082B6CD0042B6DD0CE
:104D6000A3F10209B9FA89F94FEA59190121354E1F
:104D7000C6F8C411C6F84011C6F8C411636AC6F873
:104D80003031D6F830219342F6D14FF0000A4FF07F
:104D9000FF30C6F82CA1FFF7FBFD6FF01B03504658
:104DA000C6F80031FFF702FEC6F80C91D6F8040AE7
:104DB00040F48060FFF7FAFD0A23C6F83831089BFB
:104DC000012B29D02369204AA2FB03231B09626A15
:104DD000404602FB03F303EB43031A4ADB039B0940
:104DE000C2F8D8310123C2F82C313B682A6823F07D
:104DF0007F4343EA02633B602A6843EA02233B6045
:104E0000BDE8F087DFF844804046BDE8F087DFF872
:104E100040804046BDE8F0874FF47F03D3F80C2C68
:104E2000013206D0D3F80C3C074AA2FB03231B092E
:104E3000CDE71623CBE74FF0030997E74FF00209C0
:104E400094E700BF00108450ABAAAAAA310CF1006D
:104E5000350CF10058B34B1EB3F5047F27D230B5A3
:104E60004FF0000ECD00744671464B0901F01F0C47
:104E700050F82330BCF11F0F23FA0CF306D003F0D7
:104E8000010319B901211C468E46EEE79C4201F14F
:104E9000010106D01C464FF0010EA942E5D10020C9
:104EA00030BD0EF1010E9645F7D1024830BD0148E4
:104EB000704700BF360CF100C0B32DE9F0434C1E23
:104EC000B4F5047F1DD2E3B1DAB100252E46A84621
:104ED0002C46CF0003F1FF394FEA541C04F01F0E9B
:104EE00050F82C10BEF11F0F21FA0EFC0CD00CF064
:104EF000010C4CB90126E04634463546ECE79642B3
:104F000016D90C48BDE8F083AB420BD0C44508BFAE
:104F10000136A945F3D001350134BC42DCD1002073
:104F2000BDE8F0830125E0462E46F5E701487047CD
:104F30001D46F1E7370CF1002DE9F04F91B08346A3
:104F4000DDE91B460D46002E6ED10F691C60002363
:104F50001A990B60002A00F02F819D4B6A6AD3F8E2
:104F60003811D3F830319A4269D10A2967D19BF8B8
:104F70000330089304F10803079304230593954B2A
:104F8000934CA3FB07239B0803EB4303A7EB4303CB
:104F9000039306971A9B069E1E60002E00F0EA807F
:104FA00000F096FC00230993BBF1000F00F0D580C0
:104FB00098464FF0010ADDF81C90002D00F0CD80DE
:104FC000089B002B3DD0284608A900F071FC002862
:104FD00039D0814B984220D0089B082B00F0E48008
:104FE00000225B000893294608AB58460092FFF761
:104FF00091FE7A4B984200F0D38070B9DBF8002024
:10500000130A03F47F03134323F07F43CBF80030EC
:10501000059B013B0593BDD10020039000F058FC97
:10502000039811B0BDE8F08F4FF47F01D1F80C0C5C
:1050300001300CBF4FF40477D1F80C7C86E7684848
:10504000EBE76648C5E72946089800F017FC0028FA
:10505000BFD1089B082B00F0A980042B00F0A98089
:10506000A3F10203B3FA83F35B090493C4F8C4A168
:10507000C4F840A1C4F8C4A16B6AC4F83031D4F8B4
:1050800030219342F6D100234FF0FF30C4F82C3189
:10509000FFF77EFC002318466FF01B03C4F80031B5
:1050A000FFF784FC049B4B4FC4F80C31D4F8040A7E
:1050B00040F48060FFF77AFC0A23C4F838312B698A
:1050C00009A8A7FB03236A6A1B0902FB03F303EB8E
:1050D0004303DB039B09C4F8D831C4F82CA1DBF8E7
:1050E0000030089923F07F420B0243EA0163134327
:1050F000CBF8003000F0B2FB099B03F01A03034326
:105100007FF46AAFA7FB0637D4F81431B8EB970FDA
:105110000A93D4F818310B93D4F81C310C93D4F8BB
:1051200020310D93D4F824310E93D4F828310F9305
:1051300001D1039B9BB9484618220AA9183EFFF7E4
:10514000B5FC09F1180908F101089EB100F0C0FB97
:1051500000230993002D7FF433AF224839E74846F6
:105160001A46F61A0AA9994408F10108FFF79EFCAD
:10517000002EEBD1069F079E6A6939463046FFF73D
:1051800069FEAA6940B94FF4806339463046FFF79B
:1051900093FE00283FF440AF00231A9A136018E7EB
:1051A0002B6A002B3FF439AF0F4836E703230493F3
:1051B0005CE70223049359E70122294658460096EA
:1051C00008ABFFF7A7FD00283FF4D4AE25E700BFEA
:1051D00000108450ABAAAAAA020CF100310CF10015
:1051E000300CF100350CF100320CF10030B4DDE987
:1051F000023402940024049DCDE9035430BCFFF72F
:105200009BBE00BF30B51546012487B005AB0093A7
:105210000022CDE9015404ABFFF78EFE07B030BD8C
:10522000F0B587B0002966D01E46002B63D0144627
:10523000002A60D0314F0D4638684FF0FF31FFF73C
:105240004FFC00284DD10020FFF77AFC002844D104
:105250002B4800F03FFAD8B101204FF0FF35FFF79F
:105260006FFC002835D14FF408712648FEF70EFF79
:1052700004212548FEF70AFF21482821FEF706FFF2
:105280003868FFF735FC00282FD1284607B0F0BD5D
:105290001C4A0346029205AA019204AA03900092B6
:1052A000174902461848FFF7A1FF03460028D3D14B
:1052B00028461D46059B22469C4228BF1A46049953
:1052C00032600831FFF7F2FB0120FFF739FC0028BC
:1052D000C9D00E48FFF79AFCC5E70D48FFF796FCCA
:1052E000B6E70C48FFF792FCADE70B48FFF78EFCE2
:1052F000284607B0F0BD4FF0FF35C6E7D4100020B8
:105300007C250020A425002078250020886101004C
:1053100068610100506101002C62010010B5044673
:1053200028B12046BDE81040F421FFF7C1BB044876
:10533000FFF76CFC2046BDE81040F421FFF7B8BB36
:105340004462010010B1F421FEF7A0BE704700BF17
:1053500008B521B1012908D06FF0360008BD012140
:1053600000F058F80028F7D108BD022100F052F8EB
:105370000028F9D0F0E700BF30B505468818B0F531
:10538000801F0B461446A1B001D8802A0CD9B3F572
:10539000801F17D922461946284600F07DF804469A
:1053A00084B9204621B030BD6846FFF77FFB224616
:1053B0006946284600F070F8802104466846FFF7E9
:1053C00077FBEDE76FF03604EBE700BF70B5E8B1AF
:1053D0000E46D9B1044600F031F80546B0B923684D
:1053E000012B0BD0022B01D0284670BD1C22304669
:1053F00004F10801FFF75AFB284670BD2022304611
:1054000004F10801FFF752FB284670BD6FF0360526
:10541000EAE700BF78B138B50D46F0210446FFF742
:1054200047FB402320462560E36500F091FA0038F1
:1054300018BF012038BD0120704700BFF0B5056ED0
:10544000A5B0044604AEE5B9002301270193304618
:105450006760294602AA009300F046FA10B10120C5
:1054600025B0F0BD2A46204602A900F099FA00288E
:10547000F5D1204600F0AAFB0028F0D1206625B027
:10548000F0BD802D2A46304628BF802204F16401F9
:10549000FFF70CFB256ED7E7002800F0AE802DE962
:1054A000F04F1446A5B0002A3DD00F46002949D040
:1054B000B2F5803F0546006E20D34FF6FF7805F128
:1054C000640AEB6D1A1AB2FBF3F103FB1122002AF6
:1054D00065D18342B9464FF6FF7672D0B6FBF3FB37
:1054E00003FB0BFBBBF1000F30D1002E45D1A4F51F
:1054F0007F44FF3CB4F5803F4744E2D2EA6D161A80
:10550000B6FBF2F302FB1366A64228BF2646002E26
:1055100075D1824200F08D80B4FBF2F602FB06F6F4
:105520002EB9002C79D1002025B0BDE8F08F0023E2
:1055300031463846CDE9003302AA00F0D5F90028FB
:1055400000F09580012025B0BDE8F08F002359467A
:105550004846CDE9003302AA00F0C6F90028F1D18F
:105560005A46284602A900F01BFA0028EAD1A6EB09
:105570000B06286ED944002EB9D019304946324660
:1055800005EB8000FFF792FAA4F57F44286EFF3CFC
:105590003044B4F5803F4744286692D2AEE7424596
:1055A00028BF4246164639465044FFF77FFA286E18
:1055B000EB6D3044834207EB06092866A8EB06062C
:1055C0008CD1802B28BF802351461A4604A8FFF7B0
:1055D0006DFA0023E96D02AACDE9003304A800F0BA
:1055E00083F90028AED12846EA6D02A900F0D8F967
:1055F0000028A7D1EB6D286670E70120704705F100
:105600006403394632461844FFF750FA286EEA6DB3
:105610003044A41B374428667BE72B6E224619339F
:1056200005EB83003946FFF741FA2B6E23442B66C6
:1056300079E7802A28BF802205F1640104A8FFF7DA
:1056400035FA0023E96D04A8CDE9003302AA00F081
:105650004BF900287FF476AF2846EA6D02A900F0E6
:105660009FF900287FF46EAFEA6D286654E7324652
:10567000284602A900F094F900287FF463AF37446C
:10568000A41B4EE7F8B51C460546114816460F46C2
:10569000FFF744FE21460E48FFF75AFE044620B1AC
:1056A0000B48FFF74FFE2046F8BD3A46294608480A
:1056B000FFF762FE04460028F2D131460448FFF7A6
:1056C00085FE04460248FFF73DFE2046F8BD00BFB8
:1056D000C42700201C2370B582B001A905460193A0
:1056E00000F032F8044638B9019B1C2B07D0144C4B
:1056F0001C212846FFF7DCF9204602B070BDD5E931
:105700000112131E18BF0123003918BF0121012601
:1057100028689B00EA6843EA4103002818BF43F069
:105720000103EE612AB9C5E90834002BE4D1054C28
:10573000DEE7204643F00803C5E9083402B070BD37
:10574000370CF0000E0CF0000346002866D000294C
:1057500064D00A681C2A61D14FF47F023B49D2F819
:10576000100C88425CD0D2F8101C013158D0D2F80D
:10577000101C4FF47F021960D2F8140C344988428F
:1057800060D0D2F8141C01315CD0D2F8141C4FF454
:105790007F025960D2F8181C11F5947F4FD0D2F8CF
:1057A000181C01314BD0D2F8181C4FF47F029960BD
:1057B000D2F81C0C274988423ED0D2F81C1C01317B
:1057C0003AD0D2F81C1C4FF47F02D960D2F8001CEA
:1057D00070312FD0D2F8001C01312BD0D2F8001C30
:1057E0004FF47F021961D2F8041CAF3120D0D2F8F7
:1057F000041C01311CD0D2F8041C4FF47F02596103
:10580000D2F8080C144988420DD0D2F8081C013196
:1058100009D0D2F8082C00209A6170470120704707
:1058200040F6FC01A5E740F2373200209A6170474C
:105830005121E2E79021D3E742F60411C3E740F695
:10584000D861B2E742F2D001A1E700BFFCF8FFFF48
:10585000D020FFFF0429FFFF37F3FFFF014608B503
:105860004FF48060FFF7AEF80022034BC3F8C82165
:10587000C3F82C2108BD00BF001084500138072850
:1058800005D8DFE800F0100E040A040404060748F7
:105890007047CB6800204B6270478B6800204B62DA
:1058A00070474B68F6E70B68F4E700BF310CF10076
:1058B0000B6802E0082B0B6006D8026A13424FEA1D
:1058C0004303F7D00020704700487047310CF100C7
:1058D0000022044B4FF48060C3F82C21C3F8C4218C
:1058E000FFF756B800108450F0B5002483B0B0F133
:1058F000005F8DF8074025D38C468444BCF1804F6F
:1059000004461FD817461D4601220DF1070300F07B
:1059100097F90646B0B99DF80730099A3C603B718B
:1059200092B14DB10246089928460DF1070300F0E7
:1059300087F938B99DF807303046099A1560137118
:1059400003B0F0BD4FF47506304603B0F0BD00BFA4
:10595000D8B108B50368012B04D0022B0FD043B196
:105960000B4808BD20220B490830FFF79FF80020A4
:1059700008BD142208490830FFF798F8F7E72022FD
:1059800006490830FFF792F8F1E74FF473007047CB
:105990000100F3005462010094620100746201008E
:1059A0002DE9F843002900F0F9800446002800F0B2
:1059B000F98003680F469046002B00F0C380013B3E
:1059C000012B00F2D7804FF0FF3178484FF00209E9
:1059D000FFF786F8002840F0BF800020FFF7B0F8FE
:1059E0000646002840F0C280714AD2F81C39002BCC
:1059F000FBD16F4DD5F8203C002BFBD14FF0FF3091
:105A0000FEF7C6FFD5F8040A20F04000FEF7CEFFEF
:105A100001230722C5F81838C5F80029C5F8C4378E
:105A2000A36CC5F8CC37E36CC5F8D037C5F8C09780
:105A300023685BB1013B012B18D8636AC5F85C365B
:105A4000236AC5F85836E369C5F85436A269584B3D
:105A5000C3F850266269C3F84C262269C3F8482669
:105A6000E268C3F84426A268C3F84026504AD2F838
:105A70001039002BFBD1B8F1000F5FD063684020D4
:105A8000012B08BFC2F884363A68494BC3F8282C6A
:105A9000C3F82C8CFEF790FF0646454AD2F8103921
:105AA000002BFBD1424AD2F8203C002BFBD12368CB
:105AB0005BB1013B012B18D8D2F85C366362D2F897
:105AC00058362362D2F85436E361394BD3F8502666
:105AD000A261D3F84C266261D3F848262261D3F83C
