:020000021000EC
:10800000D0650120D1C80100675B0300BDC8010035
:10801000BDC80100BDC80100BDC80100BDC8010048
:10802000000000000000000000000000C1CA0100C4
:10803000BDC801000000000079CA0100BDC80100F0
:1080400071CC010071CC010071CC010071CC010038
:1080500071CC010071CC010071CC010071CC010028
:1080600071CC010071CC010071CC010071CC010018
:1080700071CC010071CC010071CC010071CC010008
:1080800071CC010071CC010071CC010071CC0100F8
:1080900071CC010071CC010071CC010071CC0100E8
:1080A00071CC010071CC010071CC010071CC0100D8
:1080B00071CC010071CC010071CC010071CC0100C8
:1080C00071CC010071CC010071CC010071CC0100B8
:1080D00071CC010071CC010071CC010071CC0100A8
:1080E00071CC010071CC010071CC010071CC010098
:1080F00071CC010071CC010071CC010071CC010088
:1081000071CC010071CC010071CC010071CC010077
:1081100071CC010071CC010071CC010071CC010067
:1081200071CC010071CC010071CC010071CC010057
:1081300071CC010071CC010071CC010071CC010047
:0481400071CC0100FD
:04814400FFFFFFFF3B
:1081480081F0004102E000BF83F0004330B54FEA00
:1081580041044FEA430594EA050F08BF90EA020F6D
:108168001FBF54EA000C55EA020C7FEA645C7FEA00
:10817800655C00F0E2804FEA5454D4EB5555B8BF23
:108188006D420CDD2C4480EA020281EA030382EA94
:10819800000083EA010180EA020281EA0303362D26
:1081A80088BF30BD11F0004F4FEA01314FF4801CF9
:1081B8004CEA113102D0404261EB410113F0004F0B
:1081C8004FEA03334CEA133302D0524263EB4303C2
:1081D80094EA050F00F0A780A4F10104D5F1200E60
:1081E8000DDB02FA0EFC22FA05F2801841F10001BB
:1081F80003FA0EF2801843FA05F359410EE0A5F18F
:1082080020050EF1200E012A03FA0EFC28BF4CF0BF
:10821800020C43FA05F3C01851EBE37101F0004575
:1082280007D54FF0000EDCF1000C7EEB00006EEB82
:108238000101B1F5801F1BD3B1F5001F0CD349080C
:108248005FEA30004FEA3C0C04F101044FEA445263
:1082580012F5800F80F09A80BCF1004F08BF5FEAEA
:10826800500C50F1000041EB045141EA050130BDCA
:108278005FEA4C0C404141EB0101013C28BFB1F5DC
:10828800801FE9D291F0000F04BF01460020B1FA27
:1082980081F308BF2033A3F10B03B3F120020CDAFA
:1082A8000C3208DD02F1140CC2F10C0201FA0CF0D8
:1082B80021FA02F10CE002F11402D8BFC2F1200C3D
:1082C80001FA02F120FA0CFCDCBF41EA0C019040F3
:1082D800E41AA2BF01EB0451294330BD6FEA04043C
:1082E8001F3C1CDA0C340EDC04F11404C4F1200227
:1082F80020FA04F001FA02F340EA030021FA04F339
:1083080045EA030130BDC4F10C04C4F1200220FA8F
:1083180002F001FA04F340EA0300294630BD21FACD
:1083280004F0294630BD94F0000F83F4801306BF93
:1083380081F480110134013D4EE77FEA645C18BF87
:108348007FEA655C29D094EA050F08BF90EA020F1E
:1083580005D054EA000C04BF1946104630BD91EA16
:10836800030F1EBF0021002030BD5FEA545C05D119
:108378004000494128BF41F0004130BD14F5800458
:108388003CBF01F5801130BD01F0004545F0FE41CC
:1083980041F470014FF0000030BD7FEA645C1ABF01
:1083A800194610467FEA655C1CBF0B46024650EA38
:1083B800013406BF52EA033591EA030F41F4002164
:1083C80030BD00BF90F0000F04BF0021704730B5EA
:1083D8004FF4806404F132044FF000054FF00001BF
:1083E80050E700BF90F0000F04BF0021704730B580
:1083F8004FF4806404F1320410F0004548BF404255
:108408004FF000013EE700BF42004FEAE2014FEAA9
:1084180031014FEA02701FBF12F07F4393F07F4F84
:1084280081F06051704732F07F4208BF704793F087
:108438007F4F04BF41F40021704730B54FF460749A
:1084480001F0004521F000411CE700BF50EA01029D
:1084580008BF704730B54FF000050AE050EA010246
:1084680008BF704730B511F0004502D5404261EBB6
:1084780041014FF4806404F132045FEA915C3FF4F7
:10848800D8AE4FF003025FEADC0C18BF03325FEA94
:10849800DC0C18BF033202EBDC02C2F1200300FA45
:1084A80003FC20FA02F001FA03FE40EA0E0021FA6A
:1084B80002F11444BDE600BF70B54FF0FF0C4CF458
:1084C800E06C1CEA11541DBF1CEA135594EA0C0F0A
:1084D80095EA0C0F00F0DEF82C4481EA030621EA45
:1084E8004C5123EA4C5350EA013518BF52EA033580
:1084F80041F4801143F4801338D0A0FB02CE4FF032
:108508000005E1FB02E506F00042E0FB03E54FF061
:108518000006E1FB03569CF0000F18BF4EF0010E59
:10852800A4F1FF04B6F5007F64F5407404D25FEA55
:108538004E0E6D4146EB060642EAC62141EA555108
:108548004FEAC52040EA5E504FEACE2EB4F1FD0C4A
:1085580088BFBCF5E06F1ED8BEF1004F08BF5FEAC8
:10856800500E50F1000041EB045170BD06F000467A
:1085780046EA010140EA020081EA0301B4EB5C0427
:10858800C2BFD4EB0C0541EA045170BD41F480111F
:108598004FF0000E013C00F3AB8014F1360FDEBF44
:1085A800002001F0004170BDC4F10004203C35DA20
:1085B8000C341BDC04F11404C4F1200500FA05F3A3
:1085C80020FA04F001FA05F240EA020001F0004244
:1085D80021F0004110EBD37021FA04F642EB0601BA
:1085E8005EEA430E08BF20EAD37070BDC4F10C04E4
:1085F800C4F1200500FA04F320FA05F001FA04F2A8
:1086080040EA020001F0004110EBD37041F1000193
:108618005EEA430E08BF20EAD37070BDC4F120059E
:1086280000FA05F24EEA020E20FA04F301FA05F206
:1086380043EA020321FA04F001F0004121FA04F2AE
:1086480020EA020000EBD3705EEA430E08BF20EA7E
:10865800D37070BD94F0000F0FD101F000464000B8
:1086680041EB010111F4801F08BF013CF7D041EA3A
:10867800060195F0000F18BF704703F0004652003E
:1086880043EB030313F4801F08BF013DF7D043EA0F
:108698000603704794EA0C0F0CEA135518BF95EAC5
:1086A8000C0F0CD050EA410618BF52EA4306D1D14C
:1086B80081EA030101F000414FF0000070BD50EA6B
:1086C800410606BF1046194652EA430619D094EAF5
:1086D8000C0F02D150EA013613D195EA0C0F05D1DF
:1086E80052EA03361CBF104619460AD181EA030133
:1086F80001F0004141F0FE4141F470014FF00000EB
:1087080070BD41F0FE4141F4780170BD70B54FF085
:10871800FF0C4CF4E06C1CEA11541DBF1CEA135505
:1087280094EA0C0F95EA0C0F00F0A7F8A4EB0504E7
:1087380081EA030E52EA03354FEA013100F08880DE
:108748004FEA03334FF0805545EA131343EA1263A7
:108758004FEA022245EA111545EA10654FEA00265C
:108768000EF000419D4208BF964244F1FD0404F515
:10877800407402D25B084FEA3202B61A65EB030571
:108788005B084FEA32024FF480104FF4002CB6EB2E
:10879800020E75EB030E22BFB61A754640EA0C00AE
:1087A8005B084FEA3202B6EB020E75EB030E22BFEE
:1087B800B61A754640EA5C005B084FEA3202B6EB2F
:1087C800020E75EB030E22BFB61A754640EA9C00EE
:1087D8005B084FEA3202B6EB020E75EB030E22BFBE
:1087E800B61A754640EADC0055EA060E18D04FEA7C
:1087F800051545EA16754FEA06164FEAC30343EA1C
:1088080052734FEAC2025FEA1C1CC0D111F4801FE8
:108818000BD141EA00014FF000004FF0004CB6E7E1
:1088280011F4801F04BF01430020B4F1FD0C88BF80
:10883800BCF5E06F3FF6AFAEB5EB030C04BFB6EB8B
:10884800020C5FEA500C50F1000041EB045170BD7E
:108858000EF0004E4EEA113114EB5C04C2BFD4EBAB
:108868000C0541EA045170BD41F480114FF0000E2F
:10887800013C90E645EA060E8DE60CEA135594EAAB
:108888000C0F08BF95EA0C0F3FF43BAF94EA0C0FAE
:108898000AD150EA01347FF434AF95EA0C0F7FF423
:1088A80025AF104619462CE795EA0C0F06D152EA77
:1088B80003353FF4FDAE1046194622E750EA41065B
:1088C80018BF52EA43067FF4C5AE50EA41047FF46C
:1088D8000DAF52EA43057FF4EBAE12E74FF0FF3CD1
:1088E80006E000BF4FF0010C02E000BF4FF0010CA2
:1088F8004DF804CD4FEA410C7FEA6C5C4FEA430C1B
:1089080018BF7FEA6C5C1BD001B050EA410C0CBF69
:1089180052EA430C91EA030F02BF90EA020F0020CB
:10892800704710F1000F91EA030F58BF994208BF32
:1089380090422CBFD8176FEAE37040F001007047EF
:108948004FEA410C7FEA6C5C02D150EA013C07D146
:108958004FEA430C7FEA6C5CD6D152EA033CD3D091
:108968005DF8040B704700BF8446104662468C468B
:108978001946634600E000BF01B5FFF7B7FF0028BE
:1089880048BF10F1000F01BD4DF808EDFFF7F4FFE7
:108998000CBF012000205DF808FB00BF4DF808ED72
:1089A800FFF7EAFF34BF012000205DF808FB00BF95
:1089B8004DF808EDFFF7E0FF94BF012000205DF8B7
:1089C80008FB00BF4DF808EDFFF7CEFF94BF01206C
:1089D80000205DF808FB00BF4DF808EDFFF7C4FF65
:1089E80034BF012000205DF808FB00BF4FEA410CAE
:1089F8007FEA6C5C02D150EA013C0AD14FEA430C91
:108A08007FEA6C5C02D152EA033C02D14FF00000CD
:108A180070474FF0010070474FEA410212F500120B
:108A280015D211D56FF47873B3EB625212D94FEAAD
:108A3800C12343F0004343EA505311F0004F23FA97
:108A480002F018BF404270474FF00000704750EAEC
:108A5800013005D111F0004008BF6FF000407047A9
:108A68004FF00000704700BF4A0011D212F5001203
:108A780011D20DD56FF47873B3EB62520ED44FEA6E
:108A8800C12343F0004343EA505323FA02F07047EE
:108A98004FF00000704750EA013002D14FF0FF302C
:108AA80070474FF0000070474FEA4102B2F1E043CF
:108AB80024BFB3F5001CDCF1FE5C0DD901F0004CBD
:108AC8004FEAC0024CEA5070B2F1004F40EB83000D
:108AD80008BF20F00100704711F0804F21D113F139
:108AE8003872BCBF01F00040704741F480114FEA72
:108AF8005252C2F11802C2F1200C10FA0CF320FAFB
:108B080002F018BF40F001004FEAC1234FEAD32317
:108B180003FA0CFC40EA0C0023FA02F34FEA430381
:108B2800CCE77FEA625307D150EA01331EBF4FF00A
:108B3800FE4040F44000704701F0004040F0FE4025
:108B480040F40000704700BF80F0004002E000BF22
:108B580081F0004142001FBF5FEA410392EA030F20
:108B68007FEA226C7FEA236C6AD04FEA1262D2EB6A
:108B78001363C1BFD218414048404140B8BF5B426F
:108B8800192B88BF704710F0004F40F4000020F008
:108B98007F4018BF404211F0004F41F4000121F01E
:108BA8007F4118BF494292EA030F3FD0A2F1010268
:108BB80041FA03FC10EB0C00C3F1200301FA03F1A6
:108BC80000F0004302D5494260EB4000B0F5000FC9
:108BD80013D3B0F1807F06D340084FEA310102F188
:108BE8000102FE2A51D2B1F1004F40EBC25008BF3A
:108BF80020F0010040EA03007047490040EB000004
:108C0800013A28BFB0F5000FEDD2B0FA80FCACF104
:108C1800080CB2EB0C0200FA0CF0AABF00EBC25031
:108C280052421843BCBFD0401843704792F0000F1F
:108C380081F4000106BF80F400000132013BB5E772
:108C48004FEA41037FEA226C18BF7FEA236C21D0E8
:108C580092EA030F04D092F0000F08BF084670474D
:108C680090EA010F1CBF0020704712F07F4F04D11B
:108C7800400028BF40F00040704712F100723CBF2E
:108C880000F50000704700F0004343F0FE4040F458
:108C9800000070477FEA226216BF08467FEA236316
:108CA8000146420206BF5FEA412390EA010F40F401
:108CB800800070474FF0000304E000BF10F000434D
:108CC80048BF40425FEA000C08BF704743F0964334
:108CD80001464FF000001CE050EA010208BF70474F
:108CE8004FF000030AE000BF50EA010208BF7047D6
:108CF80011F0004302D5404261EB41015FEA010CEB
:108D080002BF84460146002043F0B64308BFA3F1E2
:108D18008053A3F50003BCFA8CF2083AA3EBC253C4
:108D280010DB01FA02FC634400FA02FCC2F12002E3
:108D3800BCF1004F20FA02F243EB020008BF20F01A
:108D48000100704702F1200201FA02FCC2F1200280
:108D580050EA4C0021FA02F243EB020008BF20EA75
:108D6800DC7070474FF0FF0C1CEAD0521EBF1CEAA3
:108D7800D15392EA0C0F93EA0C0F6FD01A4480EA91
:108D8800010C400218BF5FEA41211ED04FF000637A
:108D980043EA501043EA5111A0FB01310CF00040A6
:108DA800B1F5000F3EBF490041EAD3715B0040EACC
:108DB800010062F17F02FD2A1DD8B3F1004F40EB9C
:108DC800C25008BF20F00100704790F0000F0CF06F
:108DD800004C08BF49024CEA502040EA51207F3A33
:108DE800C2BFD2F1FF0340EAC250704740F400000E
:108DF8004FF00003013A5DDC12F1190FDCBF00F0FF
:108E080000407047C2F10002410021FA02F1C2F1AC
:108E1800200200FA02FC5FEA310040F1000053EA48
:108E28004C0308BF20EADC70704792F0000F00F096
:108E3800004C02BF400010F4000F013AF9D040EA9C
:108E48000C0093F0000F01F0004C02BF490011F430
:108E5800000F013BF9D041EA0C018FE70CEAD1532E
:108E680092EA0C0F18BF93EA0C0F0AD030F0004CAE
:108E780018BF31F0004CD8D180EA010000F0004062
:108E8800704790F0000F17BF90F0004F084691F020
:108E9800000F91F0004F14D092EA0C0F01D142025A
:108EA8000FD193EA0C0F03D14B0218BF084608D123
:108EB80080EA010000F0004040F0FE4040F400006D
:108EC800704740F0FE4040F4400070474FF0FF0C00
:108ED8001CEAD0521EBF1CEAD15392EA0C0F93EA47
:108EE8000C0F69D0A2EB030280EA010C49024FEA99
:108EF800402037D04FF0805343EA111143EA101352
:108F08000CF000408B4238BF5B0042F17D024FF409
:108F1800000C8B4224BF5B1A40EA0C00B3EB510FE4
:108F280024BFA3EB510340EA5C00B3EB910F24BFCD
:108F3800A3EB910340EA9C00B3EBD10F24BFA3EB52
:108F4800D10340EADC001B0118BF5FEA1C1CE0D11A
:108F5800FD2A3FF650AF8B4240EBC25008BF20F0CD
:108F6800010070470CF0004C4CEA50207F32C2BF21
:108F7800D2F1FF0340EAC250704740F400004FF0BE
:108F88000003013A37E792F0000F00F0004C02BFEF
:108F9800400010F4000F013AF9D040EA0C0093F0B9
:108FA800000F01F0004C02BF490011F4000F013B13
:108FB800F9D041EA0C0195E70CEAD15392EA0C0F7B
:108FC80008D142027FF47DAF93EA0C0F7FF470AFB3
:108FD800084676E793EA0C0F04D14B023FF44CAFF6
:108FE80008466EE730F0004C18BF31F0004CCAD18B
:108FF80030F000427FF45CAF31F000437FF43CAFC7
:109008005FE700BF4FEA4002B2F1FE4F0FD34FF0C7
:109018009E03B3EB12620DD94FEA002343F00043DD
:1090280010F0004F23FA02F018BF404270474FF08B
:109038000000704712F1610F01D1420205D110F012
:10904800004008BF6FF0004070474FF000007047C5
:109058007BB972B90029BEBF00204FF0004106E07D
:1090680008BF00281CBF6FF000414FF0FF3000F030
:1090780075B8ADF1080C6DE904CE002909DB002BA9
:109088001ADB00F084F8DDF804E0DDE9022304B01F
:109098007047404261EB4101002B1BDB00F077F881
:1090A800DDF804E0DDE9022304B0404261EB410150
:1090B800524263EB43037047524263EB430300F0B1
:1090C80066F8DDF804E0DDE9022304B0404261EB14
:1090D80041017047524263EB430300F058F8DDF852
:1090E80004E0DDE9022304B0524263EB4303704716
:1090F80053B94AB9002908BF00281CBF4FF0FF31F7
:109108004FF0FF3000F02AB8ADF1080C6DE904CE3D
:1091180000F03DF8DDF804E0DDE9022304B0704713
:10912800D0B500220B4B06460F46FFF7C5F9FFF7EF
:109138009BFC0446FFF746F90022074BFFF7BCF9F2
:1091480002460B4630463946FEF7FEFFFFF78CFC19
:109158002146D0BD0000F03D0000F041704700BF3F
:1091680038B50022002304460D46FFF717FC28B93E
:1091780020462946BDE83840FFF7D2BF204605F112
:109188000041FFF7CDFF404261EB410138BD2DE9B9
:10919800F04786468C460846089E1546744619468A
:1091A800002B40F0C1808542B2FA82F245D94AB11B
:1091B800C2F1200300FA02FC954094402EFA03F312
:1091C80043EA0C0C4FEA154EA8B2230CBCFBFEF880
:1091D8000EFB18CC08FB00F943EA0C43994528D943
:1091E800EB1808F1FF3704D2994502D9A8F1020714
:1091F8002B44A3EB0903A4B2B3FBFEFC0EFB1C3308
:109208000CFB00F044EA0344A04214D92C190CF1D9
:10921800FF3304D2A04202D9ACF102032C44241A31
:1092280043EA07401EB1D440002334607360BDE8B0
:10923800F0874746DDE76346F1E792BB431B012110
:109248004FEA154EAFB2200CB3FBFEFC0EFB1C33ED
:109258000CFB07F840EA0343984561D9EB180CF179
:10926800FF3004D2984502D9ACF102002B44A3EB9D
:109278000803A4B2B3FBFEFC0EFB1C330CFB07F780
:1092880044EA0344A7424DD92C190CF1FF3304D208
:10929800A74202D9ACF102032C44E41B43EA004084
:1092A800C0E7C2F120039540944020FA03F12EFA5A
:1092B80003F34FEA154E9040AFB20343B1FBFEFCF7
:1092C8000EFB1C10190C0CFB07F841EA00418845FD
:1092D80022D969180CF1FF3004D2884502D9ACF1C3
:1092E80002002944A1EB08019BB2B1FBFEFC0EFB76
:1092F8001C110CFB07F743EA01439F420ED9EB18F8
:109308000CF1FF3104D29F4202D9ACF102012B4487
:10931800DB1B41EA004193E76046E3E76146F7E774
:109328006046A4E76346B8E7834206D916B9002128
:1093380008467CE7C6E900E0F9E7B3FA83F78FB996
:10934800834201D3724508D8BEEB020460EB0303E5
:1093580001209C461EB9002169E73846FAE7C6E9AC
:10936800004CF8E7C7F1200CBB400EFA07F522FACB
:109378000CF42EFA0CF1BA401C4320FA0CF3B84056
:109388004FEA144901431FFA84FEB3FBF9F809FBBD
:1093980018300B0C08FB0EFA43EA00439A4540D9F3
:1093A800E31808F1FF3004D29A4502D9A8F1020067
:1093B8002344A3EB0A0389B2B3FBF9F809FB18337A
:1093C80008FB0EFE41EA03418E452CD9611808F1CD
:1093D800FF3304D28E4502D9A8F10203214443EA9F
:1093E8000040A1EB0E01A0FB02984145CE46434642
:1093F80002D306D14D4504D20138B9EB020E68EB11
:109408000403002EA7D0B5EB0E0261EB030101FAAD
:109418000CFC22FA07F3F9404CEA0303C6E90031D1
:1094280099E74046C5E74346D9E710F8012B11F8FC
:10943800013B012A28BF9A42F7D0D01A7047034649
:1094480011F8012B03F8012B002AF9D170470346C4
:1094580013F8012B002AFBD1181A013870470000B5
:109468000023F7B5054618480C46CDE900331BF034
:10947800C5FB20B16FF03C04204603B0F0BDA1B29B
:109488006A4611481BF0B7FB04460028F2D1019840
:10949800FEF7A8FF0AA3D3E90023FFF737F906462A
:1094A80000980F46FEF79EFF02460B4630463946A7
:1094B800FEF74CFEC5E90001DEE700BFAFF3008010
:1094C8000000000080842E4124D903000000000021
:1094D80001282DE9F041884608D024F005F9162224
:1094E800374B1A504FF0FF30BDE8F0818A68354B92
:1094F8009A42F2D823F0D6FB05460F4623F0D2FB5A
:10950800314CD8F80030D8F80420A3FB043604FB0B
:109518000266D8F808209B1846EBE276EA0B42EA86
:109528004742A2FB0421FF0B9B1AC0F30E0204FB67
:109538000711A2FB04244FEAD23242EA444266EB06
:109548000101981A61F100011BA3D3E90023FFF779
:109558007FFD06460D461446EFF31187202383F35B
:109568001288BFF36F8F194817F0CAFF40B918491E
:10957800882218481BF060FD882115481BF053FD10
:10958800124817F0E1FF144B1048C3E900659C60CE
:1095980017F0C4FF40B90E4940F231120D481BF0D4
:1095A8004BFD40F23111E8E787F31188BFF36F8F65
:1095B800002099E7AFF3008000CA9A3B0000000042
:1095C8000C000000FFC99A3B00CA9A3BF4EA00204D
:1095D80002EE03009CED0300B8E10020000000004B
:1095E8002DE9F0419846002386B0CDE904330423E1
:1095F8000D46174606460193002800F0AC80002966
:1096080000F0A980062104A820F084FF0446002861
:109618004FD1014604AA304620F079FF04460028BD
:1096280044D16A46012104A821F03BF804460028E9
:109638003CD1009B0BB3042B25D0052B0CBF092371
:10964800FF232B70032101AB02AA04A821F057F8CD
:10965800064600287DD1019B7BB118336B4403F883
:10966800100C97B940494FF4BC7240481BF0E4FC19
:109678004FF4BC713C481BF0D6FC002300202B7033
:109688006860A86012E00723DBE702A93846FFF705
:10969800D6FE0222314602A819F054FA2B78C0B23D
:1096A800092B0AD10F2836D96FF0150404A820F029
:1096B80044FF204606B0BDE8F0810F28F4D8072BF8
:1096C80044D12B4B2B4F33F8100048B3FEF78AFEDA
:1096D80023A3D3E90023FEF7EFFEFFF7E5F9042102
:1096E80068600DEB010302AA04A8019121F007F8B4
:1096F800064670BB019B18336B4403F8100CB8F195
:10970800000F0FD1184940F2991218481BF094FC29
:1097180040F29911AEE7184B184F33F81000D4E710
:109728001748DCE702A94046FFF789FE02223146C6
:1097380002A819F007FAC0B20F28B5D80130C0B294
:10974800FFF7BCFA3946FFF70DFB9AE76FF07F0485
:10975800ACE73446AAE76FF01504AAE7AFF3008038
:109768007B14AE47E17A2440F1F703009CED030037
:1097780090EC03000AD7A33F70EC03000AD72340FC
:109788000AD7A340000000002DE9F04706460C4622
:1097980092B0002900F0BD800F68002F00F0B9805A
:1097A8008D68D1F8048005F10409C1450AD804225E
:1097B800AB49781923F0B6FBA8B90423F360A36872
:1097C80004331DE06B1D984510D2454580F0A180FB
:1097D8007B5D7819222B24D12146304612B0BDE892
:1097E800F04711F0CDB96B1D98450ED305229D4960
:1097F800781923F097FB30B90123F360A368053388
:109808000120A36086E0C145DFD804229649781973
:1098180023F088FB0028D8D10223F3600123736169
:10982800CDE72D2B03D0A3F13002092A53D800230A
:109838000DF1080C67464FF0010EA8EB0505DFF89F
:109848002C82019310F8012B452A3CD82A2A10D9DA
:10985800A2F12B01C9B20EFA01F111EA080F01D1E8
:109868002E2A06D101333F2B0CF8012B01D0AB4235
:10987800E8D1002548336B44384601A903F8405C19
:1098880018F0D8FEDDF804A08046BA45894640D0D5
:1098980071A3D3E90023FFF795F8B0B90022404639
:1098A8004946734BFFF784F890B940464946FFF79D
:1098B800B3F80823C6E906897061F360A368AAEBC8
:1098C800070A53449CE7652ACBE76FF00040F0E7AE
:1098D8004FF00040EDE75B2B58D1D4F80C90B9F568
:1098E8007A7F16D209F10103E3607B5D5B2B10D10F
:1098F80001352046A56021F028FCA368984506D9C3
:10990800FA5C5D2A09D10027C4F80C9036E0013BC7
:10991800A360002012B0BDE8F08700252F46013B68
:10992800A360206921F0BDFCA8460546002800F088
:10993800A3804FB3C8F80000C0F80480A36820468D
:109948000133A36021F001FC21462846FFF71CFFE4
:10995800002800F09180204621F0F7FBD4E901238C
:10996800934280F08C802268D35C2C2BD9D05D2B5D
:1099780040F08580E368013BE3607D602023C6E911
:109988000273A36801333BE70746D7E77B2BC0D1B7
:10999800D4F80C90B9F57A7FBBD209F10103E360E2
:1099A8007B5D7B2BB5D101352046A56021F0CDFB31
:1099B800A3689845ABD9FA5C7D2A03D10027C4F87F
:1099C8000C9047E000252F46A846013BA36020697C
:1099D80021F067FCA946054600284DD0002F49D044
:1099E800C9F80000C0F80490A36820460133A360BA
:1099F80021F0ABFB2146284611F0C2F800283BD0E5
:109A0800204621F0A2FB2B69C5F810802B62D4E90F
:109A18000123934230D22268D25C3A2A2CD10133F6
:109A28002046A36021F091FB21462846FFF7ACFEB3
:109A380010B3204621F089FBD4E9012393421ED2BA
:109A48002268D35C2C2BC2D07D2B18D1E368013B54
:109A5800E3607D60402392E70000C0FFFFFFDF4125
:109A68006AFE030081FE030087FE0300E57F000411
:109A78000000E0C10746B7E7002F3FF44AAF384679
:109A880011F0AAFC45E700BFD0B5174B0646186889
:109A98000F4621F006FC044670B10823C0E90667AA
:109AA800C36039460EA3D3E900233046FEF78AFF88
:109AB80020B16FF0004363612046D0BD00223046DC
:109AC80039460A4BFEF774FF10B14FF00043F2E736
:109AD80030463946FEF7A0FF6061EDE7AFF300803E
:109AE8000000C0FFFFFFDF4154C700200000E0C1B5
:109AF8002DE9FF4721F00042AF4F04460D46BA4218
:109B08004FEAD17632D9AD4FBA4216D894A3D3E9E9
:109B18000023FEF761FF074610BB2046294692A3A3
:109B2800D3E90023FEF73AFF002800F09E8038466C
:109B380004B0BDE8F04723F0A2BCC1F3130302460A
:109B4800034305D00B46FEF701FB04460D4602E031
:109B5800002E40F0FF802046294604B0BDE8F0877B
:109B6800002004B0BDE8F0471AF0B2BF944B9A4207
:109B780040F2A780934B9A4277D8934BF400C6F1F2
:109B8800010A03EBC603AAEB060AD3E90023FEF792
:109B9800DBFA8E4B804689462344D3E90034CDE96D
:109BA8000034DDE9002340464946FEF7CDFA044675
:109BB8000D4622462B4620462946FEF77DFC0646E2
:109BC8000F466BA3D3E90023FEF776FC6AA3D3E91B
:109BD8000023FEF7B9FA32463B46FEF76DFC68A350
:109BE800D3E90023FEF7B2FA32463B46FEF764FC9F
:109BF80065A3D3E90023FEF7A7FA32463B46FEF7F2
:109C08005BFC63A3D3E90023FEF7A0FA32463B4688
:109C1800FEF752FC02460B4620462946FEF794FA08
:109C280002460B4606460F4620462946FEF744FCE8
:109C3800CDE90201BAF1000F5AD100224FF080435A
:109C480030463946FEF780FA02460B46DDE9020146
:109C5800FEF75CFD22462B46FEF776FA02460B46D7
:109C680000205B49FEF770FA6FE75A4B20462946F9
:109C780003EBC60648A3D3E90023FEF71DFCD6E98B
:109C88000023FEF763FAFEF7C7FE8246FEF7AAFB3B
:109C980006460F4642A3D3E90023FEF70DFC024611
:109CA8000B4620462946FEF74FFA8046894630463D
:109CB80039463DA3D3E90023FEF7FEFBCDE90001B9
:109CC8006FE7454B9A420ED839A3D3E90023FEF734
:109CD8003DFA00223E4BFEF77FFE38B100223C4B96
:109CE800204629462FE74FF0000A62E7824660E7E0
:109CF80032463B4600204FF08041FEF725FA0246E7
:109D08000B46DDE90201FEF701FD02460B46DDE9DF
:109D18000001FEF719FA42464B46FEF715FA0B46C4
:109D280002462B490020FEF70FFA0B466FF47F71AD
:109D380006468A4503DB344603EB0A550BE70AF56A
:109D48007A7A3046002203EB0A514FF0B873FEF7D7
:109D5800B3FBFAE600240025FDE600BFAFF3008060
:109D6800EF39FAFE422E864051302DD5104987C072
:109D7800D0A4BE726937663EF16BD2C541BDBB3E09
:109D88002CDE25AF6A56113F93BDBE166CC1663FE7
:109D98003E5555555555C53FFE822B654715F73F2E
:109DA8000000E0FE422EE63F763C7935EF39EA3D89
:109DB8009C7500883CE4377E412E8640FFFFEF7F8C
:109DC800422ED63FB1A2F03F58DF030048DF030020
:109DD8000000F03F68DF0300FFFFEF3D00000000D8
:109DE800B1F5801F2DE9F04F074687B088460D462C
:109DF80025DA21F00043034305D1012007B0BDE86F
:109E0800F04F1AF071BE002904DA07B0BDE8F04F30
:109E18001AF076BE0022C64BFEF74EFB88460D466A
:109E280007466FF03501C34885420ADD3A46434686
:109E380038464146FEF78AF907B0BDE8F08F0021A1
:109E4800F1E72C15C5F3130500223846A4F2FF34B8
:109E58000C4405F5152101F6647101F4801686F0AD
:109E68007F5104EB165481F4401141EA0503194669
:109E7800B14BFEF769F9AB1C82468B46C3F313035B
:109E88000022022B53DC0023FEF77EFDD0B1002C0C
:109E980000F020812046FEF7A5FA06460F4690A35B
:109EA800D3E90023FEF708FB04460D463046394641
:109EB8008DA3D3E90023FEF7FFFA02460B4620469E
:109EC8002946B7E78AA3D3E9002350465946FEF747
:109ED800F3FA02460B4600209849FEF735F9064684
:109EE8000F4652465B4650465946FEF7E5FA02468B
:109EF8000B4630463946FEF7DFFA06460F4614B9D8
:109F080032463B46A0E02046FEF76CFA804689467A
:109F180073A3D3E90023FEF7CFFA04460D46404663
:109F2800494671A3D3E90023FEF7C6FAA5E04FF02E
:109F38008043A5F5C226FEF709F902460B465046AE
:109F48005946C5F5D725FEF7E1FBA6F27A46513505
:109F5800CDE9000120463543FEF744FADDE9002348
:109F6800CDE9020110461946FEF7A6FA02460B464D
:109F7800CDE90423FEF7A0FA804689465EA3D3E91B
:109F88000023FEF799FA5EA3D3E90023FEF7DEF873
:109F980042464B46FEF790FA5BA3D3E90023FEF74F
:109FA800D5F842464B46FEF787FA59A3D3E9002372
:109FB800FEF7CCF8DDE90423FEF77EFA56A3D3E9D1
:109FC8000023CDE9040140464946FEF775FA54A33B
:109FD800D3E90023FEF7BAF842464B46FEF76CFA7F
:109FE80051A3D3E90023FEF7B1F842464B46FEF7EA
:109FF80063FA02460B46DDE90401FEF7A7F8002DD7
:10A008008046894648DD00224C4B50465946FEF7AB
:10A0180053FA52465B46FEF74FFA02460B4606468F
:10A028000F4640464946FEF791F8DDE90023FEF762
:10A0380043FA8046894664B902460B46304639469B
:10A04800FEF782F802460B4650465946FEF77CF862
:10A05800F2E623A3D3E90023DDE90201FEF72CFA97
:10A0680004460D4620A3D3E90023DDE90201FEF7EB
:10A0780023FA42464B46FEF769F802460B4630463D
:10A088003946FEF761F852465B46FEF75DF8024630
:10A098000B4620462946D9E702460B465046594604
:10A0A800FEF752F8DDE90023FEF706FA06460F46EA
:10A0B800002C3FF425AF0AA3D3E90023DDE9020110
:10A0C800FEF7FAF904460D4607A3D3E90023DDE9B4
:10A0D800020129E700200021AEE600BFAFF30080AF
:10A0E8000000E0FE422EE63F763C7935EF39EA3D46
:10A0F800555555555555D53F44523EDF12F1C23F8F
:10A10800DE03CB966446C73F599322942449D23F35
:10A11800935555555555E53F9FC678D0099AC33F85
:10A12800AF788E1DC571CC3F04FA97999999D93F9C
:10A1380000005043FFFFEF7F0000F03F0000E03FCA
:10A1480008B5044816F03EF8BDE8084014200DF0A4
:10A15800D3BA00BF80C5002010B50020FFF7F0FF7C
:10A16800054C18B1216805481AF0F5FC2168044827
:10A17800BDE810401AF0EFBC80E90020020007D2C9
:10A18800010007D210B5064C064821681AF0E3FC16
:10A19800206806F07FFABDE810400020FFF7D0BF26
:10A1A80080E90020020007D270B50F4B18681FF035
:10A1B80087F8002816DD4FF47A734FF4004503FB47
:10A1C80000F4002140F2E7304FF47A720023E4FBF8
:10A1D8000501FEF78DFFBDE8704002460B460348B7
:10A1E80015F0EABF70BD00BF80E9002080C50020DF
:10A1F80010B51B4B1A78A2B15A7892B1A8B9187049
:10A20800184C5970206806F045FA22F0DBFB70B153
:10A21800002120681EF0C0FFC0B1BDE81040FFF764
:10A22800C3BF28B91870597001E00029E8D010BDE3
:10A2380001221A700029F6D05A700A4B186806F0E5
:10A248004BFABDE81040084815F0BCBFFFF778FF8F
:10A258000028ECD021680548BDE810401AF07BBC06
:10A26800EA07012080E9002080C50020020007D20B
:10A2780010B504464FF0FF324FF0FF33074815F092
:10A2880057F9074B5A78A24203D021461878FFF7AE
:10A29800AFFFBDE8104001481AF06BBC20CA00208F
:10A2A800EA07012010B50446006806F0F3F9606972
:10A2B8004FF0FF324FF0FF3315F03AF9E368606969
:10A2C80043F00203E3601AF054FC60694FF0FF3278
:10A2D8004FF0FF3315F02CF9E368606943F0010390
:10A2E800E3601AF046FC00230848236120F007FBCE
:10A2F80028B121680648BDE810401AF02CBC054872
:10A3080020F037FA2268044B1A6010BD85A30100BB
:10A31800020007D27F4B030080E9002010B50446F5
:10A328004FF0FF324FF0FF33074815F001F9074BA4
:10A338001A78A24203D020465978FFF759FFBDE8A2
:10A34800104001481AF015BC20CA0020EA07012075
:10A3580010B5094C206800F0A7F818B1BDE8104006
:10A36800FFF710BF206800F01FF90028F6D1BDE8FC
:10A378001040FFF7D3BF00BF80E90020013908B5BE
:10A38800042924D8DFE801F00314181D1400104B29
:10A39800186800F02FF810F13D0F18D018B1BDE87B
:10A3A8000840FFF7EFBE0120BDE80840FFF7B6BF41
:10A3B800BDE80840FFF7CCBF054B186800F08AF8E5
:10A3C800ECE7034B186800F0EFF80028E7D108BD68
:10A3D80080E9002010B5054C054821681AF0BBFB40
:10A3E8002068BDE8104006F055B900BF80E900209C
:10A3F800020007D270B500240646A2B018222146F2
:10A4080008A8CDE90044CDE9024423F05BF8002E0A
:10A418003DD0242221460FA80E9423F053F824227D
:10A42800214619A8189423F04DF81C491C4818AB6C
:10A438000EAA13F093F9A04203DC6FF00D0022B0CE
:10A4480070BD012004AA0EA91BF0CAFD012805460B
:10A4580002D06FF03C00F2E70EA96846FEF7EFFF66
:10A468006846FEF7F4FF08AA014668461CF054FC4B
:10A478000028E2D023460322304609A905F042FC11
:10A4880040B1084B099A20461A601D71D7E76FF052
:10A498001500D4E76FF01200D1E700BFB6EC030057
:10A4A800E3EC030084E9002010B550B1084C23798F
:10A4B8002BB1214605F08EFF30B100232371002017
:10A4C80010BD6FF01500FBE76FF00D00F8E700BF57
:10A4D80084E9002070B500240546A8B0242221464E
:10A4E8000BA80A9422F0EEFF1822214604A822F0B5
:10A4F800E9FF002D4CD02146242215A8149422F0FF
:10A50800E1FF214624221FA81E9422F0DBFF2349E5
:10A5180023481EAB14AA13F021F9041E35DD0220CE
:10A528006A4614A91BF05CFD01281FD114A90AA8CA
:10A53800FEF785FF0AA8FEF78AFF04AA01460AA8C3
:10A548001CF0EAFB08B305AC002303222146284689
:10A5580005F048F8F8B194E80F00124E06F1080526
:10A5680085E80F000123002033760CE0012C08D089
:10A5780002206A461EA91BF033FD012801D11EA93D
:10A58800D5E76FF03C0028B070BD6FF00D00FAE71A
:10A598006FF01500F7E76FF01200F4E7B6EC030070
:10A5A800E3EC030084E9002010B558B1084C237E81
:10A5B80033B104F1080105F0B5FC30B1002323766E
:10A5C800002010BD6FF01500FBE76FF00D00F8E7F5
:10A5D80084E900202DE9F341184E1D4633680746EB
:10A5E800632B144626D8684620F0A3F968B122F0F8
:10A5F80059FB4FF47A7CA0FB0C320CFB0121DB0BDE
:10A6080043EA4143C90BCDE900313022D6F8008036
:10A618000B4B394602FB08332022184622F094FCE3
:10A628000346C0E90845DDE90001C3E90A0108F16C
:10A638000103336002B0BDE8F08100BFA0E900204B
:10A64800F8CE0020002301222DE9F0418CB002A8A9
:10A65800CDE90533CDE90A338DF8082003938DF849
:10A6680010308DF81C2008938DF8243020F0F8FA6B
:10A67800044678B91A4D1B4E1B4FDFF870803368BB
:10A68800A3420AD802A81AF0A7FA00B9306002A8B3
:10A6980020F024FB0CB0BDE8F081D5E90A23294657
:10A6A800CDE9002307A83A461AF082FA50B900907B
:10A6B8004146D5E9082307A820F05CFB28B107A884
:10A6C80020F00CFB01343035D9E707A902A820F0A7
:10A6D8002CFB0028F3D107A820F0B1FAF2E700BF5D
:10A6E800F8CE0020A0E9002011ED030016ED0300CC
:10A6F8002DE9F0474FF0FF318AB04FF0FF3000F0FE
:10A70800D7F800214FF4160000F0F2F80EF0F8FE2A
:10A71800032020F0F9F90A2400250026DFF8FCA020
:10A728003F4F4FF0FF324FF0FF335046CDE9002343
:10A7380000234FF4B40217F0D5F93A4B1B7853B104
:10A748002846FDF74FFE05F1010802460B4636483C
:10A75800FFF740FF45460D2102A8CDE90267CDE984
:10A768000467CDE90667CDE90867FEF779FE98B971
:10A77800DDE902232D48FFF72DFFDDE902890022DC
:10A78800404649462A4BFEF727F950B3294B1A7819
:10A79800002A39D101221A701E2104A8FEF760FE92
:10A7A80020B9DDE904232448FFF714FF0E2108A887
:10A7B800FEF756FE20B9DDE908232048FFF70AFF17
:10A7C800102106A8FEF74CFE20B9DDE906231C4837
:10A7D800FFF700FF0A2C13D00134504617F0E0F9B8
:10A7E8009FE7002240464946164BFEF7D7F8002857
:10A7F800D2D0104B1B78002BCED000220D4BCAE7CD
:10A80800FFF720FF0024E8E70022404649460D4BA9
:10A81800FEF7C4F80028F0D1BEE700BF20C9002029
:10A828000000F0BFED0701201BED030021ED030040
:10A8380000003E40EC07012026ED03002FED030049
:10A8480039ED030000803C40014B1870704700BF91
:10A85800ED070120014B1878704700BFED07012074
:10A868000146014822F0FEBA0CCC002008B520F0C1
:10A8780071F820B1BDE808401020FFF7F1BF1021A2
:10A88800BDE80840014822F0F0BA00BF0CCC002017
:10A8980007B50022CDE900010121044822F0E9FAB8
:10A8A800003818BF012003B05DF804FB0CCC002071
:10A8B80007B50022CDE900010421044822F0D9FAA5
:10A8C800003818BF012003B05DF804FB0CCC002051
:10A8D80007B50022CDE900010821044822F0C9FA91
:10A8E800003818BF012003B05DF804FB0CCC002031
:10A8F80007B50022CDE900011021044822F0B9FA79
:10A90800003818BF012003B05DF804FB0CCC002010
:10A9180008B50B4815F056FC06210A4822F0A5FA9E
:10A928000022094BD3E8EF1FC3E8E02F0028F9D134
:10A938000FF07CF8BDE808400820FFF791BF00BF82
:10A94800B0C500200CCC0020BCE9002008B50C4B99
:10A95800994209D14FF40040002116F0E1FBBDE80F
:10A9680008400120FFF77CBF064B994207D101211F
:10A97800054822F07AFABDE80840FFF7C9BF08BDCC
:10A98800010014F1020014F10CCC002070B503781A
:10A99800013B0E2B18D8DFE803F008170F18212603
:10A9A800172E17171D175C171D0000F06BF90220F2
:10A9B800BDE87040FFF754BF0122284BD3E8EF1FD2
:10A9C800C3E8E02F0028F9D170BD244BD3E8AF3F8E
:10A9D800002BF9D0BDE87040FFF79ABF204815F06A
:10A9E800F1FB0420E4E71F4B1B68002BECD0BDE80B
:10A9F8007040083018478469002CE5D02578D5B90F
:10AA080060680028E0D0103000F0BAF910F1090FA2
:10AA18000FD00C300128D7D90121606810300EF012
:10AA280029FE0028D0D16068BDE87040103020F0C1
:10AA38009DBA2946F1E7012DC6D160680028C3D028
:10AA4800283000F0EFF90028BED0BDE8704000F0D3
:10AA58001FB9BDE870401AF0D5B800BFBCE90020A6
:10AA6800B0C50020B8E900202DE9F043022095B0D8
:10AA78001AF0CDF8012008F0C9FF3148314B436086
:10AA8800314B036106F092FA30481FF065FF10223F
:10AA980000210DEB020022F015FD2D4B03931AF057
:10AAA800B4F82C4B059003A807930EF04FFF00282D
:10AAB80040D14FF0FF364FF0FF374FF000084FF00E
:10AAC8000009254D4FF0FF314FF0FF30FFF7E0FE52
:10AAD800412103A820F0F7F90821284622F0C5F9FA
:10AAE8000EF070FF10F10B0F044617D0E0B90A21E1
:10AAF8000246CDE90067284622F0BBF9830713D543
:10AB0800042122462846CDE9008922F0B2F928B16D
:10AB18004FF096720023114815F04EFB4FF0FF30AE
:10AB28004FF0FF31FFF7D4FE00214FF4702016F0EC
:10AB3800F7FAC7E7032015B0BDE8F0431AF067B885
:10AB4800A4E9002055A90100030014F175A801002B
:10AB580095A901003FED03000CCC0020B0C50020F2
:10AB6800F7B50F460446F8B10190124B5B6A192BF2
:10AB78001DD051B1142022F086F9064680B1054651
:10AB88000FCC0FC5236801962B60002200230948CB
:10AB980001A914F091FB28B117B1019822F06CF9C2
:10ABA8006FF00B0003B0F0BD6FF01500FAE76FF01F
:10ABB8001B00F7E7FCCA0020BFB5234F234D4FF019
:10ABC800FF324FF0FF336946384614F011FC044653
:10ABD8000028F4D14FF0FF314FF0FF30FFF768FE47
:10ABE800009B1022214602A8019322F06BFC4FF42F
:10ABF800817301A8ADF810300EF02CFF002818DA88
:10AC080021460098FFF7ACFF30B1009C204620F0A9
:10AC180065F8204622F030F92B680133052B2B60AC
:10AC2800CDDDFFF775FE00214FF4A02016F078FA6D
:10AC3800C5E7009E304620F051F8304622F01CF956
:10AC480019F0E6FF2C60BAE7FCCA0020C0E9002032
:10AC580013B50B490DF107021FF09CFF044630B9EC
:10AC68009DF80700FFF7F0FD204602B010BD10F177
:10AC7800230F14BF6FF022046FF00804F4E700BF3D
:10AC880045ED03000022014B1A707047EE070120C2
:10AC98000023012210B594B00FA8CDE90333CDE904
:10ACA8000833CDE90D33CDE912338DF80020019337
:10ACB8008DF808308DF8142006938DF81C308DF827
:10ACC80028200B938DF830308DF83C2010938DF8A8
:10ACD80044301FF09AFF80B16FF00B0468461FF0F4
:10ACE800FDFF05A81FF0FAFF0AA81FF0F7FF0FA83D
:10ACF8001FF0F4FF204614B010BD0AA81FF085FF0E
:10AD08000028E9D105A81FF080FF0028E4D1684693
:10AD18001FF07BFF04460028DED1FFF79BFD23468A
:10AD2800024613490FA820F06AF804460028D5D136
:10AD3800034610490FAA0AA820F081F80446002803
:10AD4800CCD103460C490AAA05A820F078F8044695
:10AD58000028C3D103460949684605AA20F06FF8C0
:10AD680004460028BAD1684620F000F90446B5E741
:10AD780045ED030053ED03005AED030063ED0300B6
:10AD880070B5054686B000283FD00378012B04D063
:10AD98006FF02204204606B070BD4268002AF7D042
:10ADA8001D4A1278002A33D000261C4901AACDE991
:10ADB80004668DF8043002968DF80C601FF0FCFED6
:10ADC8001330E5D001A8FFF743FF10F1090F04463F
:10ADD8000DD101A81FF082FF01A81FF016FFFFF791
:10ADE80039FD334602460E4901A820F008F8002331
:10ADF80028460A4901AA20F022F80028CAD001A84A
:10AE08001FF06CFF6FF00B04C4E76FF01504C1E787
:10AE18006FF00A04BEE700BFEE07012053ED030000
:10AE280045ED030010B550B10478012C0AD14368F0
:10AE380043B1FFF70DFF08B9044B1C7010BD6FF04C
:10AE48001500FBE76FF02200F8E700BFEE070120CE
:10AE580010B5094C0A44914200D110BD11F8013BCC
:10AE680058400309E35C0001C0B243401809205C64
:10AE78001B01DBB25840EEE769ED030070B589B3FA
:10AE880006680122304619F017FF0146044630468D
:10AE980019F0DAFEC30708D41349AF2213481AF091
:10AEA800CBF8AF2110481AF0BEF82146304619F009
:10AEB800E1FE251829460022304619F0C5FE2D1A54
:10AEC800AC4206D00849B72208481AF0B5F8B721AD
:10AED800E8E72146304619F0D3FE2146BDE8704028
:10AEE8001AF00FB870BD00BF79ED03009CED0300A8
:10AEF8002DE9F8430F4606681446B2684B1EB2F5B2
:10AF0800004F34BF042108213B4010D0C7F100098D
:10AF180009EA0709494503F1FF3028BF49461842A5
:10AF28000CD11F46BCB900252846BDE8F8838F42DE
:10AF38000FD82146BDE8F8431AF025B82C492D480A
:10AF48004FF4A2721AF078F84FF4A27128481AF058
:10AF58006AF89946E6E7B2EBD40FE4D9E319591A2F
:10AF6800104619F0B3FE0146304619F009FF804635
:10AF78000028D8D0B36809EBC005B3F5004F34BF3B
:10AF8800042308231D4435447B1E1D44B5FBF7F5F7
:10AF98007D43A5EB09052946304619F08DFE2C4462
:10AFA800073424F00704A41B804507464FEAE4044D
:10AFB80008D202464146304619F01CFF4146304649
:10AFC80019F05DFF3946304619F054FE3844844282
:10AFD80008D239463046224619F00CFF2146304641
:10AFE80019F04DFF01223946304619F049FE9BE71A
:10AFF80079ED03009CED03002DE9F74F91461F46BC
:10B008000E460468009031B93A46494603B0BDE897
:10B01800F04FFFF76DBF3FB9FFF730FF4FF0000863
:10B02800404603B0BDE8F08F02F1FF3A1AEA020F7A
:10B038000AD04B494B4840F2891219F0FDFF40F203
:10B048008911474819F0EFFFD4F808B0BBEBD70FC8
:10B05800E4D9204619F030FE01460546204619F08D
:10B0680009FEBBF5004F2CBF0822042202EBC502E3
:10B078002244B31A8046F9185846019319F026FE5F
:10B088008346B9F1000F02D016EA0A0F44D1C3452E
:10B098000ED00FD2AB445A462946204619F0AAFED4
:10B0A80029460122204619F0EBFD594619F029FFDF
:10B0B800B046B5E705EB080A01225146204619F0CB
:10B0C800C3FDC30728D45146204619F0D3FD404498
:10B0D800584521D35146204619F03BFE514620469B
:10B0E80019F0C8FDABEB080840450AD905EB0B077A
:10B0F800514620463A4619F07DFE3946204619F059
:10B10800BEFE52462946204619F09BFE01222946DA
:10B11800204619F0B5FDCBE73A4649460098FFF7B7
:10B12800E7FE804600283FF479AF2946204619F00B
:10B13800A1FDA368019AB3F5004F34BF0423082387
:10B14800C2EBC002D21ABA42314628BF3A4640463C
:10B1580022F0ABF931460098FFF790FE60E700BF98
:10B1680079ED03009CED0300B2F5802F2DE9F04145
:10B178000CD2042A20D83D494FF4F9723C4819F002
:10B188005BFF4FF4F971394819F04DFF0823D21AC3
:10B19800CC1D114424F0070421F00701091B1729CD
:10B1A8004FEAD1060AD8314940F2FB12304819F06B
:10B1B80043FF40F2FB11E6E70423E8E700270460B9
:10B1C80031463046A660E76019F089FD0121421D2D
:10B1D8008046304619F07AFD9200D51DED082844C6
:10B1E800B0423AD8B8F1FF3F3946A2F1100204F153
:10B1F8001000B8BF3A4622F065F92A46394620467B
:10B2080019F056FD3B463A463946204619F027FDC7
:10B21800A6EB050820463946012219F031FD4246C1
:10B22800294619F045FD2B463A462946204619F08D
:10B2380016FD3146204619F03BFD43463A46314655
:10B24800204619F00CFD31462046012219F018FD60
:10B258002946BDE8F04119F012BE04494FF40372C3
:10B26800034819F0E9FE4FF403718CE779ED030008
:10B278009CED0300014B1B68184700BF24C6002043
:10B2880030B585B004460D4610220021684622F0EC
:10B2980019F902238DF80230044B2A4621466846E4
:10B2A800019317F04FFD05B030BD00BF7DB201001E
:10B2B80080B505460E461746984615F05FFF0346CB
:10B2C80022F012FA0446DFF81890424649F8003096
:10B2D80039463046A84754F8090001F06FFB00BF13
:10B2E80008000000032800B508D922F0FDF909225A
:10B2F800074B1A504FF0FF305DF804FB2822054B2E
:10B3080002FB0033D3E8AF3F002BEED00020F3E779
:10B318000C000000CCE9002038B504461546FFF7BC
:10B32800E1FF00280DDB28236343074AD018406853
:10B33800086015B10C3313442B6028235C43105963
:10B3480038BD0020FCE700BFC4E9002070B5002527
:10B358004FF0FF334FF0FF32174814F0E9F8174B5E
:10B36800D3E8AF2F82B10135042D03F12803F7D1BB
:10B3780022F0BAF917224FF0FF35114B1A500E4838
:10B3880014F08CF9284670BD28246C43D3E8EF0FDD
:10B398000130C3E8E10F0029F8D10A4E33193251C0
:10B3A8005A6004F10C00304421F069FB04F12000DC
:10B3B800304421F017FCE2E7F8C90020CCE900206E
:10B3C8000C000000C4E9002010B4044610462822EE
:10B3D8005443084B1A191951506040B1C26832B130
:10B3E8000C34234440F2051210BC19F00DBE10BCF9
:10B3F800704700BFC4E900202823434330B50D49F6
:10B4080008330B44D3E8AF2F92B1541ED3E8EF5F53
:10B41800954204D1C3E8EC4FBCF1000FF6D1F1D14D
:10B42800012A05D12823584300230A180B505360DA
:10B4380030BD00BFC4E90020044608B5EFF311830E
:10B44800202383F31288BFF36F8F0AF05BF920463D
:10B4580001F06AFA024819F0CAFD1AF098FBFCE7F5
:10B46800B4ED03002DE9F84340F26C7344690569B3
:10B47800E1170135E41841F10001022D8CBF0023CA
:10B488000123E41AC76861F100010029064607F1A3
:10B49800FF374EDA6FF4C7704FF4C87200232018D4
:10B4A80061F10001FDF7D4FD244B4FF03C0E03FB86
:10B4B8000044D6E900834FEAE37C99466346022DAF
:10B4C80002468CBF6FF002000920B6680544C6FB2F
:10B4D8000E93A9FB0EC60EFB036640F26D1E992063
:10B4E800A3080EFB04333B44642745430520B4FB03
:10B4F800F7F40235B5FBF0F51B1B114C1CEB080CDF
:10B50800A2FB042004FB01012B4446EBE8769818C3
:10B518000C4A41F1000380180B4A63F10003A0FBB9
:10B52800020102FB031110EB0C0041EB0601BDE820
:10B53800F8834FF4C87200232046B3E770FEFFFF7C
:10B54800B13A02009405F5FF805101002DE9F84F4A
:10B558000446A38B08461907164612D4022803F09E
:10B56800070162D1204619F0C4FD88B101380428CA
:10B5780000F22581DFE810F0590023017E00C800A1
:10B58800F50001280CBF43F0100143F02001A1830E
:10B5980004F1140015F0C2FF002800F0AB8086F318
:10B5A8001188BFF36F8FBDE8F88F03F00702501FB3
:10B5B80001281ED80020062A2768C4E9000014D1F3
:10B5C8003A4603E0E08B0130E0831268002AF9D1A3
:10B5D80023F0070343F002022046A28319F089FDF5
:10B5E80090B342F02002A2832EE023F007039AB220
:10B5F800F2E7042A33D123F007039AB22046A28344
:10B6080019F077FD10B142F02002A283A38B03F05A
:10B618000709894540F0DC80A18BCA0640F12181E9
:10B6280021F01003A38301F00701D4F81880A38B3D
:10B63800B8F1000FB9DA0022276823F00703C4E93C
:10B64800002243F00103A383A38B03F00709894574
:10B6580040F0BF80002FDFD00025AA4640E0854992
:10B6680040F21B12844819F0E7FC40F21B11814894
:10B6780019F0D9FC41B17F494FF4AB727E4819F0FB
:10B68800DBFC4FF4AB71F2E7236843B9794940F228
:10B698005712794819F0D0FC40F25711E7E72369AF
:10B6A8001D6845B973494FF4AD72734819F0C4FC6D
:10B6B8004FF4AD71DBE70F4688464FF00609A38BC0
:10B6C80023F0070343F006039BB2A383A268002A72
:10B6D80040F08180002F40F08180002D9CD0BA4638
:10B6E80043F0080304F1140B5846A38315F016FF22
:10B6F800002875D1614940F231125F4819F09CFC6D
:10B7080040F231115D48B3E7022908D0594940F2A7
:10B718005D12594819F090FC40F25D11A7E7E78BDC
:10B7280047B154494FF4AF72534819F085FC4FF4B0
:10B73800AF719CE723695D6845B94E4940F26112D3
:10B748004D4819F079FC40F2611190E7A38BB84697
:10B7580023F0070343F004039BB24FF00409A383CB
:10B76800B4E7012908D043494FF4B272424819F0AE
:10B7780063FC4FF4B2717AE7236843B93D4940F25C
:10B7880065123D4819F058FC40F265116FE72369CE
:10B798009D6845B937494FF4B472374819F04CFCE5
:10B7A8004FF4B47163E70027A38BB84623F007036F
:10B7B80043F005039BB24FF00509A38386E72D49A3
:10B7C80040F26B122C4819F037FC40F26B114EE72F
:10B7D800002700257AE74FF0010A81E792467FE7C4
:10B7E80086F31188BFF36F8FBAF1000F16D147BBEC
:10B7F80015B120462249A847EFF31186202383F389
:10B808001288BFF36F8F584615F07AFE08BB1B49A4
:10B818008822194819F010FC882173E7A1680029CB
:10B82800E5D00E680029E2D043464A462046D1F8C2
:10B8380004A0D0471EB1336831461E46F2E73346AE
:10B84800FAE7394643464A4620463F6819F07DFCE8
:10B85800CDE7584615F078FEA38B23F00803A383A1
:10B86800DAE68B067FF594AE21F02003A38301F07E
:10B87800070177E6DDED03009CED030002EE03000F
:10B888008DB80100F8B504460D4600F11406EFF333
:10B898001187202383F31288BFF36F8F304615F08A
:10B8A8002FFE40B909490A48882219F0C5FB8821AA
:10B8B800064819F0B8FB304615F046FEA5613A4631
:10B8C8002046BDE8F8400121FFF740BE02EE030024
:10B8D8009CED03002DE9F04704460F4619F025FCBE
:10B8E800051E5DDB04F11409EFF3118A202383F3AD
:10B8F8001288BFF36F8F484615F002FE804638B9AC
:10B9080033498822334819F097FB882130483CE0B6
:10B91800484615F019FE4FF6FF72E38BA68B93424B
:10B9280006F007063FD0022E10D135460133E383D7
:10B93800484615F0F3FD00283BD1254940F2311265
:10B94800244819F079FB40F23111DFE7062E13D8AD
:10B95800DFE806F0092C1212090409006FF08505CA
:10B968004FF00008E4E700233B6063687BB9C4E953
:10B9780000777EB13546F3E7174916484FF4E4726D
:10B9880019F05AFB4FF4E471134819F04CFB1F608F
:10B998006760EEE7524602212046FFF7D7FD35469D
:10B9A8002846BDE8F0876FF00A05D9E76FF004056F
:10B9B800D6E78AF31188BFF36F8FB8F1000FEFD085
:10B9C800002332463946204619F0BFFBE8E700BF9E
:10B9D80002EE03009CED0300DDED030008B54268AC
:10B9E800034602F00302022A81600AD0032A4FF0BC
:10B9F800000103D0012A0AD1596006E0186859608D
:10BA080008BD186800225A6050B90020F8E70649B6
:10BA18000648452219F010FB4521034819F003FB9D
:10BA280016F096FBF1E700BF2FEE03009CED030034
:10BA38002DE9F04F85B090F836800446B8F1080F2C
:10BA480038BF4FF00808894608F1070303F4FC7370
:10BA580002AFADEB030D02AB90F83C10164618464A
:10BA680042467B6021F02EFD4A462046796819F04F
:10BA78005DFCB0F1000A7ADB94F836B01FFA8AF15F
:10BA8800584619F0A0FB49460546584619F09BFB55
:10BA980001218146584619F096FBA84581441FFAB2
:10BAA80089F908D23A493B484E2219F0C5FA4E2185
:10BAB800374819F0B8FA04F10C084FF0FF324FF08C
:10BAC800FF33404613F034FD824600285CD1D4E9A8
:10BAD800091248682A444A44824234D9D346A27992
:10BAE80020463A6019F0DAFD0146BBF1000F08BFA5
:10BAF8008346206A814241D03A680AF101005245E2
:10BB08003ADCBBF1000F39D0082194F8360019F05F
:10BB18005AFBDBF804A04844284482452ED3A28E61
:10BB280059460132204692B219F03FFC8246D8B9F4
:10BB3800082194F83600C4F824B019F044FBA38E09
:10BB4800A0620133A38600952046D4E909127B68D8
:10BB580019F0B6FB8246A0B9636A3360A36A1D4434
:10BB6800B5604D447360A562404613F097FD50469A
:10BB78000C37BD46BDE8F08F8246B1E76FF01B0A6F
:10BB8800F2E76FF0040AEFE76FF0150AEFE700BF7E
:10BB980055EE03009CED0300014B03600020704745
:10BBA80078DF030070B5114B0D461C68DCB1104BF3
:10BBB800196800238B4202DB6FF0010070BD22463A
:10BBC80012F8106B864202D014460133F2E7E0689F
:10BBD80010B96FF01200F1E720F0FAFE0028F8D053
:10BBE80000202C60EAE76FF00C00E7E770C6002041
:10BBF8008CDF030070B588B005460C46C0B26946B4
:10BC08001646FFF7CFFF00281BDB0098C8B1436832
:10BC18002268029383680195CDE903360023CDE9B4
:10BC280006230593C56819F0E2FD6DB12846084959
:10BC380001AA1DF0DAFB079808B9059B236008B034
:10BC480070BD6FF01500FAE76FF01200F7E700BF5C
:10BC58008358030070B50D461646044638B331B311
:10BC68002022002121F02EFC28881122022101F037
:10BC780059FF0028E06005DA21F036FD0D4B185811
:10BC8800404270BD3246294602F0A4F80028E06818
:10BC980002DA01F0B7FFEFE70121A36844F83300A7
:10BCA80004EBC3020B4491800020A360E9E76FF026
:10BCB8000D00E6E70C000000F0B504469BB00F4607
:10BCC80015460021302202A821F0FCFB002C00F0D0
:10BCD800A180002D00F09E809DF8083023F03F03DE
:10BCE80043F01B038DF8083020F0DCFF4B4A002698
:10BCF800A0FB020302FB013110F5804041F1000175
:10BD0800C00B40EA41400023444AC90BFDF7A0F9A3
:10BD180041F2C6034FEA106C5A4303024CEA012C65
:10BD280003F47F0343EA0C03C4E9040143EA006314
:10BD3800000A00F47F400343A26112BAE0680C9342
:10BD48000D9230223346CDE9006602A902F00EF9C1
:10BD5800002810DB314630220EA821F0B3FBA16881
:10BD68003A4620461AF01EF9B04206DA21F0BCFC29
:10BD78002B4B185840421BB0F0BD42D0E06830222F
:10BD88003346CDE900660EA902F066FC0028EDDB1B
:10BD9800302839D1D4E90412149B1BBA964208BF43
:10BDA8008B4202D06FF01500E5E7159BA2691BBA1C
:10BDB8009342F7D19DF8383003F00703042BF1D1F3
:10BDC8009DF839301BB3189B199A1BBA12BA53EA5B
:10BDD8000201E7D0AA60002293420DDA11498B4292
:10BDE80002D8C5E90032DDE70F4A9B1862EB020270
:10BDF8000020C5E90032BEE70B495B1842F100029A
:10BE0800F6E76FF07300B6E76FF07900B3E76FF00D
:10BE18000F00B0E76FF00D00ADE700BF40420F0024
:10BE28000C0000007F7EAA838081557C2DE9F041BB
:10BE38000F4B05461C680E461746ACB14FF0FF3253
:10BE48004FF0FF330B4813F073FB63683246D3F8A7
:10BE5800088029463B462046C0470446054813F05B
:10BE68001DFC2046BDE8F0816FF00104F9E700BF32
:10BE780064EA0020C0CA002000230360044B5A680B
:10BE880012B9C3E90000704710605860704700BFDE
:10BE980068EA0020014B1860704700BF64EA002080
:10BEA800002330B585B00546CDE9023301904FF047
:10BEB800FF334FF0FF320B4813F03AFB0A4B1C6874
:10BEC8004CB9284600F07CF80446064813F0E6FB17
:10BED800204605B030BD636820461B6801A9984715
:10BEE8002468EDE7C0CA002068EA00200022024B5F
:10BEF800C3E90022704700BF68EA00200022024B15
:10BF0800C3E90022FFF7F2BF70EA00202DE9F743EA
:10BF180007460C4609B100230B600026234DDFF8C5
:10BF280090904D4520D923492348942219F084F84C
:10BF38009421204819F077F8D5F800803846414612
:10BF480001AA19F0C1FC50B116B954B92E4606E041
:10BF580000224046316819F0B7FC0028F5D11435A5
:10BF6800DFE7019B2360F1E7E6D3144B1D68C5B1F9
:10BF780055F8148C3846414601AA143D19F0A4FC22
:10BF880050B116B954B92E4606E000224046316831
:10BF980019F09AFC0028F5D16D69E8E7019B236048
:10BFA800F1E7304603B0BDE8F08300BF40DC030092
:10BFB80054DC030083EE03009CED030070EA0020CC
:10BFC800F8B5064600251C4C1C4FBC421BD91C4921
:10BFD8001C48F42219F030F8F421194819F023F814
:10BFE8002EB9E3685BB9284605461434EDE700220C
:10BFF8003146206819F068FC0028F2D1F3E7984729
:10C00800002DF0D1F0E7EBD30F4B1C6894B1143C32
:10C018001EB9E3684BB96469F8E700223146206825
:10C0280019F052FC0028F4D1F5E79847002D08BF15
:10C038000546F0E72846F8BD40DC030054DC030061
:10C0480083EE03009CED030070EA002038B50C4D28
:10C058004FF0FF334FF0FF320A4813F069FA2B789C
:10C068003BB9FFF74BFF00F025FA044610B901234E
:10C078002B700024034813F011FB204638BD00BF85
:10C08800EF070120C0CA00202DE9F04FDFF8B0A06B
:10C098008FB002939AF80C300646894615460193EC
:10C0A800002A46D0904620230593019BDAF80040E9
:10C0B80096FBF3F75F431998394605AB06AAA047E4
:10C0C8000446002838D1059BF71BDA1B424528BFD8
:10C0D8004246009306AB1F44189B93462BB3384641
:10C0E800197821F0D4F910B30123A0EB070B5A46B5
:10C0F80039464846039321F0D8F9009BA8EB0B0872
:10C108001F2B039B05D923B9D9445E44B8F1000F0E
:10C11800C9D1029AA5EB08051560189A0AB183F0EF
:10C12800010420460FB0BDE8F08F189BDFE72346D7
:10C13800DDE76FF01504F4E76FF00404F1E700BFE2
:10C1480078EA00202DE9F04F89B01E4682468846DD
:10C158001546FDF77CF9DFF8B090314699F80C7078
:10C168005246B0FBF7F407FB1404A0EB040B5B4644
:10C178001298D9F804C0E0475E442CB122466846BC
:10C188000AEB0B0121F091F93D2204F120036B44E5
:10C1980003F8202C04F1010ABAF11F0F01D9002479
:10C1A8000EE0E5B9BAFBF7F407FB14A43CB13C1B5D
:10C1B8000DEB0A002246294621F084F9A244012405
:10C1C80053466A4631461298D9F804C0E047A8B9E0
:10C1D800B4B956440124AA46002DF1D08246CAF1CA
:10C1E8002004AC4228BF2C4641460DEB0A002246EB
:10C1F80021F05BF9A0442D1BA244CDE76FF00400A9
:10C2080009B0BDE8F08F00BF78EA002010B5034BF5
:10C2180004469B6808469847001B10BD78EA002032
:10C228002DE9F04380460C4691461D466FF01500F7
:10C2380087B00E9E144F16B907B0BDE8F083102ED4
:10C24800334628BF1023294601934846D7F800C033
:10C2580001AB02AAE0470028EED1019B397BB3FB72
:10C26800F1F201FB12320AB10B449B1A21464046F7
:10C27800D7F804C002AAE0470028DDD1019B1D447D
:10C288001C44F61AD7E700BF78EA002010B5034C23
:10C29800C4E90001A260237310BD00BF78EA002042
:10C2A80030B5044685B010461D46CDE90212FFF7A9
:10C2B800ADFF044A01460095204602AB19F028FB61
:10C2C80005B030BDA35903000A460123014919F0FE
:10C2D800C4BB00BFA9C201002DE9F04F05460F46B7
:10C2E80091469846BFB003B17AB100242846234648
:10C2F800534905AACDE90579CDE9078419F0ADFBC5
:10C30800089B012B00F0988017B96FF0150493E093
:10C318004146384619F031FB83466B7B9C42F4DA80
:10C3280005F108060DF1240A524630461FFA8BF132
:10C33800FFF77EFB10F11C0F034667D16B7B013BB7
:10C34800A34213DD304618F04AFF824670B9286CC4
:10C3580019F08CFA2B6CCDE90EAA129330460EA96F
:10C3680019F0E1F920B1304619F0F7F90134D4E7B2
:10C37800AB6A0E9A9A42F6D149210EAB03AA18A8C5
:10C3880019F01AFB0028E9D1039BBDF844200133BA
:10C398009342E3D00DF14C0C0DF1380EBEE80F00BE
:10C3A800ACE80F00DEF80030CCF80030304613A9B6
:10C3B80019F0B9F9B8B13046BDF8441013AAFFF71F
:10C3C80037FB03460028C9D1BDF844200146009236
:10C3D80013A80EAAFFF724FF0028BFD1304613A9DF
:10C3E80018F01FFFBAE7492113AB04AA2BA819F0CC
:10C3F800E3FA0028DAD1DDE903239A42D6D12BA942
:10C4080018A820F055FD0028D0D1A7E700287FF410
:10C418007CAF2A6C49460D9238464246CDF800A0BA
:10C42800FFF790FE431D044606D05146304618F0EB
:10C43800F8FE002C08BF044620463FB0BDE8F08F48
:10C44800E1590300012370B504460373837300F1B7
:10C45800080619F078FB314618F0E7FF0546B0B931
:10C46800304618F051FF00280ADCE36A206CD3E953
:10C47800001219F0E7F90028EBD06FF0040504E08A
:10C48800044B20466360FFF7F7FC284670BD6FF049
:10C498001505FAE778DF030090F83E30024A0349B1
:10C4A8000348FFF7F3BE00BF5B5A03000B5B0300B2
:10C4B8001F5B0300092337B5009319F044FB694655
:10C4C8001A4AFFF797FB044610B110F10C0F0FD171
:10C4D800174D009B28466B73FFF7B4FF58B9154BEF
:10C4E80013486B60FFF7D6FC1148FFF7D5FF00240F
:10C4F800204603B030BD19F026FB01A9C0B2FFF7F2
:10C5080051FB04460028F3D101982146826819F0AE
:10C5180099F90446019819F06AF9002CE8D12846DF
:10C52800FFF790FF04460028D9D0E1E788EA002009
:10C5380028C6002078DF030008B5044818F057FD26
:10C54800BDE80840024818F052BD00BFB5EE030030
:10C55800EAEE030030BFFFF7FDBF00BF2DE9F04151
:10C5680005460B4EDFF82C80324606EB0807CC1B3D
:10C578002046094920F099FFA01942460021083CAD
:10C5880020F0A0FFC5F8844007F10800BDE8F0815D
:10C59800000000000800000054DC0300074A93680C
:10C5A80093F90E10002907DB526993421FBF044A12
:10C5B800536843F080535360704700BF7C070120E5
:10C5C80000ED00E0154B9A6A12F0007F9A6A14BFDA
:10C5D8001E201D2012F0807F9A6A18BF1F2012F4B7
:10C5E800801F9A6A18BF022012F4002F9A6A18BF97
:10C5F800212012F4802F9A6A18BF222012F4003FDB
:10C608009A6A18BF232012F4803F9A6A18BF242020
:10C618006FEA02426FEA12429A62704700ED00E048
:10C6280010B5194B0246986A9C6A10F4805F14BFD3
:10C638001720162014F4006F9C6A18BF1820A40550
:10C6480009D5986B986A000404D51AB19A6A22F43D
:10C6580000429A6219200C4B9A6A12F4806F9A6A07
:10C6680018BF1A20D2050CD49B6A13F4005F18BFB8
:10C678001C20054A936A43F47F43936200230B709E
:10C6880010BD1B20F5E700BF00ED00E010B5244BFE
:10C698000246986A9C6A10F0100F14BF11201020EF
:10C6A80014F0080F9C6A18BF1220A40709D5586B0C
:10C6B800986A000604D51AB19A6A22F080029A6232
:10C6C8001320174B9A6A12F0010F9A6A18BF1420A8
:10C6D80012F0200F9A6A18BF1520D20602D49B6A5E
:10C6E8009B070ED50E4B9B6ADC060AD50D490E48F2
:10C6F80040F2631218F0A0FC40F26311094818F0E8
:10C7080092FC074B9A6A920642BF5A6A22F4005278
:10C718005A629A6A42F0FF029A6200230B7010BDB7
:10C7280000ED00E018EF03009CED0300F0B5584B56
:10C7380004465D688BB00023C5F3080583F31188B0
:10C74800BFF36F8F02F07F43B3F17F4F0DD112F02B
:10C7580001030AD1560603D4100703D4012603E0C7
:10C76800520700D50C46002654B94A494FF48B624B
:10C77800494818F061FC4FF48B61464818F053FCA7
:10C7880000228DF80720EA1E032A30D8DFE802F0DD
:10C798000271755C3E4AD16A11F0020127D1D36A51
:10C7A800002B6EDBD36A5B005AD55369A16943F449
:10C7B80080735361BFF34F8FBFF36F8F536931F8A5
:10C7C800021C23F480735361BFF34F8FBFF36F8F45
:10C7D8004DF60273994209D0936ADBB233B3012054
:10C7E8000DF10701FFF752FF034600E023689DF8AB
:10C7F8000720CAB902AD04F120072A4620686168FB
:10C80800083403C2BC421546F7D1099A002E3AD023
:10C81800C2F3080121B96FEA52226FEA4222099253
:10C82800184602A919F091F90BB0F0BD936A13F4F8
:10C838007F4F05D001200DF10701FFF7F1FED3E787
:10C84800936AB3F5803F02D3FFF7BCFECCE71149EA
:10C8580040F22A32104818F0EFFB40F22A318CE7F8
:10C868000C4940F22E320C4818F0E6FB40F22E310B
:10C8780083E700200DF10701B4E700200DF107015F
:10C88800DBE70B46B3E722F4FF7222F00102C6E7AA
:10C8980000ED00E018EF03009CED0300044B5A691B
:10C8A80042F010025A615A6942F480625A61704734
:10C8B80000ED00E0EFF30880EFF3098101B572465F
:10C8C800FFF734FF01BD00BF002080F31488BFF3D9
:10C8D8006F8F002080F30A8880F30B881EF0F8FD24
:10C8E80000200E490860BFF34F8F0D4880F3088879
:10C8F80000F03EF8202080F311880A484FF40061C8
:10C90800401880F30988EFF314800221084380F36C
:10C918001488BFF36F8F00F035F9000094ED00E044
:10C92800D065012090540120BFF34F8F0549064B75
:10C93800CA6802F4E0621343CB60BFF34F8F00BFB5
:10C94800FDE700BF00ED00E00400FA0500231846EB
:10C958000649D1F89020C2F30722934200DB7047C2
:10C96800C1F89830C1F8A0000133F6E700ED00E007
:10C9780010B572B6002484F31388FFF7E7FF234647
:10C988004FF0FF300C4A03F120010133102B42F81D
:10C998002100F8D100234FF0FF30074A03F160016E
:10C9A8000133102B42F82100F8D162B6BFF34F8F44
:10C9B800BFF36F8F10BD00BF00E100E0084B9B681C
:10C9C80083420BD1EFF3058343B1064B5A6842F01B
:10C9D80080525A605A6A22F400425A6214F0D4BB58
:10C9E8007C07012000ED00E06FF00A01094A936816
:10C9F800C3F88C100849C3F888004B6843F080538B
:10CA08004B60002383F31188BFF36F8F9368D3F8CB
:10CA18008C0070477C07012000ED00E0114A936804
:10CA280083F89100EFF31183202383F31288BFF377
:10CA38006F8F4FF00061536920F0FF0093600A4A3E
:10CA48005160D3F88410094A1160002193F89120AD
:10CA58001043D3F88820C3F8881082F31188BFF3F5
:10CA68006F8F70477C07012000ED00E0D0EA0020BE
:10CA780010498A6882F891E04FF030001044EFF3D3
:10CA8800098C80E8F01F74467046FFF7C7FFA6467A
:10CA980008498A68864602F1300090E8F01F8CF356
:10CAA800098802F1000004B519F066F8BDE80440F1
:10CAB800704700007C0701201EF0040F0CBFEFF345
:10CAC8000880EFF30980816911F8021C0229FFD060
:10CAD80001B519F040F801BD40B2002807DB012379
:10CAE8004109034A00F01F00834042F82130704793
:10CAF80000E100E040B200280CDB012206494309AE
:10CB080000F01F008240203341F82320BFF34F8FED
:10CB1800BFF36F8F704700BF00E100E0054B42098B
:10CB280053F82220012300F01F0003FA00F0104000
:10CB3800704700BF00E100E00131072908B508D9B6
:10CB48000D490E48582218F077FA58210A4818F06B
:10CB58006AFA40B20028ACBF00F16040084B4FEAC7
:10CB68004111C9B2ABBF00F5614000F00F0080F879
:10CB78000013195408BD00BF4AEF03009CED0300E1
:10CB880014ED00E00B4A08B50B4B22F07F029A60C7
:10CB9800BFF34F8FBFF36F8FD3F8882022F4700252
:10CBA800C3F8882012F0F0F814F0D6FC00F050F822
:10CBB80012F02AF90080010000ED00E042F8203C64
:10CBC800009B0D4942F81C3C019B21F0010142F8F1
:10CBD800183C029B42F8081C42F8143C4FF0807342
:10CBE80042F8043C0023C0F888304FF43C43203A14
:10CBF8000265C0F890307047B9B201000D4B154678
:10CC08009860D0F884200C4B0E461A60436F83F36B
:10CC18000B882C4686F309884FF00000074B98478D
:10CC280020464FF000014FF000024FF00003044C83
:10CC3800204700BF7C070120D0EA0020895B030061
:10CC4800B9B201001022014B1A61704700ED00E0F3
:10CC5800002320210348C2180133412B82F8001316
:10CC6800F9D1704700E100E008B5EFF30583064A03
:10CC7800103B02EBC30152F8330049688847BDE80E
:10CC88000840FFF78BBC00BF54D903001FB5094CFF
:10CC9800094A23460121094800F0FAF800230393C2
:10CCA800074B0121E41A01A80193029400F00AF944
:10CCB80004B010BD0000042080C5002070E003000F
:10CCC80030CD002010B50C7A0B6804F01F0223F059
:10CCD8001F031A43CB68640923F01F03054943EA7D
:10CCE800440343F00103C1F89800C1F89C20C1F83F
:10CCF800A03010BD00ED00E010B5074BD3F8903020
:10CD0800C3F30723013B984202D8FFF7DBFF10BDAE
:10CD18006FF01500FBE700BF00ED00E02DE9F04FD4
:10CD28000F46144606464FF000084D4D85B0B845ED
:10CD380080F29280D6F80490B9F1000F36D0B9F19C
:10CD48001F0F40F2878019F01F0F40F08380D6F83C
:10CD580000A01AF01F0F7DD1504618F034FF83460B
:10CD680009EB0A00013818F02EFF834572D11BF138
:10CD7800160F6FD05C456DDDC5F898B0D5F89C10DE
:10CD8800C5F898B0D5F8A03021F01F0143F01F0A6C
:10CD9800D6E900321A44994202F1FF391ED1CA4538
:10CDA80008D131465FFA8BF018F016FF08F1010838
:10CDB8000C36BCE73146C5F898B0D5F89C3022F05F
:10CDC8001F0203F01F031343C5F89C30E0B218F0AC
:10CDD80003FF10F1160F3DD0441CE7E7C5F898B0E3
:10CDE800D5F8A020013B23F01F0302F01F021343D4
:10CDF800CA453146E0B2C5F8A030E8D018F0ECFEDC
:10CE080010F1160F26D0C5F898B0D5F89C209DF8DB
:10CE180008300AF1FF3A62F304038DF80830D5F8B8
:10CE2800A0309DF808205B0863F347128DF80820AE
:10CE3800D6E900321344009323F01F035344A3EBB5
:10CE48000903013023F01F036946C0B20393FFF7BB
:10CE580053FFBEE76FF01504204605B0BDE8F08F1C
:10CE680000ED00E00522044BC3F89420BFF34F8F78
:10CE7800BFF36F8F704700BF00ED00E0BFF35F8F17
:10CE88000022024BC3F89420704700BF00ED00E079
:10CE980010B5094C2278FFF741FF207016300AD1EF
:10CEA8000649074840F2671218F0C6F840F26711C1
:10CEB800024818F0B8F810BDF007012081EF030010
:10CEC8009CED03002DE9F74F2E4D8A4606464FF09C
:10CED8000008AB462C4FD04502DB03B0BDE8F08F0D
:10CEE800D6F80490B9F1000F47D03168084601918F
:10CEF80018F069FE0199044609EB0100013818F0A1
:10CF080062FE84424FF01402204B10D002FB08F35B
:10CF18006FF015024BF803201D491E4840F27712A6
:10CF280018F08AF840F27711194818F07CF814F1D3
:10CF3800160F2C60F0D01978A142EDDD02FB08B085
:10CF4800C7F89840C7F89840D7F89C4000F1080106
:10CF5800007B64F304000871D7F8A0000C7940083E
:10CF680060F347140C71D7F89C1021F01F01696019
:10CF7800D7F8A01021F01F01296108F10108143524
:10CF88000C36A8E7D4EA002000ED00E0F007012005
:10CF980081EF03009CED03002DE9F0414E494F4C11
:10CFA800D1F890302568C3F307239D4286B00AD98B
:10CFB8004B494FF4CF724B4818F03EF84FF4CF71FD
:10CFC800474818F030F80020FFF758FF464BC1F8E3
:10CFD800C03085421AD1454C01A82570FEF7DCFD0A
:10CFE800002506464FF04108414FAE4215D10020BA
:10CFF80023783949D1F89020C2F30722934265DBA0
:10D008000020FFF72FFF06B0BDE8F081616801EB53
:10D018000011FFF757FE0130DBE7019A290102EB07
:10D028000513D3F80CC00CEA0700B0F5001F23D095
:10D03800B0F5800F38D0B0F5801F45D158685258E8
:10D048009B68CDE902022122013B20F01F010B441D
:10D0580023F01F038DF810200593207802A9FFF70D
:10D068004BFE00282DDA1E494FF4E4721D4817F0D4
:10D07800E3FF4FF4E471A3E758689B685258013BFB
:10D0880020F01F010B4423F01F031CF0010FCDE912
:10D0980002028DF810800593DFD011496C221148E7
:10D0A80017F0CAFF6C218BE758689B685258013B00
:10D0B80020F01F010B44CDE9020223F01F030222D6
:10D0C800C8E723780133237001358EE7C1F898301B
:10D0D800C1F8A00001338DE700ED00E07CE003001B
:10D0E80081EF03009CED0300AAFF4400F007012034
:10D0F8000000F0FF08B50649064821F00701C1F114
:10D10800005202F58022FEF72FF8002008BD00BF6C
:10D1180037120320E8EA002008B54FF0FF324FF03D
:10D12800FF33074812F004FA40B1064906488D2239
:10D1380017F082FF8D21034817F075FF08BD00BF67
:10D1480074C60020BFEF03009CED0300014812F0F5
:10D15800A5BA00BF74C6002038B50546FFF7DCFF46
:10D168002A4608210748FDF7C3FE044628B925B119
:10D1780020F0BAFA0C22044B1A50FFF7E7FF2046BA
:10D1880038BD00BFE8EA00200C00000038B50446AE
:10D198000D46FFF7C1FF21462B4608220748FDF739
:10D1A8002BFF044628B925B120F09EFA0C22044B27
:10D1B8001A50FFF7CBFF204638BD00BFE8EA002031
:10D1C8000C00000010B50446FFF7A6FF21460348EF
:10D1D800FDF754FEBDE81040FFF7B8BFE8EA0020AD
:10D1E800012838B50C4609D0042834D10023002280
:10D1F800C1E9002300238B60002038BDEFF31185BF
:10D20800202383F31288BFF36F8F174814F078F93F
:10D2180040B916498822164817F00EFF882113488E
:10D2280017F001FF104814F08FF9124B0FCB84E868
:10D238000F000D4814F072F940B90C4940F2311250
:10D248000B4817F0F9FE40F23111E8E785F3118831
:10D25800BFF36F8FD0E720F047FA1622064B1A501B
:10D268004FF0FF30C9E700BFF4EA002002EE0300E8
:10D278009CED0300B8E100200C00000001287FB5F8
:10D288000C4623D0042825D100230022CDE9002311
:10D29800002302931FF006FD174DC30BC0F30E00C9
:10D2A800A0FB0506009A43EA41439A18019B43EB09
:10D2B800D131C30B029843EA464318440F4BC4E9E3
:10D2C80000219842A0600ED800200AE06946FFF7C6
:10D2D80087FFDFE720F008FA1622094B1A504FF0B3
:10D2E800FF3004B070BD013241F10001401BC4E9B8
:10D2F8000021A060E8E700BF00CA9A3BFFC99A3B3B
:10D308000C0000000122024B0020C3F840257047A2
:10D318000090034020B1034B800143F001031847FC
:10D32800704700BFB0DC0300F7B506460D4614464B
:10D33800194F38461FF04CFB40B9184918481422B9
:10D3480017F07AFE1421154817F06DFEAAB2BB68D3
:10D358001B683BB9134912485B2217F06DFE5B212D
:10D368001048F1E7314638469847002802DB00208C
:10D3780003B0F0BD002CFBD1AC42F8D22F1B042F18
:10D3880028BF04271CF09BFF3A46019001A93019D9
:10D3980020F08BF83C44EFE734D80300F9EF0300A2
:10D3A8009CED030032F0030070B541690446867AAB
:10D3B8000A4D59B1437ADB0706D4342303FB0653DD
:10D3C800DB6A1B689B689847002363613420214609
:10D3D80006FB0050BDE870401FF07CBB38CC002035
:10D3E8003421827A064B01FB02331A6B93F82430FE
:10D3F800801A1B3323F00303B0FBF3F0704700BF20
:10D4080038CC002038B53424827A064B04FB02332A
:10D41800DB6AD3E901240C601568FFF7E1FF04FB20
:10D42800005038BD38CC00202DE9F04F054685B0B6
:10D4380068461446984603911FF036FCDDE90067FC
:10D448003DB95B49EE225B4817F0F6FDEE215848DE
:10D4580013E005F11C09EFF3118A202383F31288E6
:10D46800BFF36F8F484614F04BF840B952498822F1
:10D47800504817F0E1FD88214F4817F0D4FD484681
:10D4880014F062F8B5F822B0BBF1000F56D02B8C1F
:10D498005B4533D900220023284612F031FA0446AE
:10D4A80060B3484614F03AF840B9434940F23112A3
:10D4B800404817F0C1FD40F23111DDE78AF31188C9
:10D4C800BFF36F8F039D002D66D032463B466846FA
:10D4D8001FF00EFC3421A27A384B204601FB0233A0
:10D4E800DB6A03A91B681E68DDE90023B047606199
:10D4F800002845D12046FFF757FF3CE06C8C484692
:10D50800631E6B8414F00AF80028CED08AF31188C1
:10D51800BFF36F8F95F824302A8C1B33121B2C6BAA
:10D5280023F0030302FB0344244B254AEB1A9B1008
:10D538005343A37295F82430E372C3E7484613F0C7
:10D54800EDFF0028B1D08AF31188BFF36F8F54EA3A
:10D55800080308D020F0C8F81A4A1B4B12589A4200
:10D5680004BF5C46A04622464346284612F0C8F946
:10D5780004460028A6D10024204605B0BDE8F08F57
:10D58800039B9D4209D90A4940F24B12094817F0FA
:10D5980053FD40F24B115AE7656100230122636095
:10D5A80022812382039A63696282E360E4E700BF11
:10D5B80066F003009CED030002EE030038CC002067
:10D5C800C54EECC40800000010E8002070B5044601
:10D5D80098B13426104D2046037A6468013BDBB2CB
:10D5E80003724BB9C3604360837A06FB03539B6A9B
:10D5F80073B19847002CEED170BD0849084840F235
:10D60800CB1217F019FD40F2CB11044817F00BFDAF
:10D61800FFF7CAFEEEE700BF38CC002066F0030033
:10D628009CED030008B5034650B9084908484FF473
:10D63800107217F001FD4FF41071044817F0F3FC55
:10D6480018465B68002BFBD108BD00BF66F00300DD
:10D658009CED030070B50D46044650B90E4940F2E2
:10D668004B220E4817F0E8FC40F24B210A4817F00D
:10D67800DAFC41B908494FF41372084817F0DCFC8A
:10D688004FF41371F2E746681EB10846FFF7CAFF68
:10D698004660656070BD00BF66F003009CED030046
:10D6A80008B503469A8800688A420AD2074908489A
:10D6B80040F2CF1217F0C0FC40F2CF11034817F028
:10D6C800B2FC521A01449A80196008BD8AF003001E
:10D6D8009CED0300F8B5858803680E4604465F197B
:10D6E80018F0B5FAB04208D2064907483E2217F0AA
:10D6F800A3FC3E21034817F096FC3544A580384624
:10D70800F8BD00BF8AF003009CED030008B550B9CE
:10D71800074908484FF4FC7217F08EFC4FF4FC716F
:10D72800034817F080FCB0F8A000C0F3410008BD22
:10D73800B5F003009CED030008B550B90749084847
:10D748004FF4127217F078FC4FF41271034817F077
:10D758006AFCB0F8A000C0F3811008BDB5F0030062
:10D768009CED030008B550B90749084840F21D224E
:10D7780017F062FC40F21D21034817F054FCB0F882
:10D78800A000C0F3C20008BDB5F003009CED030083
:10D79800F7B507460E461446FDF7D8FD051E18DBFB
:10D7A8003CB97B1E012B04D8022E17D0012E08BFCE
:10D7B8000624F1B201ABA2B2B8B203F05DFE061EB8
:10D7C8000EDA2846FDF718FE1FF08EFF0F4B764243
:10D7D8001E504FF0FF35284603B0F0BD1124E8E78E
:10D7E800002301984360C36670301FF05BF901980D
:10D7F8008C301FF0F7F9062C02D1019819F05EFB66
:10D808002846034A0199FDF7DFFDE4E70C00000014
:10D81800B0E0030037B5069D0446E3B90093002243
:10D8280000230E4904F0FAFA04F170001FF03AF9E7
:10D8380004F18C001FF0D6F9214605F170001FF0A5
:10D848003EF9204619F03AFB05F18C0003B0BDE81B
:10D85800304012F0FDBC03B030BD00BFC15C030016
:10D868002DE9F7430C46DDE90A9858EA090107460D
:10D878004D460C9E13D014F1690F02D014F10B0F12
:10D888000DD168461FF034FADDE9002313430ED1A9
:10D8980014F1690F0CBF6FF00B046FF068041FF0F0
:10D8A80023FF244B64421C504FF0FF3037E0B8F19F
:10D8B800FF3F08BFB9F1FF3F0DD04FF47A71A5FBC8
:10D8C800013201FB0822DB0B43EA424332689A42E9
:10D8D80094BF32603360D7F8940008B118F0EAF9C1
:10D8E80014F1690F35680ED14FF4004440F2E73067
:10D8F80000214FF47A720023E5FB0401FBF7F8FBE3
:10D9080013F00EFC01E00B34EED033685B00642B9F
:10D9180028BF64233360D7F8940018B9002003B0F7
:10D92800BDE8F0834FF0FF324FF0FF3318F0C0F935
:10D93800F4E700BF0C00000038B505460C4609B1F5
:10D94800142A07D016231FF0CFFE104A13504FF0A9
:10D95800FF3038BD03F01EFA1022014620461FF0A2
:10D96800A7FA0028EED0206901F062FD30B995F9D8
:10D97800A200002804DC01F06DFD20B18623E2E757
:10D9880001F056FDF9E70223DDE700BF0C000000B7
:10D9980010B5044609B10C2A07D016231FF0A4FEBF
:10D9A8000E4A13504FF0FF3010BD0B68002BF4D017
:10D9B800886860B101F03CFD38B994F9A2000028EC
:10D9C80009DC01F047FD0028E7D05823E6E7081DE9
:10D9D80018F076FFEEE701F02BFDF4E70C000000ED
:10D9E80038B540F20314A14203465AD0B1F5827FFC
:10D9F8000ED2042921D0B1F5817F29D0032917D06F
:10DA08001FF072FE5F22464B1A504FF0FF3013E0B2
:10DA180045F21B44A14273D045F2214081426AD0AD
:10DA280040F205108142EBD11268C3F894200DE052
:10DA3800C06EC0F34000800338BDC16E126821F08B
:10DA48000201520448BF41F00201C1660020F3E719
:10DA58009468D2E900018288D50718D50A689442EB
:10DA68005BD0042503F1700414610A68547B65F3E4
:10DA7800050454730A68947B6FF3451494730A6819
:10DA8800D4686FF39434D4600A6814320A608288C8
:10DA9800520703D4DB6E13F0050FD7D06FF0770071
:10DAA800CAE711688888C5070FD552681068C0682A
:10DAB80010F4FE1F02D1D86EC40703D5C88840F001
:10DAC8000100C8801068143010608A88500742BF6F
