:020000040001F9
:1080000040E2012041080200091B0400DD070200D4
:10801000DD070200DD070200DD070200DD070200C8
:10802000000000000000000000000000650A0200DF
:10803000DD07020000000000E9090200DD07020080
:10804000990C0200990C0200990C0200990C020094
:10805000990C0200990C0200990C0200990C020084
:10806000990C0200990C0200990C0200990C020074
:10807000990C0200990C0200990C0200990C020064
:10808000990C0200990C0200990C0200990C020054
:10809000990C0200990C0200990C0200990C020044
:1080A000990C0200990C0200990C0200990C020034
:1080B000990C0200990C0200990C0200990C020024
:1080C000990C0200990C0200990C0200990C020014
:1080D000990C0200990C0200990C0200990C020004
:1080E000990C0200990C0200990C0200990C0200F4
:1080F000990C0200990C0200990C0200990C0200E4
:10810000990C0200990C0200990C0200990C0200D3
:10811000990C0200990C0200990C0200990C0200C3
:10812000990C0200990C0200990C0200990C0200B3
:10813000990C0200990C0200990C0200990C0200A3
:10814000990C020000000000000000000000000088
:10815000000000000000000000000000000000001F
:10816000000000000000000000000000000000000F
:1081700000000000000000000000000000000000FF
:1081800000000000000000000000000000000000EF
:1081900000000000000000000000000000000000DF
:1081A00000000000000000000000000000000000CF
:1081B00000000000000000000000000000000000BF
:1081C00000000000000000000000000000000000AF
:1081D000000000000000000000000000000000009F
:1081E000000000000000000000000000000000008F
:1081F000000000000000000000000000000000007F
:10820000DEE61E284CBBCE8F025B00003C00000067
:10821000A8CA0300010000000080010000800100E6
:10822000FFFF0291000000000000000000000000BD
:10823000000000000000000000000000FFFFFFFF42
:1082400081F0004102E000BF83F0004330B54FEA07
:1082500041044FEA430594EA050F08BF90EA020F74
:108260001FBF54EA000C55EA020C7FEA645C7FEA07
:10827000655C00F0E2804FEA5454D4EB5555B8BF2A
:108280006D420CDD2C4480EA020281EA030382EA9B
:10829000000083EA010180EA020281EA0303362D2D
:1082A00088BF30BD11F0004F4FEA01314FF4801C00
:1082B0004CEA113102D0404261EB410113F0004F12
:1082C0004FEA03334CEA133302D0524263EB4303C9
:1082D00094EA050F00F0A780A4F10104D5F1200E67
:1082E0000DDB02FA0EFC22FA05F2801841F10001C2
:1082F00003FA0EF2801843FA05F359410EE0A5F196
:1083000020050EF1200E012A03FA0EFC28BF4CF0C6
:10831000020C43FA05F3C01851EBE37101F000457C
:1083200007D54FF0000EDCF1000C7EEB00006EEB89
:108330000101B1F5801F1BD3B1F5001F0CD3490813
:108340005FEA30004FEA3C0C04F101044FEA44526A
:1083500012F5800F80F09A80BCF1004F08BF5FEAF1
:10836000500C50F1000041EB045141EA050130BDD1
:108370005FEA4C0C404141EB0101013C28BFB1F5E3
:10838000801FE9D291F0000F04BF01460020B1FA2E
:1083900081F308BF2033A3F10B03B3F120020CDA01
:1083A0000C3208DD02F1140CC2F10C0201FA0CF0DF
:1083B00021FA02F10CE002F11402D8BFC2F1200C44
:1083C00001FA02F120FA0CFCDCBF41EA0C019040FA
:1083D000E41AA2BF01EB0451294330BD6FEA040443
:1083E0001F3C1CDA0C340EDC04F11404C4F120022E
:1083F00020FA04F001FA02F340EA030021FA04F340
:1084000045EA030130BDC4F10C04C4F1200220FA96
:1084100002F001FA04F340EA0300294630BD21FAD4
:1084200004F0294630BD94F0000F83F4801306BF9A
:1084300081F480110134013D4EE77FEA645C18BF8E
:108440007FEA655C29D094EA050F08BF90EA020F25
:1084500005D054EA000C04BF1946104630BD91EA1D
:10846000030F1EBF0021002030BD5FEA545C05D120
:108470004000494128BF41F0004130BD14F580045F
:108480003CBF01F5801130BD01F0004545F0FE41D3
:1084900041F470014FF0000030BD7FEA645C1ABF08
:1084A000194610467FEA655C1CBF0B46024650EA3F
:1084B000013406BF52EA033591EA030F41F400216B
:1084C00030BD00BF90F0000F04BF0021704730B5F1
:1084D0004FF4806404F132044FF000054FF00001C6
:1084E00050E700BF90F0000F04BF0021704730B587
:1084F0004FF4806404F1320410F0004548BF40425C
:108500004FF000013EE700BF42004FEAE2014FEAB0
:1085100031014FEA02701FBF12F07F4393F07F4F8B
:1085200081F06051704732F07F4208BF704793F08E
:108530007F4F04BF41F40021704730B54FF46074A1
:1085400001F0004521F000411CE700BF50EA0102A4
:1085500008BF704730B54FF000050AE050EA01024D
:1085600008BF704730B511F0004502D5404261EBBD
:1085700041014FF4806404F132045FEA915C3FF4FE
:10858000D8AE4FF003025FEADC0C18BF03325FEA9B
:10859000DC0C18BF033202EBDC02C2F1200300FA4C
:1085A00003FC20FA02F001FA03FE40EA0E0021FA71
:1085B00002F11444BDE600BF70B54FF0FF0C4CF45F
:1085C000E06C1CEA11541DBF1CEA135594EA0C0F11
:1085D00095EA0C0F00F0DEF82C4481EA030621EA4C
:1085E0004C5123EA4C5350EA013518BF52EA033587
:1085F00041F4801143F4801338D0A0FB02CE4FF039
:108600000005E1FB02E506F00042E0FB03E54FF068
:108610000006E1FB03569CF0000F18BF4EF0010E60
:10862000A4F1FF04B6F5007F64F5407404D25FEA5C
:108630004E0E6D4146EB060642EAC62141EA55510F
:108640004FEAC52040EA5E504FEACE2EB4F1FD0C51
:1086500088BFBCF5E06F1ED8BEF1004F08BF5FEACF
:10866000500E50F1000041EB045170BD06F0004681
:1086700046EA010140EA020081EA0301B4EB5C042E
:10868000C2BFD4EB0C0541EA045170BD41F4801126
:108690004FF0000E013C00F3AB8014F1360FDEBF4B
:1086A000002001F0004170BDC4F10004203C35DA27
:1086B0000C341BDC04F11404C4F1200500FA05F3AA
:1086C00020FA04F001FA05F240EA020001F000424B
:1086D00021F0004110EBD37021FA04F642EB0601C1
:1086E0005EEA430E08BF20EAD37070BDC4F10C04EB
:1086F000C4F1200500FA04F320FA05F001FA04F2AF
:1087000040EA020001F0004110EBD37041F100019A
:108710005EEA430E08BF20EAD37070BDC4F12005A5
:1087200000FA05F24EEA020E20FA04F301FA05F20D
:1087300043EA020321FA04F001F0004121FA04F2B5
:1087400020EA020000EBD3705EEA430E08BF20EA85
:10875000D37070BD94F0000F0FD101F000464000BF
:1087600041EB010111F4801F08BF013CF7D041EA41
:10877000060195F0000F18BF704703F00046520045
:1087800043EB030313F4801F08BF013DF7D043EA16
:108790000603704794EA0C0F0CEA135518BF95EACC
:1087A0000C0F0CD050EA410618BF52EA4306D1D153
:1087B00081EA030101F000414FF0000070BD50EA72
:1087C000410606BF1046194652EA430619D094EAFC
:1087D0000C0F02D150EA013613D195EA0C0F05D1E6
:1087E00052EA03361CBF104619460AD181EA03013A
:1087F00001F0004141F0FE4141F470014FF00000F2
:1088000070BD41F0FE4141F4780170BD70B54FF08C
:10881000FF0C4CF4E06C1CEA11541DBF1CEA13550C
:1088200094EA0C0F95EA0C0F00F0A7F8A4EB0504EE
:1088300081EA030E52EA03354FEA013100F08880E5
:108840004FEA03334FF0805545EA131343EA1263AE
:108850004FEA022245EA111545EA10654FEA002663
:108860000EF000419D4208BF964244F1FD0404F51C
:10887000407402D25B084FEA3202B61A65EB030578
:108880005B084FEA32024FF480104FF4002CB6EB35
:10889000020E75EB030E22BFB61A754640EA0C00B5
:1088A0005B084FEA3202B6EB020E75EB030E22BFF5
:1088B000B61A754640EA5C005B084FEA3202B6EB36
:1088C000020E75EB030E22BFB61A754640EA9C00F5
:1088D0005B084FEA3202B6EB020E75EB030E22BFC5
:1088E000B61A754640EADC0055EA060E18D04FEA83
:1088F000051545EA16754FEA06164FEAC30343EA23
:1089000052734FEAC2025FEA1C1CC0D111F4801FEF
:108910000BD141EA00014FF000004FF0004CB6E7E8
:1089200011F4801F04BF01430020B4F1FD0C88BF87
:10893000BCF5E06F3FF6AFAEB5EB030C04BFB6EB92
:10894000020C5FEA500C50F1000041EB045170BD85
:108950000EF0004E4EEA113114EB5C04C2BFD4EBB2
:108960000C0541EA045170BD41F480114FF0000E36
:10897000013C90E645EA060E8DE60CEA135594EAB2
:108980000C0F08BF95EA0C0F3FF43BAF94EA0C0FB5
:108990000AD150EA01347FF434AF95EA0C0F7FF42A
:1089A00025AF104619462CE795EA0C0F06D152EA7E
:1089B00003353FF4FDAE1046194622E750EA410662
:1089C00018BF52EA43067FF4C5AE50EA41047FF473
:1089D0000DAF52EA43057FF4EBAE12E74FF0FF3CD8
:1089E00006E000BF4FF0010C02E000BF4FF0010CA9
:1089F0004DF804CD4FEA410C7FEA6C5C4FEA430C22
:108A000018BF7FEA6C5C1BD001B050EA410C0CBF70
:108A100052EA430C91EA030F02BF90EA020F0020D2
:108A2000704710F1000F91EA030F58BF994208BF39
:108A300090422CBFD8176FEAE37040F001007047F6
:108A40004FEA410C7FEA6C5C02D150EA013C07D14D
:108A50004FEA430C7FEA6C5CD6D152EA033CD3D098
:108A60005DF8040B704700BF8446104662468C4692
:108A70001946634600E000BF01B5FFF7B7FF0028C5
:108A800048BF10F1000F01BD4DF808EDFFF7F4FFEE
:108A90000CBF012000205DF808FB00BF4DF808ED79
:108AA000FFF7EAFF34BF012000205DF808FB00BF9C
:108AB0004DF808EDFFF7E0FF94BF012000205DF8BE
:108AC00008FB00BF4DF808EDFFF7CEFF94BF012073
:108AD00000205DF808FB00BF4DF808EDFFF7C4FF6C
:108AE00034BF012000205DF808FB00BF4FEA410CB5
:108AF0007FEA6C5C02D150EA013C0AD14FEA430C98
:108B00007FEA6C5C02D152EA033C02D14FF00000D4
:108B100070474FF0010070474FEA410212F5001212
:108B200015D211D56FF47873B3EB625212D94FEAB4
:108B3000C12343F0004343EA505311F0004F23FA9E
:108B400002F018BF404270474FF00000704750EAF3
:108B5000013005D111F0004008BF6FF000407047B0
:108B60004FF00000704700BF4A0011D212F500120A
:108B700011D20DD56FF47873B3EB62520ED44FEA75
:108B8000C12343F0004343EA505323FA02F07047F5
:108B90004FF00000704750EA013002D14FF0FF3033
:108BA00070474FF0000070474FEA4102B2F1E043D6
:108BB00024BFB3F5001CDCF1FE5C0DD901F0004CC4
:108BC0004FEAC0024CEA5070B2F1004F40EB830014
:108BD00008BF20F00100704711F0804F21D113F140
:108BE0003872BCBF01F00040704741F480114FEA79
:108BF0005252C2F11802C2F1200C10FA0CF320FA02
:108C000002F018BF40F001004FEAC1234FEAD3231E
:108C100003FA0CFC40EA0C0023FA02F34FEA430388
:108C2000CCE77FEA625307D150EA01331EBF4FF011
:108C3000FE4040F44000704701F0004040F0FE402C
:108C400040F40000704700BF7BB972B90029BEBF75
:108C500000204FF0004106E008BF00281CBF6FF065
:108C600000414FF0FF3000F075B8ADF1080C6DE930
:108C700004CE002909DB002B1ADB00F084F8DDF8B4
:108C800004E0DDE9022304B07047404261EB41019A
:108C9000002B1BDB00F077F8DDF804E0DDE90223B0
:108CA00004B0404261EB4101524263EB4303704721
:108CB000524263EB430300F066F8DDF804E0DDE9BF
:108CC000022304B0404261EB41017047524263EB22
:108CD000430300F058F8DDF804E0DDE9022304B0B6
:108CE000524263EB4303704753B94AB9002908BFA6
:108CF00000281CBF4FF0FF314FF0FF3000F02AB8C2
:108D0000ADF1080C6DE904CE00F03DF8DDF804E0AB
:108D1000DDE9022304B07047D0B500220B4B0646B4
:108D20000F46FFF749FCFFF71FFF0446FFF7CAFB9A
:108D30000022074BFFF740FC02460B4630463946FF
:108D4000FFF782FAFFF710FF2146D0BD0000F03D8B
:108D50000000F041704700BF38B5002200230446F0
:108D60000D46FFF79BFE28B920462946BDE838404E
:108D7000FFF7D2BF204605F10041FFF7CDFF40428B
:108D800061EB410138BD2DE9F04786468C46084627
:108D9000089E154674461946002B40F0C180854256
:108DA000B2FA82F245D94AB1C2F1200300FA02FCBC
:108DB000954094402EFA03F343EA0C0C4FEA154E0B
:108DC000A8B2230CBCFBFEF80EFB18CC08FB00F984
:108DD00043EA0C43994528D9EB1808F1FF3704D230
:108DE000994502D9A8F102072B44A3EB0903A4B2C9
:108DF000B3FBFEFC0EFB1C330CFB00F044EA034407
:108E0000A04214D92C190CF1FF3304D2A04202D98C
:108E1000ACF102032C44241A43EA07401EB1D440AB
:108E2000002334607360BDE8F0874746DDE76346A2
:108E3000F1E792BB431B01214FEA154EAFB2200C64
:108E4000B3FBFEFC0EFB1C330CFB07F840EA0343AC
:108E5000984561D9EB180CF1FF3004D2984502D93E
:108E6000ACF102002B44A3EB0803A4B2B3FBFEFC5D
:108E70000EFB1C330CFB07F744EA0344A7424DD911
:108E80002C190CF1FF3304D2A74202D9ACF1020332
:108E90002C44E41B43EA0040C0E7C2F120039540A4
:108EA000944020FA03F12EFA03F34FEA154E904056
:108EB000AFB20343B1FBFEFC0EFB1C10190C0CFB04
:108EC00007F841EA0041884522D969180CF1FF30C2
:108ED00004D2884502D9ACF102002944A1EB080173
:108EE0009BB2B1FBFEFC0EFB1C110CFB07F743EA27
:108EF00001439F420ED9EB180CF1FF3104D29F427F
:108F000002D9ACF102012B44DB1B41EA004193E79B
:108F10006046E3E76146F7E76046A4E76346B8E7E3
:108F2000834206D916B9002108467CE7C6E900E06D
:108F3000F9E7B3FA83F78FB9834201D3724508D8B2
:108F4000BEEB020460EB030301209C461EB9002126
:108F500069E73846FAE7C6E9004CF8E7C7F1200CA4
:108F6000BB400EFA07F522FA0CF42EFA0CF1BA40C7
:108F70001C4320FA0CF3B8404FEA144901431FFA8E
:108F800084FEB3FBF9F809FB18300B0C08FB0EFA52
:108F900043EA00439A4540D9E31808F1FF3004D270
:108FA0009A4502D9A8F102002344A3EB0A0389B22F
:108FB000B3FBF9F809FB183308FB0EFE41EA034145
:108FC0008E452CD9611808F1FF3304D28E4502D9A1
:108FD000A8F10203214443EA0040A1EB0E01A0FBEB
:108FE00002984145CE46434602D306D14D4504D2B0
:108FF0000138B9EB020E68EB0403002EA7D0B5EBE5
:109000000E0261EB030101FA0CFC22FA07F3F940AE
:109010004CEA0303C6E9003199E74046C5E74346F9
:10902000D9E710F8012B11F8013B012A28BF9A4219
:10903000F7D0D01A7047034611F8012B03F8012B23
:10904000002AF9D17047034613F8012B002AFBD1FF
:10905000181A0138704700002DE9F04F2DED048BF0
:109060008BB0994802AF02F02FFD4FF0FF314FF067
:10907000FF3002F0F9FC00219FED940A012018F066
:109080000FFE03219248934A27F033FB4FF416005A
:10909000002102F009FD002840F0C88002218E4A1C
:1090A0008B4827F026FB18F063FA03202DF01DFDF6
:1090B0008A4B8B4A8B49032018F09AFA4FF461616E
:1090C000894803F075FD0A2500269FED7B8B9FEDF7
:1090D0007C9B4FF0FF324FF0FF338448CDE90023F3
:1090E00000234FF4702224F0B9FC814B1B787BB134
:1090F0003346804A0321764827F0F9FA3046FFF7D5
:10910000F1F9741C41EC100B7B4802F057FB26462A
:10911000384607F1080307F1180207F1100187ED3F
:10912000008B87ED028B87ED048B87ED068B00F0BB
:109130000BF9002840F0A380704897ED000B02F077
:109140003DFBD7E900890022404649466C4BFFF7BA
:10915000C3FC00286DD06B4B93F800A0BAF1000F50
:1091600040F09E80012249461A704046FFF71CFDE0
:10917000654900EE100A052018F092FDEB468AB012
:1091800002AC624B84ED069B6361002200234046E3
:109190004946FFF75BF822460623C4E9080142F876
:1091A000103F4FF443515346494805F0F9FDDD4661
:1091B000D7E90001FFF7B0FC554A034603214448B4
:1091C00027F095FA97ED020B524802F0F7FAD7E92B
:1091D0000201FFF7A1FC504A034603213C4827F057
:1091E00086FA97ED060B4D4802F0E8FAD7E906013A
:1091F000FFF792FC4A4A03460321354827F077FAE5
:1092000097ED040B474802F0D9FAD7E90401FFF7BC
:1092100083FC03210346444A2D4827F068FA0A2DAF
:1092200033D00135314824F077FC52E703213F4A1F
:1092300036E70022404649463D4BFFF72FFC002809
:10924000B6D0304B1B78002BB2D04FF0000A2D4B1C
:10925000EB4688B083F800A002AC364B0022636175
:10926000404600234946FEF7F1FF22460423C4E9A5
:10927000060142F8103F4FF40351534694E7012191
:109280002D4A134827F035FAC9E72C4B03211B68F8
:109290002B4A0F4827F02BFA002502F0EBFAC1E722
:1092A000002240464946224BFFF7F8FB00283FF4D6
:1092B0007FAFCAE7AFF30080000000000000F0BFFE
:1092C0000000000000003E401DB60100000000004C
:1092D000B8A404006EC00400A3C0040035BD04009F
:1092E0002FBD0400E9BC040025B50100C0CB00205F
:1092F000394D0120FCC0040013C1040019C1040051
:1093000000003E40384D01201EC1040036C104005B
:1093100084C10400A0C10400A9C10400C2C10400AA
:10932000CCC10400E2C10400E8C10400DBC00400B9
:1093300000803C4061C10400FDC10400F02A01200E
:1093400017C20400000000002DE9F3471D4600236A
:1093500082464F480F461646CDE9003327F0D3F931
:10936000044658B1012103464A4A4B4828F0ACF95B
:109370006FF03C04204602B0BDE8F0876A460D213C
:10938000434827F0BDF9034620B10121434A424832
:1093900028F09AF90198FFF7A5F83BA3D3E9002339
:1093A000FFF734FA804600988946FFF79BF80B4692
:1093B000024649464046FEF749FF6A46CAE90001AF
:1093C0001021334827F09CF9034620B10121344A8B
:1093D000314828F079F90198FFF784F82AA3D3E9F6
:1093E0000023FFF713FA804600988946FFF77AF8C2
:1093F0000B46024649464046FEF728FF6A46C7E943
:1094000000010E21224827F07BF9034620B10121FB
:10941000224A214828F058F90198FFF763F81AA367
:10942000D3E90023FFF7F2F9804600988946FFF759
:1094300059F80B46024649464046FEF707FF6A4682
:10944000C6E900011E21124827F05AF9034620B14F
:109450000121124A104828F037F90198FFF742F825
:1094600009A3D3E90023FFF7D1F9064600980F4678
:10947000FFF738F802460B4630463946FEF7E6FE5F
:10948000C5E9000176E700BF0000000080842E419E
:109490006CA104007FCD0400A0A60400A1CD0400AF
:1094A000C6CD04000000000001282DE9F0418846E7
:1094B00008D030F021FD1622374B1A504FF0FF3004
:1094C000BDE8F0818A68354B9A42F2D82FF05AFFF6
:1094D00005460F462FF056FF314CD8F80030D8F82B
:1094E0000420A3FB043604FB0266D8F808209B186E
:1094F00046EBE276EA0B42EA4742A2FB0421FF0B6D
:109500009B1AC0F30E0204FB0711A2FB04244FEACE
:10951000D23242EA444266EB0101981A61F100013D
:109520001BA3D3E90023FFF78FFB06460D46144625
:10953000EFF31187202383F31288BFF36F8F19484D
:1095400023F09AFF40B918498822184827F042FBB7
:109550008821154827F035FB124823F0B1FF144B42
:109560001048C3E900659C6023F094FF40B90E49A0
:1095700040F231120D4827F02DFB40F23111E8E79F
:1095800087F31188BFF36F8F002099E7AFF3008056
:1095900000CA9A3B000000000C000000FFC99A3B83
:1095A00000CA9A3BA02C0120ABD304008BD204004C
:1095B000C8F70020000000002DE9F0470546994655
:1095C0000024282386B088469246CDE9024329F03C
:1095D0008BFF284602A92AF0D8F90746002800F098
:1095E000AF8083793A2B18D1042303992846049439
:1095F000059329F0C8FF284604A92AF0C6F918B136
:1096000090F90030A34205DB6FF01505284606B03F
:10961000BDE8F087284629F067FFBB79112B58D0A9
:10962000062B58D00020AB68002B4ED19FED487B15
:10963000022295F824308DED007B02FB03013A23D2
:10964000A86904310CF0DAFE044600287BD095F8B6
:109650002420296A2AF07EF9061E31DBA368204601
:10966000DB68A36295F82C20A96A2AF073F9061E1C
:1096700026DBA06895F82C100C3008F081F8A06863
:1096800050F80C3F236295F8241008F079F895F80B
:109690002C3007F1180184F8243095F8243084F830
:1096A0002C303B7EFF2B03D1A06929F032F8014614
:1096B000204607F108022AF03AFE70B16FF0040666
:1096C000204629F0A6FE3546A0E71A8A5B681044BA
:1096D000AAE73020AAE73C20A8E7414652462046A8
:1096E0002AF047FD01460028E8D1B8F1040F22D145
:1096F00099FA89F34246204604A904932AF02AF9EC
:109700000646204629F0A5FE0246002ED8D129465D
:1097100020462AF014F805460028D1D1204629F029
:10972000E3FE3A2120462AF065FE204628F00FFD90
:109730000028C5DB6AE70422204629F0ECFFDFE7BA
:109740006FF0040562E76FF00B055FE7AFF3008091
:1097500000800000000000002DE9F0412DED028B9B
:109760001F46002386B0CDE9043304230D469046FE
:1097700006460193002800F0D580002900F0D28031
:10978000062104A82CF0F7FE044658B10346012137
:10979000694A6A482DF02DF8204606B0BDEC028BD0
:1097A000BDE8F081014604AA30462CF0E1FE0446F3
:1097B00048B10346624A012160482DF01AF804A816
:1097C0002CF0ECFEE8E76A46012104A82CF09AFF91
:1097D000044610B103465B4AEDE7009BB3B1042B8E
:1097E0001DD0052B0CBF0923FF232B70032101ABD8
:1097F00002AA04A82CF0B4FF064690B10346524AD0
:1098000001214E482CF0F5FF3446D8E7DFED4F7AC2
:109810000023C5ED017A2B70C5ED027ACFE707234F
:10982000E3E7019B002BF1D018336B4403F8100CD5
:10983000B8F1000F0AD146494FF4BC72454827F0F1
:10984000C9F94FF4BC71424827F0BBF902A9404660
:10985000FFF7F1FB0222314602A824F0D3FF2B7858
:10986000C0B2092B06D10F2825D96FF01504234665
:10987000394AA0E70F28F8D8072B24D19FED378A63
:10988000374B33F81000E0B1FEF72CFE28A3D3E9E4
:109890000023FEF791FEFFF787F9042168600DEBC6
:1098A000010302AA04A801912CF05AFF064668B1F0
:1098B00003462C4AA4E72C4B9FED2C8A33F810006A
:1098C000E1E72B48E9E76FF07F04D0E7019B18330D
:1098D0006B4403F8100C47B91D4940F299121D481A
:1098E00027F078F940F29911ADE702A93846FFF761
:1098F000A2FB0222314602A824F084FFC3B20F2B40
:1099000007D901211B4A0D482CF073FF6FF0150495
:1099100055E70133DBB207EE903AF8EEE77A67EEEF
:10992000887A79E76FF0150436E700BFAFF300805F
:109930007B14AE47E17A2440B1F10400A8A50400ED
:10994000DAF1040003F2040025F204000000000034
:1099500051F204008BD2040087F204000AD7A33F1F
:10996000E8BA0400ABF20400C8BA04000AD72340E6
:109970000AD7A340D6F204002DE9F04F8DB08146FE
:109980008B461F46039253B9654966484FF4E97206
:1099900027F020F94FF4E971614827F012F9831F8D
:1099A000012B00F2B4801DF081FB5F4906462DF0CB
:1099B000FEFF5E4982462DF0FAFF5D4904462DF018
:1099C000F6FF5C49054620462DF0F1FF804605B1C3
:1099D00040B930461DF09AFA6FF00B0528460DB0DD
:1099E000BDE8F08FB9F1060F35D1534A28464E49EC
:1099F0002CF0A2FF5149814628462CF0B8FF50496F
:109A0000814420462CF0B3FF4E49814440462CF05F
:109A1000AEFF4D49814428462CF0A9FF4B4909EB84
:109A2000000520462CF0A3FF4949054420462CF0B0
:109A30009EFF05443046002DCCD12DF0E2FE0446B9
:109A400030461DF063FA002CC6D020467C60FFF73C
:109A5000FAFA3860C2E700233E4A28463249CDE987
:109A60000A332CF069FF9FED2C0B814635494046A7
:109A70002CF070FF314909EB000828462DF097FFC4
:109A8000002308AA8146009204A91A4606A819F0E4
:109A9000CDFB099A2A4920462CF04EFF079A2E4901
:109AA00008EB000548462CF047FF059A05442B4972
:109AB00048462CF041FF0544BBF1000F0ED0284969
:109AC00050462DF074FF1A492DF071FF1B492DF0FF
:109AD0006EFF059A21492CF02FFF054418F04AF932
:109AE0008DF8280017F014FE0AA90B90204616F0F6
:109AF0007FF8039B002B9DD01A4B2046196816F067
:109B0000E1FD002896D013307FF463AF92E76FF049
:109B1000850563E7AFF300800000000000C09240BD
:109B2000E70B05008BD2040078CF04006FCF040050
:109B3000650E0500E62A0500230F05006D0E0500E1
:109B40004A0E050029110500B20705003311050072
:109B500041110500740E05007B0E0500CB0D0500BC
:109B60001D100500F03901202DE9F04F2DED028B7D
:109B7000044600259FEDA28B87B002AF4FF0FF3265
:109B80004FF0FF3304F6882021F0ECFD04F58056F9
:109B90004FF0FF324FF0FF3320462DF01CFB96F8BC
:109BA000A68A20462DF019FBB8F1010F09D12046F5
:109BB0001AF01AFF0028E1D1022120462DF023FBE4
:109BC0004546DFF864929FE1D4F85439062B02D061
:109BD000B3F5817F05D120461BF024FA002840F020
:109BE000A48140F6FB0A4FF0000BD4F82C39534502
:109BF00036D98549854840F2533226F0EBFF40F2D2
:109C00005331814826F0DDFF20461AF0C1FF0028BD
:109C100040F0928120462DF00DFB002840F07E811F
:109C2000454620462DF006FB40B196F8A53A002B9C
:109C300000F08481042120462DF0E5FA4FF0FF3238
:109C40004FF0FF3320462DF0C6FA96F8A66A20465C
:109C50002DF0C3FA042E91D120461AF089FE8DE72B
:109C6000D4F85439062B02D0B3F5817F72D16069E4
:109C7000421C00F0618187ED008BC7F808B010230B
:109C80001422009301213B4609F006F80346002800
:109C900037D030F031F95E4B02211B585D4A5E48E7
:109CA0002DF095FA6369013300F04681D4F82C3920
:109CB000C3B930F021F9DFF858A15AF80030742BFD
:109CC0004ED14FF0FF3320464FF0FF322DF083FA94
:109CD000D4F85439204623F48073112B44D12DF04D
:109CE0007CFA97E794F85839002BE2D020461AF016
:109CF000CFFC0028DDD00321484A47482DF069FAFF
:109D00001AE16069D4F82C59C5F50F6204F13001ED
:109D1000CDE9003329440C3208F012FD431C012B1D
:109D2000054646D86369013300F00681D4F82C3922
:109D30003BB194F8583923B120461AF0A9FC002809
:109D4000D9D10135B5D04A46022133482DF041FA28
:109D5000682515E00121324A2F482DF03AFAA1E793
:109D60000B2BAED0682502E02DF037FA742530F0C9
:109D7000C3F801215AF800302A4A27482DF027FA63
:109D8000294620461AF060FC002840F0D5804FF0AC
:109D9000FF324FF0FF3320462DF01DFA20461AF017
:109DA000F7FE054620462DF018FA002D3FF432AF9D
:109DB000C2E0D4F85439062B02D0B3F5817F1BD111
:109DC000294620461BF098F9051E0FDD94F85839F6
:109DD0002BB140F6FB03D4F82C299A4226D8204612
:109DE0002DF028FA00287FF400AFA5E01ED06942CC
:109DF00020461AF029FC9FE06FF04C05F7E700BF02
:109E00001E00000000000000CC2805008BD20400DA
:109E10000C000000162B050020A504004D2B0500AA
:109E20003D2B0500712B05008B2B0500D4F8301954
:109E3000D4F83439002936D0EA468AB002AA40481C
:109E4000D161C2E9050364204343B3FBF1F313621C
:109E5000052342F8103F00234FF42351394804F002
:109E60009FFFD54620461AF013FC30B10321364A35
:109E700034482DF0AEF94FF0FF35D4F83429D4F83A
:109E800030399A4215D10321304A2E482DF0A1F9DC
:109E90000023C7E90033BB60022338463B70D6F885
:109EA000A03A984748E00321294A26482DF08FF927
:109EB000D8E7D4F8542994F85939062A02D0B2F5D3
:109EC000817F18D1002B3FF4A5AE00234FF0FF3265
:109ED000204684F859394FF0FF332DF07CF92046A5
:109EE0001AF056FE054620462DF077F9002D3FF476
:109EF00091AE75217CE713B10135E6D11CE06B1CF6
:109F00001AD0B5FA85F56D0920462DF093F98046F3
:109F100000283FF486AE002D3FF463AE0023C4F862
:109F20002C396369002BBFF64FAE682120461AF02A
:109F30008BFB00283FF468AE002572E603217AE629
:109F4000A32B050020A504004D2B05003D21050095
:109F5000C12B0500000000002DE9F04706460C4625
:109F600092B0002900F0BF800F68002F00F0BB8086
:109F70008D68D1F8048005F10409C1450AD804228E
:109F8000AD4978192FF07DFBA8B90423F360A368CD
:109F900004331DE06B1D984510D2454580F0A38029
:109FA0007B5D7819222B24D12146304612B0BDE8C2
:109FB000F0471CF07FBB6B1D98450ED305229F49CF
:109FC00078192FF05EFB30B90123F360A3680533E5
:109FD0000120A36088E0C145DFD8042298497819A0
:109FE0002FF04FFB0028D8D10223F36001237361C7
:109FF000CDE72D2B03D0A3F13002092A55D8002339
:10A000000DF1080C67464FF0010EA8EB0505DFF8CF
:10A010003882019310F8012B452A3ED82A2A10D9FC
:10A02000A2F12B01C9B20EFA01F111EA080F01D118
:10A030002E2A06D101333F2B0CF8012B01D0AB4265
:10A04000E8D1002548336B44384601A903F8405C49
:10A0500000F04AF9DDF804A059EC108BBA4542D063
:10A0600073A3D3E9002340464946FEF72BFDB0B960
:10A07000002240464946734BFEF71AFD90B9404610
:10A080004946FEF749FD0823C6E906897061F36079
:10A09000A368AAEB070A53449AE7652AC9E76FF059
:10A0A0000040F0E74FF00040EDE75B2B58D1D4F8CB
:10A0B0000C90B9F57A7F16D209F10103E3607B5D5C
:10A0C0005B2B10D101352046A5602DF0C6FAA368A0
:10A0D000984506D9FA5C5D2A09D10027C4F80C908E
:10A0E00036E0013BA360002012B0BDE8F0870025F8
:10A0F0002F46013BA36020692DF063FBA84605466F
:10A10000002800F0A5804FB3C8F80000C0F8048014
:10A11000A36820460133A3602DF09FFA214628460C
:10A12000FFF71AFF002800F0938020462DF095FAE3
:10A13000D4E90123934280F08E802268D35C2C2BDB
:10A14000D9D05D2B40F08780E368013BE3607D6000
:10A150002023C6E90273A368013339E70746D7E72E
:10A160007B2BC0D1D4F80C90B9F57A7FBBD209F122
:10A170000103E3607B5D7B2BB5D101352046A560F3
:10A180002DF06BFAA3689845ABD9FA5C7D2A03D110
:10A190000027C4F80C9047E000252F46A846013B55
:10A1A000A36020692DF00DFBA946054600284FD07D
:10A1B000002F4BD0C9F80000C0F80490A3682046D7
:10A1C0000133A3602DF049FA214628461CF072FAAB
:10A1D00000283DD020462DF040FA2B69C5F81080AC
:10A1E0002B62D4E90123934232D22268D25C3A2A0C
:10A1F0002ED101332046A3602DF02FFA21462846A8
:10A20000FFF7AAFE20B320462DF027FAD4E9012358
:10A21000934220D22268D35C2C2BC2D07D2B1AD142
:10A22000E368013BE3607D60402392E7AFF3008089
:10A230000000C0FFFFFFDF41DC380500F3380500F8
:10A24000F93805000000E0C1E57F00040746B5E7E6
:10A25000002F3FF448AF38461CF058FE43E700BFDC
:10A26000D0B5174B57EC106B18682DF0AAFA0446BE
:10A2700070B10823C0E90667C36039460EA3D3E96D
:10A2800000233046FEF71EFC20B16FF000436361EF
:10A290002046D0BD0022304639460A4BFEF708FC66
:10A2A00010B14FF00043F2E730463946FEF734FC78
:10A2B0006061EDE7AFF300800000C0FFFFFFDF410A
:10A2C0002CC900200000E0C108B502462DF096FB25
:10A2D00010B192ED060B08BD9FED010BFBE700BF2F
:10A2E000000000000000F87F2DE9F84F8146884605
:10A2F00000232DED028B19F803605A1C202E00F06C
:10A300007A81A6F10901042940F275812B2E1546A8
:10A3100032D02D2E35D0042446F02003692B4DD0A9
:10A320006E2B5DD000224FF00A0A94461346104669
:10A33000114614F4006E59D046F02007A7F1610BC6
:10A34000BBF1050F52D8573FFFB2BA4553DC46F078
:10A35000200604F08007782E40F0DC80002F00F00B
:10A36000D98050EA010A40F0D58044F4006E4FF0E5
:10A37000100A1FFA8EFE4DE0042419F802609D1C9D
:10A38000CAE74424F9E719F80520681C42F02002C6
:10A390008A4229D0A24A934217D000259FED9A8B7A
:10A3A000B8F1000F02D04D44C8F80050B0EE480A92
:10A3B000F0EE680ABDEC028BBDE8F88F9FED948B40
:10A3C000984B13F8011B0029DDD16306E8D518EE80
:10A3D000901A18EE102A01F1004343EC182BDFE726
:10A3E0009FED8D8B904BECE70546EAE7A6F1300731
:10A3F000FFB257452DDA44F0800E14F4807F04F448
:10A4000000761FFA8EFE0AD0002F18BF43F001031A
:10A4100006B9013219F805607446013589E706B1BD
:10A42000013AAAFB00060AFB0161381841F100015C
:10A4300050EA0106EED0BAF10A0F0CF1010C0CBF84
:10A4400010260F26B445E5DD44F4C07E1FFA8EFECB
:10A45000E0E7FE2F7FF47BAFA70558D514F0800608
:10A460009BD050EA010605F1FF3500F0C1802605BA
:10A4700040F1A9803632B1F5800FC0F088806B4F73
:10A48000B1F5000F80F08880BA42C0F285800343A6
:10A49000084603F00306032E04D003F00606062E3A
:10A4A00040F08380043341F10000B0F5000F7CD30D
:10A4B0000132B2F5806F80F2988000234FF4801152
:10A4C00002F2FF3221F480111E4641EA025747ECA6
:10A4D000186BB0EE480AF0EE680A26F071F8013801
:10A4E000022804D8524B22222FF006FD1A50B0EE5B
:10A4F000480AF0EE680A26F063F8013802283FF6B1
:10A5000064AF4B4B22222FF0F7FC1A505DE744F466
:10A51000007E9BE71FFA87FA002F6ED0BEF1000F76
:10A520000CBF65277027BE429BD119F805606F1CD0
:10A530002B2E04D02D2E24D144F48064A4B219F81B
:10A540000760A6F13007092F8BD8AF1C3D4640F2BB
:10A55000D34A00274FF00A0B5745DCBF303E0BFBB8
:10A56000076719F805600135A6F1300EBEF1090F35
:10A57000F2D9660548BF7F42260548BF92003A449B
:10A580006FE7A6F1300EBEF1090FDFD969E70018B9
:10A5900002F1FF3249416EE7460800F00100013246
:10A5A00046EAC176490830436AE7B2F5806F1CDAA3
:10A5B0009B08B0F5800F4FEA900143EA8073BFF427
:10A5C0007FAF002280E70CEB020313F5A27F09DDC9
:10A5D000B3F59B7F09DA00F02FF8B0EE408AF0EE79
:10A5E000608A84E79FED088B81E79FED098B7EE70A
:10A5F0009FED058BE9E613467DE69FED038B5546FF
:10A60000CEE600BFAFF300800000000000000000B5
:10A61000000000000000F07F000000000000F87F54
:10A62000F83E0500F53E0500F23E050002FCFFFF86
:10A630000C000000000000002DE9FF478046164690
:10A640000F46002900F0A280B1FA81F4341B002EDD
:10A6500004F10A04C0F2A280304625F093FD0444C0
:10A66000304625F095FDA4EB0609054669463046BF
:10A6700025F0B6FDA9EB05036A4640467D33394611
:10A680002FF0DFF8A64282460D4600F38380B9F131
:10A690003F0F00F381804FF0FF33A9F12000C9F193
:10A6A000200103FA00F003FA09F223FA01F103FA98
:10A6B00009F3024328EA03030A4327EA0202134389
:10A6C0000CBF01200020002D00F08A80B5FA85F330
:10A6D000E31A40F2FE7203F23E43934200F3898094
:10A6E000002B23EAE376D4BF01223246121BA2F2EA
:10A6F0003341A2F23447A2F25344C1F1200C2AFAAA
:10A7000001F325FA04F4C7F1200E05FA0CFC25FA32
:10A7100001F105FA0EFE43EA0C03A2F2544CA2F238
:10A72000544223432AFA07F425FA0CFC44EA0E04A7
:10A7300044EA0C04C7F1200C14F0010F54D0A8B166
:10A740004FF0FF3000FA02F200FA07F4144320FA47
:10A750000CF2B840144303F001022AEA000A25EA89
:10A7600004054AEA020A5AEA050A3DD0013341F1DA
:10A770000002C2F3130253EA020138D0184642EA3B
:10A78000065141EC100B04B0BDE8F087B0FA80F43C
:10A7900020345BE7012096E7002094E7C6F100092A
:10A7A000484625F0F5FC241A484625F0F1FCA61B86
:10A7B0000546694648462E4425F084FD6A464046D3
:10A7C00006F17C0339462FF03CF882460D464046A0
:10A7D000394625F0EDFC81458CBF0020012072E751
:10A7E000BAFA8AF3203373E7C1F31302C6E70136DE
:10A7F000C4E79FED010BC6E7000000000000F07FFA
:10A800002DE9FF4755EC104B25F00042B049EE0F03
:10A810008A4236D9AF498A4218D82046294696A39B
:10A82000D3E90023FEF758F9074620BB2046294606
:10A8300093A3D3E90023FEF731F9002800F0A280AA
:10A84000384604B0BDE8F04700F006BBC5F313037B
:10A850002246234307D02B4620462946FDF7F6FC27
:10A8600004460D4602E0002E40F0038145EC104BFB
:10A8700004B0BDE8F087002004B0BDE8F04700F068
:10A88000FBBA954B9A4240F2A980944B9A4279D8F0
:10A89000934B20462946F70003EBC603C6F1010A95
:10A8A000D3E90023FDF7D0FC8E4B804689463B441C
:10A8B000AAEB060A93ED007B8DED007BDDE900231A
:10A8C00040464946FDF7C0FC04460D4622462B464D
:10A8D00020462946FDF770FE06460F466AA3D3E9D7
:10A8E0000023FDF769FE6AA3D3E90023FDF7ACFC62
:10A8F00032463B46FDF760FE67A3D3E90023FDF730
:10A90000A5FC32463B46FDF757FE65A3D3E900237D
:10A91000FDF79AFC32463B46FDF74EFE62A3D3E9B3
:10A920000023FDF793FC32463B46FDF745FE024609
:10A930000B4620462946FDF787FC02460B46064695
:10A940000F4620462946FDF737FECDE90201BAF150
:10A95000000F5CD100224FF0804330463946FDF7AE
:10A9600073FC02460B46DDE90201FDF74FFF22466C
:10A970002B46FDF769FC02460B4600205A49FDF7BD
:10A9800063FC6DE7594B2046294603EBC60648A3F6
:10A99000D3E90023FDF710FED6E90023FDF756FCAE
:10A9A000FEF7BAF88246FDF79DFD06460F4642A324
:10A9B000D3E90023FDF700FE02460B462046294658
:10A9C000FDF742FC80468946304639463CA3D3E930
:10A9D0000023FDF7F1FDCDE900016FE7444B9A42FA
:10A9E00010D82046294638A3D3E90023FDF72EFCD2
:10A9F00000223D4BFEF770F838B100223A4B20465A
:10AA000029462BE74FF0000A60E782465EE73246B0
:10AA10003B4600204FF08041FDF716FC02460B46F6
:10AA2000DDE90201FDF7F2FE02460B46DDE9000119
:10AA3000FDF70AFC42464B46FDF706FC0B46024674
:10AA400029490020FDF700FC0B466FF47F71064694
:10AA50008A4503DB344603EB0A5507E70AF57A7AA1
:10AA60003046002203EB0A514FF0B873FDF7A4FD06
:10AA7000F6E600240025F9E6EF39FAFE422E86407C
:10AA800051302DD5104987C0D0A4BE726937663EBB
:10AA9000F16BD2C541BDBB3E2CDE25AF6A56113FDE
:10AAA00093BDBE166CC1663F3E5555555555C53FC5
:10AAB000FE822B654715F73F0000E0FE422EE63F81
:10AAC000763C7935EF39EA3D9C7500883CE4377E69
:10AAD000412E8640FFFFEF7F422ED63FB1A2F03FCE
:10AAE00008AA0400F8A904000000F03F18AA040016
:10AAF000FFFFEF3D0000000051EC100BB1F5801F8F
:10AB00002DE9F04F0D4687B023DA21F000430343CF
:10AB100005D1012007B0BDE8F04F00F0BDB9002914
:10AB200004DA07B0BDE8F04F00F0C6B9C64B00220A
:10AB3000FDF742FD6FF035030D46C44A95420ADD2C
:10AB400002460B46FDF782FB41EC100B07B0BDE857
:10AB5000F08F0023F1E72C15C5F31305A4F2FF34A1
:10AB60001C4405F5152303F6647303F4801383F086
:10AB70007F5204EB1354B64B82F4401242EA0501B3
:10AB80000022FDF761FBAB1C82468B46C3F3130327
:10AB90000022022B53DC0023FDF776FFD0B1002CFE
:10ABA00000F020812046FDF79DFC06460F4690A34D
:10ABB000D3E90023FDF700FD04460D463046394633
:10ABC0008DA3D3E90023FDF7F7FC02460B46204690
:10ABD0002946B7E78AA3D3E9002350465946FDF733
:10ABE000EBFC02460B4600209A49FDF72DFB06467A
:10ABF0000F4652465B4650465946FDF7DDFC02467D
:10AC00000B4630463946FDF7D7FC06460F4614B9C9
:10AC100032463B46A0E02046FDF764FC804689466C
:10AC200073A3D3E90023FDF7C7FC04460D46404655
:10AC3000494671A3D3E90023FDF7BEFCA5E04FF020
:10AC40008043A5F5C226FDF701FB02460B465046A0
:10AC50005946C5F5D725FDF7D9FDA6F27A465135F7
:10AC6000CDE9000120463543FDF73CFCDDE900233A
:10AC7000CDE9020110461946FDF79EFC02460B463F
:10AC8000CDE90423FDF798FC804689465EA3D3E90D
:10AC90000023FDF791FC5EA3D3E90023FDF7D6FA6C
:10ACA00042464B46FDF788FC5BA3D3E90023FDF742
:10ACB000CDFA42464B46FDF77FFC59A3D3E900236A
:10ACC000FDF7C4FADDE90423FDF776FC56A3D3E9CA
:10ACD0000023CDE9040140464946FDF76DFC54A32D
:10ACE000D3E90023FDF7B2FA42464B46FDF764FC78
:10ACF00051A3D3E90023FDF7A9FA42464B46FDF7DD
:10AD00005BFC02460B46DDE90401FDF79FFA002DCE
:10AD10008046894648DD00224E4B50465946FDF795
:10AD20004BFC52465B46FDF747FC02460B46064687
:10AD30000F4640464946FDF789FADDE90023FDF755
:10AD40003BFC8046894664B902460B46304639468C
:10AD5000FDF77AFA02460B4650465946FDF774FA5B
:10AD6000F2E623A3D3E90023DDE90201FDF724FC89
:10AD700004460D4620A3D3E90023DDE90201FDF7D7
:10AD80001BFC42464B46FDF761FA02460B46304635
:10AD90003946FDF759FA52465B46FDF755FA024629
:10ADA0000B4620462946D9E702460B4650465946EF
:10ADB000FDF74AFADDE90023FDF7FEFB06460F46E4
:10ADC000002C3FF425AF0AA3D3E90023DDE90201FB
:10ADD000FDF7F2FB04460D4607A3D3E90023DDE9A6
:10ADE000020129E79FED160BB0E600BFAFF300802C
:10ADF0000000E0FE422EE63F763C7935EF39EA3D31
:10AE0000555555555555D53F44523EDF12F1C23F79
:10AE1000DE03CB966446C73F599322942449D23F20
:10AE2000935555555555E53F9FC678D0099AC33F70
:10AE3000AF788E1DC571CC3F04FA97999999D93F87
:10AE4000000000000000000000005043FFFFEF7F03
:10AE50000000F03F0000E03F10B19FED030B704792
:10AE60009FED030B704700BF000000000000008052
:10AE7000000000000000000010B19FED030B7047C0
:10AE80009FED030B704700BF000000000000F0FFC3
:10AE9000000000000000F07F10B19FED030B704731
:10AEA0009FED030B704700BF000000000000F0FFA3
:10AEB000000000000000F07F08B525F081FB9FED49
:10AEC000020B08BDAFF30080000000000000F87F17
:10AED00070B50F4B18682AF05BF9002816DD4FF4A7
:10AEE0007A734FF4004503FB00F4002140F2E73091
:10AEF0004FF47A720023E4FB0501FDF7F5FEBDE88F
:10AF0000704002460B46034821F0CCB870BD00BF2C
:10AF1000D02A012080C5002002460249024825F0BF
:10AF2000AABB00BF1EBB040060A6040010B515201C
:10AF300011F09AFB044630B102460449044825F05A
:10AF40009AFB204610BDFFF7C3FFFAE737BB0400AA
:10AF500060A6040010B5074821F0AAF8142011F0EB
:10AF600083FB044620B102460349044825F083FBD5
:10AF7000204610BD80C5002037BB040060A6040039
:10AF800010B5064C0648216825F071FB206809F0D1
:10AF9000F5FBBDE810400020FFF7DCBFD02A012000
:10AFA000020007D210B50020FFF7D4FF084C02467C
:10AFB00038B10849084825F05EFB2168074825F0AC
:10AFC00056FB21680648BDE8104025F050BB00BF85
:10AFD000D02A012057BB040060A60400020007D25B
:10AFE000010007D210B51E4B1A78A2B15A7892B15F
:10AFF000A8B918701B4C5970206809F0BFFB2EF0DF
:10B000004EF870B1002120682AF02EF8C0B1BDE8DA
:10B010001040FFF75DBF28B91870597001E0002992
:10B02000E8D010BD01221A700029F6D05A700D4BDD
:10B03000186809F0C5FBBDE810400B4821F038B88E
:10B04000FFF788FF02460028EBD00849084825F0A2
:10B0500012FB21680748BDE8104025F008BB00BF7F
:10B06000364D0120D02A012080C5002057BB0400A6
:10B0700060A60400020007D20221024A024826F01C
:10B080001ABB00BF78BB040060A6040010B50446DC
:10B090004FF0FF324FF0FF33074820F0E7F8074B3F
:10B0A0005A78A24203D021461878FFF79BFFBDE8EB
:10B0B0001040014820F090B9D4CC0020364D01203A
:10B0C00010B50446006809F059FB0121204625F01F
:10B0D000ECFA0021204625F0E8FA00230B48236112
:10B0E0002BF0CFFB024648B109490A4825F0C3FAC4
:10B0F00021680948BDE8104025F0B9BA074811F0A9
:10B10000B5F82268064B1A6010BD00BFC1B101003E
:10B11000DBBB040060A60400020007D28106040025
:10B12000D02A012010B504464FF0FF324FF0FF3314
:10B13000074820F09BF8074B1A78A24203D020461C
:10B140005978FFF74FFFBDE81040014820F044B99F
:10B15000D4CC0020364D012008B5094B186800F00A
:10B1600065F9024638B10749074825F084FABDE879
:10B170000840FFF705BFBDE80840FFF7D3BF00BF99
:10B18000D02A0120FDBB040060A6040008B5094BCD
:10B19000186800F0CBF8024638B10749074825F097
:10B1A0006AFABDE80840FFF7EBBEBDE80840FFF7CC
:10B1B000D3BF00BFD02A012019BC040060A6040040
:10B1C000084608B5052936D8DFE801F03903202400
:10B1D0002D201B4B186800F04FF810F13D0F024670
:10B1E00006D1BDE808400221164A174826F063BA86
:10B1F00038B11649144825F03EFABDE80840FFF77B
:10B20000BFBE0120BDE80840FFF78CBFBDE8084085
:10B21000FFF7BCBF0A4B186800F09EF802460028F2
:10B22000EFD00B49E6E7064B186800F0FFF802463E
:10B2300028B10849DEE7BDE80840FFF76DBE08BD4C
:10B24000D02A012035BC040060A604005ABC0400CA
:10B2500073BC0400FDBB040010B5054C0548216813
:10B2600025F005FA2068BDE8104009F087BA00BF54
:10B27000D02A0120020007D270B500240646A2B0F1
:10B280001822214608A8CDE90044CDE902442EF059
:10B29000FEFC002E3DD0242221460FA80E942EF055
:10B2A000F6FC2422214619A818942EF0F0FC1C4923
:10B2B0001C4818AB0EAA1EF021F8A04203DC6FF068
:10B2C0000D0022B070BD012004AA0EA926F0B9FE1F
:10B2D0000128054602D06FF03C00F2E70EA968464F
:10B2E000FDF7A9FE6846FDF7AEFE08AA01466846CE
:10B2F00027F045FD0028E2D023460322304609A965
:10B3000008F074FD40B1084B099A20461A601D717F
:10B31000D7E76FF01500D4E76FF01200D1E700BF58
:10B32000A0BC0400CDBC0400D42A012010B550B14B
:10B33000084C23792BB1214609F0C0F830B1002325
:10B340002371002010BD6FF01500FBE76FF00D00BA
:10B35000F8E700BFD42A012070B500240546A8B044
:10B36000242221460BA80A942EF091FC1822214693
:10B3700004A82EF08CFC002D4CD02146242215A8C8
:10B3800014942EF084FC214624221FA81E942EF033
:10B390007EFC234923481EAB14AA1DF0AFFF041EF8
:10B3A00035DD02206A4614A926F04BFE01281FD184
:10B3B00014A90AA8FDF73FFE0AA8FDF744FE04AA57
:10B3C00001460AA827F0DBFC08B305AC00230322E2
:10B3D0002146284608F07AF9F8B194E80F00124E99
:10B3E00006F1080585E80F000123002033760CE004
:10B3F000012C08D002206A461EA926F022FE012850
:10B4000001D11EA9D5E76FF03C0028B070BD6FF0E8
:10B410000D00FAE76FF01500F7E76FF01200F4E7A0
:10B42000A0BC0400CDBC0400D42A012010B558B142
:10B43000084C237E33B104F1080108F0E7FD30B178
:10B4400000232376002010BD6FF01500FBE76FF09E
:10B450000D00F8E7D42A012080B500AF8AB06A4613
:10B46000094B5361094B9361094BD361094B13623B
:10B47000094B42F8103F00234FF42351074803F0D3
:10B480008FFC0020BD4680BDE9BC04002FBD040038
:10B4900035BD04000002010304000002B0A5040051
:10B4A00070B52DED028B82B004466846B0EE408A3E
:10B4B000F0EE608A12F03EFE034690B10121154A7B
:10B4C000154825F014F92DF05DFF4FF47A75A0FBB7
:10B4D000053205FB0122DB0B43EA4243D20BCDE9E7
:10B4E000003230220D4E0E4B3568214602FB0533EB
:10B4F000202218462EF0D7F80346013580ED088B40
:10B50000DDE900013560C3E90A0102B0BDEC028B40
:10B5100070BD00BF6BBD0400B8A40400F02A012078
:10B52000F0D300202DE9F04F97B00646D0E9020194
:10B5300000AF00220023FCF789FE00220023804692
:10B540008946D6E90401FCF781FE0446B0690D4640
:10B55000FCF7DAFF00220023FCF778FE82467078C1
:10B560008B4613F0C9F9C7F804D08EB06A46274B52
:10B57000C2E90689536140F603039386244BC2E96E
:10B580000845C2E90AAB106342F8103F002344F6B5
:10B59000C041204803F004FC7378D7F804D0022B94
:10B5A0002FD103211C4A1B4825F0A3F87378022BE6
:10B5B00027D13822002107F120002EF068FBD6E9C0
:10B5C0000201012387F820303B730023B269C7E9E9
:10B5D0000C01D6E90401C7E90E0107F12800C7E90B
:10B5E00006333A643B613B7512F0A4FD07F120017C
:10B5F00007F10C0016F084F918B907F10C0000F0FF
:10B60000B1FE5C37BD46BDE8F08F00BF93BD0400BE
:10B6100009000001B8A40400D4BD04002DE9F043E2
:10B620008BB000AF0446014607F114002BF067FA17
:10B63000B0B123686C4688B06A464F4951614F49A2
:10B64000C2E90613042342F8103F00234FF40451CB
:10B650004B4803F0A5FBA5462C37BD46BDE8F0835B
:10B66000484A494907F1140016F07CF8002867D1D0
:10B6700046493A1D07F114002BF07FFA08B1444BFC
:10B680007B60786801F0FEFA0023814607F1140020
:10B690007B602BF02CFB28B13E4A0121384825F075
:10B6A00028F8D9E707F114002BF0D2FA08B13A4A8A
:10B6B000F3E707F1080012F03DFD044630B1034600
:10B6C000364A01212E4825F012F8C5E7344EDFF83E
:10B6D000B8803246414607F1140016F083F805465B
:10B6E00098B16D468AB06A462E4BD661C2E90538DC
:10B6F0002D4B13622D4B42F8103F4FF4215123463E
:10B700001F4803F04DFBAD46A6E7D7E9022307F13A
:10B71000140016F0CBF80346B8B16C468AB06A46FE
:10B72000234BD661C2E905381F4B13621F4B42F809
:10B73000103F4FF421512B46114803F031FBA54631
:10B7400007F114002BF0D3FA86E74A460F4907F1B8
:10B7500014002BF05CFB28B10121164A084824F0A4
:10B76000C8FFEDE707F1140000F0FCFD03460028D8
:10B770003FF472AF104AA4E702BE04006FC2040097
:10B78000B8A4040047BE04004BBE0400181905000D
:10B79000D32C050051BE04006FBE04006BBD040035
:10B7A000A7BE0400ACBE04000002010304000002B6
:10B7B000E7BE04002DBF040069BF0400054B1B68F1
:10B7C000632B01D8FFF76CBE0121034A034824F024
:10B7D00090BF00BFF02A01209BBF0400B8A4040062
:10B7E0002DE9F84300AF05468846164615F0FAFFE6
:10B7F0000446B0B16D468AB06A46194BD661C2E9BB
:10B800000538184B1362184B42F8103F00234FF4D1
:10B810002151164803F0C4FAAD462046BD46BDE8A6
:10B82000F8832846D7E9082316F040F80446002894
:10B83000F3D0E9468AB06A460D4BD661C2E90538B5
:10B84000084B1362084B42F8103F00234FF421517C
:10B85000064803F0A5FA2846CD462BF048FADCE767
:10B86000ACBE04000002010304000002B8A40400FE
:10B87000E7BE04002DE9F041002301248CB002A8AA
:10B88000CDE90533CDE90A3303938DF810300893E1
:10B890008DF824308DF808408DF81C402BF0E9F924
:10B8A0000346B8B90446294D294E2A4FDFF8C08017
:10B8B0003368A34216D802A800F054FD03460028BE
:10B8C00041D00121244A254824F011FF02A82BF081
:10B8D0000EFA04E02146224A204824F008FF0CB06A
:10B8E000BDE8F081D5E90A232946CDE9002307A860
:10B8F0003A46FFF775FF034638B10121194A174848
:10B9000024F0F5FE01343035D2E7024695ED080B00
:10B91000414607A82BF037FA034640B1124A0121ED
:10B920000E4824F0E4FE07A82BF0E1F9EAE707A9A6
:10B9300002A82BF003FA034608B10C4AEFE707A868
:10B940002BF086F9DEE73060C0E700BFF0D30020BF
:10B95000F02A0120A7BE04004EC00400B8A40400D1
:10B96000B2BF0400D8BF0400FCBF040025C004001F
:10B970001819050098B50E4A00AF041E8AB00D4B89
:10B9800008BF13466A460C4951610C49C2E90613C7
:10B9900040F2013313840A4B42F8103F00234FF466
:10B9A0001451084803F0FCF9074B1C70BD4698BDC4
:10B9B0003AC2040032C2040043C2040057C2040069
:10B9C00004000001B8A40400394D0120014B18788F
:10B9D000704700BF394D012098B500AF6C4688B064
:10B9E0006A46094B4FF4C8515361084B08489361AC
:10B9F000032342F8103F24F080FE0648A54620F0BD
:10BA000057FBBD4698BD00BF92C2040076CA040031
:10BA1000F0A40400B0C50020014601482DF0BABDD5
:10BA20005CCF002008B52AF044FF20B1BDE80840F3
:10BA30001020FFF7F1BF1021BDE8084001482DF0AC
:10BA4000B0BD00BF5CCF002007B50022CDE90001EA
:10BA5000012104482DF0A9FD003818BF012003B0D2
:10BA60005DF804FB5CCF002007B50022CDE90001A2
:10BA7000042104482DF099FD003818BF012003B0BF
:10BA80005DF804FB5CCF002007B50022CDE9000182
:10BA9000082104482DF089FD003818BF012003B0AB
:10BAA0005DF804FB5CCF002007B50022CDE9000162
:10BAB000102104482DF079FD003818BF012003B093
:10BAC0005DF804FB5CCF0020014B1860704700BF9D
:10BAD000082B012098B500AFFFF77EFF06211D4817
:10BAE0002DF05FFD00221C4BD3E8EF1FC3E8E02FD1
:10BAF0000028F9D10321194A194824F0FCFD16F059
:10BB000009FB10F10D0F034602D010F1800F14D184
:10BB10006C4688B06A46134B4FF4C8515361124BC0
:10BB20000F489361032342F8103F24F0E6FDA54639
:10BB30000820FFF771FFBD4698BD28B101210B4ACF
:10BB4000074825F0C1FDF3E70321094A044824F022
:10BB5000D2FDEDE75CCF00200C2B0120C2C2040017
:10BB6000F0A40400DFC204008ECA040007C304006E
:10BB700047C3040008B50321034A044824F0BBFD71
:10BB8000BDE80840FFF7A6BF70C30400F0A404009E
:10BB900008B50321054A064824F0ADFD01210548FA
:10BBA0002DF0FFFCBDE80840FFF794BFC1C30400BF
:10BBB000F0A404005CCF002008B50D4B99420ED1D3
:10BBC00003210C4A0C4824F096FD4FF4004000215C
:10BBD00021F062FABDE808400120FFF71DBF074BC6
:10BBE000994203D1BDE80840FFF7D2BF08BD00BFAE
:10BBF000010014F1DCC30400F0A40400020014F1FD
:10BC00002DE9F843037805460F2BB14C00AF14D84B
:10BC1000B3B15A1E0E2A13D8DFE812F01700310014
:10BC2000530072008E00C0001200E8001200A10054
:10BC3000A600AF01B401DF014100FF2B00F0A0809E
:10BC40006D4688B06A46A3499FE06D4688B06A4653
:10BC5000A14B4FF4C851C2E9053403249F4842F870
:10BC6000104F24F04AFD9D48AD4621469C4A24F0E1
:10BC700042FD00F033FE0220FFF7CEFE3DE06D46B0
:10BC800088B06A46974BC2E9053403234FF4C85184
:10BC900042F8103F914824F030FDAD462DE06D464E
:10BCA00088B043686A469049D3610423C2E9051409
:10BCB0004FF4045142F8103F884824F01EFDAD4671
:10BCC00037E06D4688B06A46884B4FF4C851C2E9E8
:10BCD00005340324814842F8104F24F00EFD844AB5
:10BCE000AD4621467D4824F006FD0122814BD3E874
:10BCF000EF1FC3E8E02F0028F9D1BD46BDE8F88367
:10BD00006D4688B06A467C4B4FF4C851C2E9053491
:10BD10000324724842F8104F24F0EFFCAD46754BF7
:10BD2000D3E8AF3F002BE8D02146744A6B4824F09B
:10BD3000E2FCFFF7CFFEE0E76D4688B06A46704B45
:10BD40006648C2E9053403234FF4C85142F8103F56
:10BD500024F0D3FCAD46FFF73FFE04208CE76D4690
:10BD600088B06A46674B8EE76D4688B06A46664B78
:10BD70004FF4C851C2E90534032342F8103F9BE752
:10BD80006D4688B043686A466049D3610423C2E9BE
:10BD900005144FF4045142F8103F7BE7E94688B0A0
:10BDA0006E465B4BB046C6E90534032348F8103FA6
:10BDB00042464FF4C851494824F09FFCCD46AB6839
:10BDC000B546F3610423534A3361C6E905244FF4B1
:10BDD00004514246414824F090FC4F4BCD461B682D
:10BDE000002B8AD005F10800984786E76E4688B098
:10BDF0006A464FF00308494B4FF4C851C2E9053475
:10BE0000364842F8108F24F078FCAC69B546002C17
:10BE10003FF473AF2578002D40F090806368002BCD
:10BE20003FF46BAFD3E902018AB06A46D3F800C091
:10BE30003B4BDFF8049153610623C2E90801C2E9D4
:10BE4000069C4FF44451254842F8103F24F055FC1D
:10BE50006068B546103000F0D1FD10F1090F11D126
:10BE60004146304A1D4824F046FC2946606810309F
:10BE700015F088FE034600B32B4A0121174825F030
:10BE800023FC3AE710F10C0F05D10121274A134892
:10BE900024F031FC31E70B300DD188B06A46244BD9
:10BEA0004FF4C851C2E905390C4842F8108F24F00C
:10BEB00024FCB54621E70121D8E7606810302BF05B
:10BEC000B3F8034600283FF418AF1A4AD5E700BF7D
:10BED00047CA0400D5C7040033C40400F0A404001A
:10BEE00059C4040070C4040097C40400C5C404000D
:10BEF000F0C404000C2B012036C5040058C5040012
:10BF000090C50400A8C50400CAC50400F3C5040018
:10BF10000FC6040031C60400082B012052C60400DD
:10BF200073C60400A4C604000CC70400BBC604000A
:10BF3000D7C6040031C7040033CA0400012D7FF4C2
:10BF4000DCAE6368002B3FF4D8AE88B06A46254B60
:10BF500025485361254B4FF4C851936142F8108F27
:10BF600024F0CBFB6068B546283000F0A3FD002824
:10BF70003FF4C3AE00F0B8FCBFE66D4688B06A4639
:10BF80001B4B80E6C36803B31A7802B3012A20D0A2
:10BF9000052A20D0174B1849022A08BF0B466D46C8
:10BFA0008AB06A46D36140F2013314491384144BBA
:10BFB000C2E905140C484FF4145142F8103F24F024
:10BFC0009CFBAD4624F0A3FB97E60A4BE7E70D4B3D
:10BFD000E5E70D4BE3E70D4BE1E76D4688B06A46B8
:10BFE0000B4B50E65BC70400F0A4040033CA040006
:10BFF00070C7040020C4040028C404008DC70400D6
:10C000000400000107C40400F9C3040013C40400C1
:10C01000B8C7040008B50321034A044824F06BFBA9
:10C02000BDE80840FFF756BDF0C70400F0A40400C7
:10C030002DE9F04395B0022002AF24F072FB0321FA
:10C04000734A744824F057FB01200BF053FD032181
:10C05000714A704824F04FFB7048714B3D1D43609E
:10C06000704B036109F016F86F482AF024FC102287
:10C07000002107F108002DF00AFE6C4B7B6024F0D4
:10C0800049FB6B4BF8607B61284615F0D3FF0346F4
:10C0900000285BD14FF00308664E5E4C3246032108
:10C0A000204624F028FB022024F03BFB4FF0FF3118
:10C0B0004FF0FF30FFF7C8FC032120465E4A24F012
:10C0C0001AFB032120465D4A24F015FB4121284636
:10C0D0002AF09CFF0346002849D1E94688B002AA0D
:10C0E000574B4FF4E651C2E905354FF40073938383
:10C0F000544B204642F8103F24F0FFFACD46082169
:10C1000051482DF04EFA15F0D1FF10F10B0F81467A
:10C1100033D1022120464D4A24F0EDFAE94688B099
:10C1200002AA4B4B4FF4C85153614A4B20469361CE
:10C1300042F8108F24F0E1FA4FF0FF31CD464FF076
:10C14000FF30FFF7A1FC0321434A38E00121434AB5
:10C15000304825F0B9FA0121414A2E4824F0CBFAA3
:10C16000032024F0DEFA4C37BD46BDE8F083012100
:10C1700020463C4A25F0A8FAC1E788B101210346D0
:10C18000394A204625F0A0FA1E2303212046374ACB
:10C1900025F09AFA00214FF4702020F07DFF7DE712
:10C1A0004FF0FF334FF0FF320A21CDE90023024662
:10C1B00025482DF0FAF9830705D401212C4A2046A1
:10C1C00024F099FAE0E7002200230421CDE90023BE
:10C1D0001D484A462DF0E9F900289FD0E94688B06D
:10C1E00002AA244B20465361234B4FF40451936120
:10C1F0004FF41673D361042342F8103F24F07DFA04
:10C200004FF09672CD4600231C481FF04BFF85E788
:10C210000EC80400F0A4040027C80400F42A01207A
:10C22000B9BB0100030014F125BA010001BC0100F3
:10C230002FBD0400A3C80400C0C80400D1C8040076
:10C24000E9C80400030000015CCF00201AC9040003
:10C25000C1C904005BCA0400E5C9040047C8040062
:10C260007DC80400F7C8040039C9040001CA0400ED
:10C2700063C9040082C904001BCA0400B0C50020C1
:10C280002DE9F04383B00D46044600AF002858D096
:10C2900078602D4BE9468AB06A46D3F824802B4B50
:10C2A0002B4E5361192313620523C2E9066842F835
:10C2B000103F00234FF42451264802F071FDB8F1DD
:10C2C000190FCD460AD123480221234A25F0F3F95C
:10C2D0006FF01B000C37BD46BDE8F0836DB1142034
:10C2E0002DF06DF9864648B384460FCCACE80F00BC
:10C2F0002368C7F804E0CCF800306C4688B06A4682
:10C30000164BC2E90536032342F8103F00234FF4D1
:10C31000C851104802F044FDA546002200230A48F7
:10C32000391D1EF067FE0028D4D001210C4A0948AF
:10C3300025F0C1F915B178682DF03AF96FF00B00CE
:10C34000C8E76FF01500C5E7ECCD0020B0CA0400C7
:10C350005ACD0400C0A50400D1CA0400E7CA0400F5
:10C360000ACB040038B501210546FFF789FF0446D2
:10C3700048B107480121074A25F09DF928462AF0CF
:10C38000B6FC204638BD28462AF062FCF9E700BF1B
:10C39000C0A5040042CB04002DE98048DFF8889155
:10C3A00089B0574D00AFE84688B06A464FF0030A9F
:10C3B000544BC2E9053942F810AF00234FF4C8517D
:10C3C000284602F0EDFCC546DFF860B14FF0FF32C1
:10C3D0004FF0FF33584607F108011EF0A7FE044650
:10C3E00030B101210346484A284625F06DF9DAE7C5
:10C3F00088B06A46454BC2E9053942F810AF4FF4A0
:10C40000C8510346284602F0CBFCC5464FF0FF3129
:10C410004FF0FF30FFF728FB88B06E4632463C4BAA
:10C42000C6E9053942F810AF4FF4C85123462846F3
:10C430007A6002F0B5FCC546B546DBF824304FF013
:10C44000040B3449F361C6E90519C6F810B04FF47E
:10C450000451234628467A6802F0A2FC1022BB68E9
:10C46000C5462146B818FB602DF011FC4FF48173CE
:10C4700007F10C003B8315F061FE031E264E23DA04
:10C4800001212846254A25F01FF92146B868FFF703
:10C49000F7FE58B101212846214A25F00CF9BC6865
:10C4A00020462AF024FC20462DF082F83368013320
:10C4B000052B33607FF777AFFFF70CFB00214FF4BC
:10C4C000A02020F0E9FD6EE7BB6818467B602AF0EB
:10C4D0000EFC7B6818462DF06BF888B06A46114B4D
:10C4E000C2E9053942F810AF4FF4C8512346284637
:10C4F00002F056FC5846C54624F018F9346052E75D
:10C50000C0A504005ECB040087CB0400C6CB0400AA
:10C510000ACC04003DCC0400102B012061CC0400A7
:10C52000E7CC040011CD040043CD0400ECCD002085
:10C5300070B50E4615461C46002814BF6422002222
:10C5400000210F4824F0E8F8002E14BF64220022D6
:10C5500001210B4824F0E0F8002D14BF64220022D2
:10C560000221074824F0D8F8002C18BF6422BDE847
:10C57000704008BF00220321014824F0CDB800BF5D
:10C5800044A1040098B5164B00AFD3E8EF2FC3E8E1
:10C59000E41F002CF9D1134BD3E8EF2FC3E8E10FD0
:10C5A0000029F9D10024104BD3E8EF2FC3E8E14F65
:10C5B0000029F9D102210D482CF0ECFF88B06A4621
:10C5C0000B4B53610B4B9361032342F8103F4FF425
:10C5D000C8512346084802F0E3FBBD4698BD00BFA2
:10C5E000182B012054C70020142B01206CCF0020F1
:10C5F00001CE0400ACCE040070A504002DE9F04F7C
:10C6000085B06C4602AF88B002AA694B694D536190
:10C610000323956142F8103F00234FF4C851664848
:10C6200002F0BEFBA54665482CF03FFD40B9012154
:10C63000634A614825F03FF80C37BD46BDE8F08FEE
:10C64000022160482CF0A6FFDFF878A1DFF868919E
:10C650004FF0FF334FF0FF320221CDE90023504667
:10C6600000222CF0A2FF6C4688B002AA564BC2E909
:10C670000535032342F8103F00234FF4C8514846C4
:10C6800002F08EFBA546DFF850B1504EDFF84C812A
:10C69000DBE8AF1FD6E8EF3F5A1EC6E8E02F0028C0
:10C6A000F8D1002B6BD07960002968D0D8E8EF4F23
:10C6B000631CC8E8E23F002AF8D1454821F02CFA73
:10C6C0004FF0FF324FF0FF334148CDE9002340F6F1
:10C6D000CD42002321F0C2F97968C9B2013903299A
:10C6E0004BD8DFE801F00213303C282294FBF2F330
:10C6F00002FB13430022132BCCBF0123002311465E
:10C70000D4BF01201046FFF713FFC1E7634203F0D7
:10C71000030304F0030158BF594214F0030FA1F1C1
:10C720000204A1F1030C0CBF01200020634201F1BF
:10C73000FF3E6341DCF1000242EB0C02DEF100013E
:10C7400041EB0E01DFE7142294FBF2F302FB1343EB
:10C750000E2BCCBF002301231A4619460BE00C23F5
:10C7600094FBF3F203FB1244022CCDBF0122002202
:10C770000123002311461846C5E70023ECE70021FA
:10C7800050462CF00AFF012023F0CBFF6C4688B006
:10C7900002AA104BC2E90535032342F8103F0023DB
:10C7A0004FF4C851484602F0FBFAA54650E700BFD7
:10C7B0001BCE040094CE040070A5040044A1040024
:10C7C00036CE04006CCF002066CE040054C7002093
:10C7D00088CB00207ECE0400182B0120142B0120D2
:10C7E000F8B5194A051E6E4600AF8AB0174B0EBF4A
:10C7F0000A2413461E246A46D36140F201331449C9
:10C800001384144BC2E9051442F8103F00234FF47F
:10C810001351114802F0C4FAB5460DB129F0DEFFFC
:10C8200002F07CF94FF47A7340F2E7305C434FF446
:10C830007A72002300EBC4300021FCF755FA20F097
:10C840002BFC012001F0D4FBCACE0400FEBD040085
:10C85000D8CE04000400000180A6040080B500AF1B
:10C8600088B06A46084B5361084B9361032342F832
:10C87000103F00234FF4C851054802F091FA6FF0C1
:10C880002200BD4680BD00BFF9CE0400C6CF040023
:10C8900090A6040013B50E490DF107022AF081F9A4
:10C8A000044630B99DF80700FFF764F8204602B04F
:10C8B00010BD233407D10221064A074824F0FBFEAD
:10C8C0006FF00804F2E7FFF7C9FF0446EEE700BF88
:10C8D00026CF040034CF040090A604000022014BB0
:10C8E0001A7070473A4D012010B594B03C4A3D484B
:10C8F000032124F0E0FE002301220FA8CDE9033339
:10C90000CDE90833CDE90D33CDE912338DF80020A0
:10C9100001938DF808308DF8142006938DF81C30A3
:10C920008DF828200B938DF830308DF83C20109333
:10C930008DF844302AF072F9B8B16FF00B046846F4
:10C940002AF0D5F905A82AF0D2F90AA82AF0CFF9D9
:10C950000FA82AF0CCF92CB101212346224A214804
:10C9600024F0B2FE204614B010BD0AA82AF056F9F1
:10C970000028E2D105A82AF051F90028DDD1684647
:10C980002AF04CF904460028D7D1FFF71FF82346B8
:10C99000024616490FA82AF081FA04460028CED193
:10C9A000034613490FAA0AA82AF098FA0446002859
:10C9B000C5D103460F490AAA05A82AF08FFA0446F2
:10C9C0000028BCD103460C49684605AA2AF086FA1D
:10C9D00004460028B3D168462AF026FB0446AEE799
:10C9E00050CF040090A604007ECF040026CF0400A0
:10C9F000B20705006FCF040078CF0400F0B50546FC
:10CA000087B0002845D00778012F04D06FF02204AA
:10CA1000204607B0F0BD4368002BF7D0204B1B78B1
:10CA2000002B39D000261F4901AACDE904668DF8F4
:10CA3000047002968DF80C602AF0C7F81330E5D028
:10CA400001A8FFF727FF10F1090F044613D101A831
:10CA50002AF04DF901A82AF0E1F8FEF7B7FF3346B6
:10CA60000246114901A82AF019FA20B10F4A3946A5
:10CA70000F4824F020FE002328460A4901AA2AF084
:10CA80002DFA0028C4D001A82AF031F96FF00B0468
:10CA9000BEE76FF01504BBE76FF00A04B8E700BF0C
:10CAA0003A4D0120B207050026CF0400A6CF0400AE
:10CAB00090A6040010B550B10478012C0AD1436847
:10CAC00043B1FFF7E7FE08B9044B1C7010BD6FF0CF
:10CAD0001500FBE76FF02200F8E700BF3A4D012098
:10CAE000B0B503780446013B00AF072B4BD8DFE815
:10CAF00003F0041C334A454A4A1A6D4688B06A4618
:10CB0000234B5361234B9361032342F8103F0023CF
:10CB10004FF4C851204802F043F9204BAD461B6842
:10CB20000BB120469847BD46B0BD6D4688B06A46F9
:10CB30001B4B5361174B9361032342F8103F0023B3
:10CB40004FF4C851144802F02BF96378AD46022B1C
:10CB5000E9D0FFF75FFAE6E76C4688B06A46114B0A
:10CB600053610C4B9361032342F8103F00234FF4B1
:10CB7000C851094802F014F9A546D4E76C4688B0BC
:10CB80006A46094BECE76C4688B06A46074BE7E714
:10CB9000E0CF040073D1040088A504001C2B012001
:10CBA00001D004001FD0040039D0040067D0040075
:10CBB0002DE9F0438FB0E84600AF88B004460D463B
:10CBC0006A46274B274E53610323966142F8103F74
:10CBD00000234FF4C851244802F0E2F8C54629F07A
:10CBE00068FE20B90221214A1F4824F064FD204B31
:10CBF00020481C6011F0F0FD044650B101210346AD
:10CC00001D4A194824F060FD20463C37BD46BDE86A
:10CC1000F0834FF00108E94688B06A4687F8008043
:10CC2000164BC2E90536032342F8103F4FF4C851B2
:10CC300003460D4802F0B4F83A46CD464146381D49
:10CC400011F038FE381D87F83480BD8511F0D8FD0D
:10CC500004460028D8D00A4A03464146D1E700BF1F
:10CC600089D004008AD1040088A50400A8D004005B
:10CC70001C2B0120E1CA0100E4D0040018D10400FB
:10CC80004CD104002DE9F8436C4600AF8AB08146D0
:10CC90006A462F4BDFF8DC80536140F20133138486
:10CCA0002C4BC2E9068042F8103F2B4D00234FF475
:10CCB00014512A482A4E02F073F8C822A5460021D2
:10CCC00028462CF0E4FF4B463246C72128461CF08C
:10CCD0004FFA8CB081466A46224BC2E90538C0F350
:10CCE0000743D36120F47F03C2E9083540F20353C0
:10CCF00013851D4B42F8103F00234FF45451174841
:10CD000002F04EF82846A546FCF79DF94FF00008C2
:10CD10002844C14500F8028C16DA4B46C821284643
:10CD2000124A21F0F5FB88B06A464FF400739383F2
:10CD30000F4BC2E9056542F8103F4FF4E2514346FC
:10CD4000064802F02DF8A5460348BD46BDE8F88325
:10CD5000B4D10400040000013B4D0120C0A4040034
:10CD600072030500D7D104000600000102D20400BE
:10CD70000300000130D2040010B5094C0A4491426E
:10CD800000D110BD11F8013B58400309E35C0001DC
:10CD9000C0B243401809205C1B01DBB25840EEE7EB
:10CDA00058D20400F0B5002421F00302184D194EAA
:10CDB000194F0244904218D1002301F0030010449F
:10CDC00082421FD112484C405843124B4FEA7040E8
:10CDD0005843124B604080EA10405843104B80EAA1
:10CDE0005030584380EA1040F0BD50F8043B6B438C
:10CDF0004FEA7343734363404FEAF34303EB830308
:10CE0000DC19D7E712F8015B45EA0323D8E700BF36
:10CE1000512D9ECC9335871B646B54E66BCAEB8512
:10CE200035AEB2C270B589B306680122304623F030
:10CE3000B9FC01460446304623F07CFCC30708D405
:10CE40001349AF22134823F0C5FEAF21104823F049
:10CE5000B8FE2146304623F083FC251829460022DF
:10CE6000304623F067FC2D1AAC4206D00849B722A1
:10CE7000084823F0AFFEB721E8E72146304623F00B
:10CE800075FC2146BDE8704023F0B1BD70BD00BF08
:10CE900068D204008BD204002DE9F8430F460668DF
:10CEA0001446B2684B1EB2F5004F34BF042108216E
:10CEB0003B4010D0C7F1000909EA0709494503F1D1
:10CEC000FF3028BF494618420CD11F46BCB9002587
:10CED0002846BDE8F8838F420FD82146BDE8F843C5
:10CEE00023F0C7BD2C492D484FF4A27223F072FEE7
:10CEF0004FF4A271284823F064FE9946E6E7B2EBAE
:10CF0000D40FE4D9E319591A104623F055FC014611
:10CF1000304623F0ABFC80460028D8D0B36809EB3C
:10CF2000C005B3F5004F34BF042308231D44354426
:10CF30007B1E1D44B5FBF7F57D43A5EB090529468E
:10CF4000304623F02FFC2C44073424F00704A41BA4
:10CF5000804507464FEAE40408D20246414630467F
:10CF600023F0BEFC4146304623F0FFFC39463046F4
:10CF700023F0F6FB3844844208D239463046224634
:10CF800023F0AEFC2146304623F0EFFC0122394667
:10CF9000304623F0EBFB9BE768D204008BD2040001
:10CFA0002DE9F74F91461F460E460468009031B9AF
:10CFB0003A46494603B0BDE8F04FFFF76DBF3FB9B1
:10CFC000FFF730FF4FF00008404603B0BDE8F08F98
:10CFD00002F1FF3A1AEA020F0AD04B494B4840F2DD
:10CFE000891223F0F7FD40F28911474823F0E9FD4B
:10CFF000D4F808B0BBEBD70FE4D9204623F0D2FB1E
:10D0000001460546204623F0ABFBBBF5004F2CBF85
:10D010000822042202EBC5022244B31A8046F91802
:10D020005846019323F0C8FB8346B9F1000F02D0A4
:10D0300016EA0A0F44D1C3450ED00FD2AB445A466C
:10D040002946204623F04CFC29460122204623F0A5
:10D050008DFB594623F0CBFCB046B5E705EB080A3B
:10D0600001225146204623F065FBC30728D45146D0
:10D07000204623F075FB4044584521D351462046B5
:10D0800023F0DDFB5146204623F06AFBABEB08089A
:10D0900040450AD905EB0B07514620463A4623F096
:10D0A0001FFC3946204623F060FC524629462046A4
:10D0B00023F03DFC01222946204623F057FBCBE715
:10D0C0003A4649460098FFF7E7FE804600283FF4BD
:10D0D00079AF2946204623F043FBA368019AB3F5B4
:10D0E000004F34BF04230823C2EBC002D21ABA4255
:10D0F000314628BF3A4640462CF0A2FD3146009802
:10D10000FFF790FE60E700BF68D204008BD20400F6
:10D11000B2F5802F2DE9F0410CD2042A20D83D49E8
:10D120004FF4F9723C4823F055FD4FF4F97139483A
:10D1300023F047FD0823D21ACC1D114424F0070424
:10D1400021F00701091B17294FEAD1060AD83149F6
:10D1500040F2FB12304823F03DFD40F2FB11E6E7C0
:10D160000423E8E70027046031463046A660E76004
:10D1700023F02BFB0121421D8046304623F01CFB8F
:10D180009200D51DED082844B0423AD8B8F1FF3FCF
:10D190003946A2F1100204F11000B8BF3A462CF053
:10D1A00076FD2A463946204623F0F8FA3B463A46B1
:10D1B0003946204623F0C9FAA6EB05082046394631
:10D1C000012223F0D3FA4246294623F0E7FA2B4600
:10D1D0003A462946204623F0B8FA3146204623F045
:10D1E000DDFA43463A463146204623F0AEFA314650
:10D1F0002046012223F0BAFA2946BDE8F04123F087
:10D20000B4BB04494FF40372034823F0E3FC4FF42A
:10D2100003718CE768D204008BD204002DE9F04F33
:10D2200091B0009302F004030293C2F3C2030133EE
:10D23000840705460E46DDF868900392059340F09A
:10D24000E081041D30B1072909D86FF01B0011B02F
:10D25000BDE8F08F01F00706341DC6F10806009BFB
:10D260004FF000084FF0040A591E4FF0FF334746B5
:10D270000193C3465346CDF810800DB1009820604D
:10D280000598002800F3D7809B48009A824203D378
:10D290009A488242C0F0CF80039AA4EB050E920711
:10D2A0004FEA9E0040F1DE804FF0000CCCE07A287F
:10D2B0005DD84B280ED8472859D829282DD825289D
:10D2C00052D054D820287AD02338D0F1000B4BEB21
:10D2D000000B74E04C382E2849D8DFE800F0704885
:10D2E000484848484848484848484B4848484848BB
:10D2F00048484859484B4B595959704B6D487048EC
:10D30000184B18484883804B48484B488000002001
:10D310004FF0000B4FF0040A38E001222A38C0B267
:10D3200002FA00F010EA0E0F49D110F0625C2FD122
:10D3300010EA020B43D06046013C5444B4FBFAF4BB
:10D340000AFB04F4002D60D0A3EB050CA444B44503
:10D350003FF67BAF002867D1042B48D159F8043B36
:10D360002360042304342AE0019A013A01924FF029
:10D37000000B24E011F8010C6C2835D1002011F8C5
:10D38000023C83466C2BC5D14FF0080A5346D3E7C5
:10D3900009F1070929F00709073424F00704F9E81F
:10D3A00002AB35B106982044B0423FF64EAFC4E917
:10D3B00000AB4FF0000B08344FF0080A534611F849
:10D3C000010F002800F0A980BBF1000F7FF46FAFC0
:10D3D0002528F4D14FF0010B019B013301934FF04D
:10D3E000040AEBE7584693E700208346A4E7082B9E
:10D3F00040F08A8009F1070929F00709B9EC027B9E
:10D4000084ED007B08230834D9E768B9042B02D1E6
:10D4100009F10409A5E7082B76D109F1070929F0DC
:10D42000070909F10809EDE705980138059059F851
:10D43000040B009021E7039A900744D54FF0010CAC
:10D44000A4EB050E4FEA9E00BEF5007F1BD32C49CE
:10D4500040F27B222B4823F0BDFB40F27B21284881
:10D4600023F0AFFB0F2F10D8002D38D007F140026A
:10D470000DEB020C019A0CF8200C0CF8102C0498FF
:10D48000013004901EE00F2F08D91D494FF420727F
:10D490001C4823F09FFB4FF42071E0E7D5B107F162
:10D4A00040020DEB020E019AC0B20EF8200C0EF8ED
:10D4B000102CBCF1000FE2D060F07F000EF8200CC1
:10D4C00008F101080137C5F108024FF6DA7E04348D
:10D4D000069274E7BCF1000F01D00136F2E7029A20
:10D4E0000236002AEED10098CDE90631FBF7ABFDFC
:10D4F000DDE906310644E5E70C9F04007C3F0500AA
:10D50000A3D204008BD204003F4940F2C5223F4819
:10D5100023F060FB40F2C521A1E7631BB3F5806FE8
:10D5200008D3394940F2D122384823F053FB40F266
:10D53000D12194E71DB9A6F10804E01887E6029A04
:10D540009B0828602B709DF81030C2B1EB7085F8F5
:10D550000280B8F1000F05D0002208A8C5F1010C27
:10D5600097420ED14FF0000AC5F101030DF12009D9
:10D5700001930DF1300B574512D1601B67E66B70BC
:10D58000E5E710F8013B190608D504EB0C0EB6458B
:10D5900003F07F033FF659AE04F8013B0132DFE7A9
:10D5A000B8F1000F03D099F90020002A17DB029B85
:10D5B000D3B11AF80B2004F8012B0022019B981814
:10D5C0002044B0423FF641AE99F80000009904F8BB
:10D5D000010B204603922CF033FB039A14440AF10A
:10D5E000010A09F10109C6E799F8002055F822302F
:10D5F0000093029B009845F82230FBF724FD421C63
:10D60000DCE76FF00D0022E6A3D204008BD2040009
:10D610002DE9F04F97B000AF89460446D7F880B0A7
:10D62000FA623B6250B9A8494FF46572A74823F0EB
:10D63000D1FA4FF46571A44823F0C3FACBF3C003C9
:10D6400090F802A0BB6141B9457800780AEB8000F0
:10D6500020444D4517D8A0EB0409E378FB61BAF1EB
:10D66000000F02D01BF0010F16D1FB6953BBFB6A00
:10D670001BB1494620463A6A98474D4628465C37D2
:10D68000BD46BDE8F08F461C3046FBF7DCFC0130A0
:10D69000304409F10109DCE7626823787A62FA6AAA
:10D6A0009900796104EB8301002A40F002810E4663
:10D6B0004FF000084D4601EB0A094E454CD101EBF5
:10D6C0000A0610E01BF0020FD1D023789A007A618D
:10D6D000626804EB83017A62FA6A002A77D14D46C8
:10D6E000904601EB0A061BF0050F0CBF0223012335
:10D6F000FB62FB6906EB430A0BF00203BB62564573
:10D70000BCD016F8021B16F8013C54F82390704B5D
:10D71000994502D36F4B994536D3BB69002B40D056
:10D72000786A23F009FA00283BD0E9468AB06A46B5
:10D73000694B53617B6AC2E906314FF4007313846D
:10D74000664B42F8103F00234FF41251644801F039
:10D7500027FB023DCD46D2E716F8013BF96254F8AB
:10D760002300FBF770FCD7F88430F96A01304BB125
:10D77000D7F8883098453EBFD7F8843023F8180092
:10D7800008F10108054498E7BB6923B1786A23F0E2
:10D79000D3F90028C9D11BF0010F05D1FB6AED1A9E
:10D7A000ADE7BB6A002BAAD04846FBF74CFCD7F884
:10D7B000843053B1D7F8883098453FBFD7F88420DC
:10D7C000431C22F8183008F10108054497E7BAF124
:10D7D000000F74D01BF0040674D0D046002607F169
:10D7E000480052463B61B9622CF02AFAB96A3B699B
:10D7F00001EB0A02BA62FA69F9695200FA60BA6A80
:10D8000002EB41023A610BF00202BA60BA6A39696E
:10D810008A4267D162781BF0020F18BF00217A623A
:10D8200008BF4FEA5801B2181BF0010FD2B240F006
:10D83000DE801BF0040F14BF40460020BB61627005
:10D84000A070E17020463A6A7969FB6A9847051E24
:10D85000FFF614AFBB69414623707B6A3A6A637076
:10D86000FB6984F802A0E37007F14800FB6A98475F
:10D87000B0F10008C0F2E9807B69A9EB0A01C91A7E
:10D88000FB683A6AC91AD7E90A0398470028C0F228
:10D89000DE804FF0000BA84408EB000507F1380AC2
:10D8A000B345C0F0A68000213A6A0846FB6A984753
:10D8B000E4E656464FF0000807F1380091E7564677
:10D8C000D04695E7B04693E7A3D204008BD204007C
:10D8D0000C9F04007C3F0500D1D20400040000012D
:10D8E000E0A40400BA6A12F8021B12F8015CBA62E2
:10D8F00054F82500574A904202D3574A904217D312
:10D90000BA693AB1786A7B6023F016F97B6800281F
:10D910007FF47CAFBA68002A49D00F2E3DD94F4919
:10D920004FF489624E4823F055F94FF4896182E63D
:10D93000BA693AB1786A7B6023F0FEF87B68002808
:10D940007FF464AF1BF0010F0AD00F2E25D9434995
:10D9500040F23E42424823F03DF940F23E416AE641
:10D960001BF0040F3FF452AFB8F10F0F08D93B4939
:10D9700040F241423A4823F02DF940F241415AE643
:10D9800008F1280207F1300008F1010102EB00085C
:10D9900008F8105C5FFA81F838E706F1280207F111
:10D9A0003000711C161806F8205CCEB22EE7B8F1D4
:10D9B0000F0F08D9294940F24B42294823F00AF9B0
:10D9C00040F24B4137E608F1280207F1300C08F12C
:10D9D0000100944407F1580208F1020852FA80F05D
:10D9E0000CF8101C5FFA88F800F8105C0EE70020B5
:10D9F00024E71BF80A3054F8239087F83730D7F81B
:10DA00008430FBB133F81B8001213A6AFB6A07F1CD
:10DA10003700984700281ADB0544B8F1000F06D1FB
:10DA20004846FBF710FB00F101081FFA88F8414651
:10DA300048463A6AFB6A9847002808DB05440BF120
:10DA4000010B2DE7D7F88480DEE7454616E605464C
:10DA500014E600BF0C9F04007C3F0500A3D2040025
:10DA60008BD20400014B1860704700BF58C70020DC
:10DA700080B505460E46174698461FF03BFB034609
:10DA80002CF03AFA0446DFF81890424649F8003084
:10DA900039463046A84754F8090002F04BFF00BF52
:10DAA00008000000032800B508D92CF025FA092247
:10DAB000074B1A504FF0FF305DF804FB2822054B4E
:10DAC00002FB0033D3E8AF3F002BEED00020F3E79A
:10DAD0000C000000282B012038B504461546FFF73E
