:020000021000EC
:10800000B8E20120EDFD0100651E040089FD0100BC
:1080100089FD010089FD010089FD010089FD010044
:10802000000000000000000000000000110002003D
:1080300089FD01000000000095FF010089FD01009D
:10804000450202004502020045020200450202000C
:1080500045020200450202004502020045020200FC
:1080600045020200450202004502020045020200EC
:1080700045020200450202004502020045020200DC
:1080800045020200450202004502020045020200CC
:1080900045020200450202004502020045020200BC
:1080A00045020200450202004502020045020200AC
:1080B000450202004502020045020200450202009C
:1080C000450202004502020045020200450202008C
:1080D000450202004502020045020200450202007C
:1080E000450202004502020045020200450202006C
:1080F000450202004502020045020200450202005C
:10810000450202004502020045020200450202004B
:10811000450202004502020045020200450202003B
:10812000450202004502020045020200450202002B
:10813000450202004502020045020200450202001B
:1081400045020200000000000000000000000000E6
:10815000000000000000000000000000000000001F
:10816000000000000000000000000000000000000F
:1081700000000000000000000000000000000000FF
:1081800000000000000000000000000000000000EF
:1081900000000000000000000000000000000000DF
:1081A00000000000000000000000000000000000CF
:1081B00000000000000000000000000000000000BF
:1081C00000000000000000000000000000000000AF
:1081D000000000000000000000000000000000009F
:1081E000000000000000000000000000000000008F
:1081F000000000000000000000000000000000007F
:10820000DEE61E284CBBCE8F025B00003C00000067
:10821000E8C70300010000000080010000800100A9
:10822000FFFF0291000000000000000000000000BD
:0C82300000000000000000000000000042
:04823C00FFFFFFFF42
:1082400081F0004102E000BF83F0004330B54FEA07
:1082500041044FEA430594EA050F08BF90EA020F74
:108260001FBF54EA000C55EA020C7FEA645C7FEA07
:10827000655C00F0E2804FEA5454D4EB5555B8BF2A
:108280006D420CDD2C4480EA020281EA030382EA9B
:10829000000083EA010180EA020281EA0303362D2D
:1082A00088BF30BD11F0004F4FEA01314FF4801C00
:1082B0004CEA113102D0404261EB410113F0004F12
:1082C0004FEA03334CEA133302D0524263EB4303C9
:1082D00094EA050F00F0A780A4F10104D5F1200E67
:1082E0000DDB02FA0EFC22FA05F2801841F10001C2
:1082F00003FA0EF2801843FA05F359410EE0A5F196
:1083000020050EF1200E012A03FA0EFC28BF4CF0C6
:10831000020C43FA05F3C01851EBE37101F000457C
:1083200007D54FF0000EDCF1000C7EEB00006EEB89
:108330000101B1F5801F1BD3B1F5001F0CD3490813
:108340005FEA30004FEA3C0C04F101044FEA44526A
:1083500012F5800F80F09A80BCF1004F08BF5FEAF1
:10836000500C50F1000041EB045141EA050130BDD1
:108370005FEA4C0C404141EB0101013C28BFB1F5E3
:10838000801FE9D291F0000F04BF01460020B1FA2E
:1083900081F308BF2033A3F10B03B3F120020CDA01
:1083A0000C3208DD02F1140CC2F10C0201FA0CF0DF
:1083B00021FA02F10CE002F11402D8BFC2F1200C44
:1083C00001FA02F120FA0CFCDCBF41EA0C019040FA
:1083D000E41AA2BF01EB0451294330BD6FEA040443
:1083E0001F3C1CDA0C340EDC04F11404C4F120022E
:1083F00020FA04F001FA02F340EA030021FA04F340
:1084000045EA030130BDC4F10C04C4F1200220FA96
:1084100002F001FA04F340EA0300294630BD21FAD4
:1084200004F0294630BD94F0000F83F4801306BF9A
:1084300081F480110134013D4EE77FEA645C18BF8E
:108440007FEA655C29D094EA050F08BF90EA020F25
:1084500005D054EA000C04BF1946104630BD91EA1D
:10846000030F1EBF0021002030BD5FEA545C05D120
:108470004000494128BF41F0004130BD14F580045F
:108480003CBF01F5801130BD01F0004545F0FE41D3
:1084900041F470014FF0000030BD7FEA645C1ABF08
:1084A000194610467FEA655C1CBF0B46024650EA3F
:1084B000013406BF52EA033591EA030F41F400216B
:1084C00030BD00BF90F0000F04BF0021704730B5F1
:1084D0004FF4806404F132044FF000054FF00001C6
:1084E00050E700BF90F0000F04BF0021704730B587
:1084F0004FF4806404F1320410F0004548BF40425C
:108500004FF000013EE700BF42004FEAE2014FEAB0
:1085100031014FEA02701FBF12F07F4393F07F4F8B
:1085200081F06051704732F07F4208BF704793F08E
:108530007F4F04BF41F40021704730B54FF46074A1
:1085400001F0004521F000411CE700BF50EA0102A4
:1085500008BF704730B54FF000050AE050EA01024D
:1085600008BF704730B511F0004502D5404261EBBD
:1085700041014FF4806404F132045FEA915C3FF4FE
:10858000D8AE4FF003025FEADC0C18BF03325FEA9B
:10859000DC0C18BF033202EBDC02C2F1200300FA4C
:1085A00003FC20FA02F001FA03FE40EA0E0021FA71
:1085B00002F11444BDE600BF70B54FF0FF0C4CF45F
:1085C000E06C1CEA11541DBF1CEA135594EA0C0F11
:1085D00095EA0C0F00F0DEF82C4481EA030621EA4C
:1085E0004C5123EA4C5350EA013518BF52EA033587
:1085F00041F4801143F4801338D0A0FB02CE4FF039
:108600000005E1FB02E506F00042E0FB03E54FF068
:108610000006E1FB03569CF0000F18BF4EF0010E60
:10862000A4F1FF04B6F5007F64F5407404D25FEA5C
:108630004E0E6D4146EB060642EAC62141EA55510F
:108640004FEAC52040EA5E504FEACE2EB4F1FD0C51
:1086500088BFBCF5E06F1ED8BEF1004F08BF5FEACF
:10866000500E50F1000041EB045170BD06F0004681
:1086700046EA010140EA020081EA0301B4EB5C042E
:10868000C2BFD4EB0C0541EA045170BD41F4801126
:108690004FF0000E013C00F3AB8014F1360FDEBF4B
:1086A000002001F0004170BDC4F10004203C35DA27
:1086B0000C341BDC04F11404C4F1200500FA05F3AA
:1086C00020FA04F001FA05F240EA020001F000424B
:1086D00021F0004110EBD37021FA04F642EB0601C1
:1086E0005EEA430E08BF20EAD37070BDC4F10C04EB
:1086F000C4F1200500FA04F320FA05F001FA04F2AF
:1087000040EA020001F0004110EBD37041F100019A
:108710005EEA430E08BF20EAD37070BDC4F12005A5
:1087200000FA05F24EEA020E20FA04F301FA05F20D
:1087300043EA020321FA04F001F0004121FA04F2B5
:1087400020EA020000EBD3705EEA430E08BF20EA85
:10875000D37070BD94F0000F0FD101F000464000BF
:1087600041EB010111F4801F08BF013CF7D041EA41
:10877000060195F0000F18BF704703F00046520045
:1087800043EB030313F4801F08BF013DF7D043EA16
:108790000603704794EA0C0F0CEA135518BF95EACC
:1087A0000C0F0CD050EA410618BF52EA4306D1D153
:1087B00081EA030101F000414FF0000070BD50EA72
:1087C000410606BF1046194652EA430619D094EAFC
:1087D0000C0F02D150EA013613D195EA0C0F05D1E6
:1087E00052EA03361CBF104619460AD181EA03013A
:1087F00001F0004141F0FE4141F470014FF00000F2
:1088000070BD41F0FE4141F4780170BD70B54FF08C
:10881000FF0C4CF4E06C1CEA11541DBF1CEA13550C
:1088200094EA0C0F95EA0C0F00F0A7F8A4EB0504EE
:1088300081EA030E52EA03354FEA013100F08880E5
:108840004FEA03334FF0805545EA131343EA1263AE
:108850004FEA022245EA111545EA10654FEA002663
:108860000EF000419D4208BF964244F1FD0404F51C
:10887000407402D25B084FEA3202B61A65EB030578
:108880005B084FEA32024FF480104FF4002CB6EB35
:10889000020E75EB030E22BFB61A754640EA0C00B5
:1088A0005B084FEA3202B6EB020E75EB030E22BFF5
:1088B000B61A754640EA5C005B084FEA3202B6EB36
:1088C000020E75EB030E22BFB61A754640EA9C00F5
:1088D0005B084FEA3202B6EB020E75EB030E22BFC5
:1088E000B61A754640EADC0055EA060E18D04FEA83
:1088F000051545EA16754FEA06164FEAC30343EA23
:1089000052734FEAC2025FEA1C1CC0D111F4801FEF
:108910000BD141EA00014FF000004FF0004CB6E7E8
:1089200011F4801F04BF01430020B4F1FD0C88BF87
:10893000BCF5E06F3FF6AFAEB5EB030C04BFB6EB92
:10894000020C5FEA500C50F1000041EB045170BD85
:108950000EF0004E4EEA113114EB5C04C2BFD4EBB2
:108960000C0541EA045170BD41F480114FF0000E36
:10897000013C90E645EA060E8DE60CEA135594EAB2
:108980000C0F08BF95EA0C0F3FF43BAF94EA0C0FB5
:108990000AD150EA01347FF434AF95EA0C0F7FF42A
:1089A00025AF104619462CE795EA0C0F06D152EA7E
:1089B00003353FF4FDAE1046194622E750EA410662
:1089C00018BF52EA43067FF4C5AE50EA41047FF473
:1089D0000DAF52EA43057FF4EBAE12E74FF0FF3CD8
:1089E00006E000BF4FF0010C02E000BF4FF0010CA9
:1089F0004DF804CD4FEA410C7FEA6C5C4FEA430C22
:108A000018BF7FEA6C5C1BD001B050EA410C0CBF70
:108A100052EA430C91EA030F02BF90EA020F0020D2
:108A2000704710F1000F91EA030F58BF994208BF39
:108A300090422CBFD8176FEAE37040F001007047F6
:108A40004FEA410C7FEA6C5C02D150EA013C07D14D
:108A50004FEA430C7FEA6C5CD6D152EA033CD3D098
:108A60005DF8040B704700BF8446104662468C4692
:108A70001946634600E000BF01B5FFF7B7FF0028C5
:108A800048BF10F1000F01BD4DF808EDFFF7F4FFEE
:108A90000CBF012000205DF808FB00BF4DF808ED79
:108AA000FFF7EAFF34BF012000205DF808FB00BF9C
:108AB0004DF808EDFFF7E0FF94BF012000205DF8BE
:108AC00008FB00BF4DF808EDFFF7CEFF94BF012073
:108AD00000205DF808FB00BF4DF808EDFFF7C4FF6C
:108AE00034BF012000205DF808FB00BF4FEA410CB5
:108AF0007FEA6C5C02D150EA013C0AD14FEA430C98
:108B00007FEA6C5C02D152EA033C02D14FF00000D4
:108B100070474FF0010070474FEA410212F5001212
:108B200015D211D56FF47873B3EB625212D94FEAB4
:108B3000C12343F0004343EA505311F0004F23FA9E
:108B400002F018BF404270474FF00000704750EAF3
:108B5000013005D111F0004008BF6FF000407047B0
:108B60004FF00000704700BF4A0011D212F500120A
:108B700011D20DD56FF47873B3EB62520ED44FEA75
:108B8000C12343F0004343EA505323FA02F07047F5
:108B90004FF00000704750EA013002D14FF0FF3033
:108BA00070474FF0000070474FEA4102B2F1E043D6
:108BB00024BFB3F5001CDCF1FE5C0DD901F0004CC4
:108BC0004FEAC0024CEA5070B2F1004F40EB830014
:108BD00008BF20F00100704711F0804F21D113F140
:108BE0003872BCBF01F00040704741F480114FEA79
:108BF0005252C2F11802C2F1200C10FA0CF320FA02
:108C000002F018BF40F001004FEAC1234FEAD3231E
:108C100003FA0CFC40EA0C0023FA02F34FEA430388
:108C2000CCE77FEA625307D150EA01331EBF4FF011
:108C3000FE4040F44000704701F0004040F0FE402C
:108C400040F40000704700BF7BB972B90029BEBF75
:108C500000204FF0004106E008BF00281CBF6FF065
:108C600000414FF0FF3000F075B8ADF1080C6DE930
:108C700004CE002909DB002B1ADB00F084F8DDF8B4
:108C800004E0DDE9022304B07047404261EB41019A
:108C9000002B1BDB00F077F8DDF804E0DDE90223B0
:108CA00004B0404261EB4101524263EB4303704721
:108CB000524263EB430300F066F8DDF804E0DDE9BF
:108CC000022304B0404261EB41017047524263EB22
:108CD000430300F058F8DDF804E0DDE9022304B0B6
:108CE000524263EB4303704753B94AB9002908BFA6
:108CF00000281CBF4FF0FF314FF0FF3000F02AB8C2
:108D0000ADF1080C6DE904CE00F03DF8DDF804E0AB
:108D1000DDE9022304B07047D0B500220B4B0646B4
:108D20000F46FFF749FCFFF71FFF0446FFF7CAFB9A
:108D30000022074BFFF740FC02460B4630463946FF
:108D4000FFF782FAFFF710FF2146D0BD0000F03D8B
:108D50000000F041704700BF38B5002200230446F0
:108D60000D46FFF79BFE28B920462946BDE838404E
:108D7000FFF7D2BF204605F10041FFF7CDFF40428B
:108D800061EB410138BD2DE9F04786468C46084627
:108D9000089E154674461946002B40F0C180854256
:108DA000B2FA82F245D94AB1C2F1200300FA02FCBC
:108DB000954094402EFA03F343EA0C0C4FEA154E0B
:108DC000A8B2230CBCFBFEF80EFB18CC08FB00F984
:108DD00043EA0C43994528D9EB1808F1FF3704D230
:108DE000994502D9A8F102072B44A3EB0903A4B2C9
:108DF000B3FBFEFC0EFB1C330CFB00F044EA034407
:108E0000A04214D92C190CF1FF3304D2A04202D98C
:108E1000ACF102032C44241A43EA07401EB1D440AB
:108E2000002334607360BDE8F0874746DDE76346A2
:108E3000F1E792BB431B01214FEA154EAFB2200C64
:108E4000B3FBFEFC0EFB1C330CFB07F840EA0343AC
:108E5000984561D9EB180CF1FF3004D2984502D93E
:108E6000ACF102002B44A3EB0803A4B2B3FBFEFC5D
:108E70000EFB1C330CFB07F744EA0344A7424DD911
:108E80002C190CF1FF3304D2A74202D9ACF1020332
:108E90002C44E41B43EA0040C0E7C2F120039540A4
:108EA000944020FA03F12EFA03F34FEA154E904056
:108EB000AFB20343B1FBFEFC0EFB1C10190C0CFB04
:108EC00007F841EA0041884522D969180CF1FF30C2
:108ED00004D2884502D9ACF102002944A1EB080173
:108EE0009BB2B1FBFEFC0EFB1C110CFB07F743EA27
:108EF00001439F420ED9EB180CF1FF3104D29F427F
:108F000002D9ACF102012B44DB1B41EA004193E79B
:108F10006046E3E76146F7E76046A4E76346B8E7E3
:108F2000834206D916B9002108467CE7C6E900E06D
:108F3000F9E7B3FA83F78FB9834201D3724508D8B2
:108F4000BEEB020460EB030301209C461EB9002126
:108F500069E73846FAE7C6E9004CF8E7C7F1200CA4
:108F6000BB400EFA07F522FA0CF42EFA0CF1BA40C7
:108F70001C4320FA0CF3B8404FEA144901431FFA8E
:108F800084FEB3FBF9F809FB18300B0C08FB0EFA52
:108F900043EA00439A4540D9E31808F1FF3004D270
:108FA0009A4502D9A8F102002344A3EB0A0389B22F
:108FB000B3FBF9F809FB183308FB0EFE41EA034145
:108FC0008E452CD9611808F1FF3304D28E4502D9A1
:108FD000A8F10203214443EA0040A1EB0E01A0FBEB
:108FE00002984145CE46434602D306D14D4504D2B0
:108FF0000138B9EB020E68EB0403002EA7D0B5EBE5
:109000000E0261EB030101FA0CFC22FA07F3F940AE
:109010004CEA0303C6E9003199E74046C5E74346F9
:10902000D9E710F8012B11F8013B012A28BF9A4219
:10903000F7D0D01A7047034611F8012B03F8012B23
:10904000002AF9D17047034613F8012B002AFBD1FF
:10905000181A0138704700002DE9F04F2DED048BF0
:109060008BB06D4802AF02F039FB4FF0FF314FF08B
:10907000FF3002F003FB00219FED680A012018F089
:10908000BDFF03216648674A27F0DFFC4FF4160056
:10909000002102F013FB002840F0AA800221624A5E
:1090A0005F4827F0D2FC18F011FC03202DF081FB63
:1090B0005E4B5F4A5F49032018F048FC4FF4616142
:1090C0005D4803F07FF800269FED519B4FF0000AAA
:1090D0004FF0000BDFF890814FF0FF324FF0FF337D
:1090E0004046CDE9002300234FF0C87224F064FE0F
:1090F000524B1B787BB1524A33460321484828F033
:1091000091FC3046FFF7EEF9741C41EC100B4D4812
:1091100002F06EFA2646384687ED009B00F0A8F86C
:1091200000286DD10123C7E906003861387546492A
:1091300007F10C0097ED008B3B7302F051F90546E7
:1091400000283AD1E94688B002AC404B52466361F0
:1091500051EC180B5B46FFF779F822460423C4E96B
:10916000060142F8103F4FF403512D482B4605F0FD
:10917000BDF82A46CD46B0EE480AF0EE680A3449FA
:1091800007F10C002DF024FC002834D0224688B0D2
:10919000304B63612C4BA3614FF40073A3832E4BC0
:1091A00042F8103F1E482B464FF4E25105F09EF85E
:1091B00007F10C00CD462DF0E4FBD7E90001524643
:1091C0005B46FFF743F86C4688B002AA234BC2E91E
:1091D00006015361042342F8103F00234FF403516A
:1091E0000F4805F083F8A546404624F043FE73E798
:1091F00003211B4A54E707F10C0002F0E9FCDCE70D
:109200000121184A064827F020FCEDE7AFF3008063
:10921000000000000000F0BFA9B401000000000041
:1092200000A1040094BC0400C9BC040061BA04009D
:109230005BBA040015BA0400E9B201003C4D0120FC
:1092400022BD040039BD04003FBD040049BD040037
:10925000C0BD040064BD0400030000019ABD040009
:1092600001BD0400AABD0400C0CB00200000000026
:109270000023F7B505461A48CDE9003327F0ECFB8B
:10928000024640B11749184827F0EAFB6FF03C044A
:10929000204603B0F0BD6A462921114827F0D9FBCA
:1092A000044610B102461149EDE70198FFF71AF99B
:1092B00009A3D3E90023FFF7A9FA064600980F4651
:1092C000FFF710F902460B4630463946FEF7BEFF5F
:1092D000C5E90001DCE700BF0000000080842E41EA
:1092E000C89D040037C30400C8A304007EC3040063
:1092F00001282DE9F041884608D030F021FC1622E3
:10930000374B1A504FF0FF30BDE8F0818A68354B7B
:109310009A42F2D82FF05BFE05460F462FF057FE1B
:10932000314CD8F80030D8F80420A3FB043604FBF5
:109330000266D8F808209B1846EBE276EA0B42EA70
:109340004742A2FB0421FF0B9B1AC0F30E0204FB51
:109350000711A2FB04244FEAD23242EA444266EBF0
:109360000101981A61F100011BA3D3E90023FFF763
:109370006BFC06460D461446EFF31187202383F35A
:109380001288BFF36F8F194824F024FA40B91849A6
:109390008822184827F0CCFD8821154827F0BFFD0A
:1093A000124824F03BFA144B1048C3E900659C6056
:1093B00024F01EFA40B90E4940F231120D4827F050
:1093C000B7FD40F23111E8E787F31188BFF36F8FE3
:1093D000002099E7AFF3008000CA9A3B000000002C
:1093E0000C000000FFC99A3B00CA9A3BA02C012048
:1093F0000CC70400ECC50400C8F700200000000002
:109400002DE9F047054699460024282386B0884672
:109410009246CDE902432AF0C0F9284602A90CF091
:10942000AFFC0746002800F0AF8083793A2B18D1B3
:10943000042303992846049405932AF0FDF928464D
:1094400004A90CF09DFC18B190F90030A34205DB93
:109450006FF01505284606B0BDE8F08728462AF0CB
:109460009CF9BB79112B58D0062B58D00020AB6843
:10947000002B4ED19FED487B022295F824308DEDD4
:10948000007B02FB03013A23A86904310CF066FC5F
:10949000044600287BD095F82420296A2AF0B3FBE3
:1094A000061E31DBA3682046DB68A36295F82C20FA
:1094B000A96A2AF0A8FB061E26DBA06895F82C10E6
:1094C0000C3007F033FCA06850F80C3F236295F88D
:1094D000241007F02BFC95F82C3007F1180184F8C4
:1094E000243095F8243084F82C303B7EFF2B03D1B8
:1094F000A06929F0A0FA0146204607F108022AF0E7
:10950000BAFF70B16FF0040620462AF0DBF835464A
:10951000A0E71A8A5B681044AAE73020AAE73C203B
:10952000A8E74146524620462AF0EFFE01460028B1
:10953000E8D1B8F1040F22D199FA89F342462046C6
:1095400004A904932AF05FFB064620462AF0DAF8C5
:109550000246002ED8D1294620462AF049FA05466F
:109560000028D1D120462AF018F93A2120462AF0C5
:10957000E5FF204628F07DFF0028C5DB6AE70422CE
:1095800020462AF021FADFE76FF0040562E76FF06A
:109590000B055FE7AFF300800080000000000000D3
:1095A0002DE9F0412DED028B1F46002386B0CDE959
:1095B000043304230D46904606460193002800F02C
:1095C000D580002900F0D280062104A82CF037FEB7
:1095D000044658B103460121694A6A482CF06DFFE0
:1095E000204606B0BDEC028BBDE8F081014604AA1E
:1095F00030462CF021FE044648B10346624A012160
:1096000060482CF05AFF04A82CF02CFEE8E76A46CC
:10961000012104A82CF0DAFE044610B103465B4A8F
:10962000EDE7009BB3B1042B1DD0052B0CBF092324
:10963000FF232B70032101AB02AA04A82CF0F4FE37
:10964000064690B10346524A01214E482CF035FFA0
:109650003446D8E7DFED4F7A0023C5ED017A2B7051
:10966000C5ED027ACFE70723E3E7019B002BF1D09A
:1096700018336B4403F8100CB8F1000F0AD14649B7
:109680004FF4BC72454827F053FC4FF4BC7142487C
:1096900027F045FC02A94046FFF7CDFC02223146E7
:1096A00002A825F05DFA2B78C0B2092B06D10F284D
:1096B00025D96FF015042346394AA0E70F28F8D8BA
:1096C000072B24D19FED378A374B33F81000E0B1D8
:1096D000FEF708FF28A3D3E90023FEF76DFFFFF78D
:1096E00063FA042168600DEB010302AA04A801914A
:1096F0002CF09AFE064668B103462C4AA4E72C4B90
:109700009FED2C8A33F81000E1E72B48E9E76FF072
:109710007F04D0E7019B18336B4403F8100C47B962
:109720001D4940F299121D4827F002FC40F29911A0
:10973000ADE702A93846FFF77EFC0222314602A8B7
:1097400025F00EFAC3B20F2B07D901211B4A0D4891
:109750002CF0B3FE6FF0150455E70133DBB207EED2
:10976000903AF8EEE77A67EE887A79E76FF01504B9
:1097700036E700BFAFF300807B14AE47E17A2440A8
:10978000DFEE040000A2040008EF040031EF040043
:1097900053EF0400000000007FEF0400ECC504005C
:1097A000B5EF04000AD7A33F14B80400D9EF0400B2
:1097B000F4B704000AD723400AD7A34004F00400FA
:1097C0002DE9F04F8DB081468B461F46039253B969
:1097D000654966484FF4E97227F0AAFB4FF4E97136
:1097E000614827F09CFB831F012B00F2B4801DF021
:1097F0000BFE5F4906462DF0FFFE5E4982462DF0C6
:10980000FBFE5D4904462DF0F7FE5C490546204607
:109810002DF0F2FE804605B140B930461DF024FD22
:109820006FF00B0528460DB0BDE8F08FB9F1060FBB
:1098300035D1534A28464E492CF0E2FE5149814623
:1098400028462CF0F8FE5049814420462CF0F3FEC7
:109850004E49814440462CF0EEFE4D498144284655
:109860002CF0E9FE4B4909EB000520462CF0E3FE05
:109870004949054420462CF0DEFE05443046002DC3
:10988000CCD12DF0E3FD044630461DF0EDFC002C5C
:10989000C6D020467C60FFF7D6FB3860C2E70023C5
:1098A0003E4A28463249CDE90A332CF0A9FE9FED05
:1098B0002C0B8146354940462CF0B0FE314909EB6E
:1098C000000828462DF098FE002308AA8146009241
:1098D00004A91A4606A819F057FE099A2A492046F3
:1098E0002CF08EFE079A2E4908EB000548462CF016
:1098F00087FE059A05442B4948462CF081FE054415
:10990000BBF1000F0ED0284950462DF075FE1A49C4
:109910002DF072FE1B492DF06FFE059A21492CF0A7
:109920006FFE054418F0D4FB8DF8280018F09EF85F
:109930000AA90B90204616F009FB039B002B9DD033
:109940001A4B2046196817F06BF8002896D0133090
:109950007FF463AF92E76FF0850563E7AFF30080B4
:109960000000000000C092400B090500ECC5040097
:1099700075C404006CC40400890B05002828050088
:10998000470C0500910B05006E0B05004D0E050000
:10999000D6040500570E0500650E0500980B05005E
:1099A0009F0B0500EF0A0500410D0500F439012069
:1099B0002DE9F04F2DED028B044600259FEDA28B83
:1099C00087B002AF4FF0FF324FF0FF3304F688202C
:1099D00022F076F804F580564FF0FF324FF0FF3357
:1099E00020462DF01DFA96F8A68A20462DF01AFA88
:1099F000B8F1010F09D120461BF0A4F90028E1D1EC
:109A0000022120462DF024FA4546DFF864929FE1BA
:109A1000D4F85439062B02D0B3F5817F05D1204606
:109A20001BF0AEFC002840F0A48140F6FB0A4FF08A
:109A3000000BD4F82C39534536D98549854840F276
:109A4000533227F075FA40F25331814827F067FA14
:109A500020461BF04BFA002840F0928120462DF062
:109A60000EFA002840F07E81454620462DF007FA88
:109A700040B196F8A53A002B00F0848104212046DD
:109A80002DF0E6F94FF0FF324FF0FF3320462DF076
:109A9000C7F996F8A66A20462DF0C4F9042E91D194
:109AA00020461BF013F98DE7D4F85439062B02D069
:109AB000B3F5817F72D16069421C00F0618187ED4E
:109AC000008BC7F808B010231422009301213B46F5
:109AD00008F0EAFB0346002837D030F031F85E4B3F
:109AE00002211B585D4A5E482DF096F963690133E7
:109AF00000F04681D4F82C39C3B930F021F8DFF8F2
:109B000058A15AF80030742B4ED14FF0FF33204645
:109B10004FF0FF322DF084F9D4F85439204623F465
:109B20008073112B44D12DF07DF997E794F85839C3
:109B3000002BE2D020461AF059FF0028DDD0032187
:109B4000484A47482DF06AF91AE16069D4F82C595F
:109B5000C5F50F6204F13001CDE9003329440C3220
:109B600008F0F6F8431C012B054646D8636901331B
:109B700000F00681D4F82C393BB194F8583923B160
:109B800020461AF033FF0028D9D10135B5D04A4616
:109B9000022133482DF042F9682515E00121324AAF
:109BA0002F482DF03BF9A1E70B2BAED0682502E042
:109BB0002DF038F974252FF0C3FF01215AF8003039
:109BC0002A4A27482DF028F9294620461AF0EAFEAD
:109BD000002840F0D5804FF0FF324FF0FF33204691
:109BE0002DF01EF920461BF081F9054620462DF088
:109BF00019F9002D3FF432AFC2E0D4F85439062BE6
:109C000002D0B3F5817F1BD1294620461BF022FCF0
:109C1000051E0FDD94F858392BB140F6FB03D4F83C
:109C20002C299A4226D820462DF029F900287FF4C5
:109C300000AFA5E01ED0694220461AF0B3FE9FE0B7
:109C40006FF04C05F7E700BF1E00000000000000A9
:109C50000E260500ECC504000C0000005828050085
:109C600078A104008F2805007F280500B32805008F
:109C7000CD280500D4F83019D4F83439002936D06D
:109C8000EA468AB002AA4048D161C2E905036420CD
:109C90004343B3FBF1F31362052342F8103F002363
:109CA0004FF42351394804F021FBD54620461AF0E1
:109CB0009DFE30B10321364A34482DF0AFF84FF005
:109CC000FF35D4F83429D4F830399A4215D103211C
:109CD000304A2E482DF0A2F80023C7E90033BB60BC
:109CE000022338463B70D6F8A03A984748E0032153
:109CF000294A26482DF090F8D8E7D4F8542994F84A
:109D00005939062A02D0B2F5817F18D1002B3FF4D1
:109D1000A5AE00234FF0FF32204684F859394FF0AA
:109D2000FF332DF07DF820461BF0E0F80546204675
:109D30002DF078F8002D3FF491AE75217CE713B13A
:109D40000135E6D11CE06B1C1AD0B5FA85F56D091A
:109D500020462DF094F8804600283FF486AE002D72
:109D60003FF463AE0023C4F82C396369002BBFF6BF
:109D70004FAE682120461AF015FE00283FF468AE69
:109D8000002572E603217AE6E528050078A10400A3
:109D90008F2805007F1E0500032905000000000034
:109DA0002DE9F04706460C4692B0002900F0BF802E
:109DB0000F68002F00F0BB808D68D1F8048005F19A
:109DC0000409C1450AD80422AD4978192FF07EFA5A
:109DD000A8B90423F360A36804331DE06B1D984504
:109DE00010D2454580F0A3807B5D7819222B24D1C9
:109DF0002146304612B0BDE8F0471CF009BE6B1D8D
:109E000098450ED305229F4978192FF05FFA30B993
:109E10000123F360A36805330120A36088E0C145F6
:109E2000DFD80422984978192FF050FA0028D8D1A9
:109E30000223F36001237361CDE72D2B03D0A3F13F
:109E40003002092A55D800230DF1080C67464FF05F
:109E5000010EA8EB0505DFF83882019310F8012BFD
:109E6000452A3ED82A2A10D9A2F12B01C9B20EFAEE
:109E700001F111EA080F01D12E2A06D101333F2B3F
:109E80000CF8012B01D0AB42E8D1002548336B44DC
:109E9000384601A903F8405C00F04AF9DDF804A057
:109EA00059EC108BBA4542D073A3D3E90023404646
:109EB0004946FEF707FEB0B9002240464946734BBB
:109EC000FEF7F6FD90B940464946FEF725FE082309
:109ED000C6E906897061F360A368AAEB070A5344D8
:109EE0009AE7652AC9E76FF00040F0E74FF00040BD
:109EF000EDE75B2B58D1D4F80C90B9F57A7F16D2E8
:109F000009F10103E3607B5D5B2B10D10135204635
:109F1000A5602DF0C7F9A368984506D9FA5C5D2ABB
:109F200009D10027C4F80C9036E0013BA360002063
:109F300012B0BDE8F08700252F46013BA3602069E1
:109F40002DF064FAA8460546002800F0A5804FB31E
:109F5000C8F80000C0F80480A36820460133A3605D
:109F60002DF0A0F921462846FFF71AFF002800F03F
:109F7000938020462DF096F9D4E90123934280F096
:109F80008E802268D35C2C2BD9D05D2B40F087804B
:109F9000E368013BE3607D602023C6E90273A368A8
:109FA000013339E70746D7E77B2BC0D1D4F80C90B3
:109FB000B9F57A7FBBD209F10103E3607B5D7B2BAE
:109FC000B5D101352046A5602DF06CF9A368984500
:109FD000ABD9FA5C7D2A03D10027C4F80C9047E086
:109FE00000252F46A846013BA36020692DF00EFAFC
:109FF000A946054600284FD0002F4BD0C9F80000D5
:10A00000C0F80490A36820460133A3602DF04AF9FC
:10A01000214628461CF0FCFC00283DD020462DF0AF
:10A0200041F92B69C5F810802B62D4E901239342D2
:10A0300032D22268D25C3A2A2ED101332046A36064
:10A040002DF030F921462846FFF7AAFE20B320461E
:10A050002DF028F9D4E90123934220D22268D35C61
:10A060002C2BC2D07D2B1AD1E368013BE3607D60CD
:10A07000402392E7AFF300800000C0FFFFFFDF4105
:10A080001E360500353605003B3605000000E0C1F0
:10A09000E57F00040746B5E7002F3FF448AF384698
:10A0A0001DF0E2F843E700BFD0B5174B57EC106B3B
:10A0B00018682DF0ABF9044670B10823C0E90667B3
:10A0C000C36039460EA3D3E900233046FEF7FAFCFD
:10A0D00020B16FF0004363612046D0BD00223046BE
:10A0E00039460A4BFEF7E4FC10B14FF00043F2E7AB
:10A0F00030463946FEF710FD6061EDE7AFF30080B2
:10A100000000C0FFFFFFDF412CC900200000E0C1BC
:10A1100008B502462DF097FA10B192ED060B08BD76
:10A120009FED010BFBE700BF000000000000F87F7F
:10A130002DE9F84F8146884600232DED028B19F852
:10A1400003605A1C202E00F07A81A6F1090104292F
:10A1500040F275812B2E154632D02D2E35D0042499
:10A1600046F02003692B4DD06E2B5DD000224FF0BE
:10A170000A0A944613461046114614F4006E59D04C
:10A1800046F02007A7F1610BBBF1050F52D8573FEE
:10A19000FFB2BA4553DC46F0200604F08007782E63
:10A1A00040F0DC80002F00F0D98050EA010A40F036
:10A1B000D58044F4006E4FF0100A1FFA8EFE4DE079
:10A1C000042419F802609D1CCAE74424F9E719F831
:10A1D0000520681C42F020028A4229D0A24A9342FC
:10A1E00017D000259FED9A8BB8F1000F02D04D4497
:10A1F000C8F80050B0EE480AF0EE680ABDEC028BD9
:10A20000BDE8F88F9FED948B984B13F8011B002944
:10A21000DDD16306E8D518EE901A18EE102A01F188
:10A22000004343EC182BDFE79FED8D8B904BECE761
:10A230000546EAE7A6F13007FFB257452DDA44F0AC
:10A24000800E14F4807F04F400761FFA8EFE0AD08C
:10A25000002F18BF43F0010306B9013219F8056059
:10A260007446013589E706B1013AAAFB00060AFBEC
:10A270000161381841F1000150EA0106EED0BAF14F
:10A280000A0F0CF1010C0CBF10260F26B445E5DDBA
:10A2900044F4C07E1FFA8EFEE0E7FE2F7FF47BAF12
:10A2A000A70558D514F080069BD050EA010605F1A9
:10A2B000FF3500F0C180260540F1A9803632B1F5A6
:10A2C000800FC0F088806B4FB1F5000F80F0888060
:10A2D000BA42C0F285800343084603F00306032E0A
:10A2E00004D003F00606062E40F08380043341F1CB
:10A2F0000000B0F5000F7CD30132B2F5806F80F220
:10A30000988000234FF4801102F2FF3221F4801173
:10A310001E4641EA025747EC186BB0EE480AF0EED1
:10A32000680A26F0FBFA0138022804D8524B222290
:10A330002FF006FC1A50B0EE480AF0EE680A26F03C
:10A34000EDFA013802283FF664AF4B4B22222FF082
:10A35000F7FB1A505DE744F4007E9BE71FFA87FA8B
:10A36000002F6ED0BEF1000F0CBF65277027BE42D4
:10A370009BD119F805606F1C2B2E04D02D2E24D1F3
:10A3800044F48064A4B219F80760A6F13007092FDD
:10A390008BD8AF1C3D4640F2D34A00274FF00A0B42
:10A3A0005745DCBF303E0BFB076719F805600135E8
:10A3B000A6F1300EBEF1090FF2D9660548BF7F4203
:10A3C000260548BF92003A446FE7A6F1300EBEF171
:10A3D000090FDFD969E7001802F1FF3249416EE742
:10A3E000460800F00100013246EAC17649083043D0
:10A3F0006AE7B2F5806F1CDA9B08B0F5800F4FEA70
:10A40000900143EA8073BFF47FAF002280E70CEB3A
:10A41000020313F5A27F09DDB3F59B7F09DA00F093
:10A420002FF8B0EE408AF0EE608A84E79FED088B4B
:10A4300081E79FED098B7EE79FED058BE9E61346EB
:10A440007DE69FED038B5546CEE600BFAFF300805F
:10A450000000000000000000000000000000F07F8D
:10A46000000000000000F87F3A3C0500373C050082
:10A47000343C050002FCFFFF0C000000000000005F
:10A480002DE9FF47804616460F46002900F0A280BE
:10A49000B1FA81F4341B002E04F10A04C0F2A28048
:10A4A000304626F01DF80444304626F01FF8A4EB91
:10A4B000060905466946304626F040F8A9EB050333
:10A4C0006A4640467D3339462EF0E0FFA64282467A
:10A4D0000D4600F38380B9F13F0F00F381804FF008
:10A4E000FF33A9F12000C9F1200103FA00F003FABB
:10A4F00009F223FA01F103FA09F3024328EA0303FC
:10A500000A4327EA020213430CBF01200020002D5A
:10A5100000F08A80B5FA85F3E31A40F2FE7203F286
:10A520003E43934200F38980002B23EAE376D4BFB5
:10A5300001223246121BA2F23341A2F23447A2F2A8
:10A540005344C1F1200C2AFA01F325FA04F4C7F1AF
:10A55000200E05FA0CFC25FA01F105FA0EFE43EA7D
:10A560000C03A2F2544CA2F2544223432AFA07F4F9
:10A5700025FA0CFC44EA0E0444EA0C04C7F1200C52
:10A5800014F0010F54D0A8B14FF0FF3000FA02F2DE
:10A5900000FA07F4144320FA0CF2B840144303F015
:10A5A00001022AEA000A25EA04054AEA020A5AEAEE
:10A5B000050A3DD0013341F10002C2F3130253EA10
:10A5C000020138D0184642EA065141EC100B04B0A3
:10A5D000BDE8F087B0FA80F420345BE7012096E70D
:10A5E000002094E7C6F10009484625F07FFF241AB1
:10A5F000484625F07BFFA61B0546694648462E4483
:10A6000026F00EF86A46404606F17C0339462EF0E5
:10A610003DFF82460D464046394625F077FF81458D
:10A620008CBF0020012072E7BAFA8AF3203373E767
:10A63000C1F31302C6E70136C4E79FED010BC6E77D
:10A64000000000000000F07F2DE9FF4755EC104BA3
:10A6500025F00042B049EE0F8A4236D9AF498A420E
:10A6600018D82046294696A3D3E90023FEF734FAEA
:10A67000074620BB2046294693A3D3E90023FEF7D3
:10A680000DFA002800F0A280384604B0BDE8F0477B
:10A6900000F006BBC5F313032246234307D02B4625
:10A6A00020462946FDF7D2FD04460D4602E0002E65
:10A6B00040F0038145EC104B04B0BDE8F08700206A
:10A6C00004B0BDE8F04700F0FBBA954B9A4240F267
:10A6D000A980944B9A4279D8934B20462946F7009B
:10A6E00003EBC603C6F1010AD3E90023FDF7ACFD75
:10A6F0008E4B804689463B44AAEB060A93ED007BCD
:10A700008DED007BDDE9002340464946FDF79CFDC9
:10A7100004460D4622462B4620462946FDF74CFFAF
:10A7200006460F466AA3D3E90023FDF745FF6AA357
:10A73000D3E90023FDF788FD32463B46FDF73CFF99
:10A7400067A3D3E90023FDF781FD32463B46FDF7C1
:10A7500033FF65A3D3E90023FDF776FD32463B4680
:10A76000FDF72AFF62A3D3E90023FDF76FFD324610
:10A770003B46FDF721FF02460B4620462946FDF7E2
:10A7800063FD02460B4606460F4620462946FDF766
:10A7900013FFCDE90201BAF1000F5CD100224FF0A6
:10A7A000804330463946FDF74FFD02460B46DDE952
:10A7B0000201FEF72BF822462B46FDF745FD024627
:10A7C0000B4600205A49FDF73FFD6DE7594B2046E7
:10A7D000294603EBC60648A3D3E90023FDF7ECFEA8
:10A7E000D6E90023FDF732FDFEF796F98246FDF724
:10A7F00079FE06460F4642A3D3E90023FDF7DCFEAF
:10A8000002460B4620462946FDF71EFD8046894636
:10A81000304639463CA3D3E90023FDF7CDFECDE910
:10A8200000016FE7444B9A4210D82046294638A3CE
:10A83000D3E90023FDF70AFD00223D4BFEF74CF95A
:10A8400038B100223A4B204629462BE74FF0000A48
:10A8500060E782465EE732463B4600204FF080418B
:10A86000FDF7F2FC02460B46DDE90201FDF7CEFFE3
:10A8700002460B46DDE90001FDF7E6FC42464B4689
:10A88000FDF7E2FC0B46024629490020FDF7DCFCFF
:10A890000B466FF47F7106468A4503DB344603EBB3
:10A8A0000A5507E70AF57A7A3046002203EB0A5187
:10A8B0004FF0B873FDF780FEF6E600240025F9E6B8
:10A8C000EF39FAFE422E864051302DD5104987C00F
:10A8D000D0A4BE726937663EF16BD2C541BDBB3EA6
:10A8E0002CDE25AF6A56113F93BDBE166CC1663F84
:10A8F0003E5555555555C53FFE822B654715F73FCB
:10A900000000E0FE422EE63F763C7935EF39EA3D25
:10A910009C7500883CE4377E412E8640FFFFEF7F28
:10A92000422ED63FB1A2F03F28A7040018A704008A
:10A930000000F03F38A70400FFFFEF3D00000000DB
:10A9400051EC100BB1F5801F2DE9F04F0D4687B08B
:10A9500023DA21F00043034305D1012007B0BDE80D
:10A96000F04F00F0BDB9002904DA07B0BDE8F04FA0
:10A9700000F0C6B9C64B0022FDF71EFE6FF035038E
:10A980000D46C44A95420ADD02460B46FDF75EFCC1
:10A9900041EC100B07B0BDE8F08F0023F1E72C1558
:10A9A000C5F31305A4F2FF341C4405F5152303F683
:10A9B000647303F4801383F07F5204EB1354B64B9B
:10A9C00082F4401242EA05010022FDF73DFCAB1C77
:10A9D00082468B46C3F313030022022B53DC002371
:10A9E000FEF752F8D0B1002C00F020812046FDF790
:10A9F00079FD06460F4690A3D3E90023FDF7DCFD61
:10AA000004460D46304639468DA3D3E90023FDF7B1
:10AA1000D3FD02460B4620462946B7E78AA3D3E971
:10AA2000002350465946FDF7C7FD02460B4600205D
:10AA30009A49FDF709FC06460F4652465B465046CA
:10AA40005946FDF7B9FD02460B4630463946FDF73B
:10AA5000B3FD06460F4614B932463B46A0E02046F9
:10AA6000FDF740FD8046894673A3D3E90023FDF737
:10AA7000A3FD04460D464046494671A3D3E9002391
:10AA8000FDF79AFDA5E04FF08043A5F5C226FDF73E
:10AA9000DDFB02460B4650465946C5F5D725FDF766
:10AAA000B5FEA6F27A465135CDE900012046354380
:10AAB000FDF718FDDDE90023CDE902011046194636
:10AAC000FDF77AFD02460B46CDE90423FDF774FD40
:10AAD000804689465EA3D3E90023FDF76DFD5EA3A2
:10AAE000D3E90023FDF7B2FB42464B46FDF764FD78
:10AAF0005BA3D3E90023FDF7A9FB42464B46FDF7D4
:10AB00005BFD59A3D3E90023FDF7A0FBDDE9042396
:10AB1000FDF752FD56A3D3E90023CDE904014046D9
:10AB20004946FDF749FD54A3D3E90023FDF78EFB09
:10AB300042464B46FDF740FD51A3D3E90023FDF704
:10AB400085FB42464B46FDF737FD02460B46DDE9E5
:10AB50000401FDF77BFB002D8046894648DD00227D
:10AB60004E4B50465946FDF727FD52465B46FDF7D2
:10AB700023FD02460B4606460F4640464946FDF772
:10AB800065FBDDE90023FDF717FD8046894664B9C2
:10AB900002460B4630463946FDF756FB02460B4649
:10ABA00050465946FDF750FBF2E623A3D3E90023B4
:10ABB000DDE90201FDF700FD04460D4620A3D3E9BF
:10ABC0000023DDE90201FDF7F7FC42464B46FDF7A5
:10ABD0003DFB02460B4630463946FDF735FB5246F3
:10ABE0005B46FDF731FB02460B4620462946D9E776
:10ABF00002460B4650465946FDF726FBDDE9002389
:10AC0000FDF7DAFC06460F46002C3FF425AF0AA3F9
:10AC1000D3E90023DDE90201FDF7CEFC04460D4631
:10AC200007A3D3E90023DDE9020129E79FED160B15
:10AC3000B0E600BFAFF300800000E0FE422EE63F2A
:10AC4000763C7935EF39EA3D555555555555D53F43
:10AC500044523EDF12F1C23FDE03CB966446C73F4B
:10AC6000599322942449D23F935555555555E53F64
:10AC70009FC678D0099AC33FAF788E1DC571CC3F6F
:10AC800004FA97999999D93F00000000000000004C
:10AC900000005043FFFFEF7F0000F03F0000E03F67
:10ACA00010B19FED030B70479FED030B704700BF82
:10ACB0000000000000000080000000000000000014
:10ACC00010B19FED030B70479FED030B704700BF62
:10ACD000000000000000F0FF000000000000F07F16
:10ACE00010B19FED030B70479FED030B704700BF42
:10ACF000000000000000F0FF000000000000F07FF6
:10AD000008B525F00BFE9FED020B08BDAFF30080E8
:10AD1000000000000000F87F70B50F4B18682AF0A3
:10AD20009BF8002816DD4FF47A734FF4004503FBBF
:10AD300000F4002140F2E7304FF47A720023E4FB84
:10AD40000501FDF7D1FFBDE8704002460B46034800
:10AD500021F056BB70BD00BFD02A012080C5002065
:10AD600002460249024825F034BE00BF4AB804003A
:10AD700088A3040010B5152011F024FE044630B15C
:10AD800002460449044825F024FE204610BDFFF782
:10AD9000C3FFFAE763B8040088A3040010B50748AE
:10ADA00021F034FB142011F00DFE044620B10246C0
:10ADB0000349044825F00DFE204610BD80C5002043
:10ADC00063B8040088A3040010B5064C0648216847
:10ADD00025F0FBFD206809F083F8BDE81040002055
:10ADE000FFF7DCBFD02A0120020007D210B50020F7
:10ADF000FFF7D4FF084C024638B10849084825F04F
:10AE0000E8FD2168074825F0E0FD21680648BDE817
:10AE1000104025F0DABD00BFD02A012083B804001D
:10AE200088A30400020007D2010007D210B51E4B10
:10AE30001A78A2B15A7892B1A8B918701B4C5970FF
:10AE4000206809F04DF82DF04FFF70B10021206807
:10AE500029F0A9FFC0B1BDE81040FFF75DBF28B9D8
:10AE60001870597001E00029E8D010BD01221A7055
:10AE70000029F6D05A700D4B186809F053F8BDE858
:10AE800010400B4821F0C2BAFFF788FF02460028A5
:10AE9000EBD00849084825F09CFD21680748BDE82B
:10AEA000104025F092BD00BF3A4D0120D02A01206C
:10AEB00080C5002083B8040088A30400020007D2E4
:10AEC0000221024A024826F0A4BD00BFA4B8040033
:10AED00088A3040010B504464FF0FF324FF0FF3353
:10AEE000074820F071FB074B5A78A24203D0214655
:10AEF0001878FFF79BFFBDE81040014820F01ABC0E
:10AF0000D4CC00203A4D012010B50446006808F06A
:10AF1000E7FF0121204625F076FD0021204625F09F
:10AF200072FD00230B4823612BF00FFB024648B152
:10AF300009490A4825F04DFD21680948BDE810403F
:10AF400025F043BD074811F03FFB2268064B1A600D
:10AF500010BD00BF09B0010007B9040088A30400B8
:10AF6000020007D2DD090400D02A012010B50446F2
:10AF70004FF0FF324FF0FF33074820F025FB074B1F
:10AF80001A78A24203D020465978FFF74FFFBDE858
:10AF90001040014820F0CEBBD4CC00203A4D012017
:10AFA00008B5094B186800F065F9024638B1074941
:10AFB000074825F00EFDBDE80840FFF705BFBDE8D6
:10AFC0000840FFF7D3BF00BFD02A012029B90400F1
:10AFD00088A3040008B5094B186800F0CBF80246B6
:10AFE00038B10749074825F0F4FCBDE80840FFF7F1
:10AFF000EBBEBDE80840FFF7D3BF00BFD02A012059
:10B0000045B9040088A30400084608B5052936D8C8
:10B01000DFE801F0390320242D201B4B186800F0D5
:10B020004FF810F13D0F024606D1BDE8084002215D
:10B03000164A174826F0EDBC38B11649144825F0D9
:10B04000C8FCBDE80840FFF7BFBE0120BDE80840CE
:10B05000FFF78CBFBDE80840FFF7BCBF0A4B18687C
:10B0600000F09EF802460028EFD00B49E6E7064BB9
:10B07000186800F0FFF8024628B10849DEE7BDE88D
:10B080000840FFF76DBE08BDD02A012061B9040059
:10B0900088A3040086B904009FB9040029B90400FC
:10B0A00010B5054C0548216825F08FFC2068BDE8E7
:10B0B000104008F015BF00BFD02A0120020007D2BF
:10B0C00070B500240646A2B01822214608A8CDE992
:10B0D0000044CDE902442EF0FFFB002E3DD0242297
:10B0E00021460FA80E942EF0F7FB2422214619A822
:10B0F00018942EF0F1FB1C491C4818AB0EAA1EF048
:10B10000ABFAA04203DC6FF00D0022B070BD01204D
:10B1100004AA0EA927F027F90128054602D06FF0EE
:10B120003C00F2E70EA96846FDF785FF6846FDF78B
:10B130008AFF08AA0146684627F07AFF0028E2D075
:10B1400023460322304609A908F064F940B1084BB0
:10B15000099A20461A601D71D7E76FF01500D4E7F1
:10B160006FF01200D1E700BFCCB90400F9B90400B8
:10B17000D42A012010B550B1084C23792BB12146B7
:10B1800008F084FB30B100232371002010BD6FF064
:10B190001500FBE76FF00D00F8E700BFD42A01208F
:10B1A00070B500240546A8B0242221460BA80A94B5
:10B1B0002EF092FB1822214604A82EF08DFB002DC4
:10B1C0004CD02146242215A814942EF085FB21464C
:10B1D00024221FA81E942EF07FFB234923481EAB78
:10B1E00014AA1EF039FA041E35DD02206A4614A99D
:10B1F00027F0B9F801281FD114A90AA8FDF71BFFF1
:10B200000AA8FDF720FF04AA01460AA827F010FFAC
:10B2100008B305AC002303222146284607F06AFD47
:10B22000F8B194E80F00124E06F1080585E80F000A
:10B230000123002033760CE0012C08D002206A465E
:10B240001EA927F090F8012801D11EA9D5E76FF0BB
:10B250003C0028B070BD6FF00D00FAE76FF01500EC
:10B26000F7E76FF01200F4E7CCB90400F9B9040075
:10B27000D42A012010B558B1084C237E33B104F113
:10B28000080108F0D7F930B100232376002010BD63
:10B290006FF01500FBE76FF00D00F8E7D42A0120EE
:10B2A00080B500AF8AB06A46094B5361094B936180
:10B2B000094BD361094B1362094B42F8103F00233D
:10B2C0004FF42351074803F011F80020BD4680BD1C
:10B2D00015BA04005BBA040061BA0400000201035D
:10B2E0000400000208A204002DE9F04F97B00646C2
:10B2F000D0E9020100AF00220023FCF7A7FF0022E3
:10B30000002380468946D6E90401FCF79FFF0446E6
:10B31000B0690D46FDF7F8F800220023FCF796FF10
:10B32000824670788B4613F095FCC7F804D08EB037
:10B330006A46274BC2E90689536140F603039386A8
:10B34000244BC2E90845C2E90AAB106342F8103F3A
:10B35000002344F6C041204802F0C8FF7378D7F8B4
:10B3600004D0022B2FD103211C4A1B4825F06DFB72
:10B370007378022B27D13822002107F120002EF00C
:10B38000ABFAD6E90201012387F820303B73002392
:10B39000B269C7E90C01D6E90401C7E90E0107F15A
:10B3A0002800C7E906333A643B613B7513F070F837
:10B3B00007F1200107F10C0016F050FC18B907F155
:10B3C0000C0000F005FC5C37BD46BDE8F08F00BF07
:10B3D00097BA04000900000100A10400D8BA0400D3
:10B3E0002DE9F04782B000AF06463846884613F094
:10B3F0004FF8054660B101210346244A244826F04F
:10B4000011FB6FF03D0420460837BD46BDE8F087CC
:10B41000DFF890A041465246304616F091FB0446B4
:10B42000A0B16E468AB06A461A4BC2F81CA0C2E9A7
:10B430000538194B1362194B42F8103F4FF4215154
:10B440002B46134802F052FFB546DCE73046D7E9F9
:10B45000002316F0D9FB04460028D4D0E9468AB070
:10B460006A460F4BC2F81CA0C2E905380A4B1362AA
:10B470000A4B42F8103F4FF421512B46044802F08A
:10B4800035FF3046CD462BF07CFABCE706BB040006
:10B4900000A104002EBB040000020103040000020E
:10B4A00069BB0400F8D3040010B586B0014601A8BA
:10B4B0002BF089F9E8B9244A244901A816F000FBC9
:10B4C000002830D16A46224901A82BF0BAF908B108
:10B4D000204B0093009800F0B3FE0023044601A81F
:10B4E00000932BF04EFA30B11B4A01211B4825F086
:10B4F000ACFA06B010BD01A82BF00EFA08B1184A3C
:10B50000F3E7124901A8FFF76BFF03460028F0D1CB
:10B5100022460F4901A82BF09FFA40B10121114AA0
:10B520000E4825F092FA01A82BF02BFAE1E701A8CA
:10B5300000F04EFB03460028DBD001210A4A0748F1
:10B5400026F070FAD5E700BFAFBB0400B3BB040020
:10B55000C0BD0400152A0500B9BB040000A1040009
:10B56000D7BB04000FBC04004BBC040070B52DED2C
:10B57000028B82B004466846B0EE408AF0EE608AE4
:10B5800012F086FF034690B10121154A154826F0B6
:10B5900049FA2DF01CFD4FF47A75A0FB053205FB2E
:10B5A0000122DB0B43EA4243D20BCDE900323022C9
:10B5B0000D4E0E4B3568214602FB053320221846FE
:10B5C0002DF096FE0346013580ED088BDDE9000184
:10B5D0003560C3E90A0102B0BDEC028B70BD00BF4B
:10B5E00006BB040000A10400F02A0120F0D30020D3
:10B5F000054B1B68632B01D8FFF7B8BF0121034A35
:10B60000034825F022BA00BFF02A01207DBC0400C7
:10B6100000A10400014B1870704700BF3C4D012091
:10B62000014B1878704700BF3C4D0120014601488E
:10B630002DF0D5BD5CCF002008B52AF09EFF20B1CB
:10B64000BDE808401020FFF7F1BF1021BDE8084019
:10B6500001482DF0CBBD00BF5CCF002007B5002214
:10B66000CDE90001012104482DF0C4FD003818BFC8
:10B67000012003B05DF804FB5CCF002007B5002279
:10B68000CDE90001042104482DF0B4FD003818BFB5
:10B69000012003B05DF804FB5CCF002007B5002259
:10B6A000CDE90001082104482DF0A4FD003818BFA1
:10B6B000012003B05DF804FB5CCF002007B5002239
:10B6C000CDE90001102104482DF094FD003818BF89
:10B6D000012003B05DF804FB5CCF0020014B186033
:10B6E000704700BF082B012008B5174820F08EFED8
:10B6F000062116482DF07AFD0022154BD3E8EF1FE6
:10B70000C3E8E02F0028F9D10321124A124825F09E
:10B710009EF916F0ADFE10F10D0F034608D010F1A2
:10B72000800F05D048B101210C4A0B4826F07AF968
:10B73000BDE808400820FFF779BF0321084A064802
:10B7400025F085F9F4E700BFB0C500205CCF0020EC
:10B750000C2B0120D1BD040038A10400EEBD040073
:10B760002EBE040008B50321034A044825F06FF9F2
:10B77000BDE80840FFF7B8BF57BE040038A1040079
:10B7800008B50321054A064825F061F9012105485D
:10B790002DF02CFDBDE80840FFF7A6BFA8BE0400B1
:10B7A00038A104005CCF002008B50D4B99420ED1A2
:10B7B00003210C4A0C4825F04AF94FF400400021BF
:10B7C00021F018FEBDE808400120FFF72FBF074B0E
:10B7D000994203D1BDE80840FFF7D2BF08BD00BFC2
:10B7E000010014F1C3BE040038A10400020014F1EA
:10B7F00070B50378013B0E2B22D8DFE803F0082157
:10B8000014223035213D21212C2184212C00404857
:10B810000321404A25F01BF900F0C0FB0220BDE8DF
:10B820007040FFF703BF3C4A0321394825F00FF968
:10B8300001223A4BD3E8EF1FC3E8E02F0028F9D1EB
:10B8400070BD364BD3E8AF3F002BF9D00321344A0B
:10B850002F4825F0FCF8BDE87040FFF745BF3148A0
:10B8600020F0D4FD0420DAE72F4B1B68002BE7D033
:10B87000BDE87040083018478469002CE0D0257876
:10B88000002D32D160680028DAD0103000F016FCAC
:10B8900010F1090F12D10321244A1D4825F0D7F8D1
:10B8A00029466068103016F01BFB0346A0B1204A01
:10B8B0000121BDE87040164826F0B4B810F10C0F15
:10B8C00006D1BDE8704001211A4A114825F0BFB8E1
:10B8D0000B30B5D00121E4E7606810302BF0C9F9D6
:10B8E00003460028ACD0144AE2E7012DA8D16068D5
:10B8F0000028A5D0283000F03DFC0028A0D0BDE8ED
:10B90000704000F051BBBDE8704025F0AEB800BFFC
:10B9100038A10400E0BE0400F7BE04000C2B012097
:10B920003DBF0400B0C50020082B012075BF0400F6
:10B93000A8BF04008CBF0400CDBF040008B50321DC
:10B94000034A044825F083F8BDE80840FFF7CCBE61
:10B95000F7BF040038A104002DE9F04194B00220A3
:10B9600002AF25F08CF80321624A634825F06FF896
:10B9700001200CF06DFA0321604A5F4825F067F85A
:10B980005F48604B3E1D43605F4B036108F0BAFFA8
:10B990005E482AF0F4FD1022002107F108002DF086
:10B9A0009BFF5B4B7B6025F063F85A4BF8607B6133
:10B9B000304616F0EDFC034600284BD1DFF89081AD
:10B9C0004D4C42460321204625F041F8022025F047
:10B9D00056F84FF0FF314FF0FF30FFF73FFE0321E5
:10B9E00020464D4A25F033F8032120464B4A25F0E6
:10B9F0002EF8412130462BF02EF9034600283AD18B
:10BA00006D4688B002AA4649C2E905164FF4007196
:10BA10009183444942F8101F4FF4E651204602F04A
:10BA200065FCAD46082140482DF0E0FB16F0ECFC2B
:10BA300010F10B0F054624D1022120463B4A25F088
:10BA400006F84FF0FF314FF0FF30FFF727FE0321DC
:10BA5000374A38E00121374A274825F0E3FF012122
:10BA6000354A254824F0F3FF032025F008F848372D
:10BA7000BD46BDE8F08101212046304A25F0D2FFC5
:10BA8000D0E788B1012103462D4A204625F0CAFFA0
:10BA90001E23032120462B4A25F0C4FF00214FF42A
:10BAA000702021F0A7FC8CE74FF0FF334FF0FF32FE
:10BAB0000A21CDE9002302461B482DF09BFB83079A
:10BAC00005D40121204A204624F0C1FFE0E70022EE
:10BAD00000230421CDE9002313482A462DF08AFBD8
:10BAE0000028AED04FF096720023184820F088FC52
:10BAF000A7E700BF15C0040038A104002EC0040051
:10BB0000F42A0120A9B70100030014F139B601009D
:10BB1000F1B701005BBA0400C7C00400D8C004003C
:10BB2000F0C00400030000015CCF002021C104002C
:10BB300089C104004EC0040084C00400FEC004009B
:10BB400040C10400A5C104006AC10400B0C50020C2
:10BB5000AAC00400F7B50F46044668B30190184B1D
:10BB60005B6A192B08D117480221174A25F051FFAB
:10BB70006FF01B0003B0F0BD51B114202DF044FB59
:10BB80000646B0B105460FCC0FC5236801962B6061
:10BB9000002200230A4801A91FF0DAFB0028E9D09F
:10BBA00001210A4A074825F034FF17B101982DF00A
:10BBB00024FB6FF00B00DDE76FF01500DAE700BF44
:10BBC000ECCD002018A20400D0C10400E6C104009E
:10BBD00038B501210546FFF7BDFF044648B10748C7
:10BBE0000121074A25F015FF28462AF0CAFE204603
:10BBF00038BD28462AF090FEF9E700BF18A20400DD
:10BC00001EC20400BFB52D4E2D4D2E4F4FF0FF32FA
:10BC10004FF0FF33694630461FF036FC044630B122
:10BC200001210346284A294825F0FCFEEEE74FF0A3
:10BC3000FF314FF0FF30FFF721FD009B102221461E
:10BC400002A801932DF048FE4FF4817301A8ADF8CE
:10BC5000103016F021FC031E22DA01211B483A465F
:10BC600025F0E0FE21460098FFF774FF58B101214E
:10BC7000174A164825F0CDFE009C20462AF081FE8A
:10BC800020462DF0BAFA2B680133052B2B60BDDD61
:10BC9000FFF72AFD00214FF4A02021F0ABFBB5E710
:10BCA000DDF8008040462AF06CFE40462DF0A5FAF3
:10BCB000042024F0E9FE2C60A8E700BFECCD0020B2
:10BCC000102B012079C204003AC2040018A204001B
:10BCD000FFC2040070B50E4615461C46002814BF6E
:10BCE0006422002200210F4824F0C4FE002E14BF5D
:10BCF0006422002201210B4824F0BCFE002D14BF59
:10BD0000642200220221074824F0B4FE002C18BF50
:10BD10006422BDE8704008BF00220321014824F0DE
:10BD2000A9BE00BF8C9D040010B40E4BD3E8EF2FCA
:10BD3000C3E8E41F002CF9D10B4BD3E8EF2FC3E885
:10BD4000E10F0029F9D10022084BD3E8EF1FC3E827
:10BD5000E02F0028F9D1022105485DF8044B2DF0B1
:10BD60003EBA00BF182B012054C70020142B01201D
:10BD70006CCF00202DE9F7434D482CF0BBFF38B9BC
:10BD800001214C4A4C4803B0BDE8F04325F041BEC8
:10BD900002214A482DF023FADFF82081484E4FF067
:10BDA000FF324FF0FF330221CDE90023404600224D
:10BDB0002DF020FADFF81491424FD9E8AF5FD7E8B1
:10BDC000EF3F5A1EC7E8E12F0029F8D1002B67D0BA
:10BDD000002D65D0D6E8EF4F631CC6E8E23F002A8D
:10BDE000F8D1394822F046F84FF0FF324FF0FF33D8
:10BDF000EDB2CDE90023344840F6CD420023013DA9
:10BE000021F0DAFF032D49D8DFE805F002132E3ABE
:10BE1000282294FBF2F302FB13430022132BCCBF26
:10BE2000012300231146D4BF01201046FFF752FF23
:10BE3000C3E7634203F0030304F0030158BF594210
:10BE400014F0030FA1F10204A1F103050CBF0120BE
:10BE50000020634201F1FF3C63416A426A41DCF128
:10BE6000000141EB0C01E1E7142294FBF2F302FB29
:10BE700013430E2BCCBF002301231A4619460BE0B7
:10BE80000C2394FBF3F203FB1244022CCDBF0122DE
:10BE900000220123002311461846C7E70023ECE7E0
:10BEA000002140462DF09EF9012024F0E8FD76E7C0
:10BEB0008C9D0400B8C30400C8A104006CCF00200E
:10BEC000142B012054C7002088CB0020182B012000
:10BED000F8B5194A051E6E4600AF8AB0174B0EBF63
:10BEE0000A2413461E246A46D36140F201331449E2
:10BEF0001384144BC2E9051442F8103F00234FF499
:10BF00001351114802F0F2F9B5460DB12AF0CAFA00
:10BF100002F0AAF84FF47A7340F2E7305C434FF432
:10BF20007A72002300EBC4300021FCF7DDFE21F023
:10BF300061FA012001F002FBF4C3040002BB04001B
:10BF400002C4040004000001A8A3040008B50221F3
:10BF5000034A044825F05DFD6FF0080008BD00BFEE
:10BF600023C40400B8A3040013B50B490DF1070264
:10BF70002AF07BFC044630B99DF80700FFF74AFB26
:10BF8000204602B010BD233403D1FFF7DFFF044683
:10BF9000F6E76FF02204F3E73FC404000022014BF0
:10BFA0001A7070473D4D012010B594B03C4A3D4891
:10BFB000032125F02EFD002301220FA8CDE9033334
:10BFC000CDE90833CDE90D33CDE912338DF80020EA
:10BFD00001938DF808308DF8142006938DF81C30ED
:10BFE0008DF828200B938DF830308DF83C2010937D
:10BFF0008DF844302AF076FCB8B16FF00B04684637
:10C000002AF0BFFC05A82AF0BCFC0AA82AF0B9FC5B
:10C010000FA82AF0B6FC2CB101212346224A214860
:10C0200025F000FD204614B010BD0AA82AF05AFCE5
:10C030000028E2D105A82AF055FC0028DDD1684689
:10C040002AF050FC04460028D7D1FFF7E9FA23462E
:10C05000024616490FA82AF046FD04460028CED114
:10C06000034613490FAA0AA82AF05DFD04460028DA
:10C07000C5D103460F490AAA05A82AF054FD044673
:10C080000028BCD103460C49684605AA2AF04BFD9E
:10C0900004460028B3D168462AF0EBFD0446AEE71B
:10C0A0004DC40400B8A304007BC404003FC40400D2
:10C0B000D60405006CC4040075C40400F0B5054640
:10C0C00087B0002845D00778012F04D06FF02204F4
:10C0D000204607B0F0BD4368002BF7D0204B1B78FB
:10C0E000002B39D000261F4901AACDE904668DF83E
:10C0F000047002968DF80C602AF0CBFB1330E5D06B
:10C1000001A8FFF731FF10F1090F044613D101A870
:10C110002AF037FC01A82AF0E5FBFFF781FA334645
:10C120000246114901A82AF0DEFC20B10F4A394627
:10C130000F4825F06EFC002328460A4901AA2AF080
:10C14000F2FC0028C4D001A82AF01BFC6FF00B04FD
:10C15000BEE76FF01504BBE76FF00A04B8E700BF55
:10C160003D4D0120D60405003FC40400A3C40400D3
:10C17000B8A3040010B550B10478012C0AD143686B
:10C1800043B1FFF7F1FE08B9044B1C7010BD6FF00E
:10C190001500FBE76FF02200F8E700BF3D4D0120DE
:10C1A0000278012A02D0022A04D07047044B1B688F
:10C1B0002BB118474378022B01D0FFF7BFBB704764
:10C1C0001C2B012070B58EB004460E462AF0D5F91E
:10C1D00020B90221144A154825F01BFC144B1548C0
:10C1E0001C6012F0A7FC044640B101210346124A2C
:10C1F0000E4825F017FC20460EB070BD01256A469A
:10C20000294601A88DF8005012F002FD01A88DF812
:10C210003450ADF82C6012F0A1FC04460028EAD09E
:10C22000064A03462946E3E7D1C40400E0A104001E
:10C230001C2B0120A1C101000DC5040041C5040053
:10C240002DE9F04105461A4C1A4E00AFC8220021D4
:10C2500020462DF041FB2B463246C72120461DF0DB
:10C2600035F905462046FCF7EEFE4FF00008204465
:10C27000454500F8028C17DA2B46C82120460E4AA5
:10C2800022F0F4FA6D4688B06A464FF40073938347
:10C290000A4BC2E9056442F8103F4FF4E2514346AD
:10C2A000074802F023F8AD460148BD46BDE8F081DD
:10C2B0003E4D0120A00005007AC5040003000001E6
:10C2C00008A1040010B5094C0A44914200D110BDE8
:10C2D00011F8013B58400309E35C0001C0B2434040
:10C2E0001809205C1B01DBB25840EEE7B9C5040019
:10C2F000F0B5002421F00302184D194E194F0244E5
:10C30000904218D1002301F00300104482421FD153
:10C3100012484C405843124B4FEA70405843124B5E
:10C32000604080EA10405843104B80EA5030584338
:10C3300080EA1040F0BD50F8043B6B434FEA734372
:10C34000734363404FEAF34303EB8303DC19D7E7FE
:10C3500012F8015B45EA0323D8E700BF512D9ECCBC
:10C360009335871B646B54E66BCAEB8535AEB2C25E
:10C3700070B589B306680122304624F0C1FB01463E
:10C380000446304624F084FBC30708D41349AF2287
:10C39000134824F0CDFDAF21104824F0C0FD214604
:10C3A000304624F08BFB251829460022304624F025
:10C3B0006FFB2D1AAC4206D00849B722084824F07A
:10C3C000B7FDB721E8E72146304624F07DFB214642
:10C3D000BDE8704024F0B9BC70BD00BFC9C5040001
:10C3E000ECC504002DE9F8430F4606681446B26810
:10C3F0004B1EB2F5004F34BF042108213B4010D042
:10C40000C7F1000909EA0709494503F1FF3028BFD0
:10C41000494618420CD11F46BCB900252846BDE844
:10C42000F8838F420FD82146BDE8F84324F0CFBCF3
:10C430002C492D484FF4A27224F07AFD4FF4A271DA
:10C44000284824F06CFD9946E6E7B2EBD40FE4D916
:10C45000E319591A104624F05DFB0146304624F0DA
:10C46000B3FB80460028D8D0B36809EBC005B3F50C
:10C47000004F34BF042308231D4435447B1E1D4454
:10C48000B5FBF7F57D43A5EB09052946304624F0B9
:10C4900037FB2C44073424F00704A41B80450746CF
:10C4A0004FEAE40408D202464146304624F0C6FB77
:10C4B0004146304624F007FC3946304624F0FEFA67
:10C4C0003844844208D239463046224624F0B6FB2E
:10C4D0002146304624F0F7FB01223946304624F04D
:10C4E000F3FA9BE7C9C50400ECC504002DE9F74F3A
:10C4F00091461F460E460468009031B93A464946B7
:10C5000003B0BDE8F04FFFF76DBF3FB9FFF730FF55
:10C510004FF00008404603B0BDE8F08F02F1FF3A4B
:10C520001AEA020F0AD04B494B4840F2891224F014
:10C53000FFFC40F28911474824F0F1FCD4F808B020
:10C54000BBEBD70FE4D9204624F0DAFA01460546C2
:10C55000204624F0B3FABBF5004F2CBF082204227A
:10C5600002EBC5022244B31A8046F91858460193DB
:10C5700024F0D0FA8346B9F1000F02D016EA0A0F70
:10C5800044D1C3450ED00FD2AB445A46294620466B
:10C5900024F054FB29460122204624F095FA5946FE
:10C5A00024F0D3FBB046B5E705EB080A012251465B
:10C5B000204624F06DFAC30728D45146204624F0C3
:10C5C0007DFA4044584521D35146204624F0E5FAEF
:10C5D0005146204624F072FAABEB080840450AD9D0
:10C5E00005EB0B07514620463A4624F027FB394617
:10C5F000204624F068FB52462946204624F045FB9D
:10C6000001222946204624F05FFACBE73A46494604
:10C610000098FFF7E7FE804600283FF479AF2946EF
:10C62000204624F04BFAA368019AB3F5004F34BFBB
:10C6300004230823C2EBC002D21ABA42314628BFF3
:10C640003A4640462DF021F931460098FFF790FE1A
:10C6500060E700BFC9C50400ECC50400B2F5802F37
:10C660002DE9F0410CD2042A20D83D494FF4F9724B
:10C670003C4824F05DFC4FF4F971394824F04FFC3C
:10C680000823D21ACC1D114424F0070421F007011D
:10C69000091B17294FEAD1060AD8314940F2FB128B
:10C6A000304824F045FC40F2FB11E6E70423E8E7BC
:10C6B0000027046031463046A660E76024F033FA74
:10C6C0000121421D8046304624F024FA9200D51DF7
:10C6D000ED082844B0423AD8B8F1FF3F3946A2F1FC
:10C6E000100204F11000B8BF3A462DF0F5F82A46C2
:10C6F0003946204624F000FA3B463A463946204661
:10C7000024F0D1F9A6EB050820463946012224F091
:10C71000DBF94246294624F0EFF92B463A462946F2
:10C72000204624F0C0F93146204624F0E5F943467E
:10C730003A463146204624F0B6F9314620460122D9
:10C7400024F0C2F92946BDE8F04124F0BCBA0449FE
:10C750004FF40372034824F0EBFB4FF403718CE7B2
:10C76000C9C50400ECC504002DE9F04F91B0009359
:10C7700002F004030293C2F3C203013384070546A7
:10C780000E46DDF868900392059340F0E081041DA9
:10C7900030B1072909D86FF01B0011B0BDE8F08F48
:10C7A00001F00706341DC6F10806009B4FF0000893
:10C7B0004FF0040A591E4FF0FF3347460193C3461A
:10C7C0005346CDF810800DB10098206005980028E0
:10C7D00000F3D7809B48009A824203D39A48824252
:10C7E000C0F0CF80039AA4EB050E92074FEA9E009B
:10C7F00040F1DE804FF0000CCCE07A285DD84B2869
:10C800000ED8472859D829282DD8252852D054D8B1
:10C8100020287AD02338D0F1000B4BEB000B74E0CA
:10C820004C382E2849D8DFE800F07048484848487E
:10C830004848484848484B48484848484848485964
:10C84000484B4B595959704B6D487048184B184814
:10C850004883804B48484B48800000204FF0000B35
:10C860004FF0040A38E001222A38C0B202FA00F080
:10C8700010EA0E0F49D110F0625C2FD110EA020BC2
:10C8800043D06046013C5444B4FBFAF40AFB04F480
:10C89000002D60D0A3EB050CA444B4453FF67BAF5C
:10C8A000002867D1042B48D159F8043B23600423A6
:10C8B00004342AE0019A013A01924FF0000B24E07F
:10C8C00011F8010C6C2835D1002011F8023C834688
:10C8D0006C2BC5D14FF0080A5346D3E709F107097D
:10C8E00029F00709073424F00704F9E802AB35B151
:10C8F00006982044B0423FF64EAFC4E900AB4FF07B
:10C90000000B08344FF0080A534611F8010F0028B5
:10C9100000F0A980BBF1000F7FF46FAF2528F4D1A0
:10C920004FF0010B019B013301934FF0040AEBE739
:10C93000584693E700208346A4E7082B40F08A80FE
:10C9400009F1070929F00709B9EC027B84ED007BA6
:10C9500008230834D9E768B9042B02D109F1040986
:10C96000A5E7082B76D109F1070929F0070909F194
:10C970000809EDE705980138059059F8040B009077
:10C9800021E7039A900744D54FF0010CA4EB050E64
:10C990004FEA9E00BEF5007F1BD32C4940F27B225C
:10C9A0002B4824F0C5FA40F27B21284824F0B7FA3E
:10C9B0000F2F10D8002D38D007F140020DEB020CDC
:10C9C000019A0CF8200C0CF8102C049801300490FB
:10C9D0001EE00F2F08D91D494FF420721C4824F087
:10C9E000A7FA4FF42071E0E7D5B107F140020DEB53
:10C9F000020E019AC0B20EF8200C0EF8102CBCF1F9
:10CA0000000FE2D060F07F000EF8200C08F1010862
:10CA10000137C5F108024FF6DA7E0434069274E756
:10CA2000BCF1000F01D00136F2E7029A0236002A6B
:10CA3000EED10098CDE90631FCF705FBDDE90631C2
:10CA40000644E5E7549B0400BC3C050004C6040012
:10CA5000ECC504003F4940F2C5223F4824F068FA83
:10CA600040F2C521A1E7631BB3F5806F08D33949B4
:10CA700040F2D122384824F05BFA40F2D12194E709
:10CA80001DB9A6F10804E01887E6029A9B08286001
:10CA90002B709DF81030C2B1EB7085F80280B8F1B0
:10CAA000000F05D0002208A8C5F1010C97420ED155
:10CAB0004FF0000AC5F101030DF1200901930DF1BA
:10CAC000300B574512D1601B67E66B70E5E710F835
:10CAD000013B190608D504EB0C0EB64503F07F03A5
:10CAE0003FF659AE04F8013B0132DFE7B8F1000F21
:10CAF00003D099F90020002A17DB029BD3B11AF862
:10CB00000B2004F8012B0022019B98182044B0420E
:10CB10003FF641AE99F80000009904F8010B204659
:10CB200003922CF0B2FE039A14440AF1010A09F1AF
:10CB30000109C6E799F8002055F822300093029BBE
:10CB4000009845F82230FCF77EFA421CDCE76FF0D3
:10CB50000D0022E604C60400ECC504002DE9F04FE8
:10CB600097B000AF89460446D7F880B0FA623B62BE
:10CB700050B9A8494FF46572A74824F0D9F94FF489
:10CB80006571A44824F0CBF9CBF3C00390F802A060
:10CB9000BB6141B9457800780AEB800020444D45DF
:10CBA00017D8A0EB0409E378FB61BAF1000F02D0BB
:10CBB0001BF0010F16D1FB6953BBFB6A1BB1494641
:10CBC00020463A6A98474D4628465C37BD46BDE840
:10CBD000F08F461C3046FCF736FA0130304409F13C
:10CBE0000109DCE7626823787A62FA6A9900796160
:10CBF00004EB8301002A40F002810E464FF000084A
:10CC00004D4601EB0A094E454CD101EB0A0610E0F6
:10CC10001BF0020FD1D023789A007A61626804EB8E
:10CC200083017A62FA6A002A77D14D46904601EB79
:10CC30000A061BF0050F0CBF02230123FB62FB69F0
:10CC400006EB430A0BF00203BB625645BCD016F854
:10CC5000021B16F8013C54F82390704B994502D3FF
:10CC60006F4B994536D3BB69002B40D0786A24F0CE
:10CC700011F900283BD0E9468AB06A46694B5361F6
:10CC80007B6AC2E906314FF400731384664B42F8A5
:10CC9000103F00234FF41251644801F027FB023D7E
:10CCA000CD46D2E716F8013BF96254F82300FCF7B1
:10CCB000CAF9D7F88430F96A01304BB1D7F8883017
:10CCC00098453EBFD7F8843023F8180008F10108D2
:10CCD000054498E7BB6923B1786A24F0DBF80028A3
:10CCE000C9D11BF0010F05D1FB6AED1AADE7BB6A94
:10CCF000002BAAD04846FCF7A6F9D7F8843053B1E8
:10CD0000D7F8883098453FBFD7F88420431C22F8D5
:10CD1000183008F10108054497E7BAF1000F74D004
:10CD20001BF0040674D0D046002607F14800524696
:10CD30003B61B9622CF0A9FDB96A3B6901EB0A02BB
:10CD4000BA62FA69F9695200FA60BA6A02EB410202
:10CD50003A610BF00202BA60BA6A39698A4267D155
:10CD600062781BF0020F18BF00217A6208BF4FEAF9
:10CD70005801B2181BF0010FD2B240F0DE801BF058
:10CD8000040F14BF40460020BB616270A070E170C8
:10CD900020463A6A7969FB6A9847051EFFF614AF88
:10CDA000BB69414623707B6A3A6A6370FB6984F809
:10CDB00002A0E37007F14800FB6A9847B0F1000851
:10CDC000C0F2E9807B69A9EB0A01C91AFB683A6ADB
:10CDD000C91AD7E90A0398470028C0F2DE804FF04D
:10CDE000000BA84408EB000507F1380AB345C0F072
:10CDF000A68000213A6A0846FB6A9847E4E6564650
:10CE00004FF0000807F1380091E75646D04695E705
:10CE1000B04693E704C60400ECC50400549B04002C
:10CE2000BC3C050032C604000400000128A1040037
:10CE3000BA6A12F8021B12F8015CBA6254F82500B3
:10CE4000574A904202D3574A904217D3BA693AB12F
:10CE5000786A7B6024F01EF87B6800287FF47CAF42
:10CE6000BA68002A49D00F2E3DD94F494FF4896244
:10CE70004E4824F05DF84FF4896182E6BA693AB110
:10CE8000786A7B6024F006F87B6800287FF464AF42
:10CE90001BF0010F0AD00F2E25D9434940F23E4224
:10CEA000424824F045F840F23E416AE61BF0040F88
:10CEB0003FF452AFB8F10F0F08D93B4940F241425D
:10CEC0003A4824F035F840F241415AE608F1280288
:10CED00007F1300008F1010102EB000808F8105CCE
:10CEE0005FFA81F838E706F1280207F13000711C7B
:10CEF000161806F8205CCEB22EE7B8F10F0F08D94D
:10CF0000294940F24B42294824F012F840F24B41A3
:10CF100037E608F1280207F1300C08F101009444CB
:10CF200007F1580208F1020852FA80F00CF8101CC0
:10CF30005FFA88F800F8105C0EE7002024E71BF881
:10CF40000A3054F8239087F83730D7F88430FBB193
:10CF500033F81B8001213A6AFB6A07F137009847D2
:10CF600000281ADB0544B8F1000F06D14846FCF74B
:10CF70006AF800F101081FFA88F8414648463A6A03
:10CF8000FB6A9847002808DB05440BF1010B2DE7ED
:10CF9000D7F88480DEE7454616E6054614E600BF6E
:10CFA000549B0400BC3C050004C60400ECC504000E
:10CFB000014B1860704700BF58C7002080B5054678
:10CFC0000E461746984620F043FA03462CF0B8FD6B
:10CFD0000446DFF81890424649F80030394630469A
:10CFE000A84754F8090002F07BFF00BF08000000CA
:10CFF000032800B508D92CF0A3FD0922074B1A50CD
:10D000004FF0FF305DF804FB2822054B02FB003394
:10D01000D3E8AF3F002BEED00020F3E70C00000078
:10D02000282B012038B504461546FFF7E1FF0028FC
:10D030000DDB28236343074AD0184068086015B108
:10D040000C3313442B6028235C43105938BD002057
:10D05000FCE700BF202B012070B500254FF0FF3307
:10D060004FF0FF3217481EF0AFFA174BD3E8AF2F3F
:10D0700082B10135042D03F12803F7D12CF060FDB6
:10D0800017224FF0FF35114B1A500E481EF052FB7D
:10D09000284670BD28246C43D3E8EF0F0130C3E865
:10D0A000E10F0029F8D10A4E331932515A6004F1C8
:10D0B0000C0030442BF076FE04F1200030442BF0BD
:10D0C00024FFE2E7ACCC0020282B01200C0000005C
:10D0D000202B012010B40446104628225443094B4B
:10D0E0001A191951506048B1C2683AB10C3423443E
:10D0F00040F205125DF8044B23F002BF5DF8044BCB
:10D10000704700BF202B01202823434330B50D4931
:10D1100008330B44D3E8AF2F92B1541ED3E8EF5F2E
:10D12000954204D1C3E8EC4FBCF1000FF6D1F1D128
:10D13000012A05D12823584300230A180B505360B5
:10D1400030BD00BF202B012038B50D4604462022FB
:10D1500000212CF0C1FB0022EB68E361AB68A36106
:10D160002B6823626B68A26263622A6923B1591E2D
:10D17000194208BF42F0010222610122002104F19C
:10D180002C002BF04CFE40B1044905482E2223F020
:10D19000CFFE2E21014823F0C2FE38BDE6C60400B2
:10D1A000ECC504002DE9F04F002689B0CDE901233C
:10D1B000436A04468B428846B2460596079652D388
:10D1C0004FF0200B00F11407EFF3118300938BF362
:10D1D0001288BFF36F8F3846DDF8009020F0FAFA1E
:10D1E00040B946498822464823F0A2FE8821434898
:10D1F00023F095FE384620F011FB079A2AB13146FC
:10D20000204623F076FF0023079306A9204623F04B
:10D210009CFE0699054641452ED32268236A204686
:10D2200013F8221003EB820A21F0030103F8221005
:10D230002168424623F0ADFEE3682060984216D094
:10D240000025384620F0D4FA40B389F31188BFF3A3
:10D250006F8F059929B1A2690AB120469047002332
:10D260000593002DB0D1504609B0BDE8F08F236979
:10D2700043F008032361E3E718B1204623F0A3FE3F
:10D28000DFE7DDE9013213432FD003912BF041FE9C
:10D29000039950BB384620F0ABFA40B9174940F229
:10D2A0003112174823F044FE40F231119FE7009BF2
:10D2B00083F31188BFF36F8F04F12C00DDE90123A4
:10D2C0001EF0FEFB0546EFF311898BF31288BFF3C6
:10D2D0006F8F384620F07EFA002882D0B5FA85F5A7
:10D2E000384620F09BFA6D09ABE7204607AB05AA4C
:10D2F000266823F087FE0546A3E700BF0CC704009D
:10D30000ECC504002DE9F0410446C36908460D460A
:10D31000984704F114060746EFF31188202383F39E
:10D320001288BFF36F8F304620F054FA40B9164987
:10D330008822164823F0FCFD8821134823F0EFFDD6
:10D34000304620F06BFA2B783A4643F001032B70FD
:10D350006168204623F01DFE6060204623F0E4FE55
:10D36000304620F045FA40B9074940F231120748EB
:10D3700023F0DEFD40F23111DFE788F31188BFF3BF
:10D380006F8FBDE8F08100BF0CC70400ECC504003E
:10D390002DE9F843044600F11407EFF31188202328
:10D3A00083F31288BFF36F8F384620F013FA0546D7
:10D3B00040B930498822304823F0BAFD88212D48F1
:10D3C00023F0ADFD384620F029FA2369A26813F056
:10D3D000080F02D163689A4200D9636A9B1A002B36
:10D3E0003AD0216A11F8223001EB820913F00300D0
:10D3F00035D0022803D151F82260B60805D1D807EC
:10D400001AD44846E36998470646A1683246204642
:10D4100023F0BFFD3146A060204623F0C8FD38460A
:10D4200020F0E6F9E8B9134940F23112124823F02E
:10D430007FFD40F23111C2E743F0020301F82230D0
:10D44000E3694846A568984729460246204623F0E6
:10D45000A0FD0025A060E2E71D46A946DFE70546DE
:10D46000FBE788F31188BFF36F8F002D95D14846F5
:10D47000BDE8F8830CC70400ECC504002DE9F041B9
:10D480000446C36908460D46984704F1140706464A
:10D49000EFF31188202383F31288BFF36F8F384690
:10D4A00020F098F940B923498822234823F040FD11
:10D4B0008821204823F033FD384620F0AFF92B783F
:10D4C0006FF300032B7023699B0705D5E268236A7D
:10D4D00003EB82039D421DD12B786FF341032B7028
:10D4E000D4E90231994204D13246204623F051FD5D
:10D4F000A0603146204623F05AFD384620F078F9E6
:10D5000068B90C4940F231120B4823F011FD40F28A
:10D510003111CEE72B6866F39F032B60EDE788F3AC
:10D520001188BFF36F8F04F12C00BDE8F0411EF0AD
:10D530008DBA00BF0CC70400ECC50400044608B552
:10D54000EFF31183202383F31288BFF36F8F0CF066
:10D5500055FF204602F07AFC024823F0C4FC24F078
:10D56000B1FCFCE739C704002DE9F84340F26C73C5
:10D5700044690569E1170135E41841F10001022D04
:10D580008CBF00230123E41AC76861F10001002960
:10D59000064607F1FF374EDA6FF4C7704FF4C872D2
:10D5A0000023201861F10001FBF74EFB244B4FF0E4
:10D5B0003C0E03FB0044D6E900834FEAE37C994626
:10D5C0006346022D02468CBF6FF002000920B66848
:10D5D0000544C6FB0E93A9FB0EC60EFB036640F284
:10D5E0006D1E9920A3080EFB04333B44642745437A
:10D5F0000520B4FBF7F40235B5FBF0F51B1B114C0D
:10D600001CEB080CA2FB042004FB01012B4446EB9D
:10D61000E87698180C4A41F1000380180B4A63F130
:10D620000003A0FB020102FB031110EB0C0041EB15
:10D630000601BDE8F8834FF4C87200232046B3E723
:10D6400070FEFFFFB13A02009405F5FF8051010022
:10D650002DE9F84F0446A38B08461907164612D445
:10D66000022803F0070162D1204623F0C7FD88B1EC
:10D670000138042800F22581DFE810F05900230169
:10D680007E00C800F50001280CBF43F0100143F0F4
:10D690002001A18304F1140020F0AAF8002800F072
:10D6A000AB8086F31188BFF36F8FBDE8F88F03F06E
:10D6B0000702501F01281ED80020062A2768C4E947
:10D6C000000014D13A4603E0E08B0130E083126899
:10D6D000002AF9D123F0070343F002022046A28377
:10D6E00023F08CFD90B342F02002A2832EE023F0C1
:10D6F00007039AB2F2E7042A33D123F007039AB260
:10D700002046A28323F07AFD10B142F02002A283CA
:10D71000A38B03F00709894540F0DC80A18BCA0682
:10D7200040F1218121F01003A38301F00701D4F817
:10D730001880A38BB8F1000FB9DA0022276823F014
:10D740000703C4E9002243F00103A383A38B03F082
:10D750000709894540F0BF80002FDFD00025AA4689
:10D7600040E0854940F21B12844823F0E1FB40F27F
:10D770001B11814823F0D3FB41B17F494FF4AB72B9
:10D780007E4823F0D5FB4FF4AB71F2E7236843B931
:10D79000794940F25712794823F0CAFB40F25711F9
:10D7A000E7E723691D6845B973494FF4AD727348C3
:10D7B00023F0BEFB4FF4AD71DBE70F4688464FF018
:10D7C0000609A38B23F0070343F006039BB2A38350
:10D7D000A268002A40F08180002F40F08180002D57
:10D7E0009CD0BA4643F0080304F1140B5846A383B7
:10D7F0001FF0FEFF002875D1614940F231125F48E9
:10D8000023F096FB40F231115D48B3E7022908D0BE
:10D81000594940F25D12594823F08AFB40F25D11EC
:10D82000A7E7E78B47B154494FF4AF72534823F051
:10D830007FFB4FF4AF719CE723695D6845B94E49A2
:10D8400040F261124D4823F073FB40F2611190E702
:10D85000A38BB84623F0070343F004039BB24FF0B9
:10D860000409A383B4E7012908D043494FF4B272F5
:10D87000424823F05DFB4FF4B2717AE7236843B965
:10D880003D4940F265123D4823F052FB40F26511DC
:10D890006FE723699D6845B937494FF4B47237483B
:10D8A00023F046FB4FF4B47163E70027A38BB8461F
:10D8B00023F0070343F005039BB24FF00509A38350
:10D8C00086E72D4940F26B122C4823F031FB40F2E1
:10D8D0006B114EE7002700257AE74FF0010A81E738
:10D8E00092467FE786F31188BFF36F8FBAF1000F7E
:10D8F00016D147BB15B120462249A847EFF3118640
:10D90000202383F31288BFF36F8F58461FF062FF06
:10D9100008BB1B498822194823F00AFB882173E7BA
:10D92000A1680029E5D00E680029E2D043464A46A6
:10D930002046D1F804A0D0471EB1336831461E46B8
:10D94000F2E73346FAE7394643464A4620463F68FF
:10D9500023F080FCCDE758461FF060FFA38B23F037
:10D960000803A383DAE68B067FF594AE21F020034B
:10D97000A38301F0070177E662C70400ECC5040049
:10D980000CC7040089D90100F8B504460D4600F122
:10D990001406EFF31187202383F31288BFF36F8FF0
:10D9A00030461FF017FF40B909490A48882223F082
:10D9B000BFFA8821064823F0B2FA30461FF02EFF46
:10D9C000A5613A462046BDE8F8400121FFF740BE78
:10D9D0000CC70400ECC504002DE9F04704460F46CF
:10D9E00023F028FC051E5DDB04F11409EFF3118A16
:10D9F000202383F31288BFF36F8F48461FF0EAFE9F
:10DA0000804638B933498822334823F091FA882177
:10DA100030483CE048461FF001FF4FF6FF72E38BB1
:10DA2000A68B934206F007063FD0022E10D1354652
:10DA30000133E38348461FF0DBFE00283BD1254934
:10DA400040F23112244823F073FA40F23111DFE73B
:10DA5000062E13D8DFE806F0092C1212090409007B
:10DA60006FF085054FF00008E4E700233B60636832
:10DA70007BB9C4E900777EB13546F3E7174916480C
:10DA80004FF4E47223F054FA4FF4E471134823F096
:10DA900046FA1F606760EEE7524602212046FFF714
:10DAA000D7FD35462846BDE8F0876FF00A05D9E76F
:10DAB0006FF00405D6E78AF31188BFF36F8FB8F1D2
:10DAC000000FEFD0002332463946204623F0C2FB38
