:020000040000FA
:10000000D03F002045200000556300003120000053
:10001000312000003120000031200000312000009C
:10002000000000000000000000000000E9200000C7
:1000300031200000000000003120000031200000CD
:100040005D2200005D2200005D2200005D220000B4
:100050005D2200005D2200005D2200005D220000A4
:100060005D2200005D2200005D2200005D22000094
:100070005D2200005D2200005D2200005D22000084
:100080005D2200005D2200005D2200005D22000074
:100090005D2200005D2200005D2200005D22000064
:1000A0005D2200005D2200005D2200005D22000054
:1000B0005D2200005D2200005D2200005D22000044
:1000C0005D2200005D2200005D2200005D22000034
:1000D0005D2200005D2200005D2200005D22000024
:1000E0005D2200005D2200005D2200005D22000014
:1000F0005D2200005D2200005D2200005D22000004
:100100005D2200005D2200005D2200005D220000F3
:100110005D2200005D2200005D2200005D220000E3
:100120005D2200005D2200005D2200005D220000D3
:100130005D2200005D2200005D2200005D220000C3
:100140005D22000053B94AB9002908BF00281CBF2E
:100150004FF0FF314FF0FF3000F00CB8ADF1080C5C
:100160006DE904CE00F008F8DDF804E0DDE90223D3
:1001700004B07047704700BF2DE9F04786468C46B3
:100180000846089E154674461946002B40F0C1806B
:100190008542B2FA82F245D94AB1C2F1200300FA8F
:1001A00002FC954094402EFA03F343EA0C0C4FEA0C
:1001B000154EA8B2230CBCFBFEF80EFB18CC08FBB6
:1001C00000F943EA0C43994528D9EB1808F1FF37A9
:1001D00004D2994502D9A8F102072B44A3EB0903E5
:1001E000A4B2B3FBFEFC0EFB1C330CFB00F044EA94
:1001F0000344A04214D92C190CF1FF3304D2A042BD
:1002000002D9ACF102032C44241A43EA07401EB180
:10021000D440002334607360BDE8F0874746DDE7D3
:100220006346F1E792BB431B01214FEA154EAFB283
:10023000200CB3FBFEFC0EFB1C330CFB07F840EA62
:100240000343984561D9EB180CF1FF3004D298456F
:1002500002D9ACF102002B44A3EB0803A4B2B3FB18
:10026000FEFC0EFB1C330CFB07F744EA0344A742D9
:100270004DD92C190CF1FF3304D2A74202D9ACF1AD
:1002800002032C44E41B43EA0040C0E7C2F1200310
:100290009540944020FA03F12EFA03F34FEA154EED
:1002A0009040AFB20343B1FBFEFC0EFB1C10190CD7
:1002B0000CFB07F841EA0041884522D969180CF186
:1002C000FF3004D2884502D9ACF102002944A1EBE9
:1002D00008019BB2B1FBFEFC0EFB1C110CFB07F7E7
:1002E00043EA01439F420ED9EB180CF1FF3104D2CF
:1002F0009F4202D9ACF102012B44DB1B41EA0041D1
:1003000093E76046E3E76146F7E76046A4E76346A4
:10031000B8E7834206D916B9002108467CE7C6E94A
:1003200000E0F9E7B3FA83F78FB9834201D372454E
:1003300008D8BEEB020460EB030301209C461EB903
:10034000002169E73846FAE7C6E9004CF8E7C7F14B
:10035000200CBB400EFA07F522FA0CF42EFA0CF131
:10036000BA401C4320FA0CF3B8404FEA1449014349
:100370001FFA84FEB3FBF9F809FB18300B0C08FBDD
:100380000EFA43EA00439A4540D9E31808F1FF30DA
:1003900004D29A4502D9A8F102002344A3EB0A0330
:1003A00089B2B3FBF9F809FB183308FB0EFE41EAEA
:1003B00003418E452CD9611808F1FF3304D28E45D4
:1003C00002D9A8F10203214443EA0040A1EB0E0147
:1003D000A0FB02984145CE46434602D306D14D4587
:1003E00004D20138B9EB020E68EB0403002EA7D04B
:1003F000B5EB0E0261EB030101FA0CFC22FA07F3E4
:10040000F9404CEA0303C6E9003199E74046C5E7E5
:100410004346D9E7F0B5344B344A4921C3F80026A6
:100420003348C3F8042685B0C3F80826C3F80C2661
:10043000C3F81026C3F81426C3F81826C3F81C26E0
:1004400005F0FEFE05F0A4FA00F098FA054601A8B2
:1004500000F03AFD0446284600F0A0FA254B1B6840
:10046000A34205D04521244805F0EAFE05F092FBA1
:10047000039A4921214805F0E3FE4921204805F06F
:10048000DFFE4FF48031002002F0BAFE044620B1B6
:1004900045211C4805F0D4FEFEE769469DF808009A
:1004A00000F034F8009B039D1D44019B1E8902F05F
:1004B0008FFEAF1901F078F801F048F801F062F80A
:1004C00084F30B8884F30A88AB5983F3088884F398
:1004D0001488BFF36F8FBFF36F8F7B6898474521F8
:1004E000094805F0ADFEFEE7008001503546526E2A
:1004F000BC72000008000020D5720000F8720000F5
:10050000277300004C7300007F730000024608B59B
:1005100038B105480023452105F092FE6FF0150023
:1005200008BD0860FCE700BFA273000021B10129EB
:1005300006D06FF015007047044B53F83000704739
:10054000024B03EBC0035868704700BF086F000000
:100550002DE9F04FDFF848B2DDB01646DDE96889D5
:100560001C466A9FDBF8005000F0BAFF0122884B5E
:100570003CA8C3F8002504F029F9B8F1000F07D012
:10058000B9F1000F04DD4A4641463CA805F055FD8F
:100590004FF0000833897289D6F80CA013449A44AE
:1005A000C24565D80FA93CA804F082F90022784B17
:1005B000C3F80025C3F8002527B1202238460FA92B
:1005C00005F009FF00233146009322464FF6FF73E2
:1005D00009A805F0DEF9064600285AD120460E9FEC
:1005E00000F0B6F9874254D84FF0FF37DFF8B4A1D6
:1005F000DFF89C810DF11E0307AA08A909A805F0E0
:1006000016FA002845DB40F0BA80089909A805F0E1
:100610005AFA50B94FF6FF71BDF81E005D4A32F824
:10062000023B8B4235D09842F9D1BDF81E90B9F10A
:10063000100F38D1BDF81C90B9F1200F29D14B46CD
:10064000204608993CAA05F009FE10BB00F096F977
:100650004A4606463CA90FA800F028F981463046D4
:1006600000F09CF94C4B1B684B4512D10126C1E7A9
:10067000679BAAEB0809994528BF994641464B4616
:100680002046669A05F0EAFD30B10022404BC3F8DF
:100690000025DBF8005074E04A4666993CA805F056
:1006A000CCFCC8447CE7B9F1010F41D1BDF81C3046
:1006B000202BEED8204608993CAA05F0CFFD07462E
:1006C0000028E6D19DF81C30202B039309D8DAF8D6
:1006D0000020324B0492049A974205DB0023C8F8AD
:1006E00000354FF0FF3785E7059300F0F9FEC8F8B5
:1006F00000951FA804F06AF8059B1FA85A6853F8D4
:10070000081B1268059305F098FC17A91FA804F0B0
:10071000CFF80022C8F80025039A3CA917A805F0D5
:100720004AFE059B10B9C8F8000563E70137D2E718
:10073000B9F1220F7FF45EAF7B1C3FF45BAFDAF8B8
:100740000030BB42CDDDBDF81C30802BA1D8204647
:1007500008993CAA05F082FD00289AD100F00EF914
:10076000FFB281462021BDF81C303CAA00970FA89B
:1007700000F01AF80546484600F010F9B1E7002EDF
:1007800087D000F003F928465DB0BDE8F08F00BFC8
:10079000000084509072000008000020146F0000D8
:1007A00004000020106F00002DE9F04796B01646B7
:1007B0001D469DF87820384B074653F8321003EB5E
:1007C000C2035B6801911868DFF8DC8001443023C4
:1007D00002AA01A8D8F8009005F0BDFB002851D16D
:1007E000DDE901431C44214606AB03AA01A805F03C
:1007F000DAFB002846D1049A072A43D127490598F5
:1008000005F0D9FD00283DD1079A082A3AD124499C
:10081000089805F0D0FDA8BB214602AA01A805F062
:10082000AEFB78BBDDE901A30AEB0302944229D1B8
:10083000412B27D135443023294603AA02A802962A
:1008400005F089FBE0B9DDE9023213449D4217D37C
:100850002A4602A906A805F044F988B92A4602A941
:100860000EA805F03EF958B99AF80030042B07D1CC
:100870002023384606AA0AF1010100F049FE38B1EA
:10088000D8F8009000F082F8484616B0BDE8F0872E
:10089000044BD3F80090F5E7146F0000D17300000B
:1008A000C8730000080000200400002070B5094B48
:1008B00004461D680023934205D1074B1D6800F0D4
:1008C00065F8284670BDE65CC85C8642F7D1013306
:1008D000F1E700BF0400002008000020094A4000A2
:1008E0000B7852F820108B4209D0013052F82000CA
:1008F000834214BF4FF0FF304FF4C07070474FF485
:10090000C07070471C6F00001FB50F4B0C4613F8EA
:10091000300001F0E1F950B92068102381686A467F
:10092000103905F09BFC28B1206805F096FC4FF0CB
:10093000FF3006E010226846044905F03CFD00281F
:10094000F2D104B010BD00BF1C6F0000AC720000FB
:1009500013B5044605F0F6F86A460146204604F051
:10096000FEFF30B10448452105F06AFC002002B0CA
:1009700010BD0098FBE700BFD9730000024B186858
:10098000421C1A60704700BFB8010020024A136879
:10099000013B1360704700BFB8010020034B1B6888
:1009A000834201D005F0F6B8704700BFB8010020BF
:1009B0002DE9F04F414B8BB0064600200D461C68D8
:1009C000FFF7B4FD08A9C0B201F086F928B1FFF71E
:1009D000DDFF20460BB0BDE8F08F2946FFF7A6FDEE
:1009E0004FF02C0B09A9C0B20BFB056B01F074F999
:1009F000002844D02C276F4306EB0708D8F8104096
:100A000014F010044CD1FFF7B9FF089B81460793FF
:100A1000FFF7B4FF4FF480720192294A21468246C3
:100A2000CDE90344079B0294009220465A46FFF703
:100A30008FFD04465046FFF7B1FFFFF7A7FF48467A
:100A4000FFF7ACFF1F4BF25908989A420CD1D8F827
:100A50000C20B8F808309B1806D28268934203D263
:100A6000194B1B68A34222D02DB38268002105F0E8
:100A70001FFC164A4521164805F0E2FB15E00998CF
:100A800005F033FC0446099805F0E7FB0BF1FF3352
:100A90000BF1030213F8011FA142ABD19342F9D12C
:100AA0001DB13046089905F04AF90A4B1C680898B0
:100AB00005F0D3FB8BE7084ADCE700BF0400002009
:100AC000CC0E00203DB8F396080000201C740000F6
:100AD0002674000000000020147400007FB50D464D
:100AE000002104462846CDE9021105F0E7F828B3B5
:100AF0002368194EB34203D1204603AA05F073F8C8
:100B0000E36AB34204D10121204602AA05F06BF842
:100B1000DDE90232934288BF0393039BAB60039AE3
:100B20002946204600F0DAFB0C4B1A68002A03DD48
:100B300057210B4805F084FB04B070BD01A9FFF7F5
:100B4000E3FE019805F1080105F007F8AB6801988C
:100B5000039305F082FBE2E73DB8F3961C0E0020FC
:100B60004E7400002DE9F84F884691469A460026BB
:100B7000DFF870B0194C1A4D0B9B9E4201D3002038
:100B80000FE00B9B40469F1BB7F5806F28BF4FF4CB
:100B90008067144A3B4606EB0A0105F05FFB10B183
:100BA0000120BDE8F88F0A993B465A46484671181D
:100BB00005F069FB0028F3D1C4F800563E44C4F8A0
:100BC0000456C4F80856C4F80C56C4F81056C4F8B5
:100BD0001456C4F81856C4F81C56CDE700800150CE
:100BE0003546526EBC0900202DE9F0410E46002129
:100BF000AB4B04464362AB4B88B003650846FFF736
:100C000095FC04F120010546C0B201F065F848B139
:100C100000232A46452101900093A34805F010FBCC
:100C200004F0B8FF01210020FFF780FC04F14C0123
:100C30000546C0B201F050F850B101232A464521C3
:100C4000019000939848002305F0FAFA04F0A2FFFF
:100C5000204605F009F8054668B9002220461146ED
:100C600004F0ABFF054600B3002257218F4805F082
:100C7000E7FA01239EE0802257218D4805F0E0FA33
:100C800001239D4284F85830E7D194F85830042B62
:100C90008DF8173000F29180012B00F2958000F062
:100CA000A880FF2384F85830A3E0204600F028FAFB
:100CB0000028DED004A804F0F8FF0146204605F025
:100CC00093F818B12A4657217A48D0E704A804F0CF
:100CD000F5FF80F0010104AA2046C9B204F06DFFBF
:100CE00002460028C0D104A804F0E8FF054660BB16
:100CF000204604A9FFF7F2FE9DF8173084F858301B
:100D0000033B012B06D8284600F00EF910B1FF2353
:100D100084F858309DF81730023B022B0BD8002086
:100D200000F0ECF838B1FF2384F8583045216248D0
:100D300005F086FAFEE794F85830FF2BF6D0002134
:100D4000204604AA04F039FF93E79DF81770012F9D
:100D50001ED1104602F0E8FA831E022B054614D875
:100D6000FFF70CFE394680462046FFF721FE074676
:100D70004046FFF713FE514B1B689F4205D0504B76
:100D80001D68AF4214BF0525012584F858507CE743
:100D9000FFF7F4FD012107462046FFF709FE05464F
:100DA0003846FFF7FBFD454B1B689D4214BF0523EA
:100DB0009DF8173084F8583067E7052B7FF471AF42
:100DC000002000F0B1F811E0204604A9FFF786FEEC
:100DD00094F85830DA1E012A34D8002000F0A4F824
:100DE00000287FF45EAF002000F088F800287FF430
:100DF00058AF94F85830FF2B05D145212E4805F007
:100E00001FFA04F0C7FE002294F858302D4F012B32
:100E100003921AD01146204604F0CFFEA8B13D68D7
:100E2000102200210DEB020005F0E0FAE06C05F065
:100E300014FA206A05F011FAFFF7A8FD284608B059
:100E4000BDE8F081022BD4D1CDE7FFF797FD00215B
:100E500080462046FFF7ACFD05464046FFF79EFD65
:100E6000DFF85880D8F800309D42D8D13B689D42C9
:100E7000D5D0134B1B689D42D1D0039B0133039304
:100E8000039B012B01D004F085FE206A04F065FD70
:100E90003071236A5B683460D8F80050B360BFE7F4
:100EA000BC050020BC0100207D7400000C75000012
:100EB000CA74000038750000627500000800002048
:100EC000000000200400002070B50B4E0446602294
:100ED0000021304605F08AFAFFF750FD214605460D
:100EE0003046FFF781FE04462846FFF757FDFFF71F
:100EF0004DFD204670BD00BFBC0D002013B5094B51
:100F000001A913F8300000F0E7FE48B9019805F098
:100F100026FD0446019805F0A0F9204602B010BD58
:100F20000124FAE7246F00001FB50F4B01A913F845
:100F3000300000F0D1FEA8B9019802A902F09EF994
:100F4000044668B99DF80B30032B03D1019805F0D6
:100F5000D4FC0446019805F080F9204604B010BD89
:100F60000124F7E70124F8E7246F00002DE9F3419D
:100F700006460C4617461D460BB9002628E01846C3
:100F800004F09CFE0028F8D16946FFF7BDFC0098EC
:100F900038B90124009805F060F9204602B0BDE898
:100FA000F08101A904F0D9FD0028F2D1009805F0E4
:100FB00054F93046019904F065FF736A5E686B79F5
:100FC000012B21D1002CD8D12B68834298BF002659
:100FD00021460020FFF7AAFA6946C0B200F07CFE65
:100FE0000028D6D120233A463146009805F036F93C
:100FF00004460028CDD1002DCCD03C680D4BE41A1E
:1010000018BF4FF0FF34C5E7022BB6D12B68012B78
:1010100005D98342B1D8B4FA84F46409ADE7ACD100
:10102000002CD5D0012CA8D12C79023C18BF01246A
:10103000A3E700BF3DB8F3962DE9F04F07460C46F5
:1010400085B0014600201646FFF748FC051E50DB20
:101050003846E46D04F076FD5FFA84F94FF0000A3B
:101060004FF0010B4FF0FF346B1E09FB03089DB9D5
:10107000BAF1010F03DD4521204805F0E1F8631CBA
:1010800006D07F2C2ADC40F2011301343460B38097
:10109000284605B0BDE8F08F6B1E00934146012342
:1010A00038460DF10F0205F0D9F8031E019322DB3B
:1010B000012238460DF10F0105F0BAFB019B40B14A
:1010C0005B4501D00AF1010A9B46009DA8EB090887
:1010D000CDE7B4F1FF3F08BF2C46F5E70223803C83
:1010E0007371631004F0010401330134336034710F
:1010F000CEE70725CCE70125CAE700BF6E750000E3
:1011000070B5866A456D044604F0ABFEAE420AD067
:101110006B1CB34207D0834205D05721134805F01A
:101120008FF8002070BD802E1CD957211048F6E79B
:10113000626A216D02EBC30201EBC3015268496888
:10114000914202D057210B48E9E701339D42EFD18C
:10115000AE4205D9636A03EBC5035B689342F1D1E4
:101160000120DFE700231A46F0E700BF9175000079
:10117000C9750000F875000000B589B0032004A906
:1011800005F0C8FB9DF81020012A41D0254B2649C7
:10119000032A08BF0B469DF81320492102929DF8AF
:1011A0001220224801929DF811200092204A05F059
:1011B00047F8092006A905F0ADFB9DF81820012A83
:1011C00028D0184B1849032A08BF0B469DF81B204E
:1011D000492102929DF81A20144801929DF8192085
:1011E0000092144A05F02CF89DF81030012B13D111
:1011F0009DF81230032B0FD19DF81830012B0BD026
:101200000D48492105F01CF8022009B05DF804FBE7
:101210000A4BC0E7094BD9E70948492105F010F806
:101220000020F2E7247600002D76000041760000D1
:101230003376000082760000927600002876000067
:10124000B176000070B54B6814461E4A03F0FF23C8
:10125000934206460D4686B02FD10B68012B2CD148
:10126000204604A902F00AF89DF81020012A26D091
:10127000154B1649032A08BF0B469DF81320492138
:1012800002929DF81220124801929DF811200092BE
:10129000104A04F0D5FF9DF81030032B0DD12146E4
:1012A000304604F04CFD204605F027FB2046A96897
:1012B00004F061FC204601F0C1FF06B070BD064B92
:1012C000DBE700BF00010004247600002D7600005B
:1012D0004176000082760000287600002DE9F04F6C
:1012E0001646054689B00C467448492104F0A8FF0B
:1012F0003146284604F0C6FD6B6A824620465E6889
:1013000004F0DCFCE8B1E86D04F017FC0023AF6AE0
:10131000013F3344834201D2013FFAE7BA4510D37B
:101320005721674804F08CFF07FB06F357210AFB9F
:101330000662644804F084FF0123E37109B0BDE84C
:10134000F08F06A9032000F0C7FC07A9092000F0D0
:10135000C3FC21462846079AFFF774FF6379012BE7
:101360004BD15746DFF860B141E02268C2F101037A
:1013700053449F423AD86B6A012A196853F83700E0
:1013800003EBC70353F8083CA0EB0109A3EB0103EF
:10139000049311D1079B0393E368022B08D04146C5
:1013A000284604F0CCFC22464146284604F0FDFCC9
:1013B0002846039904F0C3FC32464946404604F0EF
:1013C000BCFC049B424641462846CDE90096FFF707
:1013D000C9FB2146284604F07EFC236801332360C4
:1013E00020B1DBF800300133CBF80030013FDDF8ED
:1013F0001880002FB9D101232360022301276371D4
:10140000BA45DDF8189006D2484604F026FF079842
:1014100004F023FF92E723689F424DD36A6AFB00E2
:1014200052F83710083B04911168DDF81CB00391A5
:10143000D1582A6DD0581368A0EB03082379012BEB
:1014400038D1039B3246C91A4846059104F075FC11
:10145000059943464A460091284659460196FFF7AA
:1014600081FB2146284604F036FC0223237118B183
:10147000154A13680133136032464146584604F05A
:101480005CFCDDE9032349469B1A28465A46CDE910
:101490000086FFF767FB2146284604F01CFC236802
:1014A000013323600123237130B1074A13680133EC
:1014B000136001E0022BDFD00137A1E7C8760000FE
:1014C000F1760000207700001C0E00200A4619B1BA
:1014D000024B00211B681847704700BF0C0000201A
:1014E00070B5094D2B780BB1002070BD0126074C5B
:1014F000C4F8006503F00CFA18B92E70C4F80005A2
:10150000F2E74FF0FF30F0E7CC0F002000008450EE
:101510002DE9F041ACB01F4606460C461546FFF7D4
:10152000DFFF0123DFF820802A46C8F80035214676
:101530003346009703A805F051FB0023C8F8003597
:101540002CB0BDE8F08100BF00008450BFF36F8F66
:1015500072B600234FF0FF30094A03F12001013336
:10156000102B42F82100F8D100234FF0FF30044A3D
:1015700003F160010133102B42F82100F8D17047CC
:1015800000E100E0002318460649D1F89020C2F39C
:101590000722934200DB7047C1F89830C1F8A000E1
:1015A0000133F6E700ED00E02DE9F8434FF0FF3599
:1015B00001274FF00008204BDFF884905F60C3F8EC
:1015C0004853C3F8085303F580535F60C3F848538A
:1015D000C3F8085359F8044B002644F30730C4F805
:1015E000085300F09FFD80226760C4F84C61D4F876
:1015F0004C31C4F81061D4F81031C4F8446131465C
:10160000D4F84431A018C4F8006504F0EFFE80223D
:10161000314604F5C07004F0E9FEB8F1000F08D0BF
:10162000064BC3F808554FF05023C3F80853BDE8E4
:10163000F8834FF00108CDE70040015000700150E1
:10164000306F0000014B1B68184700BF10000020DE
:1016500007B50B46002102460091034800F00CF844
:1016600003B05DF804FB00BF45160000014B186095
:10167000704700BF100000202DE9F04F82464FF068
:1016800000098DB01D46531E01910393039B5878AA
:101690005C1C252819D100204FF0FF381E46444617
:1016A00003460236029031780396392955D81F290E
:1016B00014D8002900F0EF8101992520D047019925
:1016C0003078D04709F10209E0E7002800F0E38113
:1016D0000199D04709F101090394D7E7A1F120024C
:1016E000192AE9D801A757F822F000BF55170000C2
:1016F000B9160000B916000055170000B916000011
:10170000D5170000B9160000B9160000B916000080
:10171000B91600002118000055170000B916000086
:1017200035180000E1170000B9160000EF1700009F
:101730000F1800000F1800000F1800000F1800000D
:101740000F1800000F1800000F1800000F180000FD
:101750000F18000008460136A5E7582900F0EB8075
:10176000A1F16302D7B2172FA6D8172AA4D801A7D0
:1017700057F822F0DD1900005B180000B9160000D0
:10178000B9160000B91600003B1800005B180000F5
:10179000B9160000B91600003B180000B916000089
:1017A000B9160000B916000011190000B9160000A2
:1017B000B9160000B1190000B91600005B1800004E
:1017C000B9160000B916000011190000B916000082
:1017D0003B18000025200199D04709F1010955E780
:1017E000029A4FF0000802F0FE020292B3E7002CCA
:1017F0000DDAB8F1000F0DDA029A002A00F04381E9
:101800000A2224EAE47402FB0414303CA3E7B8F192
:10181000000FF5DB0A2202FB0812A2F130089AE75A
:10182000B8F1000F55F8042B80F22F81002A80F2C6
:101830002E815442022202928DE7682903D1682B3F
:1018400006D1482387E76C2902D16C2B00F0218157
:10185000002B7FF431AF0B467DE77A2B06D175293B
:1018600055F8046B14D14FF0000B0CE06C2BF6D044
:101870004C2BF4D1073525F00703752903F1080532
:10188000D3E9006B06D120283BD1854F013C09E00C
:101890004FEAE67BBBF1000FF5DA7642814F6BEB46
:1018A0004B0B013C0DF12D030593002304933046AF
:1018B00059460A220023FEF745FC059BB446303208
:1018C00003F8012D5A460593049BBCF10A0F8B4681
:1018D00072F1000203F1FF3106460491E7D2C3F131
:1018E000010B30330DEB0306B8F1000FA6F104062F
:1018F0006DDA029BD9077DD4A8EB0B03A4EB0B0494
:1019000013E02B280ABF684F684F04F1FF34C9E782
:1019100070290FD155F8042B0023FAB96FF0040396
:101920004FF0050B614F624E053C029A920770D44E
:10193000A04666E078216C2B03D1002355F8042BD8
:1019400008E04C2BF9D1073525F007031D465B68ED
:1019500055F8082B232825D1880621D5554F023C60
:10196000002601F06001A1F1390B0DF12D0E02F0FE
:101970000F01092988BF594430310EF8011D102A82
:101980004FEA121141EA03714FEA131C73F100038D
:1019900006F1FF3008D2C6F1010B06F13003A1E7D2
:1019A000454FDCE7414FDBE706460A466346DEE784
:1019B00055F8046B304604F0F7FCB8F1000F83468D
:1019C00002DB4045A8BFC3464FF00008374FA8EBE5
:1019D0000B03002B92DDA4EB0804A6E755F8043BAB
:1019E0004FF0010B8DF81830304F4FF0FF33013CB2
:1019F00006AE9AE7A046EAE7029320200199D04775
:101A0000029BB8F10108F7D524EAE472013C914445
:101A1000A41AB84606E0049302920199D047029AAC
:101A2000049B9046424612F8010B0028F3D11A4657
:101A3000013A15D5002BACBFC7EB03077F425B46CD
:101A4000013B15D5BBF1000FA8BF5F4426464F44AC
:101A5000013E14D5002CA8BF3F1907EB080915E675
:101A60000493029230200199D047049B029ADFE749
:101A70000293019916F8010BD047029BE0E7019908
:101A80002020D047E4E70122D5E6904663E61446DD
:101A900061E64C235FE648460DB0BDE8F08F00BF1D
:101AA000AE770000AC770000B07700006D750000E5
:101AB000B8770000B2770000B57700002DE9F04755
:101AC000058B04462807904611D4022905F0070526
:101AD00040F0CC80204604F0DAFA78B10138218B4E
:101AE000042811D8DFE800F0C2106D8595000129A7
:101AF0000CBF45F0100545F02005258388F31188BB
:101B0000BFF36F8FBDE8F08701F0070AAA4500F028
:101B1000A5800027B9463E46A368002B00F0BC8094
:101B200041F00801218388F31188BFF36F8FA1680A
:101B3000002900F0BA800D68002900F0B680334615
:101B400052462046D1F80480C047002D76D02B683D
:101B500029461D46F0E701F007035A1F012A1BD84A
:101B6000002221F00701062B276889B2C4E9002270
:101B700009D13B4603E0628B013262831B68002B74
:101B8000F9D141F002012046218304F080FA0028B7
:101B90007AD041F0200176E0042B0AD121F0070130
:101BA00089B22046218304F072FA10B141F020017D
:101BB0002183218B01F0070AAA454FD00027B9469F
:101BC000AAE7236921F0070141F00601062DD3F8A9
:101BD000009021832DD1B9F1000F3FD041F00801D1
:101BE000218388F31188BFF36F8F20463949C84796
:101BF00029E021F00701236941F0040189B2042D95
:101C0000D3F804902183E6D000274FF0040A3E4623
:101C100082E721F00701236941F0050189B2052D12
:101C2000D3F808902183D6D000274FF0050A3E460E
:101C300072E700274FF0060A3E466DE72B4687E71E
:101C4000B9F1000FD1D1EFF31188202383F312886B
:101C5000BFF36F8F238B23F008032383258BEA06C2
:101C60002ED525F01003238305F007056669218B27
:101C7000002EBFF670AF00232768C4E9003321F0BF
:101C8000070141F001012183218B4FF0000901F090
:101C9000070AAA457FF440AF002F9CD041F008010D
:101CA000218388F31188BFF36F8F002FC8D03D6860
:101CB000394633465246204604F015FA2F46F4E7DB
:101CC000AB067FF51BAF25F02003238305F0070546
:101CD00000E700BF1361000070B5114B0D461C6892
:101CE000DCB1104B196800238B4202DB6FF001005E
:101CF00070BD224612F8106B864202D014460133A2
:101D0000F2E7E06810B96FF01200F1E704F01FFF8E
:101D10000028F8D000202C60EAE76FF00C00E7E71D
:101D200014000020386F000070B588B005460C46DE
:101D3000C0B269461646FFF7CFFF00281BDB0098AC
:101D4000C8B143682268029383680195CDE90336E0
:101D50000023CDE906230593C56804F07EFA6DB132
:101D60002846084901AA04F04AFC079808B9059BCF
:101D7000236008B070BD6FF01500FAE76FF0120035
:101D8000F7E700BFF962000008B5054804F072F9F2
:101D9000044804F06FF9BDE80840034804F06AB94C
:101DA000BE770000EF77000022780000014802F0C3
:101DB0005FBA00BF1C70000030BFFFF7FDBF00BF5F
:101DC000154B9A6A12F0007F9A6A14BF1E201D20DC
:101DD00012F0807F9A6A18BF1F2012F4801F9A6A3F
:101DE00018BF022012F4002F9A6A18BF212012F4A3
:101DF000802F9A6A18BF222012F4003F9A6A18BFF7
:101E0000232012F4803F9A6A18BF24206FEA02420E
:101E10006FEA12429A62704700ED00E010B5194B6C
:101E20000246986A9C6A10F4805F14BF172016203F
:101E300014F4006F9C6A18BF1820A40509D5986B8C
:101E4000986A000404D51AB19A6A22F400429A6290
:101E500019200C4B9A6A12F4806F9A6A18BF1A20E4
:101E6000D2050CD49B6A13F4005F18BF1C20054AEE
:101E7000936A43F47F43936200230B7010BD1B20D1
:101E8000F5E700BF00ED00E010B51C4B0246986A74
:101E90009C6A10F0100F14BF1120102014F0080FCE
:101EA0009C6A18BF1220A40709D5586B986A0006CF
:101EB00004D51AB19A6A22F080029A6213200F4B5D
:101EC0009A6A12F0010F9A6A18BF142012F0200FBC
:101ED0009A6A18BF1520D40658BF9B6A074B9A6AA6
:101EE000920642BF5A6A22F400525A629A6A42F03B
:101EF000FF029A6200230B7010BD00BF00ED00E0EE
:101F000070B5444B06465B6800258AB0C3F30803EE
:101F100085F31188BFF36F8F02F07F40B0F17F4FE0
:101F200011D102F00C0008280DD010074CBF0E464E
:101F300001250022033B8DF80720032B05D8DFE89D
:101F400003F01E5C60592E46F3E700249DF807302D
:101F50009BB92022314602A804F03DFA099B002DCE
:101F600053D0C3F3080222B96FEA53236FEA432325
:101F70000993204602A904F0E3F90AB070BD254B8D
:101F8000DA6A9107E1D4DA6A002ADEDBDA6A520003
:101F9000DBD55A69B16942F480725A61BFF34F8F41
:101FA000BFF36F8F5A6931F8021C22F480725A61B4
:101FB000BFF34F8FBFF36F8F4DF60272914209D07E
:101FC0009A6AD2B242B101200DF10701FFF75CFF1E
:101FD0000446BBE73468B9E79A6A12F47F4F05D02C
:101FE00001200DF10701FFF719FFF1E79B6AB3F537
:101FF000803FAAD3FFF7E4FEEAE700200DF10701D6
:10200000E4E700200DF10701EDE723F4FF7323F06F
:102010000103ADE700ED00E0044B5A6942F0100205
:102020005A615A6942F480625A61704700ED00E0DB
:10203000EFF30880EFF3098101B57246FFF760FF07
:1020400001BD00BF002080F31488BFF36F8F002014
:1020500080F30A8880F30B8801F024FA00200E49EF
:102060000860BFF34F8F0D4880F3088800F01AF81E
:10207000202080F311880A484FF40061401880F353
:102080000988EFF314800221084380F31488BFF31A
:102090006F8F00F07FF8000094ED00E0D03F00204B
:1020A000D00F002072B6002383F313884FF0FF3067
:1020B0000C4A03F120010133102B42F82100F8D122
:1020C00000234FF0FF30074A03F160010133102B6A
:1020D00042F82100F8D162B6BFF34F8FBFF36F8F84
:1020E000704700BF00E100E01EF0040F0CBFEFF3EB
:1020F0000880EFF30980816911F8021C0229FFD0E2
:1021000001B504F023F901BD40B2002807DB01232B
:102110004109034A00F01F00834042F82130704714
:1021200000E100E040B200280CDB0122064943092F
:1021300000F01F008240203341F82320BFF34F8F6F
:10214000BFF36F8F704700BF00E100E0054B42090D
:1021500053F82220012300F01F0003FA00F0104082
:10216000704700BF00E100E040B2002801F101012A
:10217000ACBF00F16040064B4FEA4111C9B2ABBFA2
:1021800000F5614000F00F0080F80013195470470B
:1021900014ED00E0144A08B5144B22F07F029A6057
:1021A000BFF34F8FBFF36F8FD3F8882022F47002F4
:1021B000C3F88820D3F8882042F4A002C3F888200E
:1021C0004FF04042C3F83422BFF34F8FBFF36F8FFD
:1021D0000023E1EE103A01F0F9FE01F03BFF00F0C0
:1021E00031F801F0FFFE00BF0000000000ED00E04C
:1021F0001E4680B50C46074615460023E1EE103A10
:1022000083F30B88DFF824C0ACF5205E8EF30B88D7
:102210008CF309884FF0000005498847204629467D
:102220003246B84703488047FEE700BFD03F002052
:102230006D6300007B6300001022014B1A61704740
:1022400000ED00E0002320210348C2180133412B98
:1022500082F80013F9D1704700E100E008B5EFF310
:102260000583064A103B02EBC30152F8330049686C
:102270008847BDE8084004F074B800BFD46C000083
:10228000014B1860704700BF180000200122024B6C
:102290000020C3F8402570470090035020B1034B45
:1022A000800143F001031847704700BF006F000032
:1022B000084B70B5C31A0D4607499B100446594395
:1022C0004022064804F0A7F82B4601462046BDE808
:1022D00070401847340E0020B76DDBB6846C0000E8
:1022E000402373B50B4C0093041B0B460D460A4963
:1022F000A41061430646094A094804F0B7F8011ED4
:1023000005DA30462B4602B0BDE87040184702B0EF
:1023100070BD00BF340E0020B76DDBB6DB6400007B
:10232000846C000010B5EFF31184202383F312882E
:10233000BFF36F8F074A136823F00201DB071160B8
:1023400002D4012004F097FB84F31188BFF36F8F50
:1023500010BD00BF840E002070B50022012104468C
:102360000520FFF701FF0F4801F09EF90E4B984240
:1023700015D101F0A9F926690C49304603F0D7FEC2
:1023800000280BDB012535642469084904F11C0091
:1023900003F0CDFE002801DB0020E56470BD6FF086
:1023A0000400FBE7792400000000AD0B247000005E
:1023B0000C22104B014602FB0033002030B4D3E95D
:1023C0000E529863EFF31180202484F31288BFF338
:1023D0006F8F1C6C04F0C00444F002041C6480F392
:1023E0001188BFF36F8F1DB12B4630BC02481847D0
:1023F00030BC7047340E0020846C000010B4EFF342
:102400001182202383F31288BFF36F8F184801686D
:1024100041F002040460C80708D482F31188BFF3B6
:102420006F8F01205DF8044B01F062B94FF050212D
:10243000D1F80C04D1F80C14C907EED5EFF31180D4
:1024400083F31288BFF36F8F0A490B6C03F0C0034C
:1024500043F002030B6480F31188BFF36F8F82F3A4
:102460001188BFF36F8F00205DF8044BFFF7A0BF0A
:10247000840E0020340E002010B1012804D07047D3
:10248000034B1B6C5B0701D1FFF792BF704700BF86
:10249000340E00202DE9F843012207463449D1E8E3
:1024A000EF3FC1E8E02F0028F9D133B93149324874
:1024B0004B60CB608A6003F04DFE7B1E012B2DD854
:1024C000012F07D14FF05023D3F81C3403F003033E
:1024D000022B23D004F07CFB054608BB274B1B785E
:1024E000F3B14FF0502302220646C3F808234FF001
:1024F00050244FF00008DFF88890D4F81824D4F85E
:102500001834D20315D503F00303022B01D0012F99
:102510000FD135B386F31188BFF36F8FBDE8F88311
:10252000EFF31186202383F31288BFF36F8F012509
:10253000DDE7304603F029FFD4F81835DBB2012B74
:10254000DBD1D4F80421002AD7D0C4F80481D4F810
:1025500004210222C4F818252022C9F88021A36092
:10256000CBE74FF050230222C3F80423D6E700BF85
:10257000300E0020200E0020500E0020CF0F002033
:1025800000E100E008B5074804F0E1FA38B1064878
:10259000FFF776FE0448FFF769F8002008BD6FF0EA
:1025A0001200FBE7AC6C0000AD2500000A2838B52E
:1025B0000446074D04D1AB680D2128465B68984757
:1025C000AB6803485B68E1B29847204638BD00BF5E
:1025D000AC6C0000024B0B6001231360704700BF1E
:1025E000880E0020004870477870000010B504F095
:1025F000A6FA034C206004F09FFA6060002010BD32
:10260000880E0020F8B50E461946304617461D467E
:1026100003F073FFB8B146EA050414F0030412D1C5
:102620004DB12B19032BA6EB040006D8074AD2F8AC
:102630000034DB07FBD50020F8BD3B1B196801F017
:1026400087FC043CEDE76FF01500F5E700900350C0
:1026500038B545682B69B3B11035284601F036FB13
:10266000044680B90146284601F0FEFA084B98421C
:102670000BD122462846074901F0DEFA2246052101
:102680000D20FFF771FD002038BD6FF00400FBE75F
:102690000000AD0B99260000430970B507D10B4B24
:1026A000596821B101250C68094E854001B970BDFA
:1026B0008A682A4002D030464B6898471CB123688C
:1026C00021461C46F2E72346FAE700BF900E0020A1
:1026D000986C00002DE9F04340F206354668D006BC
:1026E00048BF0320337B02EA050558BFC2F3401000
:1026F00087B001F01F07B5F5837F144647EA4317FB
:102700008DF8030041D00FD8062D18D007D8B5B1E9
:10271000022D3CD06FF0150007B0BDE8F083B5F591
:10272000807FF7D101250AE040F20222954230D0A5
:10273000B5F5407F2FD0B5F5007FEBD10225220300
:102740002BD5012372688B409360326962BB07F01E
:102750001F037F0975D13D4A84F4803102EB830267
:10276000D2F80032C1F30041C4F3404423F4E163E2
:1027700044EA410423F007031C4344EA800444EA8A
:102780000524C2F800420020C6E70725D7E7042544
:10279000D5E70525D3E70325D1E7630341BF01232F
:1027A00072688B40D360D0E71036394630460DF161
:1027B000020201F047FA14F4403F80460CD139463A
:1027C000304604F0B2F9224B9845DCD130469DF8F2
:1027D000021001F085FAD6E74FF0000901AB394647
:1027E000304603AACDE90439CDE90199CDF80C9022
:1027F00001F0FCF8164B98428CD114F4003315D03C
:102800009DF8033084F48034C4F300448DF80E3016
:1028100039464B46304603AA8DF80C508DF80D40D2
:1028200001F092F90A4B9842CDD073E7CDE9043319
:1028300039460DF10303304603AA039301F0D6F89D
:10284000F0E7803352F82330FFDE00BF00258450CC
:102850000000AD0BF0B5406801F01F04057B87B0A8
:1028600044EA45140569002D5FD0B2F5001F00F160
:10287000100506D12146284604F059F9002007B07A
:10288000F0BD0027B2F5800F01AE0197776037D118
:10289000B3F1007F14BF052304238DF80430002317
:1028A000CDE904630393836823FA01F111F0010178
:1028B00018D1B2F1A07F15D104F01F03620903F112
:1028C000800338D11D4A52F82330DB070AD40DF1BA
:1028D000030632462146284601F0B4F9184B9842C7
:1028E00019D002962146284603AA01F07FF8154B1D
:1028F00098421DD101222146284601F0FDF9BDE78D
:10290000B3F1C06F05D0B3F1007F14BF01230223E0
:10291000C3E70323C1E73146284601F0E7F9094B35
:102920009842DED06FF00B00A9E76FF08500A6E7B4
:102930006FF01500A3E751F82330FFDE0025845027
:102940000400AD0B0000AD0B2DE9F04740F2FF1580
:10295000524E534FDFF84CC100EB8101814202D14E
:102960000020BDE8F087046814F4804FC4F3C32E40
:10297000C4F3080340F08280640CAB4208BF4FF000
:10298000FF3316F80EE0192C7BD8DFE804F00D13A6
:102990001A1D7A7A7A7A7A7A7A204D7A7A7A7A7ADB
:1029A0007A7A7A7A5065686BC2F80C355C1C5CD117
:1029B0000430D3E7C2F814355C1CF9D04FF000099D
:1029C00010E0C2F80835F1E7C2F81035F4E7C2F8B4
:1029D0000835BEF1000FEFD15C1CE9D04FF00009C3
:1029E0004FF0060ED0F800A00AF40044002C16BFE9
:1029F0004FF00009C8464FF0010803F01F045B09BF
:102A000047D107EB8404D4F80032CAF3412A03EA21
:102A10000C0343EA8A0343EA0E2343EA090343EA29
:102A20004803C4F80032C3E7C2F80C35D1E7C2F856
:102A30006035B3F1FF3F0468BAD0C4F30044A4B9D1
:102A40005FEA531820D10124DFF854809C40C8F875
:102A50000C404FF00109C5E7C2F86435E9E7C2F858
:102A60006835E6E7C2F86C35E3E75C090ED101246E
:102A7000DFF82C809C40C8F80840EAE76FF01500AA
:102A80006FE76FF085006CE7E460FFDE00239B607A
:102A9000FBE70023803453F82430F6E78A780000FF
:102AA00000258450F0F8FCFF2DE9F04104460D4666
:102AB000076904F08DF84FF0200890B92A4B1B7875
:102AC0007BB16426606803F041FED0B9012003F0B9
:102AD00070FF013EF6D1F4E786F31188BFF36F8FE4
:102AE000EFE7EFF31186314688F31288BFF36F8F5B
:102AF000606803F02BFE80B986F31188BFF36F8FF7
:102B0000EFE7EFF31186314688F31288BFF36F8F3A
:102B1000606803F01BFE0028DED03B691D70626810
:102B200038691368C3F844050120C3F8480500203C
:102B3000C3F82001D3F82051C3F858015268D3F8E4
:102B40005801D20608D5082062681268C2F800054C
:102B50004FF48002C3F8042301229A6081F31188A4
:102B6000BFF36F8FBDE8F081CF0F00202DE9F74351
:102B700006464FF00008002201210820FFF7F4FA72
:102B80000820FFF7C1FA776835693C684146C4F808
:102B900000852E60D7F80C9001AA484603F0A8FDE6
:102BA000002839DB019BD9F8002019791868FFF754
:102BB000CBFE002830DB6B7AD6F810C0012B03D097
:102BC000032B27D14FF01008AB7A032B22D1E97ADF
:102BD00009B101291ED12A7A12B1022A1AD10E2274
:102BE0006B687068B3F5164F006800F0B28034D897
:102BF000B3F5165F00F0B0801AD8B3F5966F00F009
:102C0000AD800CD8B3F5967F00F0AB80B3F5167F9E
:102C100000F0AA806FF0850003B0BDE8F083B3F543
:102C2000166F00F0A480B3F5965FF3D15C4B43E0E0
:102C3000B3F5E14F00F09E8008D8B3F5615F00F076
:102C40009B80B3F5964FE5D1564B35E047F6122EF3
:102C50007345DFD14FF400032EE0B3F5613F00F080
:102C60008D8015D8B3F5963F00F08B800AD84DF6CD
:102C7000C02E734500F08780B3F5614FCAD14FF481
:102C80006B0319E0B3F5E13FC4D14FF0EB7313E0F0
:102C9000B3F5612F7AD009D8DFF820E1734578D0F9
:102CA000B3F5E12FB6D14FF0E86305E0DFF810E1AE
:102CB0007345AFD14FF08053C0F82435736841EAB3
:102CC00008011B680A43C3F86C250CF10403D5E91D
:102CD000010183E803007B68990712D505F118000C
:102CE00000F090FD304B984256D1287E04F10C0242
:102CF00004F5907103F05FFE01202B7E984000F0F8
:102D0000CDFC0823C4F800353B7A53B9C4F8103120
:102D1000D4F810316B69C4F834350123C4F8383560
:102D200023607B6800209A075CBF4FF48073C4F86F
:102D300004337B68DB0644BF4FF48003C4F80433DC
:102D40002B69C4F844350123C4F84805A360E36047
:102D500062E74FF41D03AFE7144BADE74FF49E233A
:102D6000AAE74FF4A033A7E74FF41C33A4E74FF4CE
:102D70001D23A1E70E4B9FE70E4B9DE74FF06C73B1
:102D80009AE70D4B98E74FF4650395E74FF07063B2
:102D900092E74FF080638FE76FF004003CE700BFDD
:102DA00000B0130000A04E000000AD0B0050270043
:102DB00000C0750000F03A0000903A0190D0030086
:102DC00040420F000123834070B5DC430B4AD2E838
:102DD000EF1F01EA0405C2E8E65F002EF7D14FF4C9
:102DE000803282400648C0F80823BFF35F8FBFF3EC
:102DF0006F8F0B4214BF0120002070BDA00E002079
:102E00000050015070B40E4922F07F46D1E90034E1
:102E1000D01AC31844F10004C1E90034A6F5001328
:102E2000B3F5400F09D2074B1B681A0A1B069C1901
:102E3000054B42F10005C3E9004570BC01F06AB9D9
:102E400020010020A40E002028010020D9B1012378
:102E50000D4A8340D2E8EFCF4CEA030CC2E8E1CF41
:102E60000029F7D14FF48033084A8340C2F8043375
:102E7000074BD3E8AF3FC340DB0742BF4FF400121C
:102E8000044BC3F800217047A00E002000500150F1
:102E90009C0E002000E100E00D4B1868010A0006BE
:102EA000BFF35F8F0B4BD3F80435181841F10001C5
:102EB000B3F5801F0AD2084BD3E90023904271EB8F
:102EC000030303D210F1807041F10001704700BF8D
:102ED000A40E002000500150280100202DE9F04FE1
:102EE00085B016461F4604469DF840A0FFF76AFFCE
:102EF0000190FFF7D1FFB04271EB070352D23B4B79
:102F0000301A67EB0101984271F100014DD2384B44
:102F100003EB0413D3E902239F4208BF964258D023
:102F20004FF48038334908FA04F8204626F07F4BE6
:102F3000C1F8488303F051FC4FF00309584604F1EF
:102F40005005AD00ADB205F1502504F5A87305F5A7
:102F500080350293029A20F07F4341F82230C1F875
:102F60004483D1F80435244AC01A033820F07F4046
:102F700090422ED9286868B1D1F80435A3EB0B0034
:102F800020F07F40B0F5000F039322D9204603F0D4
:102F900024FC039BBAF1000F07D109EB030009F1F0
:102FA0000109D7E7BAF1000F09D06FF015052046E7
:102FB0000199FFF74BFF284605B0BDE8F08F0123CC
:102FC0000E4AA340D2E8EF0F1843C2E8E10F0029F0
:102FD000F8D107490E982301C8500F9B01EB04124A
:102FE0000025C2E902675360E1E700BF01008000ED
:102FF0001001002000500150FDFF7F009C0E0020BA
:103000007FB500254FF0FF304FF0FF31194C1A4BC0
:103010000226C4F80833C4F84833184BC4F80855DE
:10302000C3E902014FF480334FF40012C4F80433B3
:10303000134B0121C4F804631520C3F880212A46EC
:10304000FFF792F81520FFF75FF801230D4AA36000
:10305000236013600C4B0D4A009328460023CDE9F2
:103060000155FFF73BFF3046FFF714FA284604B03E
:1030700070BD00BF0050015003000F001001002080
:1030800000E100E0A00E0020052E0000FFFF7F0001
:103090002DE9F7432E4BD3F8042390070BD5D3F833
:1030A000042142B10022C3F804212A4AD3F8043192
:1030B000136801331360264AD2F80433D90326D5A6
:1030C000254BD3E8EF1F21F00100C3E8E40F002CEB
:1030D000F7D1CB0702D4D2F84031C3B100251C4C44
:1030E000C4F84051D4F84031FFF7D6FEEFF3118217
:1030F000202383F31288BFF36F8F184BD3E9026745
:10310000B042B94106D282F31188BFF36F8F03B08A
:10311000BDE8F0834FF0FF38D3E900104FF0FF39DE
:103120001D60C3E902894FF48033C4F84833C4F802
:103130004051D4F8403182F31188BFF36F8F0029DA
:10314000E5D0009032463B4628468847DFE700BF7F
:1031500000500150A40E00209C0E00201001002001
:1031600030B5431C124C85B005D08442A8BF04463C
:10317000012CB8BF0124FFF78FFE0E4B0C4DD3E995
:103180000013401AB0F5000F0FD22218AA4228BF30
:103190002A46002052180849CDE90100009143F168
:1031A0000003FFF79BFE05B030BD2A46F1E700BFE4
:1031B000FFFF7F0020010020052E000008B5FFF76B
:1031C0006BFE024B1B68C01A08BD00BF2001002027
:1031D000012310B5074C15206360FEF7A3FF4FF4E1
:1031E0000012054BC4F80833C4F84833034BC3F846
:1031F000802110BD0050015003000F0000E100E0ED
:1032000040EA0103C3F30E0330B58BB940F2151544
:10321000094CC90BC0F3C730994201D1002030BD21
:10322000C218D2B202F5C07244F822500133F3E75B
:103230006FF01500F3E700BF0030005030B5816833
:1032400085B0103921F00704054603F04EF810222E
:103250000146684603F0CAF810226846064903F0A2
:10326000BAF810236A462146284603F00CF80038C5
:1032700018BF012005B030BDAC72000030B50D465E
:10328000816887B0102302AA1039044602F0E6FFD5
:10329000002802DA012007B030BD1022204602A922
:1032A00003F0C6FA00283AD110221E4902A803F002
:1032B00082F800280CBF012302232B70204603F064
:1032C000A3FA012301460DF10702204602F0C6FFD2
:1032D0000028DFDB9DF80730204603F00F021B09B2
:1032E0006A702B7101220DF1070103F0A1FA10B9E8
:1032F0006B78042B03D901236B7000232B71A26818
:103300002046183A22F00702083AA91C03F0A3FA53
:103310000028BFD12046E91C03F0F6FABBE70323DF
:10332000CBE700BFAC720000F0B5354F85B046006A
:103330000546694657F8260003F0ECFA044610B13A
:10334000FF2005B0F0BD013657F8260002A903F0B2
:10335000E1FA012837D12A4649212A4802F070FFB4
:10336000294B8DF80C40029300229DF800609DF8D7
:103370000870264C3146207803F04CFA50B3394699
:10338000607803F047FA28B3A378042B03D09DF8A4
:10339000031099421ED1E378042B03D09DF80B1043
:1033A000994217D12379042B10D16279022A1DD1B9
:1033B000174B18482A46492102F042FF6079831EC4
:1033C000022BBED9BCE70028CED0B9E79DF8021089
:1033D0009942EAD00132032A04F10604CAD10E4808
:1033E0002A46492102F02CFF0120AAE7032A05D032
:1033F0000A4B0B49042A08BF0B46DAE7094BD8E70A
:10340000FC700000BF780000030103035479000042
:10341000A17800000A7900002E790000A67800004B
:10342000B87800009C78000008B5EFF31083012BFA
:103430000C4A07D1126ABFF34F8F511C4A424A41CE
:10344000104608BD03F093FA00B172B6126ABFF3DA
:103450004F8F531C5A425A4103F089FA0028EFD08B
:1034600062B6EDE70080FF0008B5EFF31083012B93
:103470000B4A06D1D269BFF34F8F02F0010210460A
:1034800008BD03F074FA00B172B6D269BFF34F8F72
:1034900002F0010203F06BFA0028F0D062B6EEE70A
:1034A0000080FF0010B503F062FA30B14FF05023F6
:1034B0000022C3F81421C3F8182103F067FA28B1D9
:1034C0000122524BC3F8382AC3F878254FF47F0203
:1034D000D2F83031D2F83421BFF34F8FC3F30B034E
:1034E000092B05D1012A1EBF0122484BC3F87825BC
:1034F00003F04CFA18B10E22454BC3F8E42E03F04A
:1035000036FA30B10022414BC3F80C270122C3F830
:1035100010270022D30003F57F03D3F80013BFF375
:103520004F8F013108D0D3F800130132D3F80433A0
:10353000B2F5807F0B60EDD1EFF31084FFF794FFBD
:1035400000284DD0BFF34F8F324BD3F80024012A0F
:10355000FBD1C3F80425D3F80024012AFBD1012CA8
:1035600003D003F004FA00B172B6FFF77DFF58B143
:10357000294AD36923F00103D361BFF34F8F254A52
:10358000D2F80034012BFBD1FFF74EFF68B1224A7D
:10359000136A23F0FF0343F020031362BFF34F8F3E
:1035A0001C4AD2F80034012BFBD1012C03D003F0CC
:1035B000DEF900B162B60022164BC3F80425D3F839
:1035C0000024012AFBD1BFF34F8F1449144BCA6862
:1035D00002F4E0621343CB60BFF34F8F00BFFDE7FF
:1035E000FFF722FF0028ADD10C4BD3F88C2042F41A
:1035F0004062C3F88C20D3F8882042F47002C3F8EC
:103600008820BFF34F8FBFF36F8F10BD0040005075
:1036100000A00350009003500080FF0000ED00E088
:103620000400FA0530B50468ACB1B4FA84F30122A1
:10363000C3F11F03DBB29A4024EA0202D0E8EF5F35
:10364000A54204D1C0E8EC2FBCF1000FF6D1EAD1BD
:1036500002480B7030BD0248FCE700BF0000AD0B14
:103660000200AD0B10B50368CB40DB0710D401237B
:103670008B40026843EA0201D0E8EF4F944204D144
:10368000C0E8EC1FBCF1000FF6D1F2D1014810BD2B
:103690000148FCE70000AD0B0400AD0B014BC3F883
:1036A0000405704700700150044B1A7922B90122B9
:1036B00018601A710248704702487047A80E00202F
:1036C0000000AD0B0C00AD0B08B5084B1B6833B107
:1036D0000520FEF73BFD10B90520FEF715FD4FF064
:1036E00050230122C3F8182508BD00BFA80E0020F2
:1036F00010B510B1012847D010BD4FF05023D3F8BA
:103700001814D3F81824C90322D502F00303022B9E
:1037100005D0012B02D0002003F054F901234FF013
:1037200050220220C2F8183508224FF4827300217B
:1037300003F1502319601C68012402F15022146027
:10374000164A126822B34FF05023C3F80403D3E79C
:10375000D3F81424D207E1D5D3F81C2402F00302D5
:10376000013A012AD7D80D4A12681AB10222C3F8C9
:103770000423C1E7D3F80421002AFBD00022C3F8B8
:103780000421D3F80431B7E700224FF48073CEE769
:103790001A68002AFCD019601B68ADE7A80E00204B
:1037A0004FF0502310B5D3F8002152B10020C3F8D8
:1037B0000001D3F800210122C3F80823104B1B6835
:1037C00098474FF05023D3F8042182B10022C3F868
:1037D0000421D3F80421D3F81824D3F818240221A3
:1037E00002F00302012A03D1C3F818159A6010BD34
:1037F000C3F80813024B0120BDE810401B681847AE
:10380000A80E002001460148FFF70CBF3800002039
:10381000036803F01F025B090260024818BF002022
:10382000704700BF0025845070B50D4C00F10803AF
:1038300034F813300546DA050E4607D5C3F34323A3
:1038400004EBC302526854F833309847A3682BB195
:1038500031462846E268BDE87040184770BD00BF99
:103860003C000020024611F0010004D003490B6A1D
:1038700013600B6203B90020704700BF002584501D
:1038800010B4134AC0B2083032F81030D9051CD534
:10389000C3F3432123F4F85322F81030002002F13F
:1038A0000E0434F8023F13F4807F03D0C3F34323A4
:1038B00099420AD001302028F3D1002342F8313058
:1038C00004485DF8044BFFF7CDBE5DF8044B70472C
:1038D0003C00002094000020F0B5054600200126A1
:1038E000044607468C420BD1114BD3F87C2132B1F0
:1038F0000022C3F87C21D3F87C3140F00040F0BDB9
:10390000E3B29B0003F580729B0806FA03F31D42A5
:103910000BD002F1A04202F55042D2F800C0BCF137
:10392000000F02D01760126818430134DAE700BFB5
:1039300000D00050CBB2024608460D49083331F89A
:103940001330990611D599070FD4012110685B0B2C
:103950009940C0F80813126802EB8303D3F81025CE
:1039600022F00302C3F810257047002103F0CEB8FF
:103970003C000020F7B5194ECDB2083536F81530A9
:103980000746DB070C4626D5FFF7D4FF36F815307F
:103990009A0608D55A0B3B6803EB82030022C3F852
:1039A0001025C3F810252046FFF76AFF002301A861
:1039B00026F815300194FFF72BFF019B00EB8300E5
:1039C000D0F80022064B134043F00203C0F8003247
:1039D000044803B0F0BD0448FBE700BF3C000020F2
:1039E000F0F8FCFF0000AD0B0400AD0B2DE9FF412A
:1039F000136807460C461646FBB1DFF84481CDB28A
:103A0000083538F8152002F02202222A22D000229E
:103A10002046CDE900228DF80E208DF80F200DF103
:103A20000E010DF10F0203F028F838F8153023F0DD
:103A3000020343F0010328F8153073684BB31A787A
:103A40005868DFF8FCC0E3B208333CF813108D0768
:103A500002D5B0B138481FE021F02001C904C90CDB
:103A60002CF8131068B1032AF4D870683D684068D8
:103A700090F800E005EB8E058AB9C5F81025C5F869
:103A800010253CF8131021F01C0141EA82022CF8A9
:103A90001320B3682BBB294804B0BDE8F081D5F8EA
:103AA000108541EA4E3128F00308C5F810853D68BD
:103AB00041F0200105EB8E05D5F810052CF8131008
:103AC00020F4473020F44070C5F810052002D5F8E6
:103AD000107500F4F85040EA02403843C5F810056C
:103AE000CFE72046D3E90067FFF7CAFE002ED2D009
:103AF000134DD5E90023964203D19F4201D1002204
:103B000009E010480DF10F01FFF78CFD0B4B9842B7
:103B1000C2D19DF80F20E4B205EBC20308345F6008
:103B200035F8143045F8326043EA422343F4807399
:103B300025F81430AFE700BF0400AD0B0000AD0B5B
:103B40003C000020940000202DE9FF4107460C4670
:103B50001E4612B3DFF8D480CDB2083538F81530E0
:103B6000980701D4990621D413F01C0F02D0537882
:103B7000012B1BD001238DF80F3000232046CDE907
:103B800000230DF10F01931C013202F076FF38F88B
:103B9000153043F0030328F81530002E44D0234D90
:103BA000E1B2083135F81120930703D4204804B05E
:103BB000BDE8F081002096F800E03B6822F020028A
:103BC000D20403EB8E03D20CC3F8100525F81120A4
:103BD000C3F8100596F801C04FEA8E08BCF1000F3B
:103BE00022D03868B6784044D0F810354FEA0C4CF3
:103BF00023F4981323F4F853C0F81035230203F488
:103C0000F8530CF4403C3605D0F8107543EA0C0329
:103C100006F48016334342EA4E323B4342F0200220
:103C2000C0F8103525F811200248C0E73C000020FC
:103C30000400AD0B0000AD0B014BC3E9021270474D
:103C40003C000020054BC9B2083133F81130990609
:103C500043BF5B0B02481370024870473C000020D2
:103C60000000AD0B0400AD0B70B5154D064695F880
:103C700060401CBB2146402205F1100002F0B6FB5B
:103C8000214630682E6D8E420ED10023C0F87C3163
:103C9000D0F87C3140F30730FEF736FA01230948AB
:103CA00085F86030AB6570BDCBB29B0003F58072C8
:103CB0007C2B04BF845083580131E4E70248F2E7CB
:103CC0003C0000200000AD0B0C00AD0B034B93F843
:103CD0006000003818BF0120704700BF3C00002082
:103CE0000148FFF7BFBC00BF900000200148FFF76C
:103CF00099BC00BF9000002073B503680C46D3F850
:103D000004130029A4BF4FF00041C3F804131E4957
:103D1000E3B2083331F8133099061AD513F00206CE
:103D200017D15B0B05689C0004F580716E506958D3
:103D300001682144D1F8104544F00104C1F8104550
:103D40002AB10122016802FA03F3C1F8043302B078
:103D500070BDC3F38203042B11D0052B11D001A831
:103D60000194FFF755FD019A0369D34003F0010365
:103D7000991C204602B0BDE8704002F0C7BE032186
:103D8000F7E70221F5E700BF3C0000202DE9F347EB
:103D9000534B544FD3F80403396DC0B240F0004088
:103DA000FFF79AFD051E18DA00236846F96D0093A7
:103DB0004FF00108FFF756FD97F85C30DA0757D44B
:103DC000396D4FF00040FFF787FD6846F96DFFF74A
:103DD00049FD0028F0D125F000450124002D66D1D1
:103DE00002B0BDE8F08794FAA4F4B4FA84F4E008D1
:103DF00004F1080337F8139004F007021DF80030AF
:103E000008FA02F223EA02030DF8003001A8019437
:103E1000FFF7FEFC019B4FEA9901803350F82360C5
:103E2000C9F3820A4B07D146C6F3014624D5204682
:103E30005146FFF7F9FC01A80194FFF7E9FC019B4B
:103E4000F6B2803350F82330C3F301439E4207D1CA
:103E50000021204602F05AFE3146204602F056FE6E
:103E600001A80194FFF7D4FC019B08FA03F3036255
:103E7000009C002CB7D1A3E7022E0CD103212046D1
:103E800002F044FE0AF00503012BE9D14946204621
:103E9000FFF7CAFCE4E70221204602F037FEBAF140
:103EA000030FF3D0032EDBD1BAF1020FEDE795FA41
:103EB000A5F3B3FA83F304FA03F29B0003F1A043E2
:103EC00003F55043D3F81005D3F81015C0F30420C0
:103ED000C1F3014125EA0205FFF7A6FC7EE700BF1A
:103EE00000D000503C0000200022034BC3F8842582
:103EF000C3F80425704700BF00900350044AD2F86D
:103F00000834DB07FBD50160BFF35F8F704700BF4C
:103F10000090035008B5C0F30B0383B90222094B8C
:103F2000C3F88425C3F804254FF0FF320260D3F8AC
:103F30000024D207FBD5FFF7D7FF034808BD03488D
:103F4000FCE700BF009003500000AD0B0A00AD0B72
:103F5000012208B5054BC3F88425C3F80425FFF7F3
:103F6000CDFFBDE80840FFF7BFBF00BF0090035082
:103F700038B5094B53F82040013053F82050A54282
:103F800000D838BD636823B1204602F005FE08342E
:103F9000F5E723689847FAE704710000012208B5A5
:103FA000084B03201A70FFF7E3FFFDF7EDFE042036
:103FB000FFF7DEFFFCF72EFA034A137B23F0010321
:103FC000137308BDCF0F00203001002008B503484F
:103FD000034A0021121A02F0F7FD08BD100100206B
:103FE000D00F002008B50020FFF7C2FF164B03F5E5
:103FF000006282F3088883F30A880025E023134CCB
:1040000084F82230E57725766576A57684F8205009
:10401000636A43F4E023636284F82350FDF7FCFFF6
:10402000FEF70AF94FF0FF33A362E36202F08EFD60
:104030000120FFF79DFF0220FFF79AFF2B462A463B
:1040400029460348FEF7D4F8D00F002000ED00E029
:104050009D3F000008B50648064A0749121A02F0BB
:10406000B5FDBDE80840054A0549064802F0AEBD69
:10407000000000201001002068790000000000000E
:104080006879000000000020034B1B680BB9FFF7A4
:1040900095B80020704700BFB00E002030B570B159
:1040A0000B4B5B6898420AD0036843B1D3E9042103
:1040B000D0E90445121941EB0501C3E90421D0E917
:1040C000003213605A600023C0E9003330BD00BFE6
:1040D000A000002010B50E4B1C689C4204D1FFF7D5
:1040E000D3FF6FF0004010BDFFF7CEFF002CF8D0DB
:1040F000D4E904321B1A62EBE072B3F1004F72F1A3
:104100000001EEDA002AACBF18460020EBE700BF42
:10411000A00000202DE9F84FEFF31186202383F350
:104120001288BFF36F8FDFF8B4902A4D4FF0000A6A
:104130002860D9F800004FF0000B484508BF002068
:10414000254C3746D4E9001E2B6880B3D0E904869D
:104150004FEAE37C43457CEB060206DAB8EB030248
:1041600066EB0C06C0E9042621E018EB01014EEBDA
:10417000E873C0E904ABC4E90013FFF78FFF87F3CE
:104180001188BFF36F8F83689847EFF3118720235F
:1041900083F31288BFF36F8F2B68D9F80000A3EB6D
:1041A000080348453E462B60CBD1D4E9001E591880
:1041B0004EEBE373C4E9001300242C60FFF78AFF81
:1041C0002146FEF7CDFF87F31188BFF36F8FBDE85F
:1041D000F88F00BFB00E0020B0010020A00000202A
:1041E00010B50A4C23681BB101232360002010BDC9
:1041F00000F046F80028F7D00138062803D8044B11
:1042000053F8200010BD034810BD00BFB40E0020BD
:104210001C710000FE8FFFFFBFF34F8F0549064B57
:10422000CA6802F4E0621343CB60BFF34F8F00BF54
:10423000FDE700BF00ED00E00400FA0530B44FF0E8
:10424000FE320025074B084C08494968C3F8002492
:10425000C3F80424C3F80824C3F80C24C4F8005598
:1042600030BC08470010845000008450A800002093
:10427000024BD0E90012C3E900127047A8000020E9
:1042800038B500F02FF820B1032400F063F8204681
:1042900038BD00F031F898B900F0ACF898B90F4D7E
:1042A000D5F828391B0EF02B08D1D5F8242A0C4B51
:1042B0009A420AD0072400F017F8E6E70624FAE746
:1042C0000424204638BD0024F5E7012000F092F8D0
:1042D00004460028F7D1C5F80C0AD8E7001084502E
:1042E0000000E0200020704700207047014BC3F819
:1042F000040A70470010845010B5114800F048F8C7
:1043000000B110BD0F4800F043F80028F9D10E4C61
:10431000204600F03DF80028F3D10C4B0C481C60FF
:1043200000F036F801460028EBD100F02DF80446E5
:1043300008B1204610BD00F03FF82046FAE700BF64
:10434000C0000020BC000020B8000020B000002009
:10435000B400002008B5084800F024F8074800F031
:1043600021F8074800F01EF8064800F01BF8BDE8E9
:10437000084000F00BB800BFC0000020BC000020C7
:10438000B8000020B400002000207047704700BF34
:1043900008B5034B02681B6810689847002008BDE9
:1043A000D800002008B5034B02685B681068984786
:1043B000002008BDD800002070B5094C094D2069C7
:1043C000AB68984718B1084B08485B6898470021CC
:1043D000074AEB6811602069BDE87040184700BFCC
:1043E000C4000020D8000020A80000203871000080
:1043F000B80E0020F8B51A4D1A4E0446B268286966
:104400009047E8B9184F3B684CB1A3B1012B19D0C4
:10441000013B3B602869F36898470020F8BD43B929
:104420000121124AC2F800151149D1F81029002AB9
:10443000FBD101333B60F368286998470020F8BD41
:104440000C48F8BD0A4AD2F81039002BFBD1074AB4
:104450006FF07E40C2F80035FFF748FF3B68D7E7B2
:10446000C4000020D8000020B80E002000008450B6
:1044700000108450E98FFFFF10B5044650B1636807
:1044800013F0685F05D0064A934202D000236260B1
:10449000236010BD034B04485B689847EFE700BFFB
:1044A0002C5F5CA9A800002058710000C8B14368C7
:1044B0000D4A934213D013F0685F0ED0012350E8E9
:1044C000002F194640E8001C9CF0000FF7D1012A8C
:1044D000F5D0BFF35F8F0020704704487047044851
:1044E00070476FF4E04070472C5F5CA9E98FFFFFD5
:1044F000EA8FFFFF034680B1426809498A420AD029
:1045000012F0685F05D0BFF35F8F002210461A607B
:10451000704704487047044870476FF4E0407047A4
:104520002C5F5CA9E98FFFFFEA8FFFFF10B50446FF
:1045300020B10023034A2360626010BD0248FFF7E8
:104540007DFEF6E73A00003A8071000030B1026863
:10455000034B04489A4208BF002070470248704746
:10456000DD55AABB8208F0007108F00038B50D4691
:104570000446B0B1A0220021043002F048FB95B1FE
:104580000822294604F1640002F047FB082205F1E5
:10459000200104F1840002F040FB0020034B236063
:1045A00038BD0348FCE70348FAE700BFDD55AABB66
:1045B0007108F0008308F0002DE9F74305460E4628
:1045C00099461146FFF7C2FF0446002840F0848058
:1045D000002E00F08580002900F08480B9F1200FC2
:1045E00040F0828005F14404082205F104082046C9
:1045F00002F013FB05F1240708223146404602F081
:104600000CFB06F120010822384602F006FB02A945
:1046100041F8049D4FF4807002F0F3FA002865D150
:104620004FF48073324A0121136093600823314AAA
:1046300000F034FB0121052308462F4A00F02EFB31
:104640000823424601211C2000F028FB08233A469B
:104650000121032000F022FB224608230121022031
:1046600000F01CFB0823254A01211A2000F016FB4C
:104670000523234A01211B2000F010FB0823214AB7
:104680000121142000F00AFB08231F4A01211520F4
:1046900000F004FB082305F164020121162000F05C
:1046A000FDFA082305F184020121172000F0F6FA33
:1046B0000823164A01210B2000F0F0FA00F04AFB13
:1046C0000446019800F0D8FA114B002C18BF1C4684
:1046D000A421284602F09DFA204603B0BDE8F083ED
:1046E0000C4CF9E70C4CF7E70C4CF5E7084CEFE7FE
:1046F00090108450E47100005C720000A47100000E
:10470000487200000872000028720000C4710000A6
:104710008408F0007608F0008008F0008108F000BE
:10472000C2690C4B1A60826943F8042C426943F851
:10473000082C026943F80C2CC26843F8102C8268DC
:1047400043F8142C426843F8182C026843F81C2CD8
:10475000704700BF5C1684500C4B1B68C3610C4B48
:104760001B6883610B4B1B6843610B4B1B68036128
:104770000A4B1B68C3600A4B1B688360094B1B68AC
:104780004360094B1B680360704700BF5C16845090
:104790005816845054168450501684504C16845029
:1047A00048168450441684504016845030B1026834
:1047B000034B04489A4208BF0020704702487047E4
:1047C000DD55AABB0202F0000002F00038B5044635
:1047D00068B1051D7021284602F01BFA28462022E8
:1047E000044902F012FA0020034B236038BD03484D
:1047F000FCE700BF70720000DD55AABB0002F000AC
:104800002DE9F04385B015466F46274B04460E460A
:104810000FCB87E80F002DB94FF00009484605B0CF
:10482000BDE8F0832046FFF7C1FF81460028F5D19F
:10483000231D0193636AA3BB236F8BB1C3F14008AF
:10484000A84528BFA84604F1300031461844424626
:1048500002F0DBF9236F464443442367A5EB0805C8
:10486000226F402A06D104F13001384600F0B4FB33
:104870000023236705F03F0835F03F0505D031469A
:104880002A46384600F0A8FB2E44B8F1000FC3D0EA
:104890004246314604F1300002F0B7F9C4F87080A6
:1048A000BCE7DFF80890B9E7F06E00000C02F000FA
:1048B0002DE9FF4104466F46134B0E460FCB87E8A8
:1048C0000F002046FFF772FF8046B0B9CEB1636A91
:1048D000251D01953BB90123226F636204F130016C
:1048E000384600F079FB2B46043E243453F8042B61
:1048F00012BAA34246F8042FF8D1404604B0BDE8EE
:10490000F081DFF80880F8E7F06E00000502F000A3
:10491000084B1B681B0EF02B08D1074B1A68074B7E
:104920009A4205D10020064B186070470520704759
:104930000620704728198450241A84500000E02073
:104940000C1A8450002230B5134640F6FC7549001D
:10495000023802F1A15404F5823490424FEA8404F3
:1049600002F10102CABF236025605B181E2AF0D144
:10497000034A13600B445360024B034A1A6030BD74
:10498000781084508410845020F80F001E4B30B5EE
:104990001A4685B0196800910099CC07FAD500F144
:1049A000A15000F582308000016813680193019BDB
:1049B000D807FAD5154B164C186820231F3090FBEA
:1049C000F3F0144D0138002810DA002301304001C3
:1049D00053B14FF00042A0F12001134204D101383D
:1049E00088424FEA5202F8D105B030BD13680393F4
:1049F000039BDB07FAD5431823602B680293029BC5
:104A0000002BE3D10138DEE7B4108450AC108450A1
:104A1000E4108450DC108450F0B51D6885B001F0BE
:104A20001F040DB91F2C28D1174D2E462F68019752
:104A3000019FFF07FAD500F1A15000F582308000F8
:104A4000006835680395039DED07FAD51F2C00EB30
:104A5000611018BFC9430D4D18BF01F01F01286038
:104A60000B480068029002981CBF00FA01F1116027
:104A70004FF0000108BF1060196010684300C00FBC
:104A8000136005B0F0BD00BFB4108450E410845032
:104A9000DC1084500C4B890118603F3020F03F003F
:104AA0004030586099600948D9601961596199612D
:104AB0001C3382B0196002680192019AD207FAD5BC
:104AC000196002B0704700BF90108450B410845039
:104AD00038B5A0F12003B3F5426F05462CD88F28D6
:104AE00026D800F1470300F16604DB064FEA5414B0
:104AF00000D0013464013F34A409013411B1A14252
:104B00001AD30C464FF48050E300B0FBF3F020289A
:104B100028BF202002B110600122084B21461A60F4
:104B2000FFF710FF28462146FFF7B4FF002038BDED
:104B300000F11F046409DDE70148F8E71C18845000
:104B40002221F000464BF0B51D4689B01C68019447
:104B5000019CE407FAD5434B002413449B001A68D8
:104B60000B181E2B88BFC0F11E011F320B185209F3
:104B70005343B3F5806F84BF4FF48061B1FBF2F112
:104B8000274688BF091ADFF8E4E000F1A150DFF8FA
:104B9000E0C000F58230A14233DC2B680493049B13
:104BA000DB07FAD5304B1B68296805910599CF07BB
:104BB000FAD52E4C2E49236000231E46934203F162
:104BC000010040D11946002620F0010228488A42FF
:104BD0003CD8296806910699CE07FAD52549096877
:104BE000286807900798C007FAD5216000210C4675
:104BF0001F488B422DD100201D499A422CD809B064
:104C0000F0BD2B680293029BDB07FAD503199B00CA
:104C10001B682E680396039EF607FAD5CEF800307F
:104C20000023934203F1010306D1164623F001034A
:104C3000B34204D80134AEE7CCF80070F1E7CCF809
:104C400000700136F4E70E600346B7E706600131F5
:104C5000BDE704600131CCE708600133CDE700BF58
:104C6000B4108450240421147C108450D410845037
:104C7000D81084507810845008B540B120280146DF
:104C80004FF0070228BF20210020FFF75BFF002222
:104C9000014B1A6008BD00BF1C188450F0B5294DA7
:104CA00085B02C462E680096009EF607FAD500F1D6
:104CB000A15000F5823080000568206801900198BD
:104CC000C707FAD52048214F056002EB8306B242A0
:104CD00029D100275A1C1D4E22F001029A4227D8E2
:104CE00023680293029BDE07FAD5194B0B449B0005
:104CF0001B681F335B099A4213D221680391039901
:104D0000C907FAD500211544056008469B1A0F4AC9
:104D10008B4210D800205A1C0C4922F001029A4202
:104D20000CD805B0F0BD52F804CBC7F800C0CEE7F0
:104D300037600133D2E710600131E9E708600133E1
:104D4000EDE700BFB4108450D4108450D8108450C4
:104D5000240421142DE9F041814BA0B01D6898680E
:104D600020331E461A680192019AD707FAD57D4B67
:104D70007D4A1A6032680292029AD407FAD57B4AB9
:104D80001A607B4A1446116803910399C907FAD542
:104D9000784A1168C1F3402137680497049FFF07E0
:104DA000FAD5754F1F6027680597059FFF07FAD54D
:104DB0001768002900F0CF80B90540F1CC80316838
:104DC00006910699CF07FAD56C49196021680791B9
:104DD0000799C907FAD51168C1F3402137680897C8
:104DE000089FFF07FAD5664F1F6027680997099F3C
:104DF000FF07FAD51268002900F0AF80910540F155
:104E0000AC8032680A920A9AD207FAD5564A1A60DA
:104E100032680B920B9AD707FAD55A4A1A60316852
:104E20000C910C99CC07FAD55749196031680D914E
:104E30000D99C907FAD55549196031680E910E9937
:104E4000CF07FAD55249196031680F910F99CC07F5
:104E5000FAD550491960504B1E46196810911099A7
:104E6000C907FAD53F4C4D4B236033681193119B12
:104E7000DB07FAD54A4B236033681293129BDF0796
:104E8000FAD5484B23603A4B984619681391139909
:104E9000C907FAD5324F386033681493149BDB0787
:104EA000FAD5226033681593159BD807FAD53E4B87
:104EB000236033681693169BD907FAD53B4B2360C2
:104EC00033681793179BDA07FAD5394B2360336899
:104ED0001893189BDB07FAD5364B23603368199378
:104EE000199BD807FAD5344B236033681A931A9B61
:104EF000D907FAD5314B236033681B931B9BDA0724
:104F0000FAD52F4B236000F01DFC08BBD8F8003009
:104F10001C931C9BDB07F9D53D6033681D931D9BDB
:104F2000D907FAD5274B236033681E931E9BDA07F7
:104F3000FAD5254B2360D8F800301F931F9BDB0761
:104F4000F9D50C4B1B6813F4805F204B08BF184643
:104F500020B0BDE8F0811E48FAE71E48F8E700BF20
:104F6000901084508010845000100251C01F72298C
:104F7000B410845088108450C0CF0129C01F0E295E
:104F8000C03F002940010249003184A800001649B1
:104F9000400108A180440888B0108450C044708843
:104FA00080077A41C0077E4100006A4980061649A1
:104FB00040006E4900020021008220214082202111
:104FC0008082242140A161A100C861510308F10041
:104FD0000108F1000208F100324B2DE9F74F80463D
:104FE0009246994644681A68002AFCD12E4B9B468B
:104FF0001A68002AFCD14FF0FF30019100F094FCB8
:10500000802000F097FC01230720284A284DA2F5B4
:105010009E722B60C2F83C011360636A254F264ED6
:105020003B60A36A20463360D8F8003042F8043C65
:10503000D8F8083098470199D9F80030002BFBD1F7
:10504000BAF1000F20D104221C4B1A60D9F80030AD
:10505000002BFBD1DBF800A0BAF1000FFAD1D8F891
:105060000C30204698473B6863623368A362144B58
:10507000C3F800A0C3F844A1D9F80030002BFBD13D
:105080002B6003B0BDE8F08F236A4020012B04BFE2
:105090000B4A13600B4B1960C3F804A000F050FCDE
:1050A000D4E700BF10198450201C8450001984508C
:1050B00018188450CC178450D0178450C8178450C7
:1050C00084168450281C8450544B10B5194698B04F
:1050D0001A680192019AD207FAD5514B514A1A60C7
:1050E0000A680292029AD407FAD54F4A1A600A68EF
:1050F0000392039AD007FAD54C4818600A680492C4
:10510000049AD207FAD54A4A1A600A680592059AA3
:10511000D407FAD5474A1A600A680692069AD20757
:10512000FAD5454A1A600A680792079AD407FAD551
:10513000424A1A600A680892089AD207FAD5404A89
:105140001A600A680992099AD407FAD53D4A1A608A
:105150000A680A920A9AD207FAD53B4A1A600A6884
:105160000B920B9AD407FAD5384A1A600A680C9247
:105170000C9AD207FAD5364A1A600A680D920D9A2F
:10518000D407FAD5334A1A600A680E920E9AD207EB
:10519000FAD5314A1A600A680F920F9AD407FAD5E5
:1051A0002E4A1A600A681092109AD207FAD52C4A31
:1051B0001A601A4B19461C681194119CE407FAD521
:1051C000174B1860086812901298C407FAD51A6035
:1051D0000A681392139AD007FAD5124A1A600A681D
:1051E0001492149AD207FAD51E4A1A600A681592C8
:1051F000159AD407FAD51C4A1A600A681692169AAC
:10520000D007FAD5194A1A600A681792179AD20776
:10521000FAD5174A1A6018B010BD00BFB0108450FC
:105220008010845000936521000431904096659071
:105230000083612100C3302100C36490008161902C
:1052400000461021008111210041442100C3202982
:105250000C4610C80086312100C3602140C12829B6
:10526000409665210013319040962529594614C86F
:1052700040043249494B10B5194694B01A6800925F
:10528000009AD207FAD5464B464A1A600A6801923C
:10529000019AD407FAD5444A1A600A680292029A1F
:1052A000D007FAD5414818600A680392039AD207DA
:1052B000FAD53F4A1A600A680492049AD407FAD5CC
:1052C0003C4A1A600A680592059AD207FAD53A4A0A
:1052D0001A600A680692069AD407FAD5374A1A6005
:1052E0000A680792079AD207FAD5354A1A600A68FF
:1052F0000892089AD407FAD5324A1A600A680992C5
:10530000099AD207FAD5304A1A600A680A920A9AAC
:10531000D407FAD52D4A1A600A680B920B9AD20765
:10532000FAD52B4A1A600A680C920C9AD407FAD55F
:10533000284A1A600A680D920D9AD207FAD5264AB1
:105340001A600A680E920E9AD407FAD5234A1A6098
:105350000A680F920F9AD207FAD5214A1A600F4BAA
:1053600019461C681094109CE407FAD50C4B186081
:10537000086811901198C407FAD51A600A68129249
:10538000129AD007FAD5174A1A600A681392139A2C
:10539000D207FAD5144A1A6014B010BDB010845068
:1053A000801084508090652100040990409665909B
:1053B000808061218020082180206490008161909C
:1053C0000046102100811121004144218020202924
:1053D000024610C80086092180206021402128292A
:1053E0004096652140962529594614C8504B10B562
:1053F0001C4696B01A680192019AD207FAD54D4B15
:105400004D4A1A6022680292029AD207FAD54B4A94
:105410001A604B4A42EA804022680392039AD207FC
:10542000FAD5186022680492049AD007FAD5454A42
:105430001A60A2F5800242EA814122680592059A2B
:10544000D207FAD5196022680692069AD007FAD5D3
:105450003D4A1A6022680792079AD107FAD53B4A5B
:105460001A6022680892089AD207FAD5384A1A6058
:1054700022680992099AD007FAD5364A1A6022683A
:105480000A920A9AD107FAD5334A1A6022680B9217
:105490000B9AD207FAD5314A1A6022680C920C9AFC
:1054A000D007FAD52E4A1A6022680D920D9AD107BC
:1054B000FAD52C4A1A6022680E920E9AD207FAD5B3
:1054C000294A1A6022680F920F9AD007FAD5274A04
:1054D0001A60216810911099C907FAD51A60144B07
:1054E0001A46196811911199C807FAD5114B20492C
:1054F0001960116812911299C907FAD51D491960EE
:10550000116813911399CC07FAD50B4919601168EA
:1055100014911499C807FAD51749196011681591A3
:105520001599C907FAD5154A1A6016B010BD00BF03
:10553000B010845080108450400441900086292986
:10554000D81001C84014419040142129401465210D
:105550000034409000310C90C0400C90C0302029A5
:1055600040960D9000416090031645C800861121B9
:1055700000416021594644C84014459040142D9084
:10558000264870B5054688B004680094009CE6077C
:10559000FAD5234C23480460234C44EA83432C6807
:1055A0000194019CE407FAD50360930143EA824227
:1055B00042F0104444F4C0442B680293029BDE077F
:1055C000FAD504602B680393039BDB07FAD5174BCE
:1055D00003608B0143EA814141F0104343F4C0432F
:1055E0002E680496049EF607FAD503602B6805938F
:1055F000059BDE07FAD5046041F058412B680693FD
:10560000069BDC07FAD5016042F058422B680793ED
:10561000079BDB07FAD5026008B070BDB01084505C
:10562000C0210229801084508071009880611890F8
:10563000354B8EB019461A680092009AD207FAD5F7
:10564000324B334A1A600A680192019AD007FAD5A0
:10565000304A1A600A680292029AD207FAD52E4A94
:105660001A600A680392039AD007FAD52B4A1A6087
:105670000A680492049AD207FAD5294A1A600A687D
:105680000592059AD007FAD5264A1A600A6806924A
:10569000069AD207FAD5244A1A600A680792079A2E
:1056A000D007FAD5214A1A600A680892089AD207E8
:1056B000FAD51F4A1A600A680992099AD007FAD5E2
:1056C0001C4A1A600A680A920A9AD207FAD51A4A3C
:1056D0001A6008680B900B98C007FAD51A600A6820
:1056E0000C920C9AD007FAD5144A1A600A680D92E7
:1056F0000D9AD207FAD5124A0E211A6000200D2306
:105700000F220EB0FFF73CBFB010845080108450C1
:105710008043012940633921807001298020542170
:1057200000D13490C0403490C0302029C0530D9037
:1057300000413890832308C880E3102100413821BC
:10574000CF4308C801232DE9F04192B0CDE90333DE
:10575000624B1D461A680592059AD207FAD5604B2E
:10576000604C2360604B19461A680692069AD70768
:10577000FAD55E4B1A68D60400F1A8802A68079211
:10578000079AD007FAD55A4A22600A680892089AFE
:10579000D207FAD51E68C6F30036002E40F0988076
:1057A0001220FFF7F3F807461320FFF7EFF88742C0
:1057B0008CBF12201320FFF7E9F8471EFFF738FFD0
:1057C00003AB01AA39461220FFF726F904AB804645
:1057D00002AA39461320FFF71FF900EB4800022800
:1057E00032D003283ED0012874D12B680993099B3D
:1057F000DB07FAD53F4B23602B680A930A9BD80737
:10580000FAD53D4B23602B680F930F9BD907FAD530
:105810003A4B23602B681093109BDA07FAD5384B6C
:1058200023602B681193119BDB07FAD5354B23605E
:10583000013F25D51023192218210020FFF7A0FED3
:10584000304612B0BDE8F0812B680B930B9BD90753
:10585000FAD52D4B23602B680C930C9BDA07FAD5F5
:105860002A4BCFE72B680D930D9BDB07FAD5284B0E
:1058700023602B680E930E9BD807FAD5254BC1E702
:1058800003AB01AA39461220FFF7C6F804AB044661
:1058900002AA39461320FFF7BFF810EB440402D1E7
:1058A000FFF712FCC4E7FFF7E5FC022C08D0032C3D
:1058B00009D0012C10D117211620FFF797FDB7E76B
:1058C00015211420F9E70F210E20F6E7124EB7E755
:1058D000124EB5E7124EB3E7124EB1E7B010845046
:1058E00000084A5180108450B410845088108450AD
:1058F00000084E5100065A4940065E4900044241E4
:105900000014424940042E490006524940065649B7
:1059100000063A4940063E490608F1000708F10032
:105920000408F1000508F100014B1860704700BF42
:10593000081A8450014B1860704700BF041A845045
:10594000034A13681842FCD0024A10601846704798
:10595000001A8450081A845070470020704730B5F0
:10596000836804468B42154685B00ED96368C068CB
:10597000194401AA00F03FFE28B96268019B9B1AF6
:105980002B60029B6B6005B030BD6FF02100FAE721
:1059900070472DE9F7430E4617469946044628B945
:1059A0004FF0FF38404603B0BDE8F0830029F7D040
:1059B000002AF5D0CB680D8938461D4404232946BA
:1059C0000DEB030200F04AFC80460028E8D146F6C1
:1059D0000812BDF804107389914225D1BDF8061054
:1059E0009942DDD1042338460DEB0302294400F02F
:1059F00035FC0028D4D146F60713BDF804209A429E
:105A0000CED1C4E900679DF82830A4F80890A372AD
:105A10007389BDF806202B44E360738913442B443B
:105A2000043563612561BDE7002BE4D0B8E72DE9BB
:105A3000F3410E4617461D46044620B94FF0FF308D
:105A400002B0BDE8F0810368002BF7D04368002B5B
:105A5000F4D04FF6FF78D4E904239A4216D2236893
:105A60005B8923B1E368934204BF043323610423B9
:105A7000216960680DEB030200F0F0FB0028DDD126
:105A8000A37A2BB1D4E903329A4201D30120D7E79C
:105A90002389BDF80610434501F1040203D0BDF887
:105AA00004C09C450BD115B1BDF804302B8023698F
:105AB000043333603980236913442361C0E72369C9
:105AC00013442361C7E748B103683BB143682BB176
:105AD000C068884294BF0020012070474FF0FF301B
