:020000021000EC
:108000008871012099C00100CF3C030035C00100F8
:1080100035C0010035C0010035C0010035C0010088
:10802000000000000000000000000000BDC20100D0
:1080300035C001000000000041C2010035C0010050
:10804000F1C40100F1C40100F1C40100F1C4010058
:10805000F1C40100F1C40100F1C40100F1C4010048
:10806000F1C40100F1C40100F1C40100F1C4010038
:10807000F1C40100F1C40100F1C40100F1C4010028
:10808000F1C40100F1C40100F1C40100F1C4010018
:10809000F1C40100F1C40100F1C40100F1C4010008
:1080A000F1C40100F1C40100F1C40100F1C40100F8
:1080B000F1C40100F1C40100F1C40100F1C40100E8
:1080C000F1C40100F1C40100F1C40100F1C40100D8
:1080D000F1C40100F1C40100F1C40100F1C40100C8
:1080E000F1C40100F1C40100F1C40100F1C40100B8
:1080F000F1C40100F1C40100F1C40100F1C40100A8
:10810000F1C40100F1C40100F1C40100F1C4010097
:10811000F1C40100F1C40100F1C40100F1C4010087
:10812000F1C40100F1C40100F1C40100F1C4010077
:10813000F1C40100F1C40100F1C40100F1C4010067
:04814000F1C4010085
:04814400FFFFFFFF3B
:1081480081F0004102E000BF83F0004330B54FEA00
:1081580041044FEA430594EA050F08BF90EA020F6D
:108168001FBF54EA000C55EA020C7FEA645C7FEA00
:10817800655C00F0E2804FEA5454D4EB5555B8BF23
:108188006D420CDD2C4480EA020281EA030382EA94
:10819800000083EA010180EA020281EA0303362D26
:1081A80088BF30BD11F0004F4FEA01314FF4801CF9
:1081B8004CEA113102D0404261EB410113F0004F0B
:1081C8004FEA03334CEA133302D0524263EB4303C2
:1081D80094EA050F00F0A780A4F10104D5F1200E60
:1081E8000DDB02FA0EFC22FA05F2801841F10001BB
:1081F80003FA0EF2801843FA05F359410EE0A5F18F
:1082080020050EF1200E012A03FA0EFC28BF4CF0BF
:10821800020C43FA05F3C01851EBE37101F0004575
:1082280007D54FF0000EDCF1000C7EEB00006EEB82
:108238000101B1F5801F1BD3B1F5001F0CD349080C
:108248005FEA30004FEA3C0C04F101044FEA445263
:1082580012F5800F80F09A80BCF1004F08BF5FEAEA
:10826800500C50F1000041EB045141EA050130BDCA
:108278005FEA4C0C404141EB0101013C28BFB1F5DC
:10828800801FE9D291F0000F04BF01460020B1FA27
:1082980081F308BF2033A3F10B03B3F120020CDAFA
:1082A8000C3208DD02F1140CC2F10C0201FA0CF0D8
:1082B80021FA02F10CE002F11402D8BFC2F1200C3D
:1082C80001FA02F120FA0CFCDCBF41EA0C019040F3
:1082D800E41AA2BF01EB0451294330BD6FEA04043C
:1082E8001F3C1CDA0C340EDC04F11404C4F1200227
:1082F80020FA04F001FA02F340EA030021FA04F339
:1083080045EA030130BDC4F10C04C4F1200220FA8F
:1083180002F001FA04F340EA0300294630BD21FACD
:1083280004F0294630BD94F0000F83F4801306BF93
:1083380081F480110134013D4EE77FEA645C18BF87
:108348007FEA655C29D094EA050F08BF90EA020F1E
:1083580005D054EA000C04BF1946104630BD91EA16
:10836800030F1EBF0021002030BD5FEA545C05D119
:108378004000494128BF41F0004130BD14F5800458
:108388003CBF01F5801130BD01F0004545F0FE41CC
:1083980041F470014FF0000030BD7FEA645C1ABF01
:1083A800194610467FEA655C1CBF0B46024650EA38
:1083B800013406BF52EA033591EA030F41F4002164
:1083C80030BD00BF90F0000F04BF0021704730B5EA
:1083D8004FF4806404F132044FF000054FF00001BF
:1083E80050E700BF90F0000F04BF0021704730B580
:1083F8004FF4806404F1320410F0004548BF404255
:108408004FF000013EE700BF42004FEAE2014FEAA9
:1084180031014FEA02701FBF12F07F4393F07F4F84
:1084280081F06051704732F07F4208BF704793F087
:108438007F4F04BF41F40021704730B54FF460749A
:1084480001F0004521F000411CE700BF50EA01029D
:1084580008BF704730B54FF000050AE050EA010246
:1084680008BF704730B511F0004502D5404261EBB6
:1084780041014FF4806404F132045FEA915C3FF4F7
:10848800D8AE4FF003025FEADC0C18BF03325FEA94
:10849800DC0C18BF033202EBDC02C2F1200300FA45
:1084A80003FC20FA02F001FA03FE40EA0E0021FA6A
:1084B80002F11444BDE600BF70B54FF0FF0C4CF458
:1084C800E06C1CEA11541DBF1CEA135594EA0C0F0A
:1084D80095EA0C0F00F0DEF82C4481EA030621EA45
:1084E8004C5123EA4C5350EA013518BF52EA033580
:1084F80041F4801143F4801338D0A0FB02CE4FF032
:108508000005E1FB02E506F00042E0FB03E54FF061
:108518000006E1FB03569CF0000F18BF4EF0010E59
:10852800A4F1FF04B6F5007F64F5407404D25FEA55
:108538004E0E6D4146EB060642EAC62141EA555108
:108548004FEAC52040EA5E504FEACE2EB4F1FD0C4A
:1085580088BFBCF5E06F1ED8BEF1004F08BF5FEAC8
:10856800500E50F1000041EB045170BD06F000467A
:1085780046EA010140EA020081EA0301B4EB5C0427
:10858800C2BFD4EB0C0541EA045170BD41F480111F
:108598004FF0000E013C00F3AB8014F1360FDEBF44
:1085A800002001F0004170BDC4F10004203C35DA20
:1085B8000C341BDC04F11404C4F1200500FA05F3A3
:1085C80020FA04F001FA05F240EA020001F0004244
:1085D80021F0004110EBD37021FA04F642EB0601BA
:1085E8005EEA430E08BF20EAD37070BDC4F10C04E4
:1085F800C4F1200500FA04F320FA05F001FA04F2A8
:1086080040EA020001F0004110EBD37041F1000193
:108618005EEA430E08BF20EAD37070BDC4F120059E
:1086280000FA05F24EEA020E20FA04F301FA05F206
:1086380043EA020321FA04F001F0004121FA04F2AE
:1086480020EA020000EBD3705EEA430E08BF20EA7E
:10865800D37070BD94F0000F0FD101F000464000B8
:1086680041EB010111F4801F08BF013CF7D041EA3A
:10867800060195F0000F18BF704703F0004652003E
:1086880043EB030313F4801F08BF013DF7D043EA0F
:108698000603704794EA0C0F0CEA135518BF95EAC5
:1086A8000C0F0CD050EA410618BF52EA4306D1D14C
:1086B80081EA030101F000414FF0000070BD50EA6B
:1086C800410606BF1046194652EA430619D094EAF5
:1086D8000C0F02D150EA013613D195EA0C0F05D1DF
:1086E80052EA03361CBF104619460AD181EA030133
:1086F80001F0004141F0FE4141F470014FF00000EB
:1087080070BD41F0FE4141F4780170BD70B54FF085
:10871800FF0C4CF4E06C1CEA11541DBF1CEA135505
:1087280094EA0C0F95EA0C0F00F0A7F8A4EB0504E7
:1087380081EA030E52EA03354FEA013100F08880DE
:108748004FEA03334FF0805545EA131343EA1263A7
:108758004FEA022245EA111545EA10654FEA00265C
:108768000EF000419D4208BF964244F1FD0404F515
:10877800407402D25B084FEA3202B61A65EB030571
:108788005B084FEA32024FF480104FF4002CB6EB2E
:10879800020E75EB030E22BFB61A754640EA0C00AE
:1087A8005B084FEA3202B6EB020E75EB030E22BFEE
:1087B800B61A754640EA5C005B084FEA3202B6EB2F
:1087C800020E75EB030E22BFB61A754640EA9C00EE
:1087D8005B084FEA3202B6EB020E75EB030E22BFBE
:1087E800B61A754640EADC0055EA060E18D04FEA7C
:1087F800051545EA16754FEA06164FEAC30343EA1C
:1088080052734FEAC2025FEA1C1CC0D111F4801FE8
:108818000BD141EA00014FF000004FF0004CB6E7E1
:1088280011F4801F04BF01430020B4F1FD0C88BF80
:10883800BCF5E06F3FF6AFAEB5EB030C04BFB6EB8B
:10884800020C5FEA500C50F1000041EB045170BD7E
:108858000EF0004E4EEA113114EB5C04C2BFD4EBAB
:108868000C0541EA045170BD41F480114FF0000E2F
:10887800013C90E645EA060E8DE60CEA135594EAAB
:108888000C0F08BF95EA0C0F3FF43BAF94EA0C0FAE
:108898000AD150EA01347FF434AF95EA0C0F7FF423
:1088A80025AF104619462CE795EA0C0F06D152EA77
:1088B80003353FF4FDAE1046194622E750EA41065B
:1088C80018BF52EA43067FF4C5AE50EA41047FF46C
:1088D8000DAF52EA43057FF4EBAE12E74FF0FF3CD1
:1088E80006E000BF4FF0010C02E000BF4FF0010CA2
:1088F8004DF804CD4FEA410C7FEA6C5C4FEA430C1B
:1089080018BF7FEA6C5C1BD001B050EA410C0CBF69
:1089180052EA430C91EA030F02BF90EA020F0020CB
:10892800704710F1000F91EA030F58BF994208BF32
:1089380090422CBFD8176FEAE37040F001007047EF
:108948004FEA410C7FEA6C5C02D150EA013C07D146
:108958004FEA430C7FEA6C5CD6D152EA033CD3D091
:108968005DF8040B704700BF8446104662468C468B
:108978001946634600E000BF01B5FFF7B7FF0028BE
:1089880048BF10F1000F01BD4DF808EDFFF7F4FFE7
:108998000CBF012000205DF808FB00BF4DF808ED72
:1089A800FFF7EAFF34BF012000205DF808FB00BF95
:1089B8004DF808EDFFF7E0FF94BF012000205DF8B7
:1089C80008FB00BF4DF808EDFFF7CEFF94BF01206C
:1089D80000205DF808FB00BF4DF808EDFFF7C4FF65
:1089E80034BF012000205DF808FB00BF4FEA410CAE
:1089F8007FEA6C5C02D150EA013C0AD14FEA430C91
:108A08007FEA6C5C02D152EA033C02D14FF00000CD
:108A180070474FF0010070474FEA410212F500120B
:108A280015D211D56FF47873B3EB625212D94FEAAD
:108A3800C12343F0004343EA505311F0004F23FA97
:108A480002F018BF404270474FF00000704750EAEC
:108A5800013005D111F0004008BF6FF000407047A9
:108A68004FF00000704700BF4A0011D212F5001203
:108A780011D20DD56FF47873B3EB62520ED44FEA6E
:108A8800C12343F0004343EA505323FA02F07047EE
:108A98004FF00000704750EA013002D14FF0FF302C
:108AA80070474FF0000070474FEA4102B2F1E043CF
:108AB80024BFB3F5001CDCF1FE5C0DD901F0004CBD
:108AC8004FEAC0024CEA5070B2F1004F40EB83000D
:108AD80008BF20F00100704711F0804F21D113F139
:108AE8003872BCBF01F00040704741F480114FEA72
:108AF8005252C2F11802C2F1200C10FA0CF320FAFB
:108B080002F018BF40F001004FEAC1234FEAD32317
:108B180003FA0CFC40EA0C0023FA02F34FEA430381
:108B2800CCE77FEA625307D150EA01331EBF4FF00A
:108B3800FE4040F44000704701F0004040F0FE4025
:108B480040F40000704700BF7BB972B90029BEBF6E
:108B580000204FF0004106E008BF00281CBF6FF05E
:108B680000414FF0FF3000F057B8ADF1080C6DE947
:108B780004CE002909DB002B1ADB00F04FF8DDF8E2
:108B880004E0DDE9022304B07047404261EB410193
:108B9800002B1BDB00F042F8DDF804E0DDE90223DE
:108BA80004B0404261EB4101524263EB430370471A
:108BB800524263EB430300F031F8DDF804E0DDE9ED
:108BC800022304B0404261EB41017047524263EB1B
:108BD800430300F023F8DDF804E0DDE9022304B0E4
:108BE800524263EB4303704753B94AB9002908BF9F
:108BF80000281CBF4FF0FF314FF0FF3000F00CB8D9
:108C0800ADF1080C6DE904CE00F008F8DDF804E0D9
:108C1800DDE9022304B07047704700BF2DE9F04733
:108C280086468C460846089E154674461946002B0B
:108C380040F0C1808542B2FA82F245D94AB1C2F108
:108C4800200300FA02FC954094402EFA03F343EA0D
:108C58000C0C4FEA154EA8B2230CBCFBFEF80EFB19
:108C680018CC08FB00F943EA0C43994528D9EB18BE
:108C780008F1FF3704D2994502D9A8F102072B441D
:108C8800A3EB0903A4B2B3FBFEFC0EFB1C330CFBE5
:108C980000F044EA0344A04214D92C190CF1FF3324
:108CA80004D2A04202D9ACF102032C44241A43EAAC
:108CB80007401EB1D440002334607360BDE8F087DC
:108CC8004746DDE76346F1E792BB431B01214FEAC4
:108CD800154EAFB2200CB3FBFEFC0EFB1C330CFB95
:108CE80007F840EA0343984561D9EB180CF1FF30C7
:108CF80004D2984502D9ACF102002B44A3EB080337
:108D0800A4B2B3FBFEFC0EFB1C330CFB07F744EAD2
:108D18000344A7424DD92C190CF1FF3304D2A742C2
:108D280002D9ACF102032C44E41B43EA0040C0E73B
:108D3800C2F120039540944020FA03F12EFA03F380
:108D48004FEA154E9040AFB20343B1FBFEFC0EFB59
:108D58001C10190C0CFB07F841EA0041884522D980
:108D680069180CF1FF3004D2884502D9ACF1020031
:108D78002944A1EB08019BB2B1FBFEFC0EFB1C11C0
:108D88000CFB07F743EA01439F420ED9EB180CF19D
:108D9800FF3104D29F4202D9ACF102012B44DB1B04
:108DA80041EA004193E76046E3E76146F7E760463A
:108DB800A4E76346B8E7834206D916B900210846F6
:108DC8007CE7C6E900E0F9E7B3FA83F78FB9834295
:108DD80001D3724508D8BEEB020460EB03030120FF
:108DE8009C461EB9002169E73846FAE7C6E9004CF7
:108DF800F8E7C7F1200CBB400EFA07F522FA0CF48D
:108E08002EFA0CF1BA401C4320FA0CF3B8404FEA92
:108E1800144901431FFA84FEB3FBF9F809FB183023
:108E28000B0C08FB0EFA43EA00439A4540D9E318B5
:108E380008F1FF3004D29A4502D9A8F10200234470
:108E4800A3EB0A0389B2B3FBF9F809FB183308FB53
:108E58000EFE41EA03418E452CD9611808F1FF3313
:108E680004D28E4502D9A8F10203214443EA004006
:108E7800A1EB0E01A0FB02984145CE46434602D322
:108E880006D14D4504D20138B9EB020E68EB040354
:108E9800002EA7D0B5EB0E0261EB030101FA0CFC22
:108EA80022FA07F3F9404CEA0303C6E9003199E7CF
:108EB8004046C5E74346D9E710F8012B11F8013BB6
:108EC800012A28BF9A42F7D0D01A7047034611F8F2
:108ED800012B03F8012B002AF9D17047034613F838
:108EE800012B002AFBD1181A013870470000000036
:108EF8000023F7B505460E46CDE90033164C3B2155
:108F0800A7682046FB68984720B16FF03C042046CC
:108F180003B0F0BD20466A463B69B1B298470446A3
:108F28000028F2D10198FFF75DFA09A3D3E90023DD
:108F3800FFF7ECFB064600980F46FFF753FA024688
:108F48000B4630463946FFF701F9C5E90001DEE76F
:108F58000000000080842E41A4B10300000000003E
:108F680001282DE9F041884608D021F0EDFF1622AE
:108F7800374B1A504FF0FF30BDE8F0818A68354B07
:108F88009A42F2D821F0B0FA05460F4621F0ACFA21
:108F9800314CD8F80030D8F80420A3FB043604FB81
:108FA8000266D8F808209B1846EBE276EA0B42EAFC
:108FB8004742A2FB0421FF0B9B1AC0F30E0204FBDD
:108FC8000711A2FB04244FEAD23242EA444266EB7C
:108FD8000101981A61F100011BA3D3E90023FFF7EF
:108FE800B3FD06460D461446EFF31187202383F39D
:108FF8001288BFF36F8F194816F044FB40B918491F
:109008008822184819F060FE8821154819F053FE87
:10901800124816F05BFB144B1048C3E900659C60CE
:1090280016F03EFB40B90E4940F231120D4819F0D6
:109038004BFE40F23111E8E787F31188BFF36F8FD9
:10904800002099E7AFF3008000CA9A3B00000000B7
:109058000C000000FFC99A3B00CA9A3B60EC002054
:1090680010C30300D3C20300E8D2002000000000B0
:109078002DE9F047054699460024282386B08846FE
:109088009246CDE902431CF0DEFA284602A91CF0FC
:109098002BFD0746002800F0AF8083793A2B18D1C2
:1090A800042303992846049405931CF01BFB2846C7
:1090B80004A91CF019FD18B190F90030A34205DB92
:1090C8006FF01505284606B0BDE8F08728461CF065
:1090D800BAFABB79112B58D0062B58D00020AB68B0
:1090E800002B4ED19FED487B022295F824308DED60
:1090F800007B02FB03013A23A869043108F0D2FD82
:10910800044600287BD095F82420296A1CF0D1FC5D
:10911800061E31DBA3682046DB68A36295F82C2085
:10912800A96A1CF0C6FC061E26DBA06895F82C1060
:109138000C3003F071FFA06850F80C3F236295F8DB
:10914800241003F069FF95F82C3007F1180184F812
:10915800243095F8243084F82C303B7EFF2B03D143
:10916800A0691BF085FB0146204607F108021DF0A7
:109178008DF970B16FF0040620461CF0F9F93546F8
:10918800A0E71A8A5B681044AAE73020AAE73C20C7
:10919800A8E74146524620461DF09AF801460028A5
:1091A800E8D1B8F1040F22D199FA89F34246204652
:1091B80004A904931CF07DFC064620461CF0F8F92F
:1091C8000246002ED8D1294620461CF067FB0546EA
:1091D8000028D1D120461CF036FA3A2120461DF04D
:1091E800B8F920461BF062F80028C5DB6AE70422BC
:1091F80020461CF03FFBDFE76FF0040562E76FF0E5
:109208000B055FE7AFF3008000800000000000005E
:109218002DE9F0412DED028B1F46002386B0CDE9E4
:10922800043304230D46904606460193002800F0B7
:10923800B580002900F0B280062104A81EF027FCA2
:109248000446002855D1014604AA30461EF01CFCED
:10925800044600284AD16A46012104A81EF0DEFC13
:109268000446002842D1009B23B3042B2BD0052BA6
:109278000CBF0923FF232B70032101AB02AA04A80A
:109288001EF0FAFC0646002840F08680019B8BB150
:1092980018336B4403F8100CB8F1000F15D144498A
:1092A8004FF4BC72434819F00FFD4FF4BC714048AD
:1092B80019F001FDDFED407A0023C5ED017A2B702E
:1092C800C5ED027A12E00723D5E702A94046FFF769
:1092D800FDFD0222314602A817F072FB2B78C0B2BE
:1092E800092B0CD10F2837D96FF0150404A81EF0EC
:1092F800E1FB204606B0BDEC028BBDE8F0810F28EB
:10930800F2D8072B45D19FED2D8A2D4B33F810004D
:1093180040B3FFF767F824A3D3E90023FFF7CCF89D
:10932800FFF7C2FB042168600DEB010302AA04A841
:1093380001911EF0A1FC064670BB019B18336B44DB
:1093480003F8100C87B91A4940F29912194819F014
:10935800BBFC40F29911AAE71A4B9FED1B8A33F820
:109368001000D5E71948DDE702A93846FFF7AEFD3A
:109378000222314602A817F023FBC0B20F28B3D847
:109388000130C0B207EE900AF8EEE77A67EE887A05
:1093980096E76FF07F04A9E73446A7E76FF0150456
:1093A800A7E700BFAFF300807B14AE47E17A244003
:1093B8002ECD0300D3C20300000000000AD7A33F4C
:1093C80000C20300E0C103000AD723400AD7A34024
:1093D800D0B5174B57EC106B18681FF088FA044685
:1093E80070B10823C0E90667C36039460EA3D3E904
:1093F80000233046FFF7E6FA20B16FF000436361BF
:109408002046D0BD0022304639460A4BFFF7D0FA35
:1094180010B14FF00043F2E730463946FFF7FCFA47
:109428006061EDE7AFF300800000C0FFFFFFDF41A0
:10943800A8C900200000E0C12DE9FF478046164674
:109448000F46002900F0A280B1FA81F4341B002EE7
:1094580004F10A04C0F2A280304618F071FF0444F7
:10946800304618F073FFA4EB0609054669463046F6
:1094780018F094FFA9EB05036A4640467D33394648
:1094880021F027FAA64282460D4600F38380B9F1FF
:109498003F0F00F381804FF0FF33A9F12000C9F19D
:1094A800200103FA00F003FA09F223FA01F103FAA2
:1094B80009F3024328EA03030A4327EA0202134393
:1094C8000CBF01200020002D00F08A80B5FA85F33A
:1094D800E31A40F2FE7203F23E43934200F389809E
:1094E800002B23EAE376D4BF01223246121BA2F2F4
:1094F8003341A2F23447A2F25344C1F1200C2AFAB4
:1095080001F325FA04F4C7F1200E05FA0CFC25FA3C
:1095180001F105FA0EFE43EA0C03A2F2544CA2F242
:10952800544223432AFA07F425FA0CFC44EA0E04B1
:1095380044EA0C04C7F1200C14F0010F54D0A8B170
:109548004FF0FF3000FA02F200FA07F4144320FA51
:109558000CF2B840144303F001022AEA000A25EA93
:1095680004054AEA020A5AEA050A3DD0013341F1E4
:109578000002C2F3130253EA020138D0184642EA45
:10958800065141EC100B04B0BDE8F087B0FA80F446
:1095980020345BE7012096E7002094E7C6F1000934
:1095A800484618F0D3FE241A484618F0CFFEA61BEA
:1095B8000546694648462E4418F062FF6A4640460A
:1095C80006F17C03394621F084F982460D4640466F
:1095D800394618F0CBFE81458CBF0020012072E788
:1095E800BAFA8AF3203373E7C1F31302C6E70136E8
:1095F800C4E79FED010BC6E7000000000000F07F04
:109608002DE9FF4755EC104B25F00042B049EE0F0D
:109618008A4236D9AF498A4218D82046294696A3A5
:10962800D3E90023FFF7D8F9074620BB204629468F
:1096380093A3D3E90023FFF7B1F9002800F0A28033
:10964800384604B0BDE8F04700F006BBC5F3130385
:109658002246234307D02B4620462946FEF776FDAF
:1096680004460D4602E0002E40F0038145EC104B05
:1096780004B0BDE8F087002004B0BDE8F04700F072
:10968800FBBA954B9A4240F2A980944B9A4279D8FA
:10969800934B20462946F70003EBC603C6F1010A9F
:1096A800D3E90023FEF750FD8E4B804689463B44A4
:1096B800AAEB060A93ED007B8DED007BDDE9002324
:1096C80040464946FEF740FD04460D4622462B46D5
:1096D80020462946FEF7F0FE06460F466AA3D3E960
:1096E8000023FEF7E9FE6AA3D3E90023FEF72CFD69
:1096F80032463B46FEF7E0FE67A3D3E90023FEF7B8
:1097080025FD32463B46FEF7D7FE65A3D3E9002385
:10971800FEF71AFD32463B46FEF7CEFE62A3D3E9BA
:109728000023FEF713FD32463B46FEF7C5FE024610
:109738000B4620462946FEF707FD02460B4606461D
:109748000F4620462946FEF7B7FECDE90201BAF1D9
:10975800000F5CD100224FF0804330463946FEF7B7
:10976800F3FC02460B46DDE90201FEF7CFFF224675
:109778002B46FEF7E9FC02460B4600205A49FEF745
:10978800E3FC6DE7594B2046294603EBC60648A380
:10979800D3E90023FEF790FED6E90023FEF7D6FCB6
:1097A800FFF73AF98246FEF71DFE06460F4642A32A
:1097B800D3E90023FEF780FE02460B4620462946E1
:1097C800FEF7C2FC80468946304639463CA3D3E9B9
:1097D8000023FEF771FECDE900016FE7444B9A4282
:1097E80010D82046294638A3D3E90023FEF7AEFC5B
:1097F80000223D4BFFF7F0F838B100223A4B2046E3
:1098080029462BE74FF0000A60E782465EE73246BA
:109818003B4600204FF08041FEF796FC02460B467F
:10982800DDE90201FEF772FF02460B46DDE90001A1
:10983800FEF78AFC42464B46FEF786FC0B4602467C
:1098480029490020FEF780FC0B466FF47F7106461D
:109858008A4503DB344603EB0A5507E70AF57A7AAB
:109868003046002203EB0A514FF0B873FEF724FE8E
:10987800F6E600240025F9E6EF39FAFE422E864086
:1098880051302DD5104987C0D0A4BE726937663EC5
:10989800F16BD2C541BDBB3E2CDE25AF6A56113FE8
:1098A80093BDBE166CC1663F3E5555555555C53FCF
:1098B800FE822B654715F73F0000E0FE422EE63F8B
:1098C800763C7935EF39EA3D9C7500883CE4377E73
:1098D800412E8640FFFFEF7F422ED63FB1A2F03FD8
:1098E800A8B7030098B703000000F03FB8B703001B
:1098F800FFFFEF3D0000000051EC100BB1F5801F99
:109908002DE9F04F0D4687B023DA21F000430343D9
:1099180005D1012007B0BDE8F04F00F0BDB900291E
:1099280004DA07B0BDE8F04F00F0C6B9C64B002214
:10993800FEF7C2FD6FF035030D46C44A95420ADDB5
:1099480002460B46FEF702FC41EC100B07B0BDE8DF
:10995800F08F0023F1E72C15C5F31305A4F2FF34AB
:109968001C4405F5152303F6647303F4801383F090
:109978007F5204EB1354B64B82F4401242EA0501BD
:109988000022FEF7E1FBAB1C82468B46C3F31303B0
:109998000022022B53DC0023FEF7F6FFD0B1002C87
:1099A80000F020812046FEF71DFD06460F4690A3D5
:1099B800D3E90023FEF780FD04460D4630463946BC
:1099C8008DA3D3E90023FEF777FD02460B46204618
:1099D8002946B7E78AA3D3E9002350465946FEF73C
:1099E8006BFD02460B4600209A49FEF7ADFB064682
:1099F8000F4652465B4650465946FEF75DFD024605
:109A08000B4630463946FEF757FD06460F4614B951
:109A180032463B46A0E02046FEF7E4FC80468946F5
:109A280073A3D3E90023FEF747FD04460D464046DD
:109A3800494671A3D3E90023FEF73EFDA5E04FF0A8
:109A48008043A5F5C226FEF781FB02460B46504629
:109A58005946C5F5D725FEF759FEA6F27A4651357F
:109A6800CDE9000120463543FEF7BCFCDDE90023C3
:109A7800CDE9020110461946FEF71EFD02460B46C7
:109A8800CDE90423FEF718FD804689465EA3D3E995
:109A98000023FEF711FD5EA3D3E90023FEF756FB72
:109AA80042464B46FEF708FD5BA3D3E90023FEF7C9
:109AB8004DFB42464B46FEF7FFFC59A3D3E9002372
:109AC800FEF744FBDDE90423FEF7F6FC56A3D3E9D1
:109AD8000023CDE9040140464946FEF7EDFC54A3B6
:109AE800D3E90023FEF732FB42464B46FEF7E4FC7F
:109AF80051A3D3E90023FEF729FB42464B46FEF764
:109B0800DBFC02460B46DDE90401FEF71FFB002DD6
:109B18008046894648DD00224E4B50465946FEF79E
:109B2800CBFC52465B46FEF7C7FC02460B46064690
:109B38000F4640464946FEF709FBDDE90023FEF7DC
:109B4800BBFC8046894664B902460B463046394616
:109B5800FEF7FAFA02460B4650465946FEF7F4FA63
:109B6800F2E623A3D3E90023DDE90201FEF7A4FC12
:109B780004460D4620A3D3E90023DDE90201FEF7E0
:109B88009BFC42464B46FEF7E1FA02460B4630463E
:109B98003946FEF7D9FA52465B46FEF7D5FA024631
:109BA8000B4620462946D9E702460B4650465946F9
:109BB800FEF7CAFADDE90023FEF77EFC06460F46EB
:109BC800002C3FF425AF0AA3D3E90023DDE9020105
:109BD800FEF772FC04460D4607A3D3E90023DDE92E
:109BE800020129E79FED160BB0E600BFAFF3008036
:109BF8000000E0FE422EE63F763C7935EF39EA3D3B
:109C0800555555555555D53F44523EDF12F1C23F83
:109C1800DE03CB966446C73F599322942449D23F2A
:109C2800935555555555E53F9FC678D0099AC33F7A
:109C3800AF788E1DC571CC3F04FA97999999D93F91
:109C4800000000000000000000005043FFFFEF7F0D
:109C58000000F03F0000E03F10B19FED030B70479C
:109C68009FED030B704700BF00000000000000805C
:109C7800000000000000000010B19FED030B7047CA
:109C88009FED030B704700BF000000000000F0FFCD
:109C9800000000000000F07F10B19FED030B70473B
:109CA8009FED030B704700BF000000000000F0FFAD
:109CB800000000000000F07F08B518F05FFD9FED80
:109CC800020B08BDAFF30080000000000000F87F21
:109CD80008B5044814F02EFBBDE8084014200CF029
:109CE80005BF00BF80C5002010B50020FFF7F0FFBA
:109CF800054C18B12168054818F097FD21680448FB
:109D0800BDE8104018F091BDF0EB0020020007D22A
:109D1800010007D210B5064C0648216818F085FDE9
:109D2800206806F07FF9BDE810400020FFF7D0BF9B
:109D3800F0EB0020020007D270B50F4B18681CF03A
:109D4800A5FD002816DD4FF47A734FF4004503FB98
:109D580000F4002140F2E7304FF47A720023E4FB6C
:109D68000501FEF741FFBDE8704002460B46034877
:109D780014F0DABA70BD00BFF0EB002080C50020F7
:109D880010B51B4B1A78A2B15A7892B1A8B91870BD
:109D9800184C5970206806F045F920F034FA70B173
:109DA800002120681CF0DEFCC0B1BDE81040FFF7C0
:109DB800C3BF28B91870597001E00029E8D010BD58
:109DC80001221A700029F6D05A700A4B186806F05A
:109DD8004BF9BDE81040084814F0ACBAFFF778FF1B
:109DE8000028ECD021680548BDE8104018F01DBDDA
:109DF80098FF0020F0EB002080C50020020007D269
:109E080010B504464FF0FF324FF0FF33074813F008
:109E180047FC074B5A78A24203D021461878FFF72F
:109E2800AFFFBDE81040014818F00DBD70CC002010
:109E380098FF002010B50446006806F0F3F8606942
:109E48004FF0FF324FF0FF3313F02AFCE3686069EC
:109E580043F00203E36018F0F6FC60694FF0FF324C
:109E68004FF0FF3313F01CFCE368606943F0010313
:109E7800E36018F0E8FC0023084823611DF0FCFFAC
:109E880028B121680648BDE8104018F0CEBC054846
:109E98001DF02CFF2268044B1A6010BD159F0100AD
:109EA800020007D253280300F0EB002010B5044647
:109EB8004FF0FF324FF0FF33074813F0F1FB074B29
:109EC8001A78A24203D020465978FFF759FFBDE817
:109ED8001040014818F0B7BC70CC002098FF002053
:109EE80010B5094C206800F0A7F818B1BDE810407B
:109EF800FFF710BF206800F01FF90028F6D1BDE871
:109F08001040FFF7D3BF00BFF0EB0020013908B5C0
:109F1800042924D8DFE801F00314181D1400104B9D
:109F2800186800F02FF810F13D0F18D018B1BDE8EF
:109F38000840FFF7EFBE0120BDE80840FFF7B6BFB5
:109F4800BDE80840FFF7CCBF054B186800F08AF859
:109F5800ECE7034B186800F0EFF80028E7D108BDDC
:109F6800F0EB002010B5054C0548216818F05DFCA1
:109F78002068BDE8104006F055B800BFF0EB00209F
:109F8800020007D270B500240646A2B01822214666
:109F980008A8CDE90044CDE9024420F0C0FE002E17
:109FA8003DD0242221460FA80E9420F0B8FE24228A
:109FB800214619A8189420F0B2FE1C491C4818AB79
:109FC8000EAA11F083FCA04203DC6FF00D0022B052
:109FD80070BD012004AA0EA91AF0E0F80128054670
:109FE80002D06FF03C00F2E70EA96846FEF76EFF5C
:109FF8006846FEF773FF08AA014668461AF06EFF26
:10A008000028E2D023460322304609A905F042FB86
:10A0180040B1084B099A20461A601D71D7E76FF0C6
:10A028001500D4E76FF01200D1E700BF26C2030085
:10A0380053C20300F4EB002010B550B1084C23794B
:10A048002BB1214605F08EFE30B10023237100208C
:10A0580010BD6FF01500FBE76FF00D00F8E700BFCB
:10A06800F4EB002070B500240546A8B02422214650
:10A078000BA80A9420F053FE1822214604A820F0C9
:10A088004EFE002D4CD02146242215A8149420F011
:10A0980046FE214624221FA81E9420F040FE234994
:10A0A80023481EAB14AA11F011FC041E35DD022052
:10A0B8006A4614A91AF072F801281FD114A90AA82F
:10A0C800FEF704FF0AA8FEF709FF04AA01460AA83A
:10A0D8001AF004FF08B305AC0023032221462846E2
:10A0E80004F048FFF8B194E80F00124E06F1080595
:10A0F80085E80F000123002033760CE0012C08D0FE
:10A1080002206A461EA91AF049F8012801D11EA9A1
:10A11800D5E76FF03C0028B070BD6FF00D00FAE78E
:10A128006FF01500F7E76FF01200F4E726C203009E
:10A1380053C20300F4EB002010B558B1084C237E3D
:10A1480033B104F1080105F0B5FB30B100232376E3
:10A15800002010BD6FF01500FBE76FF00D00F8E769
:10A16800F4EB002010B52DED028B022388B08DF89A
:10A178000C30002304466846B0EE408AF0EE608A50
:10A18800CDE9063304938DF814301DF08FFE024696
:10A1980070B9214603A80EF02FF848B9DDE900236D
:10A1A80003A80EF07DF8024630B103A81DF06EFF3B
:10A1B80008B0BDEC028B10BDB0EE480AF0EE680A9C
:10A1C800044903A81DF097FF0028EED103A818F052
:10A1D80069FBEDE781C203002DE9F04F4FF0FF3135
:10A1E8008BB04FF0FF3000F0BDF800214FF416009F
:10A1F80000F0D8F80DF0C4FF03201DF0EEFE4FF07C
:10A20800000A00244FF00008DFF818B13C4DDFF8D1
:10A2180018914FF0FF324FF0FF335846CDE9002335
:10A228004FF4F012002315F01FFD0D2102A8CDE90F
:10A238000245CDE90445CDE90645CDE90845FEF7D7
:10A2480057FEA0B92F489DED020BFFF78BFFDDE904
:10A25800026742464B4630463946FEF7BDFB0028AA
:10A2680035D0294B1A78002A40D101221A701E21B4
:10A2780004A8FEF73DFE20B99DED040B2348FFF727
:10A2880071FF0E2108A8FEF733FE20B99DED080BDB
:10A298001F48FFF767FF102106A8FEF729FE20B91F
:10A2A8009DED060B1B48FFF75DFF1B4B1B7853B159
:10A2B8005046FEF797F80AF1010641EC100B1748D3
:10A2C800FFF750FFB246584615F02CFDA1E70022D3
:10A2D80030463946124BFEF761FB0028C7D00A4BBF
:10A2E8001B78002BC3D00022074BBFE70022304663
:10A2F80039460B4BFEF752FB0028F4D1B7E700BFF5
:10A308000000F0BF86C203009AFF00208BC2030042
:10A3180094C203009EC203009BFF0020A4C2030056
:10A3280000803C4070CB002000003E4001460148C0
:10A3380020F0BAB964CE00200146014820F0B7B930
:10A3480064CE002007B50022CDE9000101210448B0
:10A3580020F0B1F9003818BF012003B05DF804FB04
:10A3680064CE002007B50022CDE90001042104488D
:10A3780020F0A1F9003818BF012003B05DF804FBF4
:10A3880064CE002007B50022CDE900010821044869
:10A3980020F091F9003818BF012003B05DF804FBE4
:10A3A80064CE002007B50022CDE900011021044841
:10A3B80020F081F9003818BF012003B05DF804FBD4
:10A3C80064CE002008B50A4813F0B4FF0620FFF752
:10A3D800B3FF0022074BD3E8EF1FC3E8E02F0028A4
:10A3E800F9D10EF09DF9BDE808400820FFF79EBF9F
:10A3F800B0C5002024EC002007B51DF074FF20B97B
:10A4080003B05DF804EBFFF7DDBF0022002308214D
:10A41800CDE900230A4820F04EF968B9094813F03D
:10A4280089FF0620FFF788FF0820FFF77FFF03B0AA
:10A438005DF804EB0EF0E4B903B05DF804FB00BF6F
:10A4480064CE0020B0C5002008B50C4B994209D154
:10A458004FF40040002114F025FFBDE8084001201A
:10A46800FFF764BF064B994206D10120FFF764FF4E
:10A47800BDE80840FFF7C0BF08BD00BF010014F1E8
:10A48800020014F130B5022093B018F01AFA012036
:10A4980008F0B8FC1F48204B4360204B036106F0CE
:10A4A8004DFA1F481DF015FD0EF026F920BB1D4C76
:10A4B8001D4D4FF0FF314FF0FF30FFF743FF4121B3
:10A4C80001A81DF003FF0820FFF736FF20460EF015
:10A4D80011FAB8B918F0F7F90220FFF727FF284654
:10A4E80013F028FF0420FFF721FF4FF0FF314FF052
:10A4F800FF30FFF747FF07E0032013B0BDE8304007
:10A5080018F0DFB90B30F0D000214FF4702014F0B0
:10A51800C9FECEE710EC002051A40100030014F19D
:10A528008D280300AAC20300B0C50020F7B50F4666
:10A538000446F8B10190124B5B6A192B1DD051B13A
:10A54800142020F0C2F8064680B105460FCC0FC58E
:10A55800236801962B6000220023094801A912F004
:10A5680063FF28B117B1019820F0A8F86FF00B002D
:10A5780003B0F0BD6FF01500FAE76FF01B00F7E7C6
:10A5880024CD002083B51E4D1E4F4FF0FF324FF0F3
:10A59800FF33384601A912F0E3FF04460028F4D13E
:10A5A8004FF0FF314FF0FF30FFF7DCFE21460198F6
:10A5B8000EF04AFB002818DA21460198FFF7B6FF8B
:10A5C80030B1019C20461DF061FD204620F076F850
:10A5D8002B680133052B2B60D7DDFFF7F3FE002135
:10A5E8004FF4A02014F05EFECFE7019E30461DF028
:10A5F8004DFD304620F062F818F064F92C60C4E78D
:10A6080028EC002024CD002070B589B3066801220B
:10A61800304618F091F901460446304618F054F9CE
:10A62800C30708D41349AF22134818F04DFBAF21D4
:10A63800104818F040FB2146304618F05BF9251801
:10A6480029460022304618F03FF92D1AAC4206D0B0
:10A658000849B722084818F037FBB721E8E7214630
:10A66800304618F04DF92146BDE8704018F089BA17
:10A6780070BD00BFB0C20300D3C203002DE9F84388
:10A688000F4606681446B2684B1EB2F5004F34BF39
:10A69800042108213B4010D0C7F1000909EA070945
:10A6A800494503F1FF3028BF494618420CD11F46DF
:10A6B800BCB900252846BDE8F8838F420FD821464B
:10A6C800BDE8F84318F09FBA2C492D484FF4A27200
:10A6D80018F0FAFA4FF4A271284818F0ECFA9946E3
:10A6E800E6E7B2EBD40FE4D9E319591A104618F08B
:10A6F8002DF90146304618F083F980460028D8D055
:10A70800B36809EBC005B3F5004F34BF0423082331
:10A718001D4435447B1E1D44B5FBF7F57D43A5EB71
:10A7280009052946304618F007F92C44073424F067
:10A738000704A41B804507464FEAE40408D20246F2
:10A748004146304618F096F94146304618F0D7F998
:10A758003946304618F0CEF83844844208D2394693
:10A768003046224618F086F92146304618F0C7F9D7
:10A7780001223946304618F0C3F89BE7B0C20300FF
:10A78800D3C203002DE9F74F91461F460E460468D1
:10A79800009031B93A46494603B0BDE8F04FFFF79B
:10A7A8006DBF3FB9FFF730FF4FF00008404603B0D8
:10A7B800BDE8F08F02F1FF3A1AEA020F0AD04B49BE
:10A7C8004B4840F2891218F07FFA40F28911474845
:10A7D80018F071FAD4F808B0BBEBD70FE4D92046CB
:10A7E80018F0AAF801460546204618F083F8BBF58C
:10A7F800004F2CBF0822042202EBC5022244B31AE0
:10A808008046F9185846019318F0A0F88346B9F124
:10A81800000F02D016EA0A0F44D1C3450ED00FD25A
:10A82800AB445A462946204618F024F92946012205
:10A83800204618F065F8594618F0A3F9B046B5E770
:10A8480005EB080A01225146204618F03DF8C307D7
:10A8580028D45146204618F04DF84044584521D395
:10A868005146204618F0B5F85146204618F042F8EF
:10A87800ABEB080840450AD905EB0B0751462046C3
:10A888003A4618F0F7F83946204618F038F9524693
:10A898002946204618F015F901222946204618F0C5
:10A8A8002FF8CBE73A4649460098FFF7E7FE80467F
:10A8B80000283FF479AF2946204618F01BF8A36812
:10A8C800019AB3F5004F34BF04230823C2EBC0023A
:10A8D800D21ABA42314628BF3A46404620F0F8F923
:10A8E80031460098FFF790FE60E700BFB0C2030052
:10A8F800D3C20300B2F5802F2DE9F0410CD2042A0F
:10A9080020D83D494FF4F9723C4818F0DDF94FF46E
:10A91800F971394818F0CFF90823D21ACC1D11441F
:10A9280024F0070421F00701091B17294FEAD10673
:10A938000AD8314940F2FB12304818F0C5F940F204
:10A94800FB11E6E70423E8E70027046031463046B8
:10A95800A660E76018F003F80121421D80463046E2
:10A9680017F0F4FF9200D51DED082844B0423AD8FC
:10A97800B8F1FF3F3946A2F1100204F11000B8BF48
:10A988003A4620F0CCF92A463946204617F0D0FF3F
:10A998003B463A463946204617F0A1FFA6EB050884
:10A9A80020463946012217F0ABFF4246294617F0E8
:10A9B800BFFF2B463A462946204617F090FF3146FE
:10A9C800204617F0B5FF43463A463146204617F071
:10A9D80086FF31462046012217F092FF2946BDE83E
:10A9E800F04118F08CB804494FF40372034818F08A
:10A9F8006BF94FF403718CE7B0C20300D3C20300B4
:10AA0800014B1B68184700BF24C6002030B585B02D
:10AA180004460D4610220021684620F080F90223E2
:10AA28008DF80230044B2A4621466846019316F0F9
:10AA3800C7F805B030BD00BF09AA010080B50546BA
:10AA48000E461746984614F05BFC034620F07CFA45
:10AA58000446DFF81890424649F800303946304637
:10AA6800A84754F8090001F08DFB00BF080000005A
:10AA780000B5162220F068FA024B1A504FF0FF304A
:10AA88005DF804FB0C0000000F2800B508D920F081
:10AA98005BFA0922074B1A504FF0FF305DF804FBB0
:10AAA8002822054B02FB0033D3E8AF3F002BEED042
:10AAB8000020F3E70C00000030C6002028234343A1
:10AAC80030B50D4908330B44D3E8AF2F92B1541E6B
:10AAD800D3E8EF5F954204D1C3E8EC4FBCF1000F17
:10AAE800F6D1F1D1012A05D12823584300230A18A9
:10AAF8000B50536030BD00BF28C6002038B504464F
:10AB08001546FFF7C1FF00280DDB28236343074ADA
:10AB1800D0184068086015B10C3313442B60282303
:10AB28005C43105938BD0020FCE700BF28C6002050
:10AB380070B500254FF0FF334FF0FF32174812F081
:10AB4800AFFD174BD3E8AF2F82B10135102D03F1BC
:10AB58002803F7D120F0F8F917224FF0FF35114BF1
:10AB68001A500E4818F0A3F8284670BD28246C43E4
:10AB7800D3E8EF0F0130C3E8E10F0029F8D10A4EFE
:10AB8800331932515A6004F10C0030441FF099FB1C
:10AB980004F1200030441FF047FCE2E748CC0020D5
:10ABA80030C600200C00000028C6002010B404465F
:10ABB800104628225443094B1A191951506048B1BC
:10ABC800C2683AB10C34234440F205125DF8044BD4
:10ABD80018F05CB85DF8044B704700BF28C6002029
:10ABE800F8B50546FFF750FF00281ADB28246C4308
:10ABF8000D4F04F10C063E444FF0FF324FF0FF3387
:10AC0800304612F04DFD3B195B6838599B689847F0
:10AC18000446304618F04BF82846FFF74FFF204609
:10AC2800F8BD4FF0FF34FAE728C600202DE9F843B5
:10AC380040F26C7344690569E1170135E41841F184
:10AC48000001022D8CBF00230123E41AC76861F1BB
:10AC580000010029064607F1FF374EDA6FF4C77086
:10AC68004FF4C8720023201861F10001FDF76CFF52
:10AC7800244B4FF03C0E03FB0044D6E900834FEA17
:10AC8800E37C99466346022D02468CBF6FF00200B2
:10AC98000920B6680544C6FB0E93A9FB0EC60EFB39
:10ACA800036640F26D1E9920A3080EFB04333B4453
:10ACB800642745430520B4FBF7F40235B5FBF0F5EE
:10ACC8001B1B114C1CEB080CA2FB042004FB01010C
:10ACD8002B4446EBE87698180C4A41F1000380189B
:10ACE8000B4A63F10003A0FB020102FB031110EB06
:10ACF8000C0041EB0601BDE8F8834FF4C87200234D
:10AD08002046B3E770FEFFFFB13A02009405F5FF55
:10AD1800805101002DE9F84F0446A38B0846190716
:10AD2800164612D4022803F0070162D1204618F013
:10AD380028F888B10138042800F22581DFE810F0EE
:10AD4800590023017E00C800F50001280CBF43F01C
:10AD5800100143F02001A18304F1140014F0A0FCB9
:10AD6800002800F0AB8086F31188BFF36F8FBDE831
:10AD7800F88F03F00702501F01281ED80020062A6A
:10AD88002768C4E9000014D13A4603E0E08B01309B
:10AD9800E0831268002AF9D123F0070343F0020286
:10ADA8002046A28317F0EDFF90B342F02002A28361
:10ADB8002EE023F007039AB2F2E7042A33D123F0F6
:10ADC80007039AB22046A28317F0DBFF10B142F0C6
:10ADD8002002A283A38B03F00709894540F0DC8099
:10ADE800A18BCA0640F1218121F01003A38301F051
:10ADF8000701D4F81880A38BB8F1000FB9DA002244
:10AE0800276823F00703C4E9002243F00103A38362
:10AE1800A38B03F00709894540F0BF80002FDFD0DE
:10AE28000025AA4640E0854940F21B12844817F0E5
:10AE38004BFF40F21B11814817F03DFF41B17F499C
:10AE48004FF4AB727E4817F03FFF4FF4AB71F2E757
:10AE5800236843B9794940F25712794817F034FF0B
:10AE680040F25711E7E723691D6845B973494FF464
:10AE7800AD72734817F028FF4FF4AD71DBE70F464A
:10AE880088464FF00609A38B23F0070343F0060317
:10AE98009BB2A383A268002A40F08180002F40F073
:10AEA8008180002D9CD0BA4643F0080304F1140BAE
:10AEB8005846A38314F0F4FB002875D1614940F289
:10AEC80031125F4817F000FF40F231115D48B3E7D7
:10AED800022908D0594940F25D12594817F0F4FE8A
:10AEE80040F25D11A7E7E78B47B154494FF4AF72C1
:10AEF800534817F0E9FE4FF4AF719CE723695D688A
:10AF080045B94E4940F261124D4817F0DDFE40F256
:10AF1800611190E7A38BB84623F0070343F00403BD
:10AF28009BB24FF00409A383B4E7012908D0434931
:10AF38004FF4B272424817F0C7FE4FF4B2717AE785
:10AF4800236843B93D4940F265123D4817F0BCFEFD
:10AF580040F265116FE723699D6845B937494FF499
:10AF6800B472374817F0B0FE4FF4B47163E70027A6
:10AF7800A38BB84623F0070343F005039BB24FF0B9
:10AF88000509A38386E72D4940F26B122C4817F078
:10AF98009BFE40F26B114EE7002700257AE74FF041
:10AFA800010A81E792467FE786F31188BFF36F8F26
:10AFB800BAF1000F16D147BB15B120462249A84760
:10AFC800EFF31186202383F31288BFF36F8F58465F
:10AFD80014F058FB08BB1B498822194817F074FE67
:10AFE800882173E7A1680029E5D00E680029E2D01E
:10AFF80043464A462046D1F804A0D0471EB13368DC
:10B0080031461E46F2E73346FAE7394643464A4692
:10B0180020463F6817F0E1FECDE7584614F056FB8E
:10B02800A38B23F00803A383DAE68B067FF594AE9F
:10B0380021F02003A38301F0070177E6EBC20300A8
:10B04800D3C2030010C3030055B00100F8B504468D
:10B058000D4600F11406EFF31187202383F31288BD
:10B06800BFF36F8F304614F00DFB40B909490A4809
:10B07800882217F029FE8821064817F01CFE304662
:10B0880014F024FBA5613A462046BDE8F8400121AA
:10B09800FFF740BE10C30300D3C203002DE9F047F9
:10B0A80004460F4617F089FE051E5DDB04F11409FE
:10B0B800EFF3118A202383F31288BFF36F8F48467A
:10B0C80014F0E0FA804638B933498822334817F03B
:10B0D800FBFD882130483CE0484614F0F7FA4FF66B
:10B0E800FF72E38BA68B934206F007063FD0022E31
:10B0F80010D135460133E383484614F0D1FA0028CD
:10B108003BD1254940F23112244817F0DDFD40F2C9
:10B118003111DFE7062E13D8DFE806F0092C1212EA
:10B12800090409006FF085054FF00008E4E70023E3
:10B138003B6063687BB9C4E900777EB13546F3E7C5
:10B14800174916484FF4E47217F0BEFD4FF4E47146
:10B15800134817F0B0FD1F606760EEE75246022102
:10B168002046FFF7D7FD35462846BDE8F0876FF043
:10B178000A05D9E76FF00405D6E78AF31188BFF30B
:10B188006F8FB8F1000FEFD00023324639462046C2
:10B1980017F023FEE8E700BF10C30300D3C2030083
:10B1A800EBC2030008B54268034602F00302022A14
:10B1B80081600AD0032A4FF0000103D0012A0AD186
:10B1C800596006E01868596008BD186800225A607E
:10B1D80050B90020F8E706490648452217F074FDE3
:10B1E8004521034817F067FD15F074F8F1E700BF33
:10B1F8003DC30300D3C20300014B03600020704726
:10B20800D8B7030010B5034C0821204618F0F5FD07
:10B21800204610BD9CFF002018B3006808B3407892
:10B22800A5281DD8872805D85F281AD013D807283D
:10B238000AD8704700F178020A4BD2B2D34013F013
:10B24800010F08BF00207047A0F14003DBB2062BB6
:10B2580028BF00207047A0F18003DBB2072BF7E777
:10B2680000207047B340203FF8B50E460446154607
:10B27800002138221F461FF052FD304618F076FA9A
:10B288002A462346A08405F1180152F8040B8A4285
:10B2980043F8040BF9D104F13003DFB197E8030058
:10B2A80083E803003368A362B388A3851FF01CF901
:10B2B8004FF47A72A0FB020302FB0131C00B40EA93
:10B2C8004140C90BC4E9060194F83630002084F8DF
:10B2D8002E30F8BD014A92E80300E1E7A8C8002033
:10B2E80007B504210DEB010018F087FD019A024B08
:10B2F8001A8003B05DF804FB80FF0020024B188819
:10B30800421C1A80704700BF80FF002000210A46B7
:10B3180038B5074B074C1D688D4201DC104638BD17
:10B3280054F8040B18F07EFC0243D2B20131F3E763
:10B3380030EC002034EC00202DE9F74F0646144687
:10B348009A4618F076FC0F46054628B96FF00A04AD
:10B35800204603B0BDE8F08F0029C0F2B180BAF1F1
:10B36800000F00F0AD80DAF80430002B00F0A88060
:10B3780033688B4205D0304618F054FC002840F062
:10B38800A280002C3CD006F1040818222146404631
:10B398001FF0B0F978B1304618F044FC002840F0AE
:10B3A800928004F1180354F8042B9C4248F8042BAB
:10B3B800F9D11823F36100234FF0FF32C5E90233B6
:10B3C800C5E90633C5E90933C5F8A82085F8203052
:10B3D80085F82C3006F1240800220023404612F09C
:10B3E8005FF983460028B1D103462A4651463046C4
:10B3F80018F032FB041E12DA404618F0E5FBA7E706
:10B40800F369002BD7D0304618F00CFC00285AD12D
:10B4180018222146301D1FF082FCF461CBE796F814
:10B42800243A05F18C095BB1FC214846B6F8FA3993
:10B4380006F6FC1217F086FF041EDDDB86F824BA38
:10B44800376005F168030AF124025AF8041B924593
:10B4580043F8041BF9D101236B741C4B1B6813B907
:10B468001B4812F05FFB0121184818F0A5FB48465D
:10B4780018F061F906F1040A88B905F1300B524653
:10B48800494658460C9BFFF7EFFE041EB4DB5846AE
:10B4980018F0A7FA484618F0D7FA85F8A400F36917
:10B4A800B5F890200093D5F88C105346384618F01C
:10B4B8008DFB0446404618F087FB04EAE47447E72E
:10B4C8006FF0150444E76FF0770441E72CEC002097
:10B4D800A4CD00202DE9F04F91B04FF0FF324FF08E
:10B4E800FF33B54812F058FB0121B44818F064FB4B
:10B4F800DFF8D4B2102200210CA81FF010FC5D4622
:10B5080059460022AE4B1C680CABA24213DB24EA5E
:10B51800E4744FF4FA7221460CA818F021FE061EB6
:10B5280018DA1FF011FD0022A64BC2500021A348D3
:10B5380018F042FBD1E751F8040B0132006843F8D8
:10B54800080B4FF0010023F8040C4FF0000023F81B
:10B55800020CDAE700F09D800023A34240F09E80B1
:10B568000023CDE0D9F800403746D4F8E8A8BAF16E
:10B57800000F1ED0B02303FB07F8444494F8A93801
:10B58800BBB11EF0B1FF4FF47A72A0FB023002FB90
:10B598000100DB0BD4F8E02843EA4043D4F8E41870
:10B5A8009B1A4FEAD03060EB0100534570F1000060
:10B5B8001BDA012F06D0D9F80040D4F898A9BAF1BF
:10B5C800000F10D1029B09F10409013302937C4B4F
:10B5D800029A1B689A42C5DBFFF798FE002887D1BC
:10B5E800002DA3D1BCE70127C4E7D9F8004008F62D
:10B5F800980504EB080A9AF8A9382544ABB3DAF899
:10B60800E83893B308F6C800204418F0EAF960B3A4
:10B61800DAF8BC381BB1DAF8A038CAF8C03804F137
:10B62800240A4FF0FF324FF0FF33504612F038F83B
:10B6380008F510612A4601232046214418F00CFA27
:10B64800051E0EDBB02101FB0741E369B1F828298B
:10B658000093D1F824192068231D18F0B7FA00EADE
:10B66800E075504618F0B0FAA3E74FF0B00808FBB1
:10B678000743D3F8143923B16FF07301284618F043
:10B68800B3FA002308FB07446FF0730584F8A93860
:10B698008FE73546DFF83091029698E70CAA02EB5F
:10B6A800C302D288D20744BF012155F8232003F1F1
:10B6B800010348BF82F820104FE75BF8045B95F858
:10B6C8002090B9F1000F19D005F58D644FF486620A
:10B6D800002120461FF023FBEB692868E3B9CDE978
:10B6E800003340234FF48662214602F049FC0028CB
:10B6F80018DC00225BF8043C83F82020039B01330C
:10B7080003932F4B039A1B689A42D6DBFFF7FEFD83
:10B7180000283FF40BAFE7E605F11C03043501935D
:10B728000095DEE7002382B22146009308A817F0AF
:10B73800F6FE0028DDDB08A85BF8045C17F0FBFFC9
:10B74800074608A9284618F083FABB1E012B0446B1
:10B7580001D80028CDD0032F03D104F1300018F010
:10B768006FF908A8FFF758FD029008A817F0FEFF28
:10B778000DF11E01824608A818F02AF8BDF81E30FF
:10B7880005901BBB022F21D1029BFBB91EF0ACFE1A
:10B798004FF47A72A0FB020302FB0131C30B43EAA8
:10B7A8004143C90BC4E9123103F5BB531033236578
:10B7B800029B84F85E309CE7A4CD00202CEC00208E
:10B7C80030EC00200C00000034EC0020002C90D05D
:10B7D8000DF13008414608A817F0B4FF227C8242D8
:10B7E80087D1414620461EF085FF0646002880D1B5
:10B7F800D4F8A8309A4507D185F8200094F8A430E9
:10B80800002B7FF476AF76E00123FC21C4F8A8A0D2
:10B8180005F6F81208A817F04AFF002851D0029B35
:10B82800812B4AD105F124074FF0FF324FF0FF3347
:10B83800384611F035FF33462246284604F16801A0
:10B8480018F00AF9002803DA384618F0BDF94FE075
:10B8580004F18C06FC213046B5F8FA3905F6FC12DD
:10B8680017F070FD0028EFDB304617F064FF05F194
:10B87800040980B9D4E9180104F1300A88E8030002
:10B8880043464A4631465046FFF7EEFC0028DBDBCC
:10B89800504618F0A6F8EB69B4F890200093D4F855
:10B8A8008C104B46286818F091F90646384618F06F
:10B8B8008BF9002EBFF61DAF1AE04FF0010385F893
:10B8C800243ADFB94FF48663009705F1380208A9D6
:10B8D8000CA817F052FF00280ADBEB69BDF83420EA
:10B8E80000930C9928682B1D18F070F9002805DAC8
:10B8F800002385F8203000236374FAE6236D1BB11A
:10B9080004F1300018F09CF8172108A817F0C4FFBC
:10B91800002834DD80F008080611C8F3C00804F1D7
:10B92800180705D132460621384617F071FFA66080
:10B93800394608A817F0C9FF3946064608A818F07E
:10B9480042F84B46616AE26F31B3A36A9942A36039
:10B9580019D0002A4AD105F124064FF0FF324FF0E2
:10B96800FF33304611F09CFE00232246284604F19E
:10B97800680118F071F8002840DA304665E70023BE
:10B98800C846A360DEE7002A33D100239E4285F82B
:10B998002030BFF633AFAEE76AB3994604F114031B
:10B9A80001211846049318F007F9824678B9D4F8AB
:10B9B8008830BDF90800CDE90083059AA168BDF873
:10B9C8001E30E76FB8475146049818F0F5F8637CC5
:10B9D800002BDAD0B9F1000FD7D0A368BDF81E202C
:10B9E8001344A360B8F1000FCFD1B4E74FF00008BB
:10B9F800D4E7C846D2E7002BC7D0F3E70CAB04F175
:10BA080030082F1DD4E918013A4683E80300404660
:10BA180004F18C01FFF728FC0028AEDB404617F044
:10BA2800E0FFEB69B4F890200093D4F88C103B4603
:10BA3800286818F0CBF80746304618F0C5F8002FEC
:10BA480038E700BF10B590F8A93804463BB1D0F8E4
:10BA58001439D3B9002384F8A93884F83C3994F808
:10BA680059393BB1D4F8C439B3B9002384F85939EA
:10BA780084F8EC3900210C4818F09EF8BDE8104015
:10BA88004FF48040002113F00DBC6FF08B0100F6DD
:10BA9800980018F0A9F8DDE76FF08B0104F648105C
:10BAA80018F0A2F8E1E700BF2CEC002038B50446F6
:10BAB80070B10A4D2B68012B0DDC24301EF001FCFF
:10BAC80000202B68064A42F8234001332B6038BD1A
:10BAD8006FF01500FBE76FF01B00F8E730EC002073
:10BAE80034EC002070B50D461646044638B331B321
:10BAF800202200211FF013F928881122022101F0C9
:10BB0800CDFC0028E06005DA1FF01EFA0D4B18582E
:10BB1800404270BD3246294601F01CFE0028E0680C
:10BB280002DA01F02BFDEFE70121A36844F83300A6
:10BB380004EBC3020B4491800020A360E9E76FF097
:10BB48000D00E6E70C000000F0B504469BB00F4678
:10BB580015460021302202A81FF0E1F8002C00F061
:10BB6800A180002D00F09E809DF8083023F03F034F
:10BB780043F01B038DF808301EF0B6FC4B4A002634
:10BB8800A0FB020302FB013110F5804041F10001E6
:10BB9800C00B40EA41400023444AC90BFCF7D4FFDC
:10BBA80041F2C6034FEA106C5A4303024CEA012CD7
:10BBB80003F47F0343EA0C03C4E9040143EA006386
:10BBC800000A00F47F400343A26112BAE0680C93B4
:10BBD8000D9230223346CDE9006602A901F086FEB7
:10BBE800002810DB314630220EA81FF098F8A16813
:10BBF8003A46204618F0B4FAB04206DA1FF0A4F923
:10BC08002B4B185840421BB0F0BD42D0E0683022A0
:10BC18003346CDE900660EA902F0B2F90028EDDB43
:10BC2800302839D1D4E90412149B1BBA964208BFB4
:10BC38008B4202D06FF01500E5E7159BA2691BBA8D
:10BC48009342F7D19DF8383003F00703042BF1D164
:10BC58009DF839301BB3189B199A1BBA12BA53EACC
:10BC68000201E7D0AA60002293420DDA11498B4203
:10BC780002D8C5E90032DDE70F4A9B1862EB0202E1
:10BC88000020C5E90032BEE70B495B1842F100020B
:10BC9800F6E76FF07300B6E76FF07900B3E76FF07F
:10BCA8000F00B0E76FF00D00ADE700BF40420F0096
:10BCB8000C0000007F7EAA838081557C08B504486B
:10BCC80016F0D5FFBDE80840024816F0D0BF00BF07
:10BCD8007BC30300B0C3030030BFFFF7FDBF00BF45
:10BCE8002DE9F04105460B4EDFF83080324606EB71
:10BCF8000807CC1B204608491EF0EAFFA019424657
:10BD08000021083C1FF00BF8C5F8844007F1080033
:10BD1800BDE8F08100000000C0B403000800000086
:10BD2800074A936893F90E10002907DB926993423A
:10BD38001FBF044A536843F080535360704700BFE5
:10BD480020FF002000ED00E0154B9A6A12F0007FFA
:10BD58009A6A14BF1E201D2012F0807F9A6A18BFAD
:10BD68001F2012F4801F9A6A18BF022012F4002FB5
:10BD78009A6A18BF212012F4802F9A6A18BF2220CD
:10BD880012F4003F9A6A18BF232012F4803F9A6A7F
:10BD980018BF24206FEA02426FEA12429A62704783
:10BDA80000ED00E010B5194B0246986A9C6A10F441
:10BDB800805F14BF1720162014F4006F9C6A18BF08
:10BDC8001820A40509D5986B986A000404D51AB1FF
:10BDD8009A6A22F400429A6219200C4B9A6A12F469
:10BDE800806F9A6A18BF1A20D2050CD49B6A13F484
:10BDF800005F18BF1C20054A936A43F47F4393628F
:10BE080000230B7010BD1B20F5E700BF00ED00E01C
:10BE180010B5244B0246986A9C6A10F0100F14BFA4
:10BE28001120102014F0080F9C6A18BF1220A407D4
:10BE380009D5586B986A000604D51AB19A6A22F097
:10BE480080029A621320174B9A6A12F0010F9A6ABD
:10BE580018BF142012F0200F9A6A18BF1520D206B6
:10BE680002D49B6A9B070ED50E4B9B6ADC060AD54B
:10BE78000D490E4840F2631216F026FF40F2631196
:10BE8800094816F018FF074B9A6A920642BF5A6A89
:10BE980022F400525A629A6A42F0FF029A62002320
:10BEA8000B7010BD00ED00E0DEC30300D3C2030039
:10BEB80070B5554B05465B6800209CB0C3F308037A
:10BEC80080F31188BFF36F8F02F07F40B0F17F4F8E
:10BED8000DD112F001040AD1500603D4160703D479
:10BEE800012603E0500700D50D46002655B94749FD
:10BEF8004FF48B62464816F0E7FE4FF48B614348D7
:10BF080016F0D9FE0022033B8DF80720032B30D80A
:10BF1800DFE803F0026B6F563B4BDA6A12F002025D
:10BF280027D1D96A002968DBDA6A520054D55A69E0
:10BF3800A96942F480725A61BFF34F8FBFF36F8FC4
:10BF48005A6931F8021C22F480725A61BFF34F8F8C
:10BF5800BFF36F8F4DF60272914209D09A6AD2B23E
:10BF680002B301200DF10701FFF752FF044600E07C
:10BF78002C689DF807309BB96822294602A81EF054
:10BF8800A7FE099B002E3AD0C3F3080222B96FEA34
:10BF980053236FEA43230993204602A917F089FE29
:10BFA8001CB070BD9A6A12F47F4F05D001200DF1C4
:10BFB8000701FFF7F7FED9E79B6AB3F5803F02D385
:10BFC800FFF7C2FED2E7114940F22A32104816F0B4
:10BFD8007BFE40F22A3192E70C4940F22E320C489F
:10BFE80016F072FE40F22E3189E700200DF10701AC
:10BFF800BAE700200DF10701DBE71446B9E723F49F
:10C00800FF7323F00103C6E700ED00E0DEC3030081
:10C01800D3C20300044B5A6942F010025A615A69AC
:10C0280042F480625A61704700ED00E0EFF3088047
:10C03800EFF3098101B57246FFF73AFF01BD00BF72
:10C0480008B540B910491148142216F03DFE1421D4
:10C058000D4816F030FEEFF314835A0712D500F19D
:10C06800400280EC100A82EC108AF1EE102AC0F827
:10C078008020012223F0040380F8842083F31488AD
:10C08800BFF36F8F08BD00BF10C40300D3C2030005
:10C09800002080F31488BFF36F8F002080F30A8894
:10C0A80080F30B880DF00EFB00200E490860BFF3EB
:10C0B8004F8F0D4880F3088800F03EF8202080F369
:10C0C80011880A484FF40061401880F30988EFF39B
:10C0D80014800221084380F31488BFF36F8F00F0A7
:10C0E8004FF9000094ED00E08871012048600120BC
:10C0F800BFF34F8F0549064BCA6802F4E062134349
:10C10800CB60BFF34F8F00BFFDE700BF00ED00E03D
:10C118000400FA05002318460649D1F89020C2F316
:10C128000722934200DB7047C1F89830C1F8A0009D
:10C138000133F6E700ED00E010B572B6002484F391
:10C148001388FFF7E7FF23464FF0FF300C4A03F14F
:10C1580020010133102B42F82100F8D100234FF0C1
:10C16800FF30074A03F160010133102B42F8210028
:10C17800F8D162B6BFF34F8FBFF36F8F10BD00BF0A
:10C1880000E100E0084B9B6883420BD1EFF3058385
:10C1980043B1064B5A6842F080525A605A6A22F4F8
:10C1A80000425A6213F0B2B820FF002000ED00E010
:10C1B8006FF00A01094A9368C3F88C100849C3F85C
:10C1C80088004B6843F080534B60002383F3118849
:10C1D800BFF36F8F9368D3F88C00704720FF00205F
:10C1E80000ED00E0114A936883F8D100EFF3118362
:10C1F800202383F31288BFF36F8F4FF00061936998
:10C2080020F0FF0093600A4A5160D3F88410094A6D
:10C218001160002193F8D1201043D3F88820C3F887
:10C22800881082F31188BFF36F8F704720FF0020BA
:10C2380000ED00E03CEC00201D498A6882F8D1E05E
:10C248004FF030001044EFF3098C80E8F01F1EF027
:10C25800100F03D102F1900080EC108A74467046EA
:10C26800FFF7C0FFA64612498A6886461EF0100FDF
:10C2780003D00023E1EE103A03E002F1900090ECC5
:10C28800108AEFF3148323F0040383F31488BFF3B5
:10C298006F8F02F1300090E8F01F8CF3098802F1EB
:10C2A800000004B517F030FDBDE8044070470000F9
:10C2B80020FF00201EF0040F0CBFEFF30880EFF3FF
:10C2C8000980816911F8021C0229FFD001B517F015
:10C2D800F6FC01BD40B2002807DB01234109034AEF
:10C2E80000F01F00834042F82130704700E100E071
:10C2F80040B200280CDB01220649430900F01F0068
:10C308008240203341F82320BFF34F8FBFF36F8F54
:10C31800704700BF00E100E0054B420953F82220B6
:10C32800012300F01F0003FA00F01040704700BF1F
:10C3380000E100E00131072908B508D90D490E4888
:10C34800582216F0C1FC58210A4816F0B4FC40B235
:10C358000028ACBF00F16040084B4FEA4111C9B258
:10C36800ABBF00F5614000F00F0080F800131954CE
:10C3780008BD00BF40C40300D3C2030014ED00E0B1
:10C38800144A08B5144B22F07F029A60BFF34F8F0E
:10C39800BFF36F8FD3F8882022F47002C3F8882087
:10C3A800D3F8882042F4A002C3F888204FF0404216
:10C3B800C3F83422BFF34F8FBFF36F8F0023E1EE32
:10C3C800103A10F09BFD13F089F900F081F810F095
:10C3D800D5FD00BF0080010000ED00E042F8203CE0
:10C3E800009B0D4942F81C3C019B21F0010142F8D9
:10C3F800183C029B42F8081C42F8143C4FF080732A
:10C4080042F8043C0023C0F888304FF43C43203AFB
:10C418000265C0F8D030704745AA0100104B9B68F0
:10C4280083421AD1EFF30580B8B9EFF311812022C6
:10C4380082F31288BFF36F8F1A7B22F002021A73FD
:10C44800EFF3148323F0040383F31488BFF36F8F8F
:10C4580081F31188BFF36F8F70476FF01500704735
:10C4680020FF00200E4615460023E1EE103AEFF3B8
:10C47800148323F0040383F31488BFF36F8FBFF38F
:10C488006F8F0C4BD0F8842098600B4B1A60436F69
:10C4980083F30B882C4686F309884FF00000074B7E
:10C4A800984720464FF000014FF000024FF000037C
:10C4B800034C204720FF00203CEC0020193D0300DE
:10C4C80045AA01001022014B1A61704700ED00E0F7
:10C4D800002320210348C2180133412B82F800139E
:10C4E800F9D1704700E100E008B5EFF30583064A8B
:10C4F800103B02EBC30152F8330049688847BDE896
:10C508000840FFF70DBC00BFD4B103001FB5094CAC
:10C51800094A23460121094800F0FAF80023039349
:10C52800074B0121E41A01A80193029400F00AF9CB
:10C5380004B010BD0000042080C50020D8B7030057
:10C5480088CF002010B50C7A0B6804F01F0223F086
:10C558001F031A43CB68640923F01F03054943EA04
:10C56800440343F00103C1F89800C1F89C20C1F8C6
:10C57800A03010BD00ED00E010B5074BD3F89030A7
:10C58800C3F30723013B984202D8FFF7DBFF10BD36
:10C598006FF01500FBE700BF00ED00E02DE9F04F5C
:10C5A8000F46144606464FF000084D4D85B0B84575
:10C5B80080F29280D6F80490B9F1000F36D0B9F124
:10C5C8001F0F40F2878019F01F0F40F08380D6F8C4
:10C5D80000A01AF01F0F7DD1504617F0BCFB834610
:10C5E80009EB0A00013817F0B6FB834572D11BF13D
:10C5F800160F6FD05C456DDDC5F898B0D5F89C1066
:10C60800C5F898B0D5F8A03021F01F0143F01F0AF3
:10C61800D6E900321A44994202F1FF391ED1CA45BF
:10C6280008D131465FFA8BF017F09EFB08F101083C
:10C638000C36BCE73146C5F898B0D5F89C3022F0E6
:10C648001F0203F01F031343C5F89C30E0B217F034
:10C658008BFB10F1160F3DD0441CE7E7C5F898B0E6
:10C66800D5F8A020013B23F01F0302F01F0213435B
:10C67800CA453146E0B2C5F8A030E8D017F074FBDF
:10C6880010F1160F26D0C5F898B0D5F89C209DF863
:10C6980008300AF1FF3A62F304038DF80830D5F840
:10C6A800A0309DF808205B0863F347128DF8082036
:10C6B800D6E900321344009323F01F035344A3EB3D
:10C6C8000903013023F01F036946C0B20393FFF743
:10C6D80053FFBEE76FF01504204605B0BDE8F08FA4
:10C6E80000ED00E00522044BC3F89420BFF34F8F00
:10C6F800BFF36F8F704700BF00ED00E0BFF35F8F9F
:10C708000022024BC3F89420704700BF00ED00E000
:10C7180010B5094C2278FFF741FF207016300AD176
:10C728000649074840F2671216F0CEFA40F2671140
:10C73800024816F0C0FA10BDA4FF002077C4030019
:10C74800D3C203002DE9F74F2E4D8A4606464FF017
:10C758000008AB462C4FD04502DB03B0BDE8F08F94
:10C76800D6F80490B9F1000F47D031680846019116
:10C7780017F0F1FA0199044609EB0100013817F0A6
:10C78800EAFA84424FF01402204B10D002FB08F35F
:10C798006FF015024BF803201D491E4840F277122E
:10C7A80016F092FA40F27711194816F084FA14F14B
:10C7B800160F2C60F0D01978A142EDDD02FB08B00D
:10C7C800C7F89840C7F89840D7F89C4000F108018E
:10C7D800007B64F304000871D7F8A0000C794008C6
:10C7E80060F347140C71D7F89C1021F01F016960A1
:10C7F800D7F8A01021F01F01296108F101081435AC
:10C808000C36A8E740EC002000ED00E0A4FF002073
:10C8180077C40300D3C203002DE9F0414E494F4CC1
:10C82800D1F890302568C3F307239D4286B00AD912
:10C838004B494FF4CF724B4816F046FA4FF4CF717C
:10C84800474816F038FA0020FFF758FF464BC1F862
:10C85800C03085421AD1454C01A82570FEF7CCFCA2
:10C86800002506464FF04108414FAE4215D1002041
:10C8780023783949D1F89020C2F30722934265DB27
:10C888000020FFF72FFF06B0BDE8F081616801EBDB
:10C898000011FFF757FE0130DBE7019A290102EB8F
:10C8A8000513D3F80CC00CEA0700B0F5001F23D01D
:10C8B800B0F5800F38D0B0F5801F45D15868525870
:10C8C8009B68CDE902022122013B20F01F010B44A5
:10C8D80023F01F038DF810200593207802A9FFF795
:10C8E8004BFE00282DDA1E494FF4E4721D4816F05D
:10C8F800EBF94FF4E471A3E758689B685258013B81
:10C9080020F01F010B4423F01F031CF0010FCDE999
:10C9180002028DF810800593DFD011496C2211486E
:10C9280016F0D2F96C218BE758689B685258013B86
:10C9380020F01F010B44CDE9020223F01F0302225D
:10C94800C8E723780133237001358EE7C1F89830A2
:10C95800C1F8A00001338DE700ED00E0E4B7030063
:10C9680077C40300D3C20300AAFF4400A4FF002039
:10C978000000F0FF08B50649064821F00701C1F19B
:10C98800005202F58022FDF7B5FF002008BD00BF68
:10C9980087E1012054EC002008B54FF0FF324FF03A
:10C9A800FF33074810F07CFE40B1064906488D2247
:10C9B80016F08AF98D21034816F07DF908BD00BFED
:10C9C800B0C80020B5C40300D3C20300014810F06A
:10C9D8001DBF00BFB0C8002038B50546FFF7DCFF13
:10C9E8002A4608210748FDF749FE044628B925B11B
:10C9F8001EF0AAFA0C22044B1A50FFF7E7FF204654
:10CA080038BD00BF54EC00200C00000038B50446C7
:10CA18000D46FFF7C1FF21462B4608220748FDF7C0
:10CA2800B1FE044628B925B11EF08EFA0C22044B3B
:10CA38001A50FFF7CBFF204638BD00BF54EC00204A
:10CA48000C00000010B50446FFF7A6FF2146034876
:10CA5800FDF7DAFDBDE81040FFF7B8BF54EC002041
:10CA6800012838B50C4609D0042834D10023002207
:10CA7800C1E9002300238B60002038BDEFF3118546
:10CA8800202383F31288BFF36F8F174812F0FAFD43
:10CA980040B916498822164816F016F98821134815
:10CAA80016F009F9104812F011FE124B0FCB84E86A
:10CAB8000F000D4812F0F4FD40B90C4940F2311254
:10CAC8000B4816F001F940F23111E8E785F31188B7
:10CAD800BFF36F8FD0E71EF037FA1622064B1A50B5
:10CAE8004FF0FF30C9E700BF60EC002010C303001F
:10CAF800D3C20300E8D200200C00000001287FB553
:10CB08000C4623D0042825D100230022CDE9002398
:10CB1800002302931DF0E8FC174DC30BC0F30E0071
:10CB2800A0FB0506009A43EA41439A18019B43EB90
:10CB3800D131C30B029843EA464318440F4BC4E96A
:10CB480000219842A0600ED800200AE06946FFF74D
:10CB580087FFDFE71EF0F8F91622094B1A504FF04D
:10CB6800FF3004B070BD013241F10001401BC4E93F
:10CB78000021A060E8E700BF00CA9A3BFFC99A3BC2
:10CB88000C00000038B500250F4C20461DF099FB1D
:10CB980040B10E49CD220E4816F096F8CD210B482B
:10CBA80016F089F804F114001DF03EFC30B1074975
:10CBB800CF22074816F088F8CF21F0E70135052D78
:10CBC80004F12404E1D138BD64EC0020EFC4030073
:10CBD800D3C2030038B50024094D28461DF024FCB3
:10CBE80040B108490848DB2216F06EF8DB210548F9
:10CBF80016F061F80134052C05F10805EDD138BDB2
:10CC080018ED00201EC50300D3C2030038B5002468
:10CC18000A4D28461DF055FB50B1094909484FF403
:10CC2800C37216F051F84FF4C371054816F043F873
:10CC38000134052C05F11405EBD138BD40ED002079
:10CC48004AC50300D3C20300002230B51546094B7C
:10CC580009494C68013203F1E000052AC3E9381498
:10CC6800206003F5887303F8085C4860F1D1002060
:10CC780030BD00BFF8D20020C4C800200122024BFA
:10CC88000020C3F8402570470090034020B1034BB3
:10CC9800800143F001031847704700BF00B5030047
:10CCA800F7B506460D461446194F38461DF0B1FA39
:10CCB80040B918491848142216F006F814211548E6
:10CCC80015F0F9FFAAB2BB681B683BB913491248B3
:10CCD8005B2215F0F9FF5B211048F1E73146384631
:10CCE8009847002802DB002003B0F0BD002CFBD1E0
:10CCF800AC42F8D22F1B042F28BF04271AF09CFD42
:10CD08003A46019001A930191DF0E2FF3C44EFE7D3
:10CD1800B4B0030077C50300D3C20300B0C5030055
:10CD280070B541690446867A0A4D59B1437ADB07E2
:10CD380006D4342303FB0653DB6A1B689B689847B9
:10CD4800002363613420214606FB0050BDE8704093
:10CD58001DF0E2BA90CE00203421827A064B01FB06
:10CD680002331A6B93F82430801A1B3323F0030321
:10CD7800B0FBF3F0704700BF90CE002038B53424E4
:10CD8800827A064B04FB0233DB6AD3E901240C6088
:10CD98001568FFF7E1FF04FB005038BD90CE002076
:10CDA8002DE9F04F054685B068461446984603912C
:10CDB8001DF09CFBDDE900673DB95B49EE225B484D
:10CDC80015F082FFEE21584813E005F11C09EFF336
:10CDD800118A202383F31288BFF36F8F484612F01D
:10CDE80051FC40B952498822504815F06DFF8821FE
:10CDF8004F4815F060FF484612F068FCB5F822B0BD
:10CE0800BBF1000F56D02B8C5B4533D90022002391
:10CE1800284610F02DFE044660B3484612F040FC48
:10CE280040B9434940F23112404815F04DFF40F2F5
:10CE38003111DDE78AF31188BFF36F8F039D002D51
:10CE480066D032463B4668461DF074FB3421A27A10
:10CE5800384B204601FB0233DB6A03A91B681E68B6
:10CE6800DDE90023B0476061002845D12046FFF77F
:10CE780057FF3CE06C8C4846631E6B8412F010FC34
:10CE88000028CED08AF31188BFF36F8F95F824302D
:10CE98002A8C1B33121B2C6B23F0030302FB034465
:10CEA800244B254AEB1A9B105343A37295F8243060
:10CEB800E372C3E7484612F0F3FB0028B1D08AF3C7
:10CEC8001188BFF36F8F54EA080308D01EF03CF8AE
:10CED8001A4A1B4B12589A4204BF5C46A046224687
:10CEE8004346284610F0C4FD04460028A6D1002475
:10CEF800204605B0BDE8F08F039B9D4209D90A4939
:10CF080040F24B12094815F0DFFE40F24B115AE788
:10CF1800656100230122636022812382039A636989
:10CF28006282E360E4E700BFE4C50300D3C2030004
:10CF380010C3030090CE0020C54EECC408000000CA
:10CF480000EA002070B5044698B13426104D2046FA
:10CF5800037A6468013BDBB203724BB9C360436078
:10CF6800837A06FB03539B6A73B19847002CEED172
:10CF780070BD0849084840F2CB1215F0A5FE40F2F2
:10CF8800CB11044815F097FEFFF7CAFEEEE700BF85
:10CF980090CE0020E4C50300D3C2030008B50346C1
:10CFA80050B9084908484FF4107215F08DFE4FF437
:10CFB8001071044815F07FFE18465B68002BFBD102
:10CFC80008BD00BFE4C50300D3C2030070B50D4619
:10CFD800044650B90E4940F24B220E4815F074FE33
:10CFE80040F24B210A4815F066FE41B908494FF452
:10CFF8001372084815F068FE4FF41371F2E746689B
:10D008001EB10846FFF7CAFF4660656070BD00BFE5
:10D01800E4C50300D3C2030008B503469A88006834
:10D028008A420AD20749084840F2CF1215F04CFE4E
:10D0380040F2CF11034815F03EFE521A01449A807F
:10D04800196008BD08C60300D3C20300F8B5858877
:10D0580003680E4604465F1916F0D7FEB04208D2A0
:10D06800064907483E2215F02FFE3E21034815F0D9
:10D0780022FE3544A5803846F8BD00BF08C6030027
:10D08800D3C2030008B550B9074908484FF4FC72E9
:10D0980015F01AFE4FF4FC71034815F00CFEB0F8B9
:10D0A800A000C0F3410008BD33C60300D3C203008B
:10D0B80008B550B9074908484FF4127215F004FE34
:10D0C8004FF41271034815F0F6FDB0F8A000C0F354
:10D0D800811008BD33C60300D3C2030008B550B998
:10D0E8000749084840F21D2215F0EEFD40F21D21C7
:10D0F800034815F0E0FDB0F8A000C0F3C20008BD79
:10D1080033C60300D3C20300F7B507460E461446DC
:10D11800FDF70EFD051E18DB3CB97B1E012B04D85C
:10D12800022E17D0012E08BF0624F1B201ABA2B21D
:10D13800B8B203F069FE061E0EDA284615F0B9FDEE
:10D148001DF002FF0F4B76421E504FF0FF35284668
:10D1580003B0F0BD1124E8E7002301984360C366DB
:10D1680070301DF0C1F801988C301DF05DF9062C67
:10D1780002D1019817F084FF2846034A0199FDF768
:10D1880015FDE4E70C00000018B8030037B5069D4C
:10D198000446E3B90093002200230E4904F006FB7D
:10D1A80004F170001DF0A0F804F18C001DF03CF9AA
:10D1B800214605F170001DF0A4F8204617F060FF25
:10D1C80005F18C0003B0BDE8304011F0F9B803B0A8
:10D1D80030BD00BF7D3E03002DE9F7430C46DDE975
:10D1E8000A9858EA090107464D460C9E13D014F1D7
:10D1F800690F02D014F10B0F0DD168461DF09AF992
:10D20800DDE9002313430ED114F1690F0CBF6FF051
:10D218000B046FF068041DF097FE244B64421C5009
:10D228004FF0FF3037E0B8F1FF3F08BFB9F1FF3FDB
:10D238000DD04FF47A71A5FB013201FB0822DB0BFC
:10D2480043EA424332689A4294BF32603360D7F867
:10D25800940008B116F00CFE14F1690F35680ED170
:10D268004FF4004440F2E73000214FF47A72002373
:10D27800E5FB0401FBF7B8FC12F014F801E00B34ED
:10D28800EED033685B00642B28BF64233360D7F883
:10D29800940018B9002003B0BDE8F0834FF0FF32C6
:10D2A8004FF0FF3316F0E2FDF4E700BF0C0000007A
:10D2B80038B505460C4609B1142A07D016231DF0C7
:10D2C80043FE104A13504FF0FF3038BD03F02AFADE
:10D2D8001022014620461DF00DFA0028EED02069E4
:10D2E80001F06EFD30B995F9A200002804DC01F0C8
:10D2F80079FD20B18623E2E701F062FDF9E7022318
:10D30800DDE700BF0C00000010B5044609B10C2A87
:10D3180007D016231DF018FE0E4A13504FF0FF30A9
:10D3280010BD0B68002BF4D0886860B101F048FD8F
:10D3380038B994F9A200002809DC01F053FD00284F
:10D34800E7D05823E6E7081D17F09CFBEEE701F04D
:10D3580037FDF4E70C00000038B540F20314A14291
:10D3680003465AD0B1F5827F0ED2042921D0B1F5F7
:10D37800817F29D0032917D01DF0E6FD5F22464B97
:10D388001A504FF0FF3013E045F21B44A14273D00E
:10D3980045F2214081426AD040F205108142EBD12A
:10D3A8001268C3F894200DE0C06EC0F340008003FB
:10D3B80038BDC16E126821F00201520448BF41F025
:10D3C8000201C1660020F3E79468D2E9000182886F
:10D3D800D50718D50A6894425BD0042503F1700478
:10D3E80014610A68547B65F3050454730A68947BD6
:10D3F8006FF3451494730A68D4686FF39434D46057
:10D408000A6814320A608288520703D4DB6E13F06C
:10D41800050FD7D06FF07700CAE711688888C5076D
:10D428000FD552681068C06810F4FE1F02D1D86E7C
:10D43800C40703D5C88840F00100C88010681430BC
:10D4480010608A88500742BFCA8842F00402CA8026
:10D45800DA6E520742BFCA8842F00802CA80DB6E01
:10D46800DB07AFD5CB8843F01003CB80AAE7DA6E91
:10D4780042F00202DA66A5E70023146819461A4644
:10D4880016F057FD6FF00043984294BF2060236068
:10D4980098E76FF00B008BE70C0000002DE9F041D6
:10D4A80005460E461746194CDFF87080444523D9C7
:10D4B8001749DB22174815F007FCDB210BE023682E
:10D4C800AB4200D0B3B9A36843B91149E32211486C
:10D4D80015F0FAFBE3210E4815F0EDFB3A4631460C
:10D4E8002846984730B13A4631462846E368BDE8B1
:10D4F800F04118471034D9E7E1D31DF025FD6A2221
:10D50800054B1A504FF0FF30BDE8F081A0B403007E
:10D5180067C60300D3C203000C000000C0B40300B8
:10D5280013B50446FFF7AEFD002103284FF00002B3
:10D538004FF000032046009118D104F0F3F80423BB
:10D548006360E36E204643F00403E36616F0D3FC01
:10D55800204603F017FD031E0BDA1DF0F5FC064A02
:10D568005B4213504FF0FF3002B010BD04F01EF9BB
:10D57800E5E70020F8E700BF0C00000037B5694672
:10D5880001AA0546FDF7BAFA044648B91DF0DCFCC5
:10D5980009224FF0FF340C4B1A50204603B030BD1F
:10D5A8004FF0FF3201984FF0FF3316F05FFC009BFD
:10D5B80020469B6898470446019816F059FC28466F
:10D5C80015F077FBE9E700BF0C00000037B505460A
:10D5D8000C4619BBFFF756FD03284FF000024FF029
:10D5E80000032146284600940DD104F09BF8031E41
:10D5F8000CDA1DF0A9FC0E4A5B4213504FF0FF34C1
:10D60800204603B030BD04F0D1F8F0E7EB6E2846B1
:10D6180043F00103EB6616F06EFCF1E74C1E1DF0BB
:10D6280093FC012C94BF86221622014B1A50E5E781
:10D638000C00000013B5044603F0D8FC031E07DAFB
:10D648001DF082FC0C4A5B4213504FF0FF3005E09E
:10D658002046FFF72DFD022802D0002002B010BDA1
:10D6680063680022009320460023044904F09EF8D2
:10D67800031EF2DAE4E700BF0C0000007D3E030061
:10D688002DE9F04385B004460E461746FFF7FAFC2D
:10D69800022842D00128E56E13D16B0707D56368CD
:10D6A800002B3ADD1DF050FC274A135004E01DF012
:10D6B8004BFC7822244B1A504FF0FF3005B0BDE8E0
:10D6C800F08315F00205204619BF4FF000084FF00F
:10D6D80000094FF4C0384FF0000918BF1B4DFFF781
:10D6E800E7FC012863681AD1009300220023204632
:10D6F800174904F05BF8031E03DA1DF025FC5B42B2
:10D70800D2E763683A46029331462B462046CDE974
:10D71800008903F03FFF031EEFDB0020CEE70293F2
:10D728003A462B4631462046CDE9008903F032FFC0
:10D73800031EE2DB636800220093204600230449AD
:10D7480004F034F8E7E700BF0C000000633E030074
:10D758007D3E030073B50D461646694601AAFDF7DE
:10D76800CDF90446B0B1009B9B69DBB14FF0FF32A5
:10D778004FF0FF33019816F079FB009B20463246A4
:10D7880029469B6998470446019816F071FB204684
:10D7980002B070BD09231DF0D7FB034A4FF0FF34D8
:10D7A8001350F4E75F23F6E70C00000013B50446B6
:10D7B80003F0F4FC031E08DA1DF0C6FB084A5B42BE
:10D7C80013504FF0FF3002B010BD00230022204656
:10D7D8000449009403F0A6FF031EEDDB0020F2E7E6
:10D7E8000C00000095D101002DE9F04F16464FF0CE
:10D7F800FF384FF0FF390A228FB05B0604460D460A
:10D80800CDE90C89189F0B9203D4C36E13F0020361
:10D818004BD000220023CDE90C2308A81CF066FE9B
:10D82800DDE90C23DDE9088908A81CF05FFEDDE9C5
:10D838000823CDE9062363680022009320460023CD
:10D84800284903F0B3FF031E37DB4FF0000A0DF140
:10D858002C0B6168DDE90C23002F38D0CDE90223B9
:10D86800199B0491009332463B4629462046CDF841
:10D8780004A017F0CCFC002826DADDE90C230146C9
:10D88800CDE90023204642464B46CDF808B0FFF7C5
:10D89800A3FC002818DBDDE9062308A81CF04AFED3
:10D8A800DDE90823CDE90C23D3E70CAA052104F010
:10D8B800D3F84FF4A0220023AFE71DF045FB0A4A36
:10D8C8005B4213504FF0FF300FB0BDE8F08FCDE949
:10D8D800002302913B4632462946204617F03DFC7C
:10D8E800C9E700BF7D3E03000C0000002DE9FF41A1
:10D8F8000D46164602A903AA1F46FDF7FFF804467F
:10D90800E8B1029B5B6A13B34FF0FF324FF0FF336D
:10D91800039816F0ABFA0B9B204601930A9B3246FC
:10D928000093029B2946D3F824803B46C04704460F
:10D93800039816F09DFA204604B0BDE8F08109234B
:10D948001DF002FB034A4FF0FF341350F3E75F2347
:10D95800F6E700BF0C0000002DE9F34107468846B2
:10D968001646FDF7E5F8051E16DBFB6E980719D479
:10D978004FF0FF324FF0FF3369463846CDE90023B8
:10D9880016F0C3FB041E0DDA284615F092F91DF0B7
:10D99800DBFA384B64421C504FF0FF35284602B082
:10D9A800BDE8F0810022002307F1700010F060F854
:10D9B800044640B9284615F07CF91DF0C5FA0B223B
:10D9C8002C4B1A50E8E770301CF0B4FCA8B190F862
:10D9D8003330990711D5E36E284643F00103E36617
:10D9E80015F067F9204616F086FA204603F0CAFAC1
:10D9F8001DF0AAFA71221F4BE3E7B4F8A0305A05CC
:10DA08000ED51DF0A1FA71221A4B1A50284615F0AE
:10DA180050F9204616F06FFA204603F0B3FABBE738
:10DA280023F40073A4F8A030B8F1000F0ED06EB143
:10DA380032684046182A28BF182204F12C011DF02C
:10DA480047F9A38D012B07D10823336021462846C7
:10DA5800094AFDF7ABF8A1E7022B01D11823F4E737
:10DA6800284615F026F91DF06FFA8622014B1A5048
:10DA7800CFE700BF0C00000018B803002DE9F04FF5
:10DA88008FB0029200934FF0FF32DDE9196A4FF030
:10DA9800FF33CDE90423189B07465C060D4603D4E3
:10DAA800C36E13F002032FD000220023CDE9042314
:10DAB800DDE90489189B07F1700413F00203019350
:10DAC80036D01022002109A81DF029F904230D944D
